{
  "contractName": "Bet2Peer",
  "abi": [
    {
      "inputs": [
        {
          "internalType": "address",
          "name": "_originalGambler",
          "type": "address"
        },
        {
          "internalType": "uint256",
          "name": "_matchId",
          "type": "uint256"
        },
        {
          "internalType": "uint8",
          "name": "_result",
          "type": "uint8"
        },
        {
          "internalType": "uint256",
          "name": "_originalBet",
          "type": "uint256"
        },
        {
          "internalType": "uint256",
          "name": "_minimumCounterBet",
          "type": "uint256"
        },
        {
          "internalType": "address",
          "name": "_fatherAddress",
          "type": "address"
        }
      ],
      "stateMutability": "nonpayable",
      "type": "constructor"
    },
    {
      "anonymous": false,
      "inputs": [
        {
          "indexed": true,
          "internalType": "address",
          "name": "previousOwner",
          "type": "address"
        },
        {
          "indexed": true,
          "internalType": "address",
          "name": "newOwner",
          "type": "address"
        }
      ],
      "name": "OwnershipTransferred",
      "type": "event"
    },
    {
      "anonymous": false,
      "inputs": [
        {
          "indexed": false,
          "internalType": "string",
          "name": "_message",
          "type": "string"
        }
      ],
      "name": "Status",
      "type": "event"
    },
    {
      "anonymous": false,
      "inputs": [
        {
          "indexed": false,
          "internalType": "string",
          "name": "betAccepted",
          "type": "string"
        }
      ],
      "name": "betAccepted",
      "type": "event"
    },
    {
      "anonymous": false,
      "inputs": [
        {
          "indexed": false,
          "internalType": "string",
          "name": "betCreated",
          "type": "string"
        }
      ],
      "name": "betCreated",
      "type": "event"
    },
    {
      "inputs": [
        {
          "internalType": "address",
          "name": "",
          "type": "address"
        }
      ],
      "name": "contractInfo",
      "outputs": [
        {
          "internalType": "address",
          "name": "originalOwner",
          "type": "address"
        },
        {
          "internalType": "address",
          "name": "counterGambler",
          "type": "address"
        },
        {
          "internalType": "uint256",
          "name": "currentMatch",
          "type": "uint256"
        },
        {
          "internalType": "uint8",
          "name": "result",
          "type": "uint8"
        },
        {
          "internalType": "uint256",
          "name": "origibalBet",
          "type": "uint256"
        },
        {
          "internalType": "uint256",
          "name": "minimumCounterBet",
          "type": "uint256"
        }
      ],
      "stateMutability": "view",
      "type": "function"
    },
    {
      "inputs": [],
      "name": "currentMatch",
      "outputs": [
        {
          "internalType": "uint256",
          "name": "",
          "type": "uint256"
        }
      ],
      "stateMutability": "view",
      "type": "function"
    },
    {
      "inputs": [],
      "name": "owner",
      "outputs": [
        {
          "internalType": "address",
          "name": "",
          "type": "address"
        }
      ],
      "stateMutability": "view",
      "type": "function"
    },
    {
      "inputs": [],
      "name": "renounceOwnership",
      "outputs": [],
      "stateMutability": "nonpayable",
      "type": "function"
    },
    {
      "inputs": [
        {
          "internalType": "address",
          "name": "newOwner",
          "type": "address"
        }
      ],
      "name": "transferOwnership",
      "outputs": [],
      "stateMutability": "nonpayable",
      "type": "function"
    },
    {
      "stateMutability": "payable",
      "type": "receive"
    },
    {
      "inputs": [],
      "name": "acceptBet",
      "outputs": [],
      "stateMutability": "payable",
      "type": "function"
    },
    {
      "inputs": [],
      "name": "resolveBet",
      "outputs": [],
      "stateMutability": "payable",
      "type": "function"
    },
    {
      "inputs": [
        {
          "internalType": "address",
          "name": "_originalOwner",
          "type": "address"
        }
      ],
      "name": "removeBet",
      "outputs": [
        {
          "internalType": "bool",
          "name": "",
          "type": "bool"
        }
      ],
      "stateMutability": "payable",
      "type": "function"
    },
    {
      "inputs": [],
      "name": "getContractAddress",
      "outputs": [
        {
          "internalType": "address",
          "name": "",
          "type": "address"
        }
      ],
      "stateMutability": "view",
      "type": "function"
    },
    {
      "inputs": [],
      "name": "getContractInfo",
      "outputs": [
        {
          "components": [
            {
              "internalType": "address",
              "name": "originalOwner",
              "type": "address"
            },
            {
              "internalType": "address",
              "name": "counterGambler",
              "type": "address"
            },
            {
              "internalType": "uint256",
              "name": "currentMatch",
              "type": "uint256"
            },
            {
              "internalType": "uint8",
              "name": "result",
              "type": "uint8"
            },
            {
              "internalType": "uint256",
              "name": "origibalBet",
              "type": "uint256"
            },
            {
              "internalType": "uint256",
              "name": "minimumCounterBet",
              "type": "uint256"
            }
          ],
          "internalType": "struct Bet2Peer.contractInformation",
          "name": "",
          "type": "tuple"
        }
      ],
      "stateMutability": "view",
      "type": "function"
    },
    {
      "inputs": [],
      "name": "getMatchId",
      "outputs": [
        {
          "internalType": "uint256",
          "name": "",
          "type": "uint256"
        }
      ],
      "stateMutability": "view",
      "type": "function"
    },
    {
      "inputs": [],
      "name": "getOriginalOwner",
      "outputs": [
        {
          "internalType": "address",
          "name": "",
          "type": "address"
        }
      ],
      "stateMutability": "view",
      "type": "function"
    }
  ],
  "bytecode": "0x60806040523480156200001157600080fd5b50604051620021f6380380620021f6833981810160405281019062000037919062000505565b620000576200004b6200035660201b60201c565b6200035e60201b60201c565b85600360006101000a81548173ffffffffffffffffffffffffffffffffffffffff021916908373ffffffffffffffffffffffffffffffffffffffff1602179055508460028190555083600460146101000a81548160ff021916908360ff160217905550826005819055508160068190555080600760006101000a81548173ffffffffffffffffffffffffffffffffffffffff021916908373ffffffffffffffffffffffffffffffffffffffff1602179055506001600860146101000a81548160ff0219169083151502179055506000600860156101000a81548160ff02191690831515021790555085600160003073ffffffffffffffffffffffffffffffffffffffff1673ffffffffffffffffffffffffffffffffffffffff16815260200190815260200160002060000160006101000a81548173ffffffffffffffffffffffffffffffffffffffff021916908373ffffffffffffffffffffffffffffffffffffffff16021790555084600160003073ffffffffffffffffffffffffffffffffffffffff1673ffffffffffffffffffffffffffffffffffffffff1681526020019081526020016000206002018190555083600160003073ffffffffffffffffffffffffffffffffffffffff1673ffffffffffffffffffffffffffffffffffffffff16815260200190815260200160002060030160006101000a81548160ff021916908360ff16021790555082600160003073ffffffffffffffffffffffffffffffffffffffff1673ffffffffffffffffffffffffffffffffffffffff1681526020019081526020016000206004018190555081600160003073ffffffffffffffffffffffffffffffffffffffff1673ffffffffffffffffffffffffffffffffffffffff168152602001908152602001600020600501819055507f2844c95bf1b4598da931d527f903501abc60fe0199c65da52d5ce818c6c5e9618560405160200162000324919062000671565b6040516020818303038152906040526040516200034291906200074c565b60405180910390a150505050505062000770565b600033905090565b60008060009054906101000a900473ffffffffffffffffffffffffffffffffffffffff169050816000806101000a81548173ffffffffffffffffffffffffffffffffffffffff021916908373ffffffffffffffffffffffffffffffffffffffff1602179055508173ffffffffffffffffffffffffffffffffffffffff168173ffffffffffffffffffffffffffffffffffffffff167f8be0079c531659141344cd1fd0a4f28419497f9722a3daafe3b4186f6b6457e060405160405180910390a35050565b600080fd5b600073ffffffffffffffffffffffffffffffffffffffff82169050919050565b6000620004548262000427565b9050919050565b620004668162000447565b81146200047257600080fd5b50565b60008151905062000486816200045b565b92915050565b6000819050919050565b620004a1816200048c565b8114620004ad57600080fd5b50565b600081519050620004c18162000496565b92915050565b600060ff82169050919050565b620004df81620004c7565b8114620004eb57600080fd5b50565b600081519050620004ff81620004d4565b92915050565b60008060008060008060c0878903121562000525576200052462000422565b5b60006200053589828a0162000475565b96505060206200054889828a01620004b0565b95505060406200055b89828a01620004ee565b94505060606200056e89828a01620004b0565b93505060806200058189828a01620004b0565b92505060a06200059489828a0162000475565b9150509295509295509295565b600081905092915050565b7f5061727469646f20000000000000000000000000000000000000000000000000600082015250565b6000620005e4600883620005a1565b9150620005f182620005ac565b600882019050919050565b6000819050919050565b6200061b62000615826200048c565b620005fc565b82525050565b7f2063726561646f00000000000000000000000000000000000000000000000000600082015250565b600062000659600783620005a1565b9150620006668262000621565b600782019050919050565b60006200067e82620005d5565b91506200068c828462000606565b6020820191506200069d826200064a565b915081905092915050565b600081519050919050565b600082825260208201905092915050565b60005b83811015620006e4578082015181840152602081019050620006c7565b83811115620006f4576000848401525b50505050565b6000601f19601f8301169050919050565b60006200071882620006a8565b620007248185620006b3565b935062000736818560208601620006c4565b6200074181620006fa565b840191505092915050565b600060208201905081810360008301526200076881846200070b565b905092915050565b611a7680620007806000396000f3fe6080604052600436106100ab5760003560e01c80637cc1f867116100645780637cc1f867146101895780638da5cb5b146101b45780638fced626146101df578063ad913633146101e9578063e11eb98d14610214578063f2fde38b14610256576100b2565b806306011b21146100b7578063153dc182146100e75780632c70444e1461011257806330bfcb5f1461013d57806332a2c5d014610147578063715018a614610172576100b2565b366100b257005b600080fd5b6100d160048036038101906100cc919061111f565b61027f565b6040516100de9190611167565b60405180910390f35b3480156100f357600080fd5b506100fc61049c565b604051610109919061119b565b60405180910390f35b34801561011e57600080fd5b506101276104a6565b604051610134919061119b565b60405180910390f35b6101456104ac565b005b34801561015357600080fd5b5061015c6108b0565b60405161016991906111c5565b60405180910390f35b34801561017e57600080fd5b50610187610934565b005b34801561019557600080fd5b5061019e6109bc565b6040516101ab9190611295565b60405180910390f35b3480156101c057600080fd5b506101c9610afa565b6040516101d691906111c5565b60405180910390f35b6101e7610b23565b005b3480156101f557600080fd5b506101fe610de1565b60405161020b91906111c5565b60405180910390f35b34801561022057600080fd5b5061023b6004803603810190610236919061111f565b610e0b565b60405161024d969594939291906112bf565b60405180910390f35b34801561026257600080fd5b5061027d6004803603810190610278919061111f565b610e94565b005b600081600360009054906101000a900473ffffffffffffffffffffffffffffffffffffffff1673ffffffffffffffffffffffffffffffffffffffff168173ffffffffffffffffffffffffffffffffffffffff1614610312576040517f08c379a00000000000000000000000000000000000000000000000000000000081526004016103099061137d565b60405180910390fd5b600860149054906101000a900460ff16610361576040517f08c379a0000000000000000000000000000000000000000000000000000000008152600401610358906113e9565b60405180910390fd5b600860159054906101000a900460ff16156103b1576040517f08c379a00000000000000000000000000000000000000000000000000000000081526004016103a890611455565b60405180910390fd5b600360009054906101000a900473ffffffffffffffffffffffffffffffffffffffff1673ffffffffffffffffffffffffffffffffffffffff166108fc479081150290604051600060405180830381858888f19350505050158015610419573d6000803e3d6000fd5b506000600860146101000a81548160ff0219169083151502179055507f2844c95bf1b4598da931d527f903501abc60fe0199c65da52d5ce818c6c5e96161045e6108b0565b60405160200161046e9190611560565b60405160208183030381529060405260405161048a9190611619565b60405180910390a16001915050919050565b6000600254905090565b60025481565b600860149054906101000a900460ff166104fb576040517f08c379a00000000000000000000000000000000000000000000000000000000081526004016104f2906113e9565b60405180910390fd5b600654341015610540576040517f08c379a000000000000000000000000000000000000000000000000000000000815260040161053790611687565b60405180910390fd5b60001515600860159054906101000a900460ff16151514610596576040517f08c379a000000000000000000000000000000000000000000000000000000000815260040161058d906116f3565b60405180910390fd5b33600460006101000a81548173ffffffffffffffffffffffffffffffffffffffff021916908373ffffffffffffffffffffffffffffffffffffffff160217905550600460009054906101000a900473ffffffffffffffffffffffffffffffffffffffff1673ffffffffffffffffffffffffffffffffffffffff166108fc349081150290604051600060405180830381858888f1935050505015801561063f573d6000803e3d6000fd5b50600460009054906101000a900473ffffffffffffffffffffffffffffffffffffffff16600160003073ffffffffffffffffffffffffffffffffffffffff1673ffffffffffffffffffffffffffffffffffffffff16815260200190815260200160002060010160006101000a81548173ffffffffffffffffffffffffffffffffffffffff021916908373ffffffffffffffffffffffffffffffffffffffff1602179055506001600860156101000a81548160ff021916908315150217905550600760009054906101000a900473ffffffffffffffffffffffffffffffffffffffff16600860006101000a81548173ffffffffffffffffffffffffffffffffffffffff021916908373ffffffffffffffffffffffffffffffffffffffff160217905550600860009054906101000a900473ffffffffffffffffffffffffffffffffffffffff1673ffffffffffffffffffffffffffffffffffffffff1663305fc68d600460009054906101000a900473ffffffffffffffffffffffffffffffffffffffff16306040518363ffffffff1660e01b81526004016107e0929190611772565b600060405180830381600087803b1580156107fa57600080fd5b505af115801561080e573d6000803e3d6000fd5b505050507f2844c95bf1b4598da931d527f903501abc60fe0199c65da52d5ce818c6c5e961600460009054906101000a900473ffffffffffffffffffffffffffffffffffffffff16600360009054906101000a900473ffffffffffffffffffffffffffffffffffffffff1660405160200161088a929190611822565b6040516020818303038152906040526040516108a69190611619565b60405180910390a1565b60006108ba610f8b565b73ffffffffffffffffffffffffffffffffffffffff166108d8610afa565b73ffffffffffffffffffffffffffffffffffffffff161461092e576040517f08c379a0000000000000000000000000000000000000000000000000000000008152600401610925906118a5565b60405180910390fd5b30905090565b61093c610f8b565b73ffffffffffffffffffffffffffffffffffffffff1661095a610afa565b73ffffffffffffffffffffffffffffffffffffffff16146109b0576040517f08c379a00000000000000000000000000000000000000000000000000000000081526004016109a7906118a5565b60405180910390fd5b6109ba6000610f93565b565b6109c4611057565b600160003073ffffffffffffffffffffffffffffffffffffffff1673ffffffffffffffffffffffffffffffffffffffff1681526020019081526020016000206040518060c00160405290816000820160009054906101000a900473ffffffffffffffffffffffffffffffffffffffff1673ffffffffffffffffffffffffffffffffffffffff1673ffffffffffffffffffffffffffffffffffffffff1681526020016001820160009054906101000a900473ffffffffffffffffffffffffffffffffffffffff1673ffffffffffffffffffffffffffffffffffffffff1673ffffffffffffffffffffffffffffffffffffffff168152602001600282015481526020016003820160009054906101000a900460ff1660ff1660ff16815260200160048201548152602001600582015481525050905090565b60008060009054906101000a900473ffffffffffffffffffffffffffffffffffffffff16905090565b33600360009054906101000a900473ffffffffffffffffffffffffffffffffffffffff1673ffffffffffffffffffffffffffffffffffffffff168173ffffffffffffffffffffffffffffffffffffffff161480610bcd5750600460009054906101000a900473ffffffffffffffffffffffffffffffffffffffff1673ffffffffffffffffffffffffffffffffffffffff168173ffffffffffffffffffffffffffffffffffffffff16145b610c0c576040517f08c379a0000000000000000000000000000000000000000000000000000000008152600401610c0390611911565b60405180910390fd5b600860149054906101000a900460ff16610c5b576040517f08c379a0000000000000000000000000000000000000000000000000000000008152600401610c52906113e9565b60405180910390fd5b600860159054906101000a900460ff16610c7457600080fd5b6001600460149054906101000a900460ff1660ff1603610cfc57600360009054906101000a900473ffffffffffffffffffffffffffffffffffffffff1673ffffffffffffffffffffffffffffffffffffffff166108fc479081150290604051600060405180830381858888f19350505050158015610cf6573d6000803e3d6000fd5b50610d66565b600460009054906101000a900473ffffffffffffffffffffffffffffffffffffffff1673ffffffffffffffffffffffffffffffffffffffff166108fc479081150290604051600060405180830381858888f19350505050158015610d64573d6000803e3d6000fd5b505b6000600860146101000a81548160ff0219169083151502179055507f2844c95bf1b4598da931d527f903501abc60fe0199c65da52d5ce818c6c5e961610daa6108b0565b604051602001610dba919061197d565b604051602081830303815290604052604051610dd69190611619565b60405180910390a150565b6000600360009054906101000a900473ffffffffffffffffffffffffffffffffffffffff16905090565b60016020528060005260406000206000915090508060000160009054906101000a900473ffffffffffffffffffffffffffffffffffffffff16908060010160009054906101000a900473ffffffffffffffffffffffffffffffffffffffff16908060020154908060030160009054906101000a900460ff16908060040154908060050154905086565b610e9c610f8b565b73ffffffffffffffffffffffffffffffffffffffff16610eba610afa565b73ffffffffffffffffffffffffffffffffffffffff1614610f10576040517f08c379a0000000000000000000000000000000000000000000000000000000008152600401610f07906118a5565b60405180910390fd5b600073ffffffffffffffffffffffffffffffffffffffff168173ffffffffffffffffffffffffffffffffffffffff1603610f7f576040517f08c379a0000000000000000000000000000000000000000000000000000000008152600401610f7690611a20565b60405180910390fd5b610f8881610f93565b50565b600033905090565b60008060009054906101000a900473ffffffffffffffffffffffffffffffffffffffff169050816000806101000a81548173ffffffffffffffffffffffffffffffffffffffff021916908373ffffffffffffffffffffffffffffffffffffffff1602179055508173ffffffffffffffffffffffffffffffffffffffff168173ffffffffffffffffffffffffffffffffffffffff167f8be0079c531659141344cd1fd0a4f28419497f9722a3daafe3b4186f6b6457e060405160405180910390a35050565b6040518060c00160405280600073ffffffffffffffffffffffffffffffffffffffff168152602001600073ffffffffffffffffffffffffffffffffffffffff16815260200160008152602001600060ff16815260200160008152602001600081525090565b600080fd5b600073ffffffffffffffffffffffffffffffffffffffff82169050919050565b60006110ec826110c1565b9050919050565b6110fc816110e1565b811461110757600080fd5b50565b600081359050611119816110f3565b92915050565b600060208284031215611135576111346110bc565b5b60006111438482850161110a565b91505092915050565b60008115159050919050565b6111618161114c565b82525050565b600060208201905061117c6000830184611158565b92915050565b6000819050919050565b61119581611182565b82525050565b60006020820190506111b0600083018461118c565b92915050565b6111bf816110e1565b82525050565b60006020820190506111da60008301846111b6565b92915050565b6111e9816110e1565b82525050565b6111f881611182565b82525050565b600060ff82169050919050565b611214816111fe565b82525050565b60c08201600082015161123060008501826111e0565b50602082015161124360208501826111e0565b50604082015161125660408501826111ef565b506060820151611269606085018261120b565b50608082015161127c60808501826111ef565b5060a082015161128f60a08501826111ef565b50505050565b600060c0820190506112aa600083018461121a565b92915050565b6112b9816111fe565b82525050565b600060c0820190506112d460008301896111b6565b6112e160208301886111b6565b6112ee604083018761118c565b6112fb60608301866112b0565b611308608083018561118c565b61131560a083018461118c565b979650505050505050565b600082825260208201905092915050565b7f4e6f206572657320656c2063726561646f72206465206c612061707565737461600082015250565b6000611367602083611320565b915061137282611331565b602082019050919050565b600060208201905081810360008301526113968161135a565b9050919050565b7f457374612061707565737461206e6f2065737461206163746976610000000000600082015250565b60006113d3601b83611320565b91506113de8261139d565b602082019050919050565b60006020820190508181036000830152611402816113c6565b9050919050565b7f4c612061707565737461207961206861207369646f2061636570746164610000600082015250565b600061143f601e83611320565b915061144a82611409565b602082019050919050565b6000602082019050818103600083015261146e81611432565b9050919050565b600081905092915050565b7f4170756573746120000000000000000000000000000000000000000000000000600082015250565b60006114b6600883611475565b91506114c182611480565b600882019050919050565b60008160601b9050919050565b60006114e4826114cc565b9050919050565b60006114f6826114d9565b9050919050565b61150e611509826110e1565b6114eb565b82525050565b7f20656c696d696e61646100000000000000000000000000000000000000000000600082015250565b600061154a600a83611475565b915061155582611514565b600a82019050919050565b600061156b826114a9565b915061157782846114fd565b6014820191506115868261153d565b915081905092915050565b600081519050919050565b60005b838110156115ba57808201518184015260208101905061159f565b838111156115c9576000848401525b50505050565b6000601f19601f8301169050919050565b60006115eb82611591565b6115f58185611320565b935061160581856020860161159c565b61160e816115cf565b840191505092915050565b6000602082019050818103600083015261163381846115e0565b905092915050565b7f4170756573746120696e737566696369656e7465000000000000000000000000600082015250565b6000611671601483611320565b915061167c8261163b565b602082019050919050565b600060208201905081810360008301526116a081611664565b9050919050565b7f4170756573746120796120616365707461646100000000000000000000000000600082015250565b60006116dd601383611320565b91506116e8826116a7565b602082019050919050565b6000602082019050818103600083015261170c816116d0565b9050919050565b6000819050919050565b600061173861173361172e846110c1565b611713565b6110c1565b9050919050565b600061174a8261171d565b9050919050565b600061175c8261173f565b9050919050565b61176c81611751565b82525050565b60006040820190506117876000830185611763565b61179460208301846111b6565b9392505050565b60006117a6826110c1565b9050919050565b60006117b8826114d9565b9050919050565b6117d06117cb8261179b565b6117ad565b82525050565b7f20686120616365707461646f206c612061707565737461206465200000000000600082015250565b600061180c601b83611475565b9150611817826117d6565b601b82019050919050565b600061182e82856117bf565b60148201915061183d826117ff565b915061184982846117bf565b6014820191508190509392505050565b7f4f776e61626c653a2063616c6c6572206973206e6f7420746865206f776e6572600082015250565b600061188f602083611320565b915061189a82611859565b602082019050919050565b600060208201905081810360008301526118be81611882565b9050919050565b7f4e6f207061727469636970617320656e20657374612061707565737461000000600082015250565b60006118fb601d83611320565b9150611906826118c5565b602082019050919050565b6000602082019050818103600083015261192a816118ee565b9050919050565b7f2072657375656c74610000000000000000000000000000000000000000000000600082015250565b6000611967600983611475565b915061197282611931565b600982019050919050565b6000611988826114a9565b915061199482846114fd565b6014820191506119a38261195a565b915081905092915050565b7f4f776e61626c653a206e6577206f776e657220697320746865207a65726f206160008201527f6464726573730000000000000000000000000000000000000000000000000000602082015250565b6000611a0a602683611320565b9150611a15826119ae565b604082019050919050565b60006020820190508181036000830152611a39816119fd565b905091905056fea264697066735822122084c0055d60ce66595ae7d1717c1e75b9ff3a00e2031334c4bdce802695fcd3e964736f6c634300080e0033",
  "immutableReferences": {},
  "source": "/**\r\n *Submitted for verification at Etherscan.io on 2022-04-22\r\n */\r\n\r\n// Version de solidity del Smart Contract\r\n// SPDX-License-Identifier: UNLICENSED\r\n\r\npragma solidity 0.8.14;\r\nimport \"./Father.sol\";\r\nimport \"../client/node_modules/@openzeppelin/contracts/access/Ownable.sol\";\r\n\r\n\r\n// Informacion del Smart Contract\r\n// Nombre: Subasta\r\n// Logica: Implementa subasta de productos entre varios participantes\r\n\r\n// Declaracion del Smart Contract - Auction\r\ncontract Bet2Peer is Ownable {\r\n\r\n    // ----------- Variables (datos) -----------\r\n    enum resultType {\r\n        draw,\r\n        localWin,\r\n        visitorWin\r\n    }\r\n    struct contractInformation {\r\n        address originalOwner;\r\n        address counterGambler;\r\n        uint256 currentMatch;\r\n        uint8 result;\r\n        uint256 origibalBet;\r\n        uint256 minimumCounterBet;\r\n    }\r\n    mapping (address => contractInformation) public contractInfo;\r\n    uint256 public currentMatch;\r\n    address payable originalOwner;\r\n    address payable counterGambler;\r\n    uint8 result;\r\n    uint256 origibalBet;\r\n    uint256 minimumCounterBet;\r\n    address fatherAddress;\r\n    Father fatherContract;\r\n\r\n    bool activeBet;\r\n    bool isAccepted;\r\n\r\n    // ----------- Events -----------\r\n    event Status(string _message);\r\n    event betCreated (\r\n        string betCreated\r\n    );\r\n    event betAccepted (\r\n        string betAccepted\r\n    );\r\n\r\n    // ------------Modifiers ----------\r\n    modifier isParticipant(address sender) {\r\n        require(\r\n            sender == originalOwner || \r\n            sender == counterGambler,\r\n            \"No participas en esta apuesta\"\r\n        );\r\n        _;\r\n    }\r\n    modifier isOriginalOwner(address sender) {\r\n        require(\r\n            sender == originalOwner,\r\n            \"No eres el creador de la apuesta\"\r\n        );\r\n        _;\r\n    }\r\n    modifier contractActive() {\r\n        require(\r\n            activeBet, \r\n            \"Esta apuesta no esta activa\"\r\n            );\r\n        _;\r\n    }\r\n\r\n    // ----------- Constructor -----------\r\n    /**\r\n    _originalGambler: usuario que crea la apuesta\r\n    _matchId: id del partido de la apuesta\r\n    _result: resultado al que se apuesta\r\n    _originalBet: cantidad apostada\r\n    _minimumCounterBet: cantidad a percibir en caso de ganar\r\n    _fatherAddress: direccin del contrato padre\r\n     */\r\n    constructor(address _originalGambler, uint256 _matchId, uint8 _result, uint256 _originalBet, uint256 _minimumCounterBet, address _fatherAddress) {\r\n        originalOwner = payable(_originalGambler); //\r\n        currentMatch = _matchId; //\r\n        result = _result; //\r\n        origibalBet = _originalBet; //\r\n        minimumCounterBet = _minimumCounterBet; //\r\n        fatherAddress = _fatherAddress;\r\n        activeBet = true;\r\n        isAccepted = false;\r\n        //Relleno el struct con toda la info del contrato\r\n        contractInfo[address(this)].originalOwner = _originalGambler;\r\n        contractInfo[address(this)].currentMatch = _matchId;\r\n        contractInfo[address(this)].result = _result;\r\n        contractInfo[address(this)].origibalBet = _originalBet;\r\n        contractInfo[address(this)].minimumCounterBet = _minimumCounterBet;\r\n        \r\n        // Se emite un Evento\r\n        emit Status(string(abi.encodePacked(\"Partido \", _matchId, \" creado\")));\r\n    }\r\n\r\n    // -------------------Functions ------------------\r\n\r\n    /**\r\n    Funcin para recibir los fondos desde el contrato padre\r\n     */\r\n    receive() external payable {}\r\n\r\n    /**\r\n    Funcin para aceptar la apuesta de otro usuario\r\n     */\r\n    function acceptBet() public payable \r\n        contractActive\r\n    {\r\n        require(msg.value >= minimumCounterBet, \"Apuesta insuficiente\");\r\n        require(isAccepted == false, \"Apuesta ya aceptada\");\r\n        counterGambler = payable(msg.sender);\r\n        counterGambler.transfer(msg.value);\r\n        contractInfo[address(this)].counterGambler = counterGambler;\r\n        isAccepted = true;\r\n        \r\n        fatherContract = Father(address(fatherAddress));\r\n        fatherContract.addBetToCounterGambler(counterGambler, address(this));\r\n\r\n        emit Status(string(abi.encodePacked(counterGambler, \" ha aceptado la apuesta de \", originalOwner)));\r\n    }\r\n\r\n    /**\r\n    Funcin para resulver una apuesta y repartir las ganancias\r\n     */\r\n    function resolveBet() public payable \r\n        isParticipant(msg.sender)\r\n        contractActive \r\n    {\r\n        require(isAccepted);\r\n        //TODO\r\n        //Hacemos la llamada a ChainLink\r\n        //comparamos result con el valor de ChainLink\r\n        if(result == 1 /*resultado de ChainLink*/) {\r\n            //transferimos las ganancias al originalOwner\r\n            originalOwner.transfer(address(this).balance);\r\n        }\r\n        else {\r\n            //transferimos las ganancias al counterGambler\r\n            counterGambler.transfer(address(this).balance);\r\n        }\r\n        //desactivamos le contrato\r\n        activeBet = false;\r\n        //Emitimos el estatus\r\n        emit Status(string(abi.encodePacked(\"Apuesta \", getContractAddress(), \" resuelta\")));\r\n    }\r\n\r\n    /**\r\n    Funcin que elimina la apuesta en caso de no estar aceptada\r\n    Returns: true si la apuesta se elimina correctamente\r\n     */\r\n    function removeBet(address _originalOwner) public payable \r\n        isOriginalOwner(_originalOwner)\r\n        contractActive\r\n        returns (bool)\r\n    {\r\n        require(!isAccepted, \"La apuesta ya ha sido aceptada\");\r\n        originalOwner.transfer(address(this).balance);\r\n        activeBet = false;\r\n        //Emitimos el estatus\r\n        emit Status(string(abi.encodePacked(\"Apuesta \", getContractAddress(), \" eliminada\")));\r\n        return true;\r\n    }\r\n\r\n    /**\r\n    Funcin que devuelve la direccin del contrato\r\n     */\r\n    function getContractAddress() onlyOwner public view returns (address)  {\r\n        return address(this);\r\n    }\r\n\r\n    /**\r\n    Funcin que devuelve informacin del contrato\r\n     */\r\n    function getContractInfo() public view returns(contractInformation memory){\r\n        return contractInfo[address(this)];\r\n    }\r\n\r\n    /**\r\n    Funcin que devuelve el id del partido\r\n     */\r\n    function getMatchId() public view returns(uint256){\r\n        return currentMatch;\r\n    }\r\n\r\n    /**\r\n    Funcin que devuelve la direccin del creador de la apuesta\r\n     */\r\n    function getOriginalOwner() public view returns(address) {\r\n        return originalOwner;\r\n    }\r\n   \r\n}\r\n",
  "sourcePath": "C:\\Desarrollo\\Master Blokchain\\bet2peer\\contracts\\Bet2Peer.sol",
  "compiler": {
    "name": "solc",
    "version": "0.8.14+commit.80d49f37.Emscripten.clang"
  },
  "schemaVersion": "3.4.7",
  "updatedAt": "2022-06-25T07:04:01.454Z",
  "networkType": "ethereum",
  "devdoc": {
    "kind": "dev",
    "methods": {
      "owner()": {
        "details": "Returns the address of the current owner."
      },
      "renounceOwnership()": {
        "details": "Leaves the contract without owner. It will not be possible to call `onlyOwner` functions anymore. Can only be called by the current owner. NOTE: Renouncing ownership will leave the contract without an owner, thereby removing any functionality that is only available to the owner."
      },
      "transferOwnership(address)": {
        "details": "Transfers ownership of the contract to a new account (`newOwner`). Can only be called by the current owner."
      }
    },
    "version": 1
  },
  "userdoc": {
    "kind": "user",
    "methods": {
      "acceptBet()": {
        "notice": "Funcin para aceptar la apuesta de otro usuario"
      },
      "constructor": {
        "notice": "_originalGambler: usuario que crea la apuesta _matchId: id del partido de la apuesta _result: resultado al que se apuesta _originalBet: cantidad apostada _minimumCounterBet: cantidad a percibir en caso de ganar _fatherAddress: direccin del contrato padre"
      },
      "getContractAddress()": {
        "notice": "Funcin que devuelve la direccin del contrato"
      },
      "getContractInfo()": {
        "notice": "Funcin que devuelve informacin del contrato"
      },
      "getMatchId()": {
        "notice": "Funcin que devuelve el id del partido"
      },
      "getOriginalOwner()": {
        "notice": "Funcin que devuelve la direccin del creador de la apuesta"
      },
      "removeBet(address)": {
        "notice": "Funcin que elimina la apuesta en caso de no estar aceptada Returns: true si la apuesta se elimina correctamente"
      },
      "resolveBet()": {
        "notice": "Funcin para resulver una apuesta y repartir las ganancias"
      }
    },
    "version": 1
  }
}