{
  "contractName": "Bet2Peer",
  "abi": [
    {
      "inputs": [
        {
          "internalType": "string",
          "name": "newMatch",
          "type": "string"
        }
      ],
      "stateMutability": "nonpayable",
      "type": "constructor"
    },
    {
      "anonymous": false,
      "inputs": [
        {
          "indexed": false,
          "internalType": "string",
          "name": "_message",
          "type": "string"
        }
      ],
      "name": "Status",
      "type": "event"
    },
    {
      "inputs": [
        {
          "internalType": "address",
          "name": "",
          "type": "address"
        }
      ],
      "name": "betByAddress",
      "outputs": [
        {
          "internalType": "uint256",
          "name": "",
          "type": "uint256"
        }
      ],
      "stateMutability": "view",
      "type": "function"
    },
    {
      "inputs": [],
      "name": "currentMatch",
      "outputs": [
        {
          "internalType": "string",
          "name": "",
          "type": "string"
        }
      ],
      "stateMutability": "view",
      "type": "function"
    },
    {
      "inputs": [],
      "name": "originalOwner",
      "outputs": [
        {
          "internalType": "address payable",
          "name": "",
          "type": "address"
        }
      ],
      "stateMutability": "view",
      "type": "function"
    },
    {
      "inputs": [],
      "name": "totalBet",
      "outputs": [
        {
          "internalType": "uint256",
          "name": "",
          "type": "uint256"
        }
      ],
      "stateMutability": "view",
      "type": "function"
    },
    {
      "inputs": [
        {
          "internalType": "enum Bet2Peer.resultType",
          "name": "",
          "type": "uint8"
        }
      ],
      "name": "totalBetByResult",
      "outputs": [
        {
          "internalType": "uint256",
          "name": "",
          "type": "uint256"
        }
      ],
      "stateMutability": "view",
      "type": "function"
    },
    {
      "inputs": [
        {
          "internalType": "uint256",
          "name": "result",
          "type": "uint256"
        }
      ],
      "name": "bet",
      "outputs": [],
      "stateMutability": "payable",
      "type": "function"
    },
    {
      "inputs": [
        {
          "internalType": "uint256",
          "name": "result",
          "type": "uint256"
        }
      ],
      "name": "resolveMatch",
      "outputs": [],
      "stateMutability": "nonpayable",
      "type": "function"
    },
    {
      "inputs": [],
      "name": "getTotalBet",
      "outputs": [
        {
          "internalType": "uint256",
          "name": "",
          "type": "uint256"
        }
      ],
      "stateMutability": "view",
      "type": "function"
    },
    {
      "inputs": [],
      "name": "getLocalWinBet",
      "outputs": [
        {
          "internalType": "uint256",
          "name": "",
          "type": "uint256"
        }
      ],
      "stateMutability": "view",
      "type": "function"
    },
    {
      "inputs": [],
      "name": "getVisitorWinBet",
      "outputs": [
        {
          "internalType": "uint256",
          "name": "",
          "type": "uint256"
        }
      ],
      "stateMutability": "view",
      "type": "function"
    },
    {
      "inputs": [],
      "name": "getDrawBet",
      "outputs": [
        {
          "internalType": "uint256",
          "name": "",
          "type": "uint256"
        }
      ],
      "stateMutability": "view",
      "type": "function"
    },
    {
      "inputs": [
        {
          "internalType": "address",
          "name": "userAddress",
          "type": "address"
        }
      ],
      "name": "getBetByAddress",
      "outputs": [
        {
          "internalType": "uint256",
          "name": "amount",
          "type": "uint256"
        },
        {
          "internalType": "uint256",
          "name": "result",
          "type": "uint256"
        }
      ],
      "stateMutability": "view",
      "type": "function"
    }
  ],
  "bytecode": "0x60806040523480156200001157600080fd5b50604051620014f6380380620014f6833981810160405281019062000037919062000300565b80600090805190602001906200004f929190620000b3565b5033600660006101000a81548173ffffffffffffffffffffffffffffffffffffffff021916908373ffffffffffffffffffffffffffffffffffffffff1602179055506001600660146101000a81548160ff02191690831515021790555050620003b5565b828054620000c19062000380565b90600052602060002090601f016020900481019282620000e5576000855562000131565b82601f106200010057805160ff191683800117855562000131565b8280016001018555821562000131579182015b828111156200013057825182559160200191906001019062000113565b5b50905062000140919062000144565b5090565b5b808211156200015f57600081600090555060010162000145565b5090565b6000604051905090565b600080fd5b600080fd5b600080fd5b600080fd5b6000601f19601f8301169050919050565b7f4e487b7100000000000000000000000000000000000000000000000000000000600052604160045260246000fd5b620001cc8262000181565b810181811067ffffffffffffffff82111715620001ee57620001ed62000192565b5b80604052505050565b60006200020362000163565b9050620002118282620001c1565b919050565b600067ffffffffffffffff82111562000234576200023362000192565b5b6200023f8262000181565b9050602081019050919050565b60005b838110156200026c5780820151818401526020810190506200024f565b838111156200027c576000848401525b50505050565b600062000299620002938462000216565b620001f7565b905082815260208101848484011115620002b857620002b76200017c565b5b620002c58482856200024c565b509392505050565b600082601f830112620002e557620002e462000177565b5b8151620002f784826020860162000282565b91505092915050565b6000602082840312156200031957620003186200016d565b5b600082015167ffffffffffffffff8111156200033a576200033962000172565b5b6200034884828501620002cd565b91505092915050565b7f4e487b7100000000000000000000000000000000000000000000000000000000600052602260045260246000fd5b600060028204905060018216806200039957607f821691505b602082108103620003af57620003ae62000351565b5b50919050565b61113180620003c56000396000f3fe6080604052600436106100a75760003560e01c8063bfe38df511610064578063bfe38df5146101af578063c08b87ca146101da578063ed7f974314610217578063f1fffdcb14610255578063f5b9cfb414610280578063fe5e1853146102ab576100a7565b806319150cb5146100ac5780632c70444e146100e95780633aebc0bf146101145780635df4e6691461013f57806364e40a481461016a5780637365870b14610193575b600080fd5b3480156100b857600080fd5b506100d360048036038101906100ce9190610aae565b6102d6565b6040516100e09190610af4565b60405180910390f35b3480156100f557600080fd5b506100fe6102ee565b60405161010b9190610ba8565b60405180910390f35b34801561012057600080fd5b5061012961037c565b6040516101369190610af4565b60405180910390f35b34801561014b57600080fd5b506101546103bb565b6040516101619190610af4565b60405180910390f35b34801561017657600080fd5b50610191600480360381019061018c9190610bf6565b6103fa565b005b6101ad60048036038101906101a89190610bf6565b61070d565b005b3480156101bb57600080fd5b506101c4610912565b6040516101d19190610af4565b60405180910390f35b3480156101e657600080fd5b5061020160048036038101906101fc9190610c48565b61091c565b60405161020e9190610af4565b60405180910390f35b34801561022357600080fd5b5061023e60048036038101906102399190610aae565b610934565b60405161024c929190610c75565b60405180910390f35b34801561026157600080fd5b5061026a6109df565b6040516102779190610cbf565b60405180910390f35b34801561028c57600080fd5b50610295610a05565b6040516102a29190610af4565b60405180910390f35b3480156102b757600080fd5b506102c0610a45565b6040516102cd9190610af4565b60405180910390f35b60036020528060005260406000206000915090505481565b600080546102fb90610d09565b80601f016020809104026020016040519081016040528092919081815260200182805461032790610d09565b80156103745780601f1061034957610100808354040283529160200191610374565b820191906000526020600020905b81548152906001019060200180831161035757829003601f168201915b505050505081565b60006001600060028081111561039557610394610d3a565b5b60028111156103a7576103a6610d3a565b5b815260200190815260200160002054905090565b6000600160008060028111156103d4576103d3610d3a565b5b60028111156103e6576103e5610d3a565b5b815260200190815260200160002054905090565b60001515600660149054906101000a900460ff1615151461041a57600080fd5b600660009054906101000a900473ffffffffffffffffffffffffffffffffffffffff1673ffffffffffffffffffffffffffffffffffffffff163373ffffffffffffffffffffffffffffffffffffffff16146104aa576040517f08c379a00000000000000000000000000000000000000000000000000000000081526004016104a190610ddb565b60405180910390fd5b600281116104ed576040517f08c379a00000000000000000000000000000000000000000000000000000000081526004016104e490610e93565b60405180910390fd5b6000600660146101000a81548160ff021916908315150217905550600081600281111561051d5761051c610d3a565b5b905060005b6004805490508110156106d35760006004828154811061054557610544610eb3565b5b9060005260206000200160009054906101000a900473ffffffffffffffffffffffffffffffffffffffff16905082600281111561058557610584610d3a565b5b600260008373ffffffffffffffffffffffffffffffffffffffff1673ffffffffffffffffffffffffffffffffffffffff16815260200190815260200160002060009054906101000a900460ff1660028111156105e4576105e3610d3a565b5b036106bf578073ffffffffffffffffffffffffffffffffffffffff166108fc6001600086600281111561061a57610619610d3a565b5b600281111561062c5761062b610d3a565b5b815260200190815260200160002054600360008573ffffffffffffffffffffffffffffffffffffffff1673ffffffffffffffffffffffffffffffffffffffff168152602001908152602001600020546005546106889190610f11565b6106929190610f9a565b9081150290604051600060405180830381858888f193505050501580156106bd573d6000803e3d6000fd5b505b5080806106cb90610fcb565b915050610522565b507f2844c95bf1b4598da931d527f903501abc60fe0199c65da52d5ce818c6c5e96160405161070190611085565b60405180910390a15050565b60001515600660149054906101000a900460ff1615151461072d57600080fd5b60028111610770576040517f08c379a000000000000000000000000000000000000000000000000000000000815260040161076790610e93565b60405180910390fd5b600081600281111561078557610784610d3a565b5b9050346001600083600281111561079f5761079e610d3a565b5b60028111156107b1576107b0610d3a565b5b815260200190815260200160002060008282546107ce91906110a5565b9250508190555080600260003373ffffffffffffffffffffffffffffffffffffffff1673ffffffffffffffffffffffffffffffffffffffff16815260200190815260200160002060006101000a81548160ff0219169083600281111561083757610836610d3a565b5b021790555034600360003373ffffffffffffffffffffffffffffffffffffffff1673ffffffffffffffffffffffffffffffffffffffff168152602001908152602001600020600082825461088b91906110a5565b9250508190555034600560008282546108a491906110a5565b925050819055506004339080600181540180825580915050600190039060005260206000200160009091909190916101000a81548173ffffffffffffffffffffffffffffffffffffffff021916908373ffffffffffffffffffffffffffffffffffffffff1602179055505050565b6000600554905090565b60016020528060005260406000206000915090505481565b600080600360008473ffffffffffffffffffffffffffffffffffffffff1673ffffffffffffffffffffffffffffffffffffffff16815260200190815260200160002054600260008573ffffffffffffffffffffffffffffffffffffffff1673ffffffffffffffffffffffffffffffffffffffff16815260200190815260200160002060009054906101000a900460ff1660028111156109d6576109d5610d3a565b5b91509150915091565b600660009054906101000a900473ffffffffffffffffffffffffffffffffffffffff1681565b60006001600060016002811115610a1f57610a1e610d3a565b5b6002811115610a3157610a30610d3a565b5b815260200190815260200160002054905090565b60055481565b600080fd5b600073ffffffffffffffffffffffffffffffffffffffff82169050919050565b6000610a7b82610a50565b9050919050565b610a8b81610a70565b8114610a9657600080fd5b50565b600081359050610aa881610a82565b92915050565b600060208284031215610ac457610ac3610a4b565b5b6000610ad284828501610a99565b91505092915050565b6000819050919050565b610aee81610adb565b82525050565b6000602082019050610b096000830184610ae5565b92915050565b600081519050919050565b600082825260208201905092915050565b60005b83811015610b49578082015181840152602081019050610b2e565b83811115610b58576000848401525b50505050565b6000601f19601f8301169050919050565b6000610b7a82610b0f565b610b848185610b1a565b9350610b94818560208601610b2b565b610b9d81610b5e565b840191505092915050565b60006020820190508181036000830152610bc28184610b6f565b905092915050565b610bd381610adb565b8114610bde57600080fd5b50565b600081359050610bf081610bca565b92915050565b600060208284031215610c0c57610c0b610a4b565b5b6000610c1a84828501610be1565b91505092915050565b60038110610c3057600080fd5b50565b600081359050610c4281610c23565b92915050565b600060208284031215610c5e57610c5d610a4b565b5b6000610c6c84828501610c33565b91505092915050565b6000604082019050610c8a6000830185610ae5565b610c976020830184610ae5565b9392505050565b6000610ca982610a50565b9050919050565b610cb981610c9e565b82525050565b6000602082019050610cd46000830184610cb0565b92915050565b7f4e487b7100000000000000000000000000000000000000000000000000000000600052602260045260246000fd5b60006002820490506001821680610d2157607f821691505b602082108103610d3457610d33610cda565b5b50919050565b7f4e487b7100000000000000000000000000000000000000000000000000000000600052602160045260246000fd5b7f4e6f207075656465732063657272617220756e207061727469646f207175652060008201527f6e6f206861732063726561646f00000000000000000000000000000000000000602082015250565b6000610dc5602d83610b1a565b9150610dd082610d69565b604082019050919050565b60006020820190508181036000830152610df481610db8565b9050919050565b7f526573756c7461646f206e6f2076616c69646f2e204c6f7320726573756c746160008201527f646f7320736f6e20456d70617465203d20302c20566963746f726961204c6f6360208201527f616c203d20312c20566963746f726961205669736974616e7465203d20320000604082015250565b6000610e7d605e83610b1a565b9150610e8882610dfb565b606082019050919050565b60006020820190508181036000830152610eac81610e70565b9050919050565b7f4e487b7100000000000000000000000000000000000000000000000000000000600052603260045260246000fd5b7f4e487b7100000000000000000000000000000000000000000000000000000000600052601160045260246000fd5b6000610f1c82610adb565b9150610f2783610adb565b9250817fffffffffffffffffffffffffffffffffffffffffffffffffffffffffffffffff0483118215151615610f6057610f5f610ee2565b5b828202905092915050565b7f4e487b7100000000000000000000000000000000000000000000000000000000600052601260045260246000fd5b6000610fa582610adb565b9150610fb083610adb565b925082610fc057610fbf610f6b565b5b828204905092915050565b6000610fd682610adb565b91507fffffffffffffffffffffffffffffffffffffffffffffffffffffffffffffffff820361100857611007610ee2565b5b600182019050919050565b7f456c207061727469646f206861207465726d696e61646f20792073652068612060008201527f70616761646f2061206c6f732067616e61646f72657300000000000000000000602082015250565b600061106f603683610b1a565b915061107a82611013565b604082019050919050565b6000602082019050818103600083015261109e81611062565b9050919050565b60006110b082610adb565b91506110bb83610adb565b9250827fffffffffffffffffffffffffffffffffffffffffffffffffffffffffffffffff038211156110f0576110ef610ee2565b5b82820190509291505056fea2646970667358221220476154d583e7f40fe1c2d0f67d21e23d9e68df1c870ec282f7ff49467e489bb864736f6c634300080e0033",
  "immutableReferences": {},
  "source": "/**\r\n *Submitted for verification at Etherscan.io on 2022-04-22\r\n */\r\n\r\n// Version de solidity del Smart Contract\r\n// SPDX-License-Identifier: UNLICENSED\r\n\r\npragma solidity 0.8.14;\r\n\r\n// Informacion del Smart Contract\r\n// Nombre: Subasta\r\n// Logica: Implementa subasta de productos entre varios participantes\r\n\r\n// Declaracion del Smart Contract - Auction\r\ncontract Bet2Peer {\r\n    // ----------- Variables (datos) -----------\r\n    string public currentMatch;\r\n    enum resultType {\r\n        draw,\r\n        localWin,\r\n        visitorWin\r\n    }\r\n    mapping(resultType => uint256) public totalBetByResult;\r\n    mapping(address => resultType) private resultByAddress;\r\n    mapping(address => uint256) public betByAddress;\r\n    address payable[] addresses;\r\n    uint256 public totalBet;\r\n\r\n    // Antiguo/nuevo dueo de subasta\r\n    address payable public originalOwner;\r\n    bool private activeBet;\r\n\r\n    // ----------- Eventos (pueden ser emitidos por el Smart Contract) -----------\r\n    event Status(string _message);\r\n\r\n    // ----------- Constructor -----------\r\n    // Uso: Inicializa el Smart Contract - Auction con: description, precio y tiempo\r\n    constructor(string memory newMatch) {\r\n        currentMatch = newMatch;\r\n        originalOwner = payable(msg.sender);\r\n        activeBet = true;\r\n        // Se emite un Evento\r\n        // emit Status(string(abi.encodePacked(\"Partido \", newMatch, \" creado\")));\r\n    }\r\n\r\n    // ------------ Funciones que modifican datos (set) ------------\r\n\r\n    // Funcion\r\n    // Nombre: bid\r\n    // Uso:    Permite a cualquier postor apostar a un resultado concreto\r\n    //         El dinero es almacenado en el contrato, junto con el nombre del postor\r\n    //         El postor cuya oferta ha sido superada recibe de vuelta el dinero pujado\r\n    function bet(uint256 result) public payable {\r\n        require(activeBet == false);\r\n        require(\r\n            result > 2,\r\n            \"Resultado no valido. Los resultados son Empate = 0, Victoria Local = 1, Victoria Visitante = 2\"\r\n        );\r\n\r\n        //Obtenemos el resultado al que se pretende apostar\r\n        resultType currentType = resultType(result);\r\n        //Realizamos la apuesta\r\n        totalBetByResult[currentType] += msg.value;\r\n        resultByAddress[msg.sender] = currentType;\r\n        betByAddress[msg.sender] += msg.value;\r\n        totalBet += msg.value;\r\n        addresses.push(payable(msg.sender));\r\n    }\r\n\r\n    // Funcion\r\n    // Nombre: resolveMatch\r\n    // Uso:    Para las apuestas y devuelve el dinero al maximo postor\r\n    function resolveMatch(uint256 result) public {\r\n        require(activeBet == false);\r\n        require(\r\n            msg.sender == originalOwner,\r\n            \"No puedes cerrar un partido que no has creado\"\r\n        );\r\n        require(\r\n            result > 2,\r\n            \"Resultado no valido. Los resultados son Empate = 0, Victoria Local = 1, Victoria Visitante = 2\"\r\n        );\r\n\r\n        //desactivamos la apuesta\r\n        activeBet = false;\r\n        resultType finishedMatchResult = resultType(result);\r\n        for (uint256 i = 0; i < addresses.length; i++) {\r\n            address payable currentAddress = addresses[i];\r\n            if (resultByAddress[currentAddress] == finishedMatchResult) {\r\n                currentAddress.transfer(\r\n                    (totalBet * betByAddress[currentAddress]) /\r\n                        totalBetByResult[finishedMatchResult]\r\n                );\r\n            }\r\n        }\r\n\r\n        emit Status(\"El partido ha terminado y se ha pagado a los ganadores\");\r\n    }\r\n\r\n    // ------------ Funciones que consultan datos (get) ------------\r\n\r\n    // Funcion\r\n    // Nombre: getHighestPrice\r\n    // Logica: Consulta el total de dinero apostado\r\n    function getTotalBet() public view returns (uint256) {\r\n        return (totalBet);\r\n    }\r\n\r\n    // Funcion\r\n    // Nombre: getLocalWinBet\r\n    // Logica: Consulta el total de dinero apostado al ganador local\r\n    function getLocalWinBet() public view returns (uint256) {\r\n        return (totalBetByResult[resultType.localWin]);\r\n    }\r\n\r\n    // Funcion\r\n    // Nombre: getVisitorWinBet\r\n    // Logica: Consulta el total de dinero apostado al ganador visitante\r\n    function getVisitorWinBet() public view returns (uint256) {\r\n        return (totalBetByResult[resultType.visitorWin]);\r\n    }\r\n\r\n    // Funcion\r\n    // Nombre: getDrawBet\r\n    // Logica: Consulta el total de dinero apostado al empate\r\n    function getDrawBet() public view returns (uint256) {\r\n        return (totalBetByResult[resultType.draw]);\r\n    }\r\n\r\n    // Funcion\r\n    // Nombre: getBetByAddress\r\n    // Logica: Consulta el total de dinero apostado al empate\r\n    function getBetByAddress(address userAddress)\r\n        public\r\n        view\r\n        returns (uint256 amount, uint256 result)\r\n    {\r\n        return (\r\n            betByAddress[userAddress],\r\n            uint256(resultByAddress[userAddress])\r\n        );\r\n    }\r\n}\r\n",
  "sourcePath": "C:\\Desarrollo\\Master Blokchain\\bet2peer\\contracts\\Bet2Peer.sol",
  "compiler": {
    "name": "solc",
    "version": "0.8.14+commit.80d49f37.Emscripten.clang"
  },
  "schemaVersion": "3.4.7",
  "updatedAt": "2022-06-03T15:19:16.879Z",
  "devdoc": {
    "kind": "dev",
    "methods": {},
    "version": 1
  },
  "userdoc": {
    "kind": "user",
    "methods": {},
    "version": 1
  }
}