{
  "contractName": "Bet2Peer",
  "abi": [
    {
      "inputs": [
        {
          "internalType": "address",
          "name": "_originalGambler",
          "type": "address"
        },
        {
          "internalType": "uint256",
          "name": "_matchId",
          "type": "uint256"
        },
        {
          "internalType": "uint8",
          "name": "_result",
          "type": "uint8"
        },
        {
          "internalType": "uint256",
          "name": "_originalBet",
          "type": "uint256"
        },
        {
          "internalType": "uint256",
          "name": "_minimumCounterBet",
          "type": "uint256"
        },
        {
          "internalType": "address",
          "name": "_fatherAddress",
          "type": "address"
        }
      ],
      "stateMutability": "nonpayable",
      "type": "constructor"
    },
    {
      "anonymous": false,
      "inputs": [
        {
          "indexed": true,
          "internalType": "address",
          "name": "previousOwner",
          "type": "address"
        },
        {
          "indexed": true,
          "internalType": "address",
          "name": "newOwner",
          "type": "address"
        }
      ],
      "name": "OwnershipTransferred",
      "type": "event"
    },
    {
      "anonymous": false,
      "inputs": [
        {
          "indexed": false,
          "internalType": "string",
          "name": "_message",
          "type": "string"
        }
      ],
      "name": "Status",
      "type": "event"
    },
    {
      "anonymous": false,
      "inputs": [
        {
          "indexed": false,
          "internalType": "string",
          "name": "betAccepted",
          "type": "string"
        }
      ],
      "name": "betAccepted",
      "type": "event"
    },
    {
      "anonymous": false,
      "inputs": [
        {
          "indexed": false,
          "internalType": "string",
          "name": "betCreated",
          "type": "string"
        }
      ],
      "name": "betCreated",
      "type": "event"
    },
    {
      "inputs": [
        {
          "internalType": "address",
          "name": "",
          "type": "address"
        }
      ],
      "name": "contractInfo",
      "outputs": [
        {
          "internalType": "address",
          "name": "originalOwner",
          "type": "address"
        },
        {
          "internalType": "address",
          "name": "counterGambler",
          "type": "address"
        },
        {
          "internalType": "uint256",
          "name": "currentMatch",
          "type": "uint256"
        },
        {
          "internalType": "uint8",
          "name": "result",
          "type": "uint8"
        },
        {
          "internalType": "uint256",
          "name": "origibalBet",
          "type": "uint256"
        },
        {
          "internalType": "uint256",
          "name": "minimumCounterBet",
          "type": "uint256"
        }
      ],
      "stateMutability": "view",
      "type": "function"
    },
    {
      "inputs": [],
      "name": "currentMatch",
      "outputs": [
        {
          "internalType": "uint256",
          "name": "",
          "type": "uint256"
        }
      ],
      "stateMutability": "view",
      "type": "function"
    },
    {
      "inputs": [],
      "name": "owner",
      "outputs": [
        {
          "internalType": "address",
          "name": "",
          "type": "address"
        }
      ],
      "stateMutability": "view",
      "type": "function"
    },
    {
      "inputs": [],
      "name": "renounceOwnership",
      "outputs": [],
      "stateMutability": "nonpayable",
      "type": "function"
    },
    {
      "inputs": [
        {
          "internalType": "address",
          "name": "newOwner",
          "type": "address"
        }
      ],
      "name": "transferOwnership",
      "outputs": [],
      "stateMutability": "nonpayable",
      "type": "function"
    },
    {
      "inputs": [],
      "name": "acceptBet",
      "outputs": [],
      "stateMutability": "payable",
      "type": "function"
    },
    {
      "inputs": [],
      "name": "resolveBet",
      "outputs": [],
      "stateMutability": "payable",
      "type": "function"
    },
    {
      "inputs": [],
      "name": "removeBet",
      "outputs": [
        {
          "internalType": "bool",
          "name": "",
          "type": "bool"
        }
      ],
      "stateMutability": "payable",
      "type": "function"
    },
    {
      "inputs": [],
      "name": "getContractAddress",
      "outputs": [
        {
          "internalType": "address",
          "name": "",
          "type": "address"
        }
      ],
      "stateMutability": "view",
      "type": "function"
    },
    {
      "inputs": [],
      "name": "getContractInfo",
      "outputs": [
        {
          "components": [
            {
              "internalType": "address",
              "name": "originalOwner",
              "type": "address"
            },
            {
              "internalType": "address",
              "name": "counterGambler",
              "type": "address"
            },
            {
              "internalType": "uint256",
              "name": "currentMatch",
              "type": "uint256"
            },
            {
              "internalType": "uint8",
              "name": "result",
              "type": "uint8"
            },
            {
              "internalType": "uint256",
              "name": "origibalBet",
              "type": "uint256"
            },
            {
              "internalType": "uint256",
              "name": "minimumCounterBet",
              "type": "uint256"
            }
          ],
          "internalType": "struct Bet2Peer.contractInformation",
          "name": "",
          "type": "tuple"
        }
      ],
      "stateMutability": "view",
      "type": "function"
    },
    {
      "inputs": [],
      "name": "getMatchId",
      "outputs": [
        {
          "internalType": "uint256",
          "name": "",
          "type": "uint256"
        }
      ],
      "stateMutability": "view",
      "type": "function"
    },
    {
      "inputs": [],
      "name": "getOriginalOwner",
      "outputs": [
        {
          "internalType": "address",
          "name": "",
          "type": "address"
        }
      ],
      "stateMutability": "view",
      "type": "function"
    }
  ],
  "bytecode": "0x60806040523480156200001157600080fd5b50604051620021d7380380620021d7833981810160405281019062000037919062000505565b620000576200004b6200035660201b60201c565b6200035e60201b60201c565b85600360006101000a81548173ffffffffffffffffffffffffffffffffffffffff021916908373ffffffffffffffffffffffffffffffffffffffff1602179055508460028190555083600460146101000a81548160ff021916908360ff160217905550826005819055508160068190555080600760006101000a81548173ffffffffffffffffffffffffffffffffffffffff021916908373ffffffffffffffffffffffffffffffffffffffff1602179055506001600860146101000a81548160ff0219169083151502179055506000600860156101000a81548160ff02191690831515021790555085600160003073ffffffffffffffffffffffffffffffffffffffff1673ffffffffffffffffffffffffffffffffffffffff16815260200190815260200160002060000160006101000a81548173ffffffffffffffffffffffffffffffffffffffff021916908373ffffffffffffffffffffffffffffffffffffffff16021790555084600160003073ffffffffffffffffffffffffffffffffffffffff1673ffffffffffffffffffffffffffffffffffffffff1681526020019081526020016000206002018190555083600160003073ffffffffffffffffffffffffffffffffffffffff1673ffffffffffffffffffffffffffffffffffffffff16815260200190815260200160002060030160006101000a81548160ff021916908360ff16021790555082600160003073ffffffffffffffffffffffffffffffffffffffff1673ffffffffffffffffffffffffffffffffffffffff1681526020019081526020016000206004018190555081600160003073ffffffffffffffffffffffffffffffffffffffff1673ffffffffffffffffffffffffffffffffffffffff168152602001908152602001600020600501819055507f2844c95bf1b4598da931d527f903501abc60fe0199c65da52d5ce818c6c5e9618560405160200162000324919062000671565b6040516020818303038152906040526040516200034291906200074c565b60405180910390a150505050505062000770565b600033905090565b60008060009054906101000a900473ffffffffffffffffffffffffffffffffffffffff169050816000806101000a81548173ffffffffffffffffffffffffffffffffffffffff021916908373ffffffffffffffffffffffffffffffffffffffff1602179055508173ffffffffffffffffffffffffffffffffffffffff168173ffffffffffffffffffffffffffffffffffffffff167f8be0079c531659141344cd1fd0a4f28419497f9722a3daafe3b4186f6b6457e060405160405180910390a35050565b600080fd5b600073ffffffffffffffffffffffffffffffffffffffff82169050919050565b6000620004548262000427565b9050919050565b620004668162000447565b81146200047257600080fd5b50565b60008151905062000486816200045b565b92915050565b6000819050919050565b620004a1816200048c565b8114620004ad57600080fd5b50565b600081519050620004c18162000496565b92915050565b600060ff82169050919050565b620004df81620004c7565b8114620004eb57600080fd5b50565b600081519050620004ff81620004d4565b92915050565b60008060008060008060c0878903121562000525576200052462000422565b5b60006200053589828a0162000475565b96505060206200054889828a01620004b0565b95505060406200055b89828a01620004ee565b94505060606200056e89828a01620004b0565b93505060806200058189828a01620004b0565b92505060a06200059489828a0162000475565b9150509295509295509295565b600081905092915050565b7f5061727469646f20000000000000000000000000000000000000000000000000600082015250565b6000620005e4600883620005a1565b9150620005f182620005ac565b600882019050919050565b6000819050919050565b6200061b62000615826200048c565b620005fc565b82525050565b7f2063726561646f00000000000000000000000000000000000000000000000000600082015250565b600062000659600783620005a1565b9150620006668262000621565b600782019050919050565b60006200067e82620005d5565b91506200068c828462000606565b6020820191506200069d826200064a565b915081905092915050565b600081519050919050565b600082825260208201905092915050565b60005b83811015620006e4578082015181840152602081019050620006c7565b83811115620006f4576000848401525b50505050565b6000601f19601f8301169050919050565b60006200071882620006a8565b620007248185620006b3565b935062000736818560208601620006c4565b6200074181620006fa565b840191505092915050565b600060208201905081810360008301526200076881846200070b565b905092915050565b611a5780620007806000396000f3fe6080604052600436106100a75760003560e01c80638da5cb5b116100645780638da5cb5b146101795780638fced626146101a4578063ad913633146101ae578063e11eb98d146101d9578063f2fde38b1461021b578063fc884bff14610244576100a7565b8063153dc182146100ac5780632c70444e146100d757806330bfcb5f1461010257806332a2c5d01461010c578063715018a6146101375780637cc1f8671461014e575b600080fd5b3480156100b857600080fd5b506100c1610262565b6040516100ce91906110b6565b60405180910390f35b3480156100e357600080fd5b506100ec61026c565b6040516100f991906110b6565b60405180910390f35b61010a610272565b005b34801561011857600080fd5b50610121610676565b60405161012e9190611112565b60405180910390f35b34801561014357600080fd5b5061014c6106fa565b005b34801561015a57600080fd5b50610163610782565b60405161017091906111e2565b60405180910390f35b34801561018557600080fd5b5061018e6108c0565b60405161019b9190611112565b60405180910390f35b6101ac6108e9565b005b3480156101ba57600080fd5b506101c3610ba7565b6040516101d09190611112565b60405180910390f35b3480156101e557600080fd5b5061020060048036038101906101fb919061122e565b610bd1565b6040516102129695949392919061126a565b60405180910390f35b34801561022757600080fd5b50610242600480360381019061023d919061122e565b610c5a565b005b61024c610d51565b60405161025991906112e6565b60405180910390f35b6000600254905090565b60025481565b600860149054906101000a900460ff166102c1576040517f08c379a00000000000000000000000000000000000000000000000000000000081526004016102b89061135e565b60405180910390fd5b600654341015610306576040517f08c379a00000000000000000000000000000000000000000000000000000000081526004016102fd906113ca565b60405180910390fd5b60001515600860159054906101000a900460ff1615151461035c576040517f08c379a000000000000000000000000000000000000000000000000000000000815260040161035390611436565b60405180910390fd5b33600460006101000a81548173ffffffffffffffffffffffffffffffffffffffff021916908373ffffffffffffffffffffffffffffffffffffffff160217905550600460009054906101000a900473ffffffffffffffffffffffffffffffffffffffff1673ffffffffffffffffffffffffffffffffffffffff166108fc349081150290604051600060405180830381858888f19350505050158015610405573d6000803e3d6000fd5b50600460009054906101000a900473ffffffffffffffffffffffffffffffffffffffff16600160003073ffffffffffffffffffffffffffffffffffffffff1673ffffffffffffffffffffffffffffffffffffffff16815260200190815260200160002060010160006101000a81548173ffffffffffffffffffffffffffffffffffffffff021916908373ffffffffffffffffffffffffffffffffffffffff1602179055506001600860156101000a81548160ff021916908315150217905550600760009054906101000a900473ffffffffffffffffffffffffffffffffffffffff16600860006101000a81548173ffffffffffffffffffffffffffffffffffffffff021916908373ffffffffffffffffffffffffffffffffffffffff160217905550600860009054906101000a900473ffffffffffffffffffffffffffffffffffffffff1673ffffffffffffffffffffffffffffffffffffffff1663305fc68d600460009054906101000a900473ffffffffffffffffffffffffffffffffffffffff16306040518363ffffffff1660e01b81526004016105a69291906114b5565b600060405180830381600087803b1580156105c057600080fd5b505af11580156105d4573d6000803e3d6000fd5b505050507f2844c95bf1b4598da931d527f903501abc60fe0199c65da52d5ce818c6c5e961600460009054906101000a900473ffffffffffffffffffffffffffffffffffffffff16600360009054906101000a900473ffffffffffffffffffffffffffffffffffffffff1660405160200161065092919061158f565b60405160208183030381529060405260405161066c919061164e565b60405180910390a1565b6000610680610f6c565b73ffffffffffffffffffffffffffffffffffffffff1661069e6108c0565b73ffffffffffffffffffffffffffffffffffffffff16146106f4576040517f08c379a00000000000000000000000000000000000000000000000000000000081526004016106eb906116bc565b60405180910390fd5b30905090565b610702610f6c565b73ffffffffffffffffffffffffffffffffffffffff166107206108c0565b73ffffffffffffffffffffffffffffffffffffffff1614610776576040517f08c379a000000000000000000000000000000000000000000000000000000000815260040161076d906116bc565b60405180910390fd5b6107806000610f74565b565b61078a611038565b600160003073ffffffffffffffffffffffffffffffffffffffff1673ffffffffffffffffffffffffffffffffffffffff1681526020019081526020016000206040518060c00160405290816000820160009054906101000a900473ffffffffffffffffffffffffffffffffffffffff1673ffffffffffffffffffffffffffffffffffffffff1673ffffffffffffffffffffffffffffffffffffffff1681526020016001820160009054906101000a900473ffffffffffffffffffffffffffffffffffffffff1673ffffffffffffffffffffffffffffffffffffffff1673ffffffffffffffffffffffffffffffffffffffff168152602001600282015481526020016003820160009054906101000a900460ff1660ff1660ff16815260200160048201548152602001600582015481525050905090565b60008060009054906101000a900473ffffffffffffffffffffffffffffffffffffffff16905090565b33600360009054906101000a900473ffffffffffffffffffffffffffffffffffffffff1673ffffffffffffffffffffffffffffffffffffffff168173ffffffffffffffffffffffffffffffffffffffff1614806109935750600460009054906101000a900473ffffffffffffffffffffffffffffffffffffffff1673ffffffffffffffffffffffffffffffffffffffff168173ffffffffffffffffffffffffffffffffffffffff16145b6109d2576040517f08c379a00000000000000000000000000000000000000000000000000000000081526004016109c990611728565b60405180910390fd5b600860149054906101000a900460ff16610a21576040517f08c379a0000000000000000000000000000000000000000000000000000000008152600401610a189061135e565b60405180910390fd5b600860159054906101000a900460ff16610a3a57600080fd5b6001600460149054906101000a900460ff1660ff1603610ac257600360009054906101000a900473ffffffffffffffffffffffffffffffffffffffff1673ffffffffffffffffffffffffffffffffffffffff166108fc479081150290604051600060405180830381858888f19350505050158015610abc573d6000803e3d6000fd5b50610b2c565b600460009054906101000a900473ffffffffffffffffffffffffffffffffffffffff1673ffffffffffffffffffffffffffffffffffffffff166108fc479081150290604051600060405180830381858888f19350505050158015610b2a573d6000803e3d6000fd5b505b6000600860146101000a81548160ff0219169083151502179055507f2844c95bf1b4598da931d527f903501abc60fe0199c65da52d5ce818c6c5e961610b70610676565b604051602001610b809190611809565b604051602081830303815290604052604051610b9c919061164e565b60405180910390a150565b6000600360009054906101000a900473ffffffffffffffffffffffffffffffffffffffff16905090565b60016020528060005260406000206000915090508060000160009054906101000a900473ffffffffffffffffffffffffffffffffffffffff16908060010160009054906101000a900473ffffffffffffffffffffffffffffffffffffffff16908060020154908060030160009054906101000a900460ff16908060040154908060050154905086565b610c62610f6c565b73ffffffffffffffffffffffffffffffffffffffff16610c806108c0565b73ffffffffffffffffffffffffffffffffffffffff1614610cd6576040517f08c379a0000000000000000000000000000000000000000000000000000000008152600401610ccd906116bc565b60405180910390fd5b600073ffffffffffffffffffffffffffffffffffffffff168173ffffffffffffffffffffffffffffffffffffffff1603610d45576040517f08c379a0000000000000000000000000000000000000000000000000000000008152600401610d3c906118ac565b60405180910390fd5b610d4e81610f74565b50565b600033600360009054906101000a900473ffffffffffffffffffffffffffffffffffffffff1673ffffffffffffffffffffffffffffffffffffffff168173ffffffffffffffffffffffffffffffffffffffff1614610de4576040517f08c379a0000000000000000000000000000000000000000000000000000000008152600401610ddb90611918565b60405180910390fd5b600860149054906101000a900460ff16610e33576040517f08c379a0000000000000000000000000000000000000000000000000000000008152600401610e2a9061135e565b60405180910390fd5b600860159054906101000a900460ff1615610e83576040517f08c379a0000000000000000000000000000000000000000000000000000000008152600401610e7a90611984565b60405180910390fd5b600360009054906101000a900473ffffffffffffffffffffffffffffffffffffffff1673ffffffffffffffffffffffffffffffffffffffff166108fc479081150290604051600060405180830381858888f19350505050158015610eeb573d6000803e3d6000fd5b506000600860146101000a81548160ff0219169083151502179055507f2844c95bf1b4598da931d527f903501abc60fe0199c65da52d5ce818c6c5e961610f30610676565b604051602001610f4091906119f0565b604051602081830303815290604052604051610f5c919061164e565b60405180910390a1600191505090565b600033905090565b60008060009054906101000a900473ffffffffffffffffffffffffffffffffffffffff169050816000806101000a81548173ffffffffffffffffffffffffffffffffffffffff021916908373ffffffffffffffffffffffffffffffffffffffff1602179055508173ffffffffffffffffffffffffffffffffffffffff168173ffffffffffffffffffffffffffffffffffffffff167f8be0079c531659141344cd1fd0a4f28419497f9722a3daafe3b4186f6b6457e060405160405180910390a35050565b6040518060c00160405280600073ffffffffffffffffffffffffffffffffffffffff168152602001600073ffffffffffffffffffffffffffffffffffffffff16815260200160008152602001600060ff16815260200160008152602001600081525090565b6000819050919050565b6110b08161109d565b82525050565b60006020820190506110cb60008301846110a7565b92915050565b600073ffffffffffffffffffffffffffffffffffffffff82169050919050565b60006110fc826110d1565b9050919050565b61110c816110f1565b82525050565b60006020820190506111276000830184611103565b92915050565b611136816110f1565b82525050565b6111458161109d565b82525050565b600060ff82169050919050565b6111618161114b565b82525050565b60c08201600082015161117d600085018261112d565b506020820151611190602085018261112d565b5060408201516111a3604085018261113c565b5060608201516111b66060850182611158565b5060808201516111c9608085018261113c565b5060a08201516111dc60a085018261113c565b50505050565b600060c0820190506111f76000830184611167565b92915050565b600080fd5b61120b816110f1565b811461121657600080fd5b50565b60008135905061122881611202565b92915050565b600060208284031215611244576112436111fd565b5b600061125284828501611219565b91505092915050565b6112648161114b565b82525050565b600060c08201905061127f6000830189611103565b61128c6020830188611103565b61129960408301876110a7565b6112a6606083018661125b565b6112b360808301856110a7565b6112c060a08301846110a7565b979650505050505050565b60008115159050919050565b6112e0816112cb565b82525050565b60006020820190506112fb60008301846112d7565b92915050565b600082825260208201905092915050565b7f457374612061707565737461206e6f2065737461206163746976610000000000600082015250565b6000611348601b83611301565b915061135382611312565b602082019050919050565b600060208201905081810360008301526113778161133b565b9050919050565b7f4170756573746120696e737566696369656e7465000000000000000000000000600082015250565b60006113b4601483611301565b91506113bf8261137e565b602082019050919050565b600060208201905081810360008301526113e3816113a7565b9050919050565b7f4170756573746120796120616365707461646100000000000000000000000000600082015250565b6000611420601383611301565b915061142b826113ea565b602082019050919050565b6000602082019050818103600083015261144f81611413565b9050919050565b6000819050919050565b600061147b611476611471846110d1565b611456565b6110d1565b9050919050565b600061148d82611460565b9050919050565b600061149f82611482565b9050919050565b6114af81611494565b82525050565b60006040820190506114ca60008301856114a6565b6114d76020830184611103565b9392505050565b60006114e9826110d1565b9050919050565b60008160601b9050919050565b6000611508826114f0565b9050919050565b600061151a826114fd565b9050919050565b61153261152d826114de565b61150f565b82525050565b600081905092915050565b7f20686120616365707461646f206c612061707565737461206465200000000000600082015250565b6000611579601b83611538565b915061158482611543565b601b82019050919050565b600061159b8285611521565b6014820191506115aa8261156c565b91506115b68284611521565b6014820191508190509392505050565b600081519050919050565b60005b838110156115ef5780820151818401526020810190506115d4565b838111156115fe576000848401525b50505050565b6000601f19601f8301169050919050565b6000611620826115c6565b61162a8185611301565b935061163a8185602086016115d1565b61164381611604565b840191505092915050565b600060208201905081810360008301526116688184611615565b905092915050565b7f4f776e61626c653a2063616c6c6572206973206e6f7420746865206f776e6572600082015250565b60006116a6602083611301565b91506116b182611670565b602082019050919050565b600060208201905081810360008301526116d581611699565b9050919050565b7f4e6f207061727469636970617320656e20657374612061707565737461000000600082015250565b6000611712601d83611301565b915061171d826116dc565b602082019050919050565b6000602082019050818103600083015261174181611705565b9050919050565b7f4170756573746120000000000000000000000000000000000000000000000000600082015250565b600061177e600883611538565b915061178982611748565b600882019050919050565b600061179f826114fd565b9050919050565b6117b76117b2826110f1565b611794565b82525050565b7f2072657375656c74610000000000000000000000000000000000000000000000600082015250565b60006117f3600983611538565b91506117fe826117bd565b600982019050919050565b600061181482611771565b915061182082846117a6565b60148201915061182f826117e6565b915081905092915050565b7f4f776e61626c653a206e6577206f776e657220697320746865207a65726f206160008201527f6464726573730000000000000000000000000000000000000000000000000000602082015250565b6000611896602683611301565b91506118a18261183a565b604082019050919050565b600060208201905081810360008301526118c581611889565b9050919050565b7f4e6f206572657320656c2063726561646f72206465206c612061707565737461600082015250565b6000611902602083611301565b915061190d826118cc565b602082019050919050565b60006020820190508181036000830152611931816118f5565b9050919050565b7f4c612061707565737461207961206861207369646f2061636570746164610000600082015250565b600061196e601e83611301565b915061197982611938565b602082019050919050565b6000602082019050818103600083015261199d81611961565b9050919050565b7f20656c696d696e61646100000000000000000000000000000000000000000000600082015250565b60006119da600a83611538565b91506119e5826119a4565b600a82019050919050565b60006119fb82611771565b9150611a0782846117a6565b601482019150611a16826119cd565b91508190509291505056fea26469706673582212204d3777cbdf193888b1b55e107108781295d37e7a253fae40e952277120a375c864736f6c634300080e0033",
  "immutableReferences": {},
  "source": "/**\r\n *Submitted for verification at Etherscan.io on 2022-04-22\r\n */\r\n\r\n// Version de solidity del Smart Contract\r\n// SPDX-License-Identifier: UNLICENSED\r\n\r\npragma solidity 0.8.14;\r\nimport \"./Father.sol\";\r\nimport \"../client/node_modules/@openzeppelin/contracts/access/Ownable.sol\";\r\n\r\n\r\n// Informacion del Smart Contract\r\n// Nombre: Subasta\r\n// Logica: Implementa subasta de productos entre varios participantes\r\n\r\n// Declaracion del Smart Contract - Auction\r\ncontract Bet2Peer is Ownable {\r\n\r\n    // ----------- Variables (datos) -----------\r\n    enum resultType {\r\n        draw,\r\n        localWin,\r\n        visitorWin\r\n    }\r\n    struct contractInformation {\r\n        address originalOwner;\r\n        address counterGambler;\r\n        uint256 currentMatch;\r\n        uint8 result;\r\n        uint256 origibalBet;\r\n        uint256 minimumCounterBet;\r\n    }\r\n    mapping (address => contractInformation) public contractInfo;\r\n    uint256 public currentMatch;\r\n    address payable originalOwner;\r\n    address payable counterGambler;\r\n    uint8 result;\r\n    uint256 origibalBet;\r\n    uint256 minimumCounterBet;\r\n    address fatherAddress;\r\n    Father fatherContract;\r\n\r\n    bool activeBet;\r\n    bool isAccepted;\r\n\r\n    // ----------- Events -----------\r\n    event Status(string _message);\r\n    event betCreated (\r\n        string betCreated\r\n    );\r\n    event betAccepted (\r\n        string betAccepted\r\n    );\r\n\r\n    // ------------Modifiers ----------\r\n    modifier isParticipant(address sender) {\r\n        require(\r\n            sender == originalOwner || \r\n            sender == counterGambler,\r\n            \"No participas en esta apuesta\"\r\n        );\r\n        _;\r\n    }\r\n    modifier isOriginalOwner(address sender) {\r\n        require(\r\n            sender == originalOwner,\r\n            \"No eres el creador de la apuesta\"\r\n        );\r\n        _;\r\n    }\r\n    modifier contractActive() {\r\n        require(\r\n            activeBet, \r\n            \"Esta apuesta no esta activa\"\r\n            );\r\n        _;\r\n    }\r\n\r\n    // ----------- Constructor -----------\r\n    /**\r\n    _originalGambler: usuario que crea la apuesta\r\n    _matchId: id del partido de la apuesta\r\n    _result: resultado al que se apuesta\r\n    _originalBet: cantidad apostada\r\n    _minimumCounterBet: cantidad a percibir en caso de ganar\r\n    _fatherAddress: direccin del contrato padre\r\n     */\r\n    constructor(address _originalGambler, uint256 _matchId, uint8 _result, uint256 _originalBet, uint256 _minimumCounterBet, address _fatherAddress) {\r\n        originalOwner = payable(_originalGambler); //\r\n        currentMatch = _matchId; //\r\n        result = _result; //\r\n        origibalBet = _originalBet; //\r\n        minimumCounterBet = _minimumCounterBet; //\r\n        fatherAddress = _fatherAddress;\r\n        activeBet = true;\r\n        isAccepted = false;\r\n        //Relleno el struct con toda la info del contrato\r\n        contractInfo[address(this)].originalOwner = _originalGambler;\r\n        contractInfo[address(this)].currentMatch = _matchId;\r\n        contractInfo[address(this)].result = _result;\r\n        contractInfo[address(this)].origibalBet = _originalBet;\r\n        contractInfo[address(this)].minimumCounterBet = _minimumCounterBet;\r\n        \r\n        // Se emite un Evento\r\n        emit Status(string(abi.encodePacked(\"Partido \", _matchId, \" creado\")));\r\n    }\r\n\r\n    // -------------------Functions ------------------\r\n    /**\r\n    Funcin para aceptar la apuesta de otro usuario\r\n     */\r\n    function acceptBet() public payable \r\n        contractActive\r\n    {\r\n        require(msg.value >= minimumCounterBet, \"Apuesta insuficiente\");\r\n        require(isAccepted == false, \"Apuesta ya aceptada\");\r\n        counterGambler = payable(msg.sender);\r\n        counterGambler.transfer(msg.value);\r\n        contractInfo[address(this)].counterGambler = counterGambler;\r\n        isAccepted = true;\r\n        \r\n        fatherContract = Father(address(fatherAddress));\r\n        fatherContract.addBetToCounterGambler(counterGambler, address(this));\r\n\r\n        emit Status(string(abi.encodePacked(counterGambler, \" ha aceptado la apuesta de \", originalOwner)));\r\n    }\r\n\r\n    /**\r\n    Funcin para resulver una apuesta y repartir las ganancias\r\n     */\r\n    function resolveBet() public payable \r\n        isParticipant(msg.sender)\r\n        contractActive \r\n    {\r\n        require(isAccepted);\r\n        //TODO\r\n        //Hacemos la llamada a ChainLink\r\n        //comparamos result con el valor de ChainLink\r\n        if(result == 1 /*resultado de ChainLink*/) {\r\n            //transferimos las ganancias al originalOwner\r\n            originalOwner.transfer(address(this).balance);\r\n        }\r\n        else {\r\n            //transferimos las ganancias al counterGambler\r\n            counterGambler.transfer(address(this).balance);\r\n        }\r\n        //desactivamos le contrato\r\n        activeBet = false;\r\n        //Emitimos el estatus\r\n        emit Status(string(abi.encodePacked(\"Apuesta \", getContractAddress(), \" resuelta\")));\r\n    }\r\n\r\n    /**\r\n    Funcin que elimina la apuesta en caso de no estar aceptada\r\n    Returns: true si la apuesta se elimina correctamente\r\n     */\r\n    function removeBet() public payable \r\n        isOriginalOwner(msg.sender)\r\n        contractActive\r\n        returns (bool)\r\n    {\r\n        require(!isAccepted, \"La apuesta ya ha sido aceptada\");\r\n        originalOwner.transfer(address(this).balance);\r\n        activeBet = false;\r\n        //Emitimos el estatus\r\n        emit Status(string(abi.encodePacked(\"Apuesta \", getContractAddress(), \" eliminada\")));\r\n        return true;\r\n    }\r\n\r\n    /**\r\n    Funcin que devuelve la direccin del contrato\r\n     */\r\n    function getContractAddress() onlyOwner public view returns (address)  {\r\n        return address(this);\r\n    }\r\n\r\n    /**\r\n    Funcin que devuelve informacin del contrato\r\n     */\r\n    function getContractInfo() public view returns(contractInformation memory){\r\n        return contractInfo[address(this)];\r\n    }\r\n\r\n    /**\r\n    Funcin que devuelve el id del partido\r\n     */\r\n    function getMatchId() public view returns(uint256){\r\n        return currentMatch;\r\n    }\r\n\r\n    /**\r\n    Funcin que devuelve la direccin del creador de la apuesta\r\n     */\r\n    function getOriginalOwner() public view returns(address) {\r\n        return originalOwner;\r\n    }\r\n   \r\n}\r\n",
  "sourcePath": "C:\\Desarrollo\\Master Blokchain\\bet2peer\\contracts\\Bet2Peer.sol",
  "compiler": {
    "name": "solc",
    "version": "0.8.14+commit.80d49f37.Emscripten.clang"
  },
  "schemaVersion": "3.4.7",
  "updatedAt": "2022-06-23T14:02:12.997Z",
  "devdoc": {
    "kind": "dev",
    "methods": {
      "owner()": {
        "details": "Returns the address of the current owner."
      },
      "renounceOwnership()": {
        "details": "Leaves the contract without owner. It will not be possible to call `onlyOwner` functions anymore. Can only be called by the current owner. NOTE: Renouncing ownership will leave the contract without an owner, thereby removing any functionality that is only available to the owner."
      },
      "transferOwnership(address)": {
        "details": "Transfers ownership of the contract to a new account (`newOwner`). Can only be called by the current owner."
      }
    },
    "version": 1
  },
  "userdoc": {
    "kind": "user",
    "methods": {
      "acceptBet()": {
        "notice": "Funcin para aceptar la apuesta de otro usuario"
      },
      "constructor": {
        "notice": "_originalGambler: usuario que crea la apuesta _matchId: id del partido de la apuesta _result: resultado al que se apuesta _originalBet: cantidad apostada _minimumCounterBet: cantidad a percibir en caso de ganar _fatherAddress: direccin del contrato padre"
      },
      "getContractAddress()": {
        "notice": "Funcin que devuelve la direccin del contrato"
      },
      "getContractInfo()": {
        "notice": "Funcin que devuelve informacin del contrato"
      },
      "getMatchId()": {
        "notice": "Funcin que devuelve el id del partido"
      },
      "getOriginalOwner()": {
        "notice": "Funcin que devuelve la direccin del creador de la apuesta"
      },
      "removeBet()": {
        "notice": "Funcin que elimina la apuesta en caso de no estar aceptada Returns: true si la apuesta se elimina correctamente"
      },
      "resolveBet()": {
        "notice": "Funcin para resulver una apuesta y repartir las ganancias"
      }
    },
    "version": 1
  }
}