{
  "contractName": "Bet2Peer",
  "abi": [
    {
      "inputs": [
        {
          "internalType": "address",
          "name": "_originalGambler",
          "type": "address"
        },
        {
          "internalType": "uint256",
          "name": "_matchId",
          "type": "uint256"
        },
        {
          "internalType": "uint8",
          "name": "_result",
          "type": "uint8"
        },
        {
          "internalType": "uint256",
          "name": "_originalBet",
          "type": "uint256"
        },
        {
          "internalType": "uint256",
          "name": "_minimumCounterBet",
          "type": "uint256"
        },
        {
          "internalType": "address",
          "name": "_fatherAddress",
          "type": "address"
        }
      ],
      "stateMutability": "nonpayable",
      "type": "constructor"
    },
    {
      "anonymous": false,
      "inputs": [
        {
          "indexed": true,
          "internalType": "address",
          "name": "previousOwner",
          "type": "address"
        },
        {
          "indexed": true,
          "internalType": "address",
          "name": "newOwner",
          "type": "address"
        }
      ],
      "name": "OwnershipTransferred",
      "type": "event"
    },
    {
      "anonymous": false,
      "inputs": [
        {
          "indexed": false,
          "internalType": "string",
          "name": "_message",
          "type": "string"
        }
      ],
      "name": "Status",
      "type": "event"
    },
    {
      "anonymous": false,
      "inputs": [
        {
          "indexed": false,
          "internalType": "string",
          "name": "betAccepted",
          "type": "string"
        }
      ],
      "name": "betAccepted",
      "type": "event"
    },
    {
      "anonymous": false,
      "inputs": [
        {
          "indexed": false,
          "internalType": "string",
          "name": "betCreated",
          "type": "string"
        }
      ],
      "name": "betCreated",
      "type": "event"
    },
    {
      "inputs": [],
      "name": "currentMatch",
      "outputs": [
        {
          "internalType": "uint256",
          "name": "",
          "type": "uint256"
        }
      ],
      "stateMutability": "view",
      "type": "function"
    },
    {
      "inputs": [],
      "name": "owner",
      "outputs": [
        {
          "internalType": "address",
          "name": "",
          "type": "address"
        }
      ],
      "stateMutability": "view",
      "type": "function"
    },
    {
      "inputs": [],
      "name": "renounceOwnership",
      "outputs": [],
      "stateMutability": "nonpayable",
      "type": "function"
    },
    {
      "inputs": [
        {
          "internalType": "address",
          "name": "newOwner",
          "type": "address"
        }
      ],
      "name": "transferOwnership",
      "outputs": [],
      "stateMutability": "nonpayable",
      "type": "function"
    },
    {
      "inputs": [],
      "name": "acceptBet",
      "outputs": [],
      "stateMutability": "payable",
      "type": "function"
    },
    {
      "inputs": [],
      "name": "resolveBet",
      "outputs": [],
      "stateMutability": "payable",
      "type": "function"
    },
    {
      "inputs": [],
      "name": "removeBet",
      "outputs": [
        {
          "internalType": "bool",
          "name": "",
          "type": "bool"
        }
      ],
      "stateMutability": "payable",
      "type": "function"
    },
    {
      "inputs": [],
      "name": "getContractAddress",
      "outputs": [
        {
          "internalType": "address",
          "name": "",
          "type": "address"
        }
      ],
      "stateMutability": "view",
      "type": "function"
    },
    {
      "inputs": [],
      "name": "getMatchId",
      "outputs": [
        {
          "internalType": "uint256",
          "name": "",
          "type": "uint256"
        }
      ],
      "stateMutability": "view",
      "type": "function"
    },
    {
      "inputs": [],
      "name": "getOriginalOwner",
      "outputs": [
        {
          "internalType": "address",
          "name": "",
          "type": "address"
        }
      ],
      "stateMutability": "view",
      "type": "function"
    }
  ],
  "bytecode": "0x60806040523480156200001157600080fd5b506040516200190038038062001900833981810160405281019062000037919062000339565b620000576200004b6200018a60201b60201c565b6200019260201b60201c565b85600260006101000a81548173ffffffffffffffffffffffffffffffffffffffff021916908373ffffffffffffffffffffffffffffffffffffffff1602179055508460018190555083600360146101000a81548160ff021916908360ff160217905550826004819055508160058190555080600660006101000a81548173ffffffffffffffffffffffffffffffffffffffff021916908373ffffffffffffffffffffffffffffffffffffffff1602179055506001600660146101000a81548160ff0219169083151502179055507f2844c95bf1b4598da931d527f903501abc60fe0199c65da52d5ce818c6c5e96185604051602001620001589190620004a5565b60405160208183030381529060405260405162000176919062000580565b60405180910390a1505050505050620005a4565b600033905090565b60008060009054906101000a900473ffffffffffffffffffffffffffffffffffffffff169050816000806101000a81548173ffffffffffffffffffffffffffffffffffffffff021916908373ffffffffffffffffffffffffffffffffffffffff1602179055508173ffffffffffffffffffffffffffffffffffffffff168173ffffffffffffffffffffffffffffffffffffffff167f8be0079c531659141344cd1fd0a4f28419497f9722a3daafe3b4186f6b6457e060405160405180910390a35050565b600080fd5b600073ffffffffffffffffffffffffffffffffffffffff82169050919050565b600062000288826200025b565b9050919050565b6200029a816200027b565b8114620002a657600080fd5b50565b600081519050620002ba816200028f565b92915050565b6000819050919050565b620002d581620002c0565b8114620002e157600080fd5b50565b600081519050620002f581620002ca565b92915050565b600060ff82169050919050565b6200031381620002fb565b81146200031f57600080fd5b50565b600081519050620003338162000308565b92915050565b60008060008060008060c0878903121562000359576200035862000256565b5b60006200036989828a01620002a9565b96505060206200037c89828a01620002e4565b95505060406200038f89828a0162000322565b9450506060620003a289828a01620002e4565b9350506080620003b589828a01620002e4565b92505060a0620003c889828a01620002a9565b9150509295509295509295565b600081905092915050565b7f5061727469646f20000000000000000000000000000000000000000000000000600082015250565b600062000418600883620003d5565b91506200042582620003e0565b600882019050919050565b6000819050919050565b6200044f6200044982620002c0565b62000430565b82525050565b7f2063726561646f00000000000000000000000000000000000000000000000000600082015250565b60006200048d600783620003d5565b91506200049a8262000455565b600782019050919050565b6000620004b28262000409565b9150620004c082846200043a565b602082019150620004d1826200047e565b915081905092915050565b600081519050919050565b600082825260208201905092915050565b60005b8381101562000518578082015181840152602081019050620004fb565b8381111562000528576000848401525b50505050565b6000601f19601f8301169050919050565b60006200054c82620004dc565b620005588185620004e7565b93506200056a818560208601620004f8565b62000575816200052e565b840191505092915050565b600060208201905081810360008301526200059c81846200053f565b905092915050565b61134c80620005b46000396000f3fe6080604052600436106100915760003560e01c80638da5cb5b116100595780638da5cb5b146101385780638fced62614610163578063ad9136331461016d578063f2fde38b14610198578063fc884bff146101c157610091565b8063153dc182146100965780632c70444e146100c157806330bfcb5f146100ec57806332a2c5d0146100f6578063715018a614610121575b600080fd5b3480156100a257600080fd5b506100ab6101df565b6040516100b89190610bdf565b60405180910390f35b3480156100cd57600080fd5b506100d66101e9565b6040516100e39190610bdf565b60405180910390f35b6100f46101ef565b005b34801561010257600080fd5b5061010b6103cb565b6040516101189190610c3b565b60405180910390f35b34801561012d57600080fd5b5061013661044f565b005b34801561014457600080fd5b5061014d6104d7565b60405161015a9190610c3b565b60405180910390f35b61016b610500565b005b34801561017957600080fd5b506101826107be565b60405161018f9190610c3b565b60405180910390f35b3480156101a457600080fd5b506101bf60048036038101906101ba9190610c87565b6107e8565b005b6101c96108df565b6040516101d69190610ccf565b60405180910390f35b6000600154905090565b60015481565b600660149054906101000a900460ff1661023e576040517f08c379a000000000000000000000000000000000000000000000000000000000815260040161023590610d47565b60405180910390fd5b600554341015610283576040517f08c379a000000000000000000000000000000000000000000000000000000000815260040161027a90610db3565b60405180910390fd5b33600360006101000a81548173ffffffffffffffffffffffffffffffffffffffff021916908373ffffffffffffffffffffffffffffffffffffffff160217905550600360009054906101000a900473ffffffffffffffffffffffffffffffffffffffff1673ffffffffffffffffffffffffffffffffffffffff166108fc349081150290604051600060405180830381858888f1935050505015801561032c573d6000803e3d6000fd5b507f2844c95bf1b4598da931d527f903501abc60fe0199c65da52d5ce818c6c5e961600360009054906101000a900473ffffffffffffffffffffffffffffffffffffffff16600260009054906101000a900473ffffffffffffffffffffffffffffffffffffffff166040516020016103a5929190610e84565b6040516020818303038152906040526040516103c19190610f43565b60405180910390a1565b60006103d5610afa565b73ffffffffffffffffffffffffffffffffffffffff166103f36104d7565b73ffffffffffffffffffffffffffffffffffffffff1614610449576040517f08c379a000000000000000000000000000000000000000000000000000000000815260040161044090610fb1565b60405180910390fd5b30905090565b610457610afa565b73ffffffffffffffffffffffffffffffffffffffff166104756104d7565b73ffffffffffffffffffffffffffffffffffffffff16146104cb576040517f08c379a00000000000000000000000000000000000000000000000000000000081526004016104c290610fb1565b60405180910390fd5b6104d56000610b02565b565b60008060009054906101000a900473ffffffffffffffffffffffffffffffffffffffff16905090565b33600260009054906101000a900473ffffffffffffffffffffffffffffffffffffffff1673ffffffffffffffffffffffffffffffffffffffff168173ffffffffffffffffffffffffffffffffffffffff1614806105aa5750600360009054906101000a900473ffffffffffffffffffffffffffffffffffffffff1673ffffffffffffffffffffffffffffffffffffffff168173ffffffffffffffffffffffffffffffffffffffff16145b6105e9576040517f08c379a00000000000000000000000000000000000000000000000000000000081526004016105e09061101d565b60405180910390fd5b600660149054906101000a900460ff16610638576040517f08c379a000000000000000000000000000000000000000000000000000000000815260040161062f90610d47565b60405180910390fd5b600660159054906101000a900460ff1661065157600080fd5b6001600360149054906101000a900460ff1660ff16036106d957600260009054906101000a900473ffffffffffffffffffffffffffffffffffffffff1673ffffffffffffffffffffffffffffffffffffffff166108fc479081150290604051600060405180830381858888f193505050501580156106d3573d6000803e3d6000fd5b50610743565b600360009054906101000a900473ffffffffffffffffffffffffffffffffffffffff1673ffffffffffffffffffffffffffffffffffffffff166108fc479081150290604051600060405180830381858888f19350505050158015610741573d6000803e3d6000fd5b505b6000600660146101000a81548160ff0219169083151502179055507f2844c95bf1b4598da931d527f903501abc60fe0199c65da52d5ce818c6c5e9616107876103cb565b60405160200161079791906110fe565b6040516020818303038152906040526040516107b39190610f43565b60405180910390a150565b6000600260009054906101000a900473ffffffffffffffffffffffffffffffffffffffff16905090565b6107f0610afa565b73ffffffffffffffffffffffffffffffffffffffff1661080e6104d7565b73ffffffffffffffffffffffffffffffffffffffff1614610864576040517f08c379a000000000000000000000000000000000000000000000000000000000815260040161085b90610fb1565b60405180910390fd5b600073ffffffffffffffffffffffffffffffffffffffff168173ffffffffffffffffffffffffffffffffffffffff16036108d3576040517f08c379a00000000000000000000000000000000000000000000000000000000081526004016108ca906111a1565b60405180910390fd5b6108dc81610b02565b50565b600033600260009054906101000a900473ffffffffffffffffffffffffffffffffffffffff1673ffffffffffffffffffffffffffffffffffffffff168173ffffffffffffffffffffffffffffffffffffffff1614610972576040517f08c379a00000000000000000000000000000000000000000000000000000000081526004016109699061120d565b60405180910390fd5b600660149054906101000a900460ff166109c1576040517f08c379a00000000000000000000000000000000000000000000000000000000081526004016109b890610d47565b60405180910390fd5b600660159054906101000a900460ff1615610a11576040517f08c379a0000000000000000000000000000000000000000000000000000000008152600401610a0890611279565b60405180910390fd5b600260009054906101000a900473ffffffffffffffffffffffffffffffffffffffff1673ffffffffffffffffffffffffffffffffffffffff166108fc479081150290604051600060405180830381858888f19350505050158015610a79573d6000803e3d6000fd5b506000600660146101000a81548160ff0219169083151502179055507f2844c95bf1b4598da931d527f903501abc60fe0199c65da52d5ce818c6c5e961610abe6103cb565b604051602001610ace91906112e5565b604051602081830303815290604052604051610aea9190610f43565b60405180910390a1600191505090565b600033905090565b60008060009054906101000a900473ffffffffffffffffffffffffffffffffffffffff169050816000806101000a81548173ffffffffffffffffffffffffffffffffffffffff021916908373ffffffffffffffffffffffffffffffffffffffff1602179055508173ffffffffffffffffffffffffffffffffffffffff168173ffffffffffffffffffffffffffffffffffffffff167f8be0079c531659141344cd1fd0a4f28419497f9722a3daafe3b4186f6b6457e060405160405180910390a35050565b6000819050919050565b610bd981610bc6565b82525050565b6000602082019050610bf46000830184610bd0565b92915050565b600073ffffffffffffffffffffffffffffffffffffffff82169050919050565b6000610c2582610bfa565b9050919050565b610c3581610c1a565b82525050565b6000602082019050610c506000830184610c2c565b92915050565b600080fd5b610c6481610c1a565b8114610c6f57600080fd5b50565b600081359050610c8181610c5b565b92915050565b600060208284031215610c9d57610c9c610c56565b5b6000610cab84828501610c72565b91505092915050565b60008115159050919050565b610cc981610cb4565b82525050565b6000602082019050610ce46000830184610cc0565b92915050565b600082825260208201905092915050565b7f457374612061707565737461206e6f2065737461206163746976610000000000600082015250565b6000610d31601b83610cea565b9150610d3c82610cfb565b602082019050919050565b60006020820190508181036000830152610d6081610d24565b9050919050565b7f4170756573746120696e737566696369656e7465000000000000000000000000600082015250565b6000610d9d601483610cea565b9150610da882610d67565b602082019050919050565b60006020820190508181036000830152610dcc81610d90565b9050919050565b6000610dde82610bfa565b9050919050565b60008160601b9050919050565b6000610dfd82610de5565b9050919050565b6000610e0f82610df2565b9050919050565b610e27610e2282610dd3565b610e04565b82525050565b600081905092915050565b7f20686120616365707461646f206c612061707565737461206465200000000000600082015250565b6000610e6e601b83610e2d565b9150610e7982610e38565b601b82019050919050565b6000610e908285610e16565b601482019150610e9f82610e61565b9150610eab8284610e16565b6014820191508190509392505050565b600081519050919050565b60005b83811015610ee4578082015181840152602081019050610ec9565b83811115610ef3576000848401525b50505050565b6000601f19601f8301169050919050565b6000610f1582610ebb565b610f1f8185610cea565b9350610f2f818560208601610ec6565b610f3881610ef9565b840191505092915050565b60006020820190508181036000830152610f5d8184610f0a565b905092915050565b7f4f776e61626c653a2063616c6c6572206973206e6f7420746865206f776e6572600082015250565b6000610f9b602083610cea565b9150610fa682610f65565b602082019050919050565b60006020820190508181036000830152610fca81610f8e565b9050919050565b7f4e6f207061727469636970617320656e20657374612061707565737461000000600082015250565b6000611007601d83610cea565b915061101282610fd1565b602082019050919050565b6000602082019050818103600083015261103681610ffa565b9050919050565b7f4170756573746120000000000000000000000000000000000000000000000000600082015250565b6000611073600883610e2d565b915061107e8261103d565b600882019050919050565b600061109482610df2565b9050919050565b6110ac6110a782610c1a565b611089565b82525050565b7f2072657375656c74610000000000000000000000000000000000000000000000600082015250565b60006110e8600983610e2d565b91506110f3826110b2565b600982019050919050565b600061110982611066565b9150611115828461109b565b601482019150611124826110db565b915081905092915050565b7f4f776e61626c653a206e6577206f776e657220697320746865207a65726f206160008201527f6464726573730000000000000000000000000000000000000000000000000000602082015250565b600061118b602683610cea565b91506111968261112f565b604082019050919050565b600060208201905081810360008301526111ba8161117e565b9050919050565b7f4e6f206572657320656c2063726561646f72206465206c612061707565737461600082015250565b60006111f7602083610cea565b9150611202826111c1565b602082019050919050565b60006020820190508181036000830152611226816111ea565b9050919050565b7f4c612061707565737461207961206861207369646f2061636570746164610000600082015250565b6000611263601e83610cea565b915061126e8261122d565b602082019050919050565b6000602082019050818103600083015261129281611256565b9050919050565b7f20656c696d696e61646100000000000000000000000000000000000000000000600082015250565b60006112cf600a83610e2d565b91506112da82611299565b600a82019050919050565b60006112f082611066565b91506112fc828461109b565b60148201915061130b826112c2565b91508190509291505056fea26469706673582212205d45e5ec78901196411bef0819708bc299957fa9f1e3048deb1da8bef894f58164736f6c634300080e0033",
  "immutableReferences": {},
  "source": "/**\r\n *Submitted for verification at Etherscan.io on 2022-04-22\r\n */\r\n\r\n// Version de solidity del Smart Contract\r\n// SPDX-License-Identifier: UNLICENSED\r\n\r\npragma solidity 0.8.14;\r\n\r\nimport \"../client/node_modules/@openzeppelin/contracts/access/Ownable.sol\";\r\n\r\n\r\n// Informacion del Smart Contract\r\n// Nombre: Subasta\r\n// Logica: Implementa subasta de productos entre varios participantes\r\n\r\n// Declaracion del Smart Contract - Auction\r\ncontract Bet2Peer is Ownable {\r\n\r\n    // ----------- Variables (datos) -----------\r\n    enum resultType {\r\n        draw,\r\n        localWin,\r\n        visitorWin\r\n    }\r\n    uint256 public currentMatch;\r\n    address payable originalOwner;\r\n    address payable counterGambler;\r\n    uint8 result;\r\n    uint256 origibalBet;\r\n    uint256 minimumCounterBet;\r\n    address fatherAddress;\r\n\r\n    bool activeBet;\r\n    bool isAccepted;\r\n\r\n    // ----------- Events -----------\r\n    event Status(string _message);\r\n    event betCreated (\r\n        string betCreated\r\n    );\r\n    event betAccepted (\r\n        string betAccepted\r\n    );\r\n\r\n    // ------------Modifiers ----------\r\n    modifier isParticipant(address sender) {\r\n        require(\r\n            sender == originalOwner || \r\n            sender == counterGambler,\r\n            \"No participas en esta apuesta\"\r\n        );\r\n        _;\r\n    }\r\n    modifier isOriginalOwner(address sender) {\r\n        require(\r\n            sender == originalOwner,\r\n            \"No eres el creador de la apuesta\"\r\n        );\r\n        _;\r\n    }\r\n    modifier contractActive() {\r\n        require(\r\n            activeBet, \r\n            \"Esta apuesta no esta activa\"\r\n            );\r\n        _;\r\n    }\r\n\r\n    // ----------- Constructor -----------\r\n    /**\r\n    _originalGambler: usuario que crea la apuesta\r\n    _matchId: id del partido de la apuesta\r\n    _result: resultado al que se apuesta\r\n    _originalBet: cantidad apostada\r\n    _minimumCounterBet: cantidad a percibir en caso de ganar\r\n    _fatherAddress: direccin del contrato padre\r\n     */\r\n    constructor(address _originalGambler, uint256 _matchId, uint8 _result, uint256 _originalBet, uint256 _minimumCounterBet, address _fatherAddress) {\r\n        originalOwner = payable(_originalGambler);\r\n        currentMatch = _matchId;\r\n        result = _result;\r\n        origibalBet = _originalBet;\r\n        minimumCounterBet = _minimumCounterBet;\r\n        fatherAddress = _fatherAddress;\r\n        activeBet = true;\r\n        // Se emite un Evento\r\n        emit Status(string(abi.encodePacked(\"Partido \", _matchId, \" creado\")));\r\n    }\r\n\r\n    // -------------------Functions ------------------\r\n    /**\r\n    Funcin para aceptar la apuesta de otro usuario\r\n     */\r\n    function acceptBet() public payable \r\n        contractActive\r\n    {\r\n        require(msg.value >= minimumCounterBet, \"Apuesta insuficiente\");\r\n        counterGambler = payable(msg.sender);\r\n        counterGambler.transfer(msg.value);\r\n\r\n        emit Status(string(abi.encodePacked(counterGambler, \" ha aceptado la apuesta de \", originalOwner)));\r\n    }\r\n\r\n    /**\r\n    Funcin para resulver una apuesta y repartir las ganancias\r\n     */\r\n    function resolveBet() public payable \r\n        isParticipant(msg.sender)\r\n        contractActive \r\n    {\r\n        require(isAccepted);\r\n        //TODO\r\n        //Hacemos la llamada a ChainLink\r\n        //comparamos result con el valor de ChainLink\r\n        if(result == 1 /*resultado de ChainLink*/) {\r\n            //transferimos las ganancias al originalOwner\r\n            originalOwner.transfer(address(this).balance);\r\n        }\r\n        else {\r\n            //transferimos las ganancias al counterGambler\r\n            counterGambler.transfer(address(this).balance);\r\n        }\r\n        //desactivamos le contrato\r\n        activeBet = false;\r\n        //Emitimos el estatus\r\n        emit Status(string(abi.encodePacked(\"Apuesta \", getContractAddress(), \" resuelta\")));\r\n    }\r\n\r\n    /**\r\n    Funcin que elimina la apuesta en caso de no estar aceptada\r\n    Returns: true si la apuesta se elimina correctamente\r\n     */\r\n    function removeBet() public payable \r\n        isOriginalOwner(msg.sender)\r\n        contractActive\r\n        returns (bool)\r\n    {\r\n        require(!isAccepted, \"La apuesta ya ha sido aceptada\");\r\n        originalOwner.transfer(address(this).balance);\r\n        activeBet = false;\r\n        //Emitimos el estatus\r\n        emit Status(string(abi.encodePacked(\"Apuesta \", getContractAddress(), \" eliminada\")));\r\n        return true;\r\n    }\r\n\r\n    /**\r\n    Funcin que devuelve la direccin del contrato\r\n     */\r\n    function getContractAddress() onlyOwner public view returns (address)  {\r\n        return address(this);\r\n    }\r\n\r\n    /**\r\n    Funcin que devuelve el id del partido\r\n     */\r\n    function getMatchId() public view returns(uint256){\r\n        return currentMatch;\r\n    }\r\n\r\n    /**\r\n    Funcin que devuelve la direccin del creador de la apuesta\r\n     */\r\n    function getOriginalOwner() public view returns(address) {\r\n        return originalOwner;\r\n    }\r\n   \r\n}\r\n",
  "sourcePath": "C:\\Users\\Daniel\\Documents\\Trabajos\\Master UEM\\Dapps\\bet2peer\\contracts\\Bet2Peer.sol",
  "compiler": {
    "name": "solc",
    "version": "0.8.14+commit.80d49f37.Emscripten.clang"
  },
  "schemaVersion": "3.4.7",
  "updatedAt": "2022-06-17T17:37:23.997Z",
  "networkType": "ethereum",
  "devdoc": {
    "kind": "dev",
    "methods": {
      "owner()": {
        "details": "Returns the address of the current owner."
      },
      "renounceOwnership()": {
        "details": "Leaves the contract without owner. It will not be possible to call `onlyOwner` functions anymore. Can only be called by the current owner. NOTE: Renouncing ownership will leave the contract without an owner, thereby removing any functionality that is only available to the owner."
      },
      "transferOwnership(address)": {
        "details": "Transfers ownership of the contract to a new account (`newOwner`). Can only be called by the current owner."
      }
    },
    "version": 1
  },
  "userdoc": {
    "kind": "user",
    "methods": {
      "acceptBet()": {
        "notice": "Funcin para aceptar la apuesta de otro usuario"
      },
      "constructor": {
        "notice": "_originalGambler: usuario que crea la apuesta _matchId: id del partido de la apuesta _result: resultado al que se apuesta _originalBet: cantidad apostada _minimumCounterBet: cantidad a percibir en caso de ganar _fatherAddress: direccin del contrato padre"
      },
      "getContractAddress()": {
        "notice": "Funcin que devuelve la direccin del contrato"
      },
      "getMatchId()": {
        "notice": "Funcin que devuelve el id del partido"
      },
      "getOriginalOwner()": {
        "notice": "Funcin que devuelve la direccin del creador de la apuesta"
      },
      "removeBet()": {
        "notice": "Funcin que elimina la apuesta en caso de no estar aceptada Returns: true si la apuesta se elimina correctamente"
      },
      "resolveBet()": {
        "notice": "Funcin para resulver una apuesta y repartir las ganancias"
      }
    },
    "version": 1
  }
}