{
  "contractName": "Bet2Peer",
  "abi": [
    {
      "inputs": [
        {
          "internalType": "address",
          "name": "_originalGambler",
          "type": "address"
        },
        {
          "internalType": "uint256",
          "name": "_matchId",
          "type": "uint256"
        },
        {
          "internalType": "uint8",
          "name": "_result",
          "type": "uint8"
        },
        {
          "internalType": "uint256",
          "name": "_originalBet",
          "type": "uint256"
        },
        {
          "internalType": "uint256",
          "name": "_minimumCounterBet",
          "type": "uint256"
        },
        {
          "internalType": "address",
          "name": "_fatherAddress",
          "type": "address"
        }
      ],
      "stateMutability": "nonpayable",
      "type": "constructor"
    },
    {
      "anonymous": false,
      "inputs": [
        {
          "indexed": true,
          "internalType": "address",
          "name": "previousOwner",
          "type": "address"
        },
        {
          "indexed": true,
          "internalType": "address",
          "name": "newOwner",
          "type": "address"
        }
      ],
      "name": "OwnershipTransferred",
      "type": "event"
    },
    {
      "anonymous": false,
      "inputs": [
        {
          "indexed": false,
          "internalType": "string",
          "name": "_message",
          "type": "string"
        }
      ],
      "name": "Status",
      "type": "event"
    },
    {
      "anonymous": false,
      "inputs": [
        {
          "indexed": false,
          "internalType": "string",
          "name": "betAccepted",
          "type": "string"
        }
      ],
      "name": "betAccepted",
      "type": "event"
    },
    {
      "anonymous": false,
      "inputs": [
        {
          "indexed": false,
          "internalType": "string",
          "name": "betCreated",
          "type": "string"
        }
      ],
      "name": "betCreated",
      "type": "event"
    },
    {
      "inputs": [
        {
          "internalType": "address",
          "name": "",
          "type": "address"
        }
      ],
      "name": "contractInfo",
      "outputs": [
        {
          "internalType": "address",
          "name": "originalOwner",
          "type": "address"
        },
        {
          "internalType": "uint256",
          "name": "currentMatch",
          "type": "uint256"
        },
        {
          "internalType": "uint8",
          "name": "result",
          "type": "uint8"
        },
        {
          "internalType": "uint256",
          "name": "origibalBet",
          "type": "uint256"
        },
        {
          "internalType": "uint256",
          "name": "minimumCounterBet",
          "type": "uint256"
        }
      ],
      "stateMutability": "view",
      "type": "function"
    },
    {
      "inputs": [],
      "name": "currentMatch",
      "outputs": [
        {
          "internalType": "uint256",
          "name": "",
          "type": "uint256"
        }
      ],
      "stateMutability": "view",
      "type": "function"
    },
    {
      "inputs": [],
      "name": "owner",
      "outputs": [
        {
          "internalType": "address",
          "name": "",
          "type": "address"
        }
      ],
      "stateMutability": "view",
      "type": "function"
    },
    {
      "inputs": [],
      "name": "renounceOwnership",
      "outputs": [],
      "stateMutability": "nonpayable",
      "type": "function"
    },
    {
      "inputs": [
        {
          "internalType": "address",
          "name": "newOwner",
          "type": "address"
        }
      ],
      "name": "transferOwnership",
      "outputs": [],
      "stateMutability": "nonpayable",
      "type": "function"
    },
    {
      "inputs": [],
      "name": "acceptBet",
      "outputs": [],
      "stateMutability": "payable",
      "type": "function"
    },
    {
      "inputs": [],
      "name": "resolveBet",
      "outputs": [],
      "stateMutability": "payable",
      "type": "function"
    },
    {
      "inputs": [],
      "name": "removeBet",
      "outputs": [
        {
          "internalType": "bool",
          "name": "",
          "type": "bool"
        }
      ],
      "stateMutability": "payable",
      "type": "function"
    },
    {
      "inputs": [],
      "name": "getContractAddress",
      "outputs": [
        {
          "internalType": "address",
          "name": "",
          "type": "address"
        }
      ],
      "stateMutability": "view",
      "type": "function"
    },
    {
      "inputs": [],
      "name": "getContractInfo",
      "outputs": [
        {
          "components": [
            {
              "internalType": "address",
              "name": "originalOwner",
              "type": "address"
            },
            {
              "internalType": "uint256",
              "name": "currentMatch",
              "type": "uint256"
            },
            {
              "internalType": "uint8",
              "name": "result",
              "type": "uint8"
            },
            {
              "internalType": "uint256",
              "name": "origibalBet",
              "type": "uint256"
            },
            {
              "internalType": "uint256",
              "name": "minimumCounterBet",
              "type": "uint256"
            }
          ],
          "internalType": "struct Bet2Peer.contractInformation",
          "name": "",
          "type": "tuple"
        }
      ],
      "stateMutability": "view",
      "type": "function"
    },
    {
      "inputs": [],
      "name": "getMatchId",
      "outputs": [
        {
          "internalType": "uint256",
          "name": "",
          "type": "uint256"
        }
      ],
      "stateMutability": "view",
      "type": "function"
    },
    {
      "inputs": [],
      "name": "getOriginalOwner",
      "outputs": [
        {
          "internalType": "address",
          "name": "",
          "type": "address"
        }
      ],
      "stateMutability": "view",
      "type": "function"
    }
  ],
  "bytecode": "0x60806040523480156200001157600080fd5b5060405162001de538038062001de58339818101604052810190620000379190620004ea565b620000576200004b6200033b60201b60201c565b6200034360201b60201c565b85600360006101000a81548173ffffffffffffffffffffffffffffffffffffffff021916908373ffffffffffffffffffffffffffffffffffffffff1602179055508460028190555083600460146101000a81548160ff021916908360ff160217905550826005819055508160068190555080600760006101000a81548173ffffffffffffffffffffffffffffffffffffffff021916908373ffffffffffffffffffffffffffffffffffffffff1602179055506001600760146101000a81548160ff02191690831515021790555085600160003073ffffffffffffffffffffffffffffffffffffffff1673ffffffffffffffffffffffffffffffffffffffff16815260200190815260200160002060000160006101000a81548173ffffffffffffffffffffffffffffffffffffffff021916908373ffffffffffffffffffffffffffffffffffffffff16021790555084600160003073ffffffffffffffffffffffffffffffffffffffff1673ffffffffffffffffffffffffffffffffffffffff1681526020019081526020016000206001018190555083600160003073ffffffffffffffffffffffffffffffffffffffff1673ffffffffffffffffffffffffffffffffffffffff16815260200190815260200160002060020160006101000a81548160ff021916908360ff16021790555082600160003073ffffffffffffffffffffffffffffffffffffffff1673ffffffffffffffffffffffffffffffffffffffff1681526020019081526020016000206003018190555081600160003073ffffffffffffffffffffffffffffffffffffffff1673ffffffffffffffffffffffffffffffffffffffff168152602001908152602001600020600401819055507f2844c95bf1b4598da931d527f903501abc60fe0199c65da52d5ce818c6c5e9618560405160200162000309919062000656565b60405160208183030381529060405260405162000327919062000731565b60405180910390a150505050505062000755565b600033905090565b60008060009054906101000a900473ffffffffffffffffffffffffffffffffffffffff169050816000806101000a81548173ffffffffffffffffffffffffffffffffffffffff021916908373ffffffffffffffffffffffffffffffffffffffff1602179055508173ffffffffffffffffffffffffffffffffffffffff168173ffffffffffffffffffffffffffffffffffffffff167f8be0079c531659141344cd1fd0a4f28419497f9722a3daafe3b4186f6b6457e060405160405180910390a35050565b600080fd5b600073ffffffffffffffffffffffffffffffffffffffff82169050919050565b600062000439826200040c565b9050919050565b6200044b816200042c565b81146200045757600080fd5b50565b6000815190506200046b8162000440565b92915050565b6000819050919050565b620004868162000471565b81146200049257600080fd5b50565b600081519050620004a6816200047b565b92915050565b600060ff82169050919050565b620004c481620004ac565b8114620004d057600080fd5b50565b600081519050620004e481620004b9565b92915050565b60008060008060008060c087890312156200050a576200050962000407565b5b60006200051a89828a016200045a565b96505060206200052d89828a0162000495565b95505060406200054089828a01620004d3565b94505060606200055389828a0162000495565b93505060806200056689828a0162000495565b92505060a06200057989828a016200045a565b9150509295509295509295565b600081905092915050565b7f5061727469646f20000000000000000000000000000000000000000000000000600082015250565b6000620005c960088362000586565b9150620005d68262000591565b600882019050919050565b6000819050919050565b62000600620005fa8262000471565b620005e1565b82525050565b7f2063726561646f00000000000000000000000000000000000000000000000000600082015250565b60006200063e60078362000586565b91506200064b8262000606565b600782019050919050565b60006200066382620005ba565b9150620006718284620005eb565b60208201915062000682826200062f565b915081905092915050565b600081519050919050565b600082825260208201905092915050565b60005b83811015620006c9578082015181840152602081019050620006ac565b83811115620006d9576000848401525b50505050565b6000601f19601f8301169050919050565b6000620006fd826200068d565b62000709818562000698565b93506200071b818560208601620006a9565b6200072681620006df565b840191505092915050565b600060208201905081810360008301526200074d8184620006f0565b905092915050565b61168080620007656000396000f3fe6080604052600436106100a75760003560e01c80638da5cb5b116100645780638da5cb5b146101795780638fced626146101a4578063ad913633146101ae578063e11eb98d146101d9578063f2fde38b1461021a578063fc884bff14610243576100a7565b8063153dc182146100ac5780632c70444e146100d757806330bfcb5f1461010257806332a2c5d01461010c578063715018a6146101375780637cc1f8671461014e575b600080fd5b3480156100b857600080fd5b506100c1610261565b6040516100ce9190610df4565b60405180910390f35b3480156100e357600080fd5b506100ec61026b565b6040516100f99190610df4565b60405180910390f35b61010a610271565b005b34801561011857600080fd5b5061012161044d565b60405161012e9190610e50565b60405180910390f35b34801561014357600080fd5b5061014c6104d1565b005b34801561015a57600080fd5b50610163610559565b6040516101709190610f0d565b60405180910390f35b34801561018557600080fd5b5061018e610641565b60405161019b9190610e50565b60405180910390f35b6101ac61066a565b005b3480156101ba57600080fd5b506101c3610928565b6040516101d09190610e50565b60405180910390f35b3480156101e557600080fd5b5061020060048036038101906101fb9190610f59565b610952565b604051610211959493929190610f95565b60405180910390f35b34801561022657600080fd5b50610241600480360381019061023c9190610f59565b6109b5565b005b61024b610aac565b6040516102589190611003565b60405180910390f35b6000600254905090565b60025481565b600760149054906101000a900460ff166102c0576040517f08c379a00000000000000000000000000000000000000000000000000000000081526004016102b79061107b565b60405180910390fd5b600654341015610305576040517f08c379a00000000000000000000000000000000000000000000000000000000081526004016102fc906110e7565b60405180910390fd5b33600460006101000a81548173ffffffffffffffffffffffffffffffffffffffff021916908373ffffffffffffffffffffffffffffffffffffffff160217905550600460009054906101000a900473ffffffffffffffffffffffffffffffffffffffff1673ffffffffffffffffffffffffffffffffffffffff166108fc349081150290604051600060405180830381858888f193505050501580156103ae573d6000803e3d6000fd5b507f2844c95bf1b4598da931d527f903501abc60fe0199c65da52d5ce818c6c5e961600460009054906101000a900473ffffffffffffffffffffffffffffffffffffffff16600360009054906101000a900473ffffffffffffffffffffffffffffffffffffffff166040516020016104279291906111b8565b6040516020818303038152906040526040516104439190611277565b60405180910390a1565b6000610457610cc7565b73ffffffffffffffffffffffffffffffffffffffff16610475610641565b73ffffffffffffffffffffffffffffffffffffffff16146104cb576040517f08c379a00000000000000000000000000000000000000000000000000000000081526004016104c2906112e5565b60405180910390fd5b30905090565b6104d9610cc7565b73ffffffffffffffffffffffffffffffffffffffff166104f7610641565b73ffffffffffffffffffffffffffffffffffffffff161461054d576040517f08c379a0000000000000000000000000000000000000000000000000000000008152600401610544906112e5565b60405180910390fd5b6105576000610ccf565b565b610561610d93565b600160003073ffffffffffffffffffffffffffffffffffffffff1673ffffffffffffffffffffffffffffffffffffffff1681526020019081526020016000206040518060a00160405290816000820160009054906101000a900473ffffffffffffffffffffffffffffffffffffffff1673ffffffffffffffffffffffffffffffffffffffff1673ffffffffffffffffffffffffffffffffffffffff168152602001600182015481526020016002820160009054906101000a900460ff1660ff1660ff16815260200160038201548152602001600482015481525050905090565b60008060009054906101000a900473ffffffffffffffffffffffffffffffffffffffff16905090565b33600360009054906101000a900473ffffffffffffffffffffffffffffffffffffffff1673ffffffffffffffffffffffffffffffffffffffff168173ffffffffffffffffffffffffffffffffffffffff1614806107145750600460009054906101000a900473ffffffffffffffffffffffffffffffffffffffff1673ffffffffffffffffffffffffffffffffffffffff168173ffffffffffffffffffffffffffffffffffffffff16145b610753576040517f08c379a000000000000000000000000000000000000000000000000000000000815260040161074a90611351565b60405180910390fd5b600760149054906101000a900460ff166107a2576040517f08c379a00000000000000000000000000000000000000000000000000000000081526004016107999061107b565b60405180910390fd5b600760159054906101000a900460ff166107bb57600080fd5b6001600460149054906101000a900460ff1660ff160361084357600360009054906101000a900473ffffffffffffffffffffffffffffffffffffffff1673ffffffffffffffffffffffffffffffffffffffff166108fc479081150290604051600060405180830381858888f1935050505015801561083d573d6000803e3d6000fd5b506108ad565b600460009054906101000a900473ffffffffffffffffffffffffffffffffffffffff1673ffffffffffffffffffffffffffffffffffffffff166108fc479081150290604051600060405180830381858888f193505050501580156108ab573d6000803e3d6000fd5b505b6000600760146101000a81548160ff0219169083151502179055507f2844c95bf1b4598da931d527f903501abc60fe0199c65da52d5ce818c6c5e9616108f161044d565b6040516020016109019190611432565b60405160208183030381529060405260405161091d9190611277565b60405180910390a150565b6000600360009054906101000a900473ffffffffffffffffffffffffffffffffffffffff16905090565b60016020528060005260406000206000915090508060000160009054906101000a900473ffffffffffffffffffffffffffffffffffffffff16908060010154908060020160009054906101000a900460ff16908060030154908060040154905085565b6109bd610cc7565b73ffffffffffffffffffffffffffffffffffffffff166109db610641565b73ffffffffffffffffffffffffffffffffffffffff1614610a31576040517f08c379a0000000000000000000000000000000000000000000000000000000008152600401610a28906112e5565b60405180910390fd5b600073ffffffffffffffffffffffffffffffffffffffff168173ffffffffffffffffffffffffffffffffffffffff1603610aa0576040517f08c379a0000000000000000000000000000000000000000000000000000000008152600401610a97906114d5565b60405180910390fd5b610aa981610ccf565b50565b600033600360009054906101000a900473ffffffffffffffffffffffffffffffffffffffff1673ffffffffffffffffffffffffffffffffffffffff168173ffffffffffffffffffffffffffffffffffffffff1614610b3f576040517f08c379a0000000000000000000000000000000000000000000000000000000008152600401610b3690611541565b60405180910390fd5b600760149054906101000a900460ff16610b8e576040517f08c379a0000000000000000000000000000000000000000000000000000000008152600401610b859061107b565b60405180910390fd5b600760159054906101000a900460ff1615610bde576040517f08c379a0000000000000000000000000000000000000000000000000000000008152600401610bd5906115ad565b60405180910390fd5b600360009054906101000a900473ffffffffffffffffffffffffffffffffffffffff1673ffffffffffffffffffffffffffffffffffffffff166108fc479081150290604051600060405180830381858888f19350505050158015610c46573d6000803e3d6000fd5b506000600760146101000a81548160ff0219169083151502179055507f2844c95bf1b4598da931d527f903501abc60fe0199c65da52d5ce818c6c5e961610c8b61044d565b604051602001610c9b9190611619565b604051602081830303815290604052604051610cb79190611277565b60405180910390a1600191505090565b600033905090565b60008060009054906101000a900473ffffffffffffffffffffffffffffffffffffffff169050816000806101000a81548173ffffffffffffffffffffffffffffffffffffffff021916908373ffffffffffffffffffffffffffffffffffffffff1602179055508173ffffffffffffffffffffffffffffffffffffffff168173ffffffffffffffffffffffffffffffffffffffff167f8be0079c531659141344cd1fd0a4f28419497f9722a3daafe3b4186f6b6457e060405160405180910390a35050565b6040518060a00160405280600073ffffffffffffffffffffffffffffffffffffffff16815260200160008152602001600060ff16815260200160008152602001600081525090565b6000819050919050565b610dee81610ddb565b82525050565b6000602082019050610e096000830184610de5565b92915050565b600073ffffffffffffffffffffffffffffffffffffffff82169050919050565b6000610e3a82610e0f565b9050919050565b610e4a81610e2f565b82525050565b6000602082019050610e656000830184610e41565b92915050565b610e7481610e2f565b82525050565b610e8381610ddb565b82525050565b600060ff82169050919050565b610e9f81610e89565b82525050565b60a082016000820151610ebb6000850182610e6b565b506020820151610ece6020850182610e7a565b506040820151610ee16040850182610e96565b506060820151610ef46060850182610e7a565b506080820151610f076080850182610e7a565b50505050565b600060a082019050610f226000830184610ea5565b92915050565b600080fd5b610f3681610e2f565b8114610f4157600080fd5b50565b600081359050610f5381610f2d565b92915050565b600060208284031215610f6f57610f6e610f28565b5b6000610f7d84828501610f44565b91505092915050565b610f8f81610e89565b82525050565b600060a082019050610faa6000830188610e41565b610fb76020830187610de5565b610fc46040830186610f86565b610fd16060830185610de5565b610fde6080830184610de5565b9695505050505050565b60008115159050919050565b610ffd81610fe8565b82525050565b60006020820190506110186000830184610ff4565b92915050565b600082825260208201905092915050565b7f457374612061707565737461206e6f2065737461206163746976610000000000600082015250565b6000611065601b8361101e565b91506110708261102f565b602082019050919050565b6000602082019050818103600083015261109481611058565b9050919050565b7f4170756573746120696e737566696369656e7465000000000000000000000000600082015250565b60006110d160148361101e565b91506110dc8261109b565b602082019050919050565b60006020820190508181036000830152611100816110c4565b9050919050565b600061111282610e0f565b9050919050565b60008160601b9050919050565b600061113182611119565b9050919050565b600061114382611126565b9050919050565b61115b61115682611107565b611138565b82525050565b600081905092915050565b7f20686120616365707461646f206c612061707565737461206465200000000000600082015250565b60006111a2601b83611161565b91506111ad8261116c565b601b82019050919050565b60006111c4828561114a565b6014820191506111d382611195565b91506111df828461114a565b6014820191508190509392505050565b600081519050919050565b60005b838110156112185780820151818401526020810190506111fd565b83811115611227576000848401525b50505050565b6000601f19601f8301169050919050565b6000611249826111ef565b611253818561101e565b93506112638185602086016111fa565b61126c8161122d565b840191505092915050565b60006020820190508181036000830152611291818461123e565b905092915050565b7f4f776e61626c653a2063616c6c6572206973206e6f7420746865206f776e6572600082015250565b60006112cf60208361101e565b91506112da82611299565b602082019050919050565b600060208201905081810360008301526112fe816112c2565b9050919050565b7f4e6f207061727469636970617320656e20657374612061707565737461000000600082015250565b600061133b601d8361101e565b915061134682611305565b602082019050919050565b6000602082019050818103600083015261136a8161132e565b9050919050565b7f4170756573746120000000000000000000000000000000000000000000000000600082015250565b60006113a7600883611161565b91506113b282611371565b600882019050919050565b60006113c882611126565b9050919050565b6113e06113db82610e2f565b6113bd565b82525050565b7f2072657375656c74610000000000000000000000000000000000000000000000600082015250565b600061141c600983611161565b9150611427826113e6565b600982019050919050565b600061143d8261139a565b915061144982846113cf565b6014820191506114588261140f565b915081905092915050565b7f4f776e61626c653a206e6577206f776e657220697320746865207a65726f206160008201527f6464726573730000000000000000000000000000000000000000000000000000602082015250565b60006114bf60268361101e565b91506114ca82611463565b604082019050919050565b600060208201905081810360008301526114ee816114b2565b9050919050565b7f4e6f206572657320656c2063726561646f72206465206c612061707565737461600082015250565b600061152b60208361101e565b9150611536826114f5565b602082019050919050565b6000602082019050818103600083015261155a8161151e565b9050919050565b7f4c612061707565737461207961206861207369646f2061636570746164610000600082015250565b6000611597601e8361101e565b91506115a282611561565b602082019050919050565b600060208201905081810360008301526115c68161158a565b9050919050565b7f20656c696d696e61646100000000000000000000000000000000000000000000600082015250565b6000611603600a83611161565b915061160e826115cd565b600a82019050919050565b60006116248261139a565b915061163082846113cf565b60148201915061163f826115f6565b91508190509291505056fea26469706673582212203ea99ec1748eb8e16c80996fce1b12663aab8a258378f4cb126641b04fd0ba1f64736f6c634300080e0033",
  "immutableReferences": {},
  "source": "/**\r\n *Submitted for verification at Etherscan.io on 2022-04-22\r\n */\r\n\r\n// Version de solidity del Smart Contract\r\n// SPDX-License-Identifier: UNLICENSED\r\n\r\npragma solidity 0.8.14;\r\n\r\nimport \"../client/node_modules/@openzeppelin/contracts/access/Ownable.sol\";\r\n\r\n\r\n// Informacion del Smart Contract\r\n// Nombre: Subasta\r\n// Logica: Implementa subasta de productos entre varios participantes\r\n\r\n// Declaracion del Smart Contract - Auction\r\ncontract Bet2Peer is Ownable {\r\n\r\n    // ----------- Variables (datos) -----------\r\n    enum resultType {\r\n        draw,\r\n        localWin,\r\n        visitorWin\r\n    }\r\n    struct contractInformation {\r\n        address originalOwner;\r\n        uint256 currentMatch;\r\n        uint8 result;\r\n        uint256 origibalBet;\r\n        uint256 minimumCounterBet;\r\n    }\r\n    mapping (address => contractInformation) public contractInfo;\r\n    uint256 public currentMatch;\r\n    address payable originalOwner;\r\n    address payable counterGambler;\r\n    uint8 result;\r\n    uint256 origibalBet;\r\n    uint256 minimumCounterBet;\r\n    address fatherAddress;\r\n\r\n    bool activeBet;\r\n    bool isAccepted;\r\n\r\n    // ----------- Events -----------\r\n    event Status(string _message);\r\n    event betCreated (\r\n        string betCreated\r\n    );\r\n    event betAccepted (\r\n        string betAccepted\r\n    );\r\n\r\n    // ------------Modifiers ----------\r\n    modifier isParticipant(address sender) {\r\n        require(\r\n            sender == originalOwner || \r\n            sender == counterGambler,\r\n            \"No participas en esta apuesta\"\r\n        );\r\n        _;\r\n    }\r\n    modifier isOriginalOwner(address sender) {\r\n        require(\r\n            sender == originalOwner,\r\n            \"No eres el creador de la apuesta\"\r\n        );\r\n        _;\r\n    }\r\n    modifier contractActive() {\r\n        require(\r\n            activeBet, \r\n            \"Esta apuesta no esta activa\"\r\n            );\r\n        _;\r\n    }\r\n\r\n    // ----------- Constructor -----------\r\n    /**\r\n    _originalGambler: usuario que crea la apuesta\r\n    _matchId: id del partido de la apuesta\r\n    _result: resultado al que se apuesta\r\n    _originalBet: cantidad apostada\r\n    _minimumCounterBet: cantidad a percibir en caso de ganar\r\n    _fatherAddress: direccin del contrato padre\r\n     */\r\n    constructor(address _originalGambler, uint256 _matchId, uint8 _result, uint256 _originalBet, uint256 _minimumCounterBet, address _fatherAddress) {\r\n        originalOwner = payable(_originalGambler); //\r\n        currentMatch = _matchId; //\r\n        result = _result; //\r\n        origibalBet = _originalBet; //\r\n        minimumCounterBet = _minimumCounterBet; //\r\n        fatherAddress = _fatherAddress;\r\n        activeBet = true;\r\n        //Relleno el struct con toda la info del contrato\r\n        contractInfo[address(this)].originalOwner = _originalGambler;\r\n        contractInfo[address(this)].currentMatch = _matchId;\r\n        contractInfo[address(this)].result = _result;\r\n        contractInfo[address(this)].origibalBet = _originalBet;\r\n        contractInfo[address(this)].minimumCounterBet = _minimumCounterBet;\r\n        \r\n        // Se emite un Evento\r\n        emit Status(string(abi.encodePacked(\"Partido \", _matchId, \" creado\")));\r\n    }\r\n\r\n    // -------------------Functions ------------------\r\n    /**\r\n    Funcin para aceptar la apuesta de otro usuario\r\n     */\r\n    function acceptBet() public payable \r\n        contractActive\r\n    {\r\n        require(msg.value >= minimumCounterBet, \"Apuesta insuficiente\");\r\n        counterGambler = payable(msg.sender);\r\n        counterGambler.transfer(msg.value);\r\n\r\n        emit Status(string(abi.encodePacked(counterGambler, \" ha aceptado la apuesta de \", originalOwner)));\r\n    }\r\n\r\n    /**\r\n    Funcin para resulver una apuesta y repartir las ganancias\r\n     */\r\n    function resolveBet() public payable \r\n        isParticipant(msg.sender)\r\n        contractActive \r\n    {\r\n        require(isAccepted);\r\n        //TODO\r\n        //Hacemos la llamada a ChainLink\r\n        //comparamos result con el valor de ChainLink\r\n        if(result == 1 /*resultado de ChainLink*/) {\r\n            //transferimos las ganancias al originalOwner\r\n            originalOwner.transfer(address(this).balance);\r\n        }\r\n        else {\r\n            //transferimos las ganancias al counterGambler\r\n            counterGambler.transfer(address(this).balance);\r\n        }\r\n        //desactivamos le contrato\r\n        activeBet = false;\r\n        //Emitimos el estatus\r\n        emit Status(string(abi.encodePacked(\"Apuesta \", getContractAddress(), \" resuelta\")));\r\n    }\r\n\r\n    /**\r\n    Funcin que elimina la apuesta en caso de no estar aceptada\r\n    Returns: true si la apuesta se elimina correctamente\r\n     */\r\n    function removeBet() public payable \r\n        isOriginalOwner(msg.sender)\r\n        contractActive\r\n        returns (bool)\r\n    {\r\n        require(!isAccepted, \"La apuesta ya ha sido aceptada\");\r\n        originalOwner.transfer(address(this).balance);\r\n        activeBet = false;\r\n        //Emitimos el estatus\r\n        emit Status(string(abi.encodePacked(\"Apuesta \", getContractAddress(), \" eliminada\")));\r\n        return true;\r\n    }\r\n\r\n    /**\r\n    Funcin que devuelve la direccin del contrato\r\n     */\r\n    function getContractAddress() onlyOwner public view returns (address)  {\r\n        return address(this);\r\n    }\r\n\r\n    /**\r\n    Funcin que devuelve informacin del contrato\r\n     */\r\n    function getContractInfo() public view returns(contractInformation memory){\r\n        return contractInfo[address(this)];\r\n    }\r\n\r\n    /**\r\n    Funcin que devuelve el id del partido\r\n     */\r\n    function getMatchId() public view returns(uint256){\r\n        return currentMatch;\r\n    }\r\n\r\n    /**\r\n    Funcin que devuelve la direccin del creador de la apuesta\r\n     */\r\n    function getOriginalOwner() public view returns(address) {\r\n        return originalOwner;\r\n    }\r\n   \r\n}\r\n",
  "sourcePath": "C:\\Users\\Daniel\\Documents\\Trabajos\\Master UEM\\Dapps\\bet2peer\\contracts\\Bet2Peer.sol",
  "compiler": {
    "name": "solc",
    "version": "0.8.14+commit.80d49f37.Emscripten.clang"
  },
  "schemaVersion": "3.4.7",
  "updatedAt": "2022-06-17T18:43:29.367Z",
  "networkType": "ethereum",
  "devdoc": {
    "kind": "dev",
    "methods": {
      "owner()": {
        "details": "Returns the address of the current owner."
      },
      "renounceOwnership()": {
        "details": "Leaves the contract without owner. It will not be possible to call `onlyOwner` functions anymore. Can only be called by the current owner. NOTE: Renouncing ownership will leave the contract without an owner, thereby removing any functionality that is only available to the owner."
      },
      "transferOwnership(address)": {
        "details": "Transfers ownership of the contract to a new account (`newOwner`). Can only be called by the current owner."
      }
    },
    "version": 1
  },
  "userdoc": {
    "kind": "user",
    "methods": {
      "acceptBet()": {
        "notice": "Funcin para aceptar la apuesta de otro usuario"
      },
      "constructor": {
        "notice": "_originalGambler: usuario que crea la apuesta _matchId: id del partido de la apuesta _result: resultado al que se apuesta _originalBet: cantidad apostada _minimumCounterBet: cantidad a percibir en caso de ganar _fatherAddress: direccin del contrato padre"
      },
      "getContractAddress()": {
        "notice": "Funcin que devuelve la direccin del contrato"
      },
      "getContractInfo()": {
        "notice": "Funcin que devuelve informacin del contrato"
      },
      "getMatchId()": {
        "notice": "Funcin que devuelve el id del partido"
      },
      "getOriginalOwner()": {
        "notice": "Funcin que devuelve la direccin del creador de la apuesta"
      },
      "removeBet()": {
        "notice": "Funcin que elimina la apuesta en caso de no estar aceptada Returns: true si la apuesta se elimina correctamente"
      },
      "resolveBet()": {
        "notice": "Funcin para resulver una apuesta y repartir las ganancias"
      }
    },
    "version": 1
  }
}