{
  "contractName": "Bet2Peer",
  "abi": [
    {
      "inputs": [
        {
          "internalType": "address",
          "name": "_originalGambler",
          "type": "address"
        },
        {
          "internalType": "uint256",
          "name": "_matchId",
          "type": "uint256"
        },
        {
          "internalType": "uint8",
          "name": "_result",
          "type": "uint8"
        },
        {
          "internalType": "uint256",
          "name": "_originalBet",
          "type": "uint256"
        },
        {
          "internalType": "uint256",
          "name": "_minimumCounterBet",
          "type": "uint256"
        },
        {
          "internalType": "address",
          "name": "_fatherAddress",
          "type": "address"
        }
      ],
      "stateMutability": "nonpayable",
      "type": "constructor"
    },
    {
      "anonymous": false,
      "inputs": [
        {
          "indexed": true,
          "internalType": "address",
          "name": "previousOwner",
          "type": "address"
        },
        {
          "indexed": true,
          "internalType": "address",
          "name": "newOwner",
          "type": "address"
        }
      ],
      "name": "OwnershipTransferred",
      "type": "event"
    },
    {
      "anonymous": false,
      "inputs": [
        {
          "indexed": false,
          "internalType": "string",
          "name": "_message",
          "type": "string"
        }
      ],
      "name": "Status",
      "type": "event"
    },
    {
      "anonymous": false,
      "inputs": [
        {
          "indexed": false,
          "internalType": "string",
          "name": "betAccepted",
          "type": "string"
        }
      ],
      "name": "betAccepted",
      "type": "event"
    },
    {
      "anonymous": false,
      "inputs": [
        {
          "indexed": false,
          "internalType": "string",
          "name": "betCreated",
          "type": "string"
        }
      ],
      "name": "betCreated",
      "type": "event"
    },
    {
      "inputs": [
        {
          "internalType": "address",
          "name": "",
          "type": "address"
        }
      ],
      "name": "contractInfo",
      "outputs": [
        {
          "internalType": "address",
          "name": "originalOwner",
          "type": "address"
        },
        {
          "internalType": "address",
          "name": "counterGambler",
          "type": "address"
        },
        {
          "internalType": "uint256",
          "name": "currentMatch",
          "type": "uint256"
        },
        {
          "internalType": "uint8",
          "name": "result",
          "type": "uint8"
        },
        {
          "internalType": "uint256",
          "name": "originalBet",
          "type": "uint256"
        },
        {
          "internalType": "uint256",
          "name": "minimumCounterBet",
          "type": "uint256"
        }
      ],
      "stateMutability": "view",
      "type": "function"
    },
    {
      "inputs": [],
      "name": "currentMatch",
      "outputs": [
        {
          "internalType": "uint256",
          "name": "",
          "type": "uint256"
        }
      ],
      "stateMutability": "view",
      "type": "function"
    },
    {
      "inputs": [],
      "name": "owner",
      "outputs": [
        {
          "internalType": "address",
          "name": "",
          "type": "address"
        }
      ],
      "stateMutability": "view",
      "type": "function"
    },
    {
      "inputs": [],
      "name": "renounceOwnership",
      "outputs": [],
      "stateMutability": "nonpayable",
      "type": "function"
    },
    {
      "inputs": [
        {
          "internalType": "address",
          "name": "newOwner",
          "type": "address"
        }
      ],
      "name": "transferOwnership",
      "outputs": [],
      "stateMutability": "nonpayable",
      "type": "function"
    },
    {
      "stateMutability": "payable",
      "type": "receive"
    },
    {
      "inputs": [],
      "name": "acceptBet",
      "outputs": [],
      "stateMutability": "payable",
      "type": "function"
    },
    {
      "inputs": [
        {
          "internalType": "address",
          "name": "_sender",
          "type": "address"
        }
      ],
      "name": "resolveBet",
      "outputs": [
        {
          "internalType": "bool",
          "name": "",
          "type": "bool"
        }
      ],
      "stateMutability": "payable",
      "type": "function"
    },
    {
      "inputs": [
        {
          "internalType": "address",
          "name": "_originalOwner",
          "type": "address"
        }
      ],
      "name": "removeBet",
      "outputs": [
        {
          "internalType": "bool",
          "name": "",
          "type": "bool"
        }
      ],
      "stateMutability": "payable",
      "type": "function"
    },
    {
      "inputs": [],
      "name": "getContractAddress",
      "outputs": [
        {
          "internalType": "address",
          "name": "",
          "type": "address"
        }
      ],
      "stateMutability": "view",
      "type": "function"
    },
    {
      "inputs": [],
      "name": "getContractInfo",
      "outputs": [
        {
          "components": [
            {
              "internalType": "address",
              "name": "originalOwner",
              "type": "address"
            },
            {
              "internalType": "address",
              "name": "counterGambler",
              "type": "address"
            },
            {
              "internalType": "uint256",
              "name": "currentMatch",
              "type": "uint256"
            },
            {
              "internalType": "uint8",
              "name": "result",
              "type": "uint8"
            },
            {
              "internalType": "uint256",
              "name": "originalBet",
              "type": "uint256"
            },
            {
              "internalType": "uint256",
              "name": "minimumCounterBet",
              "type": "uint256"
            }
          ],
          "internalType": "struct Bet2Peer.contractInformation",
          "name": "",
          "type": "tuple"
        }
      ],
      "stateMutability": "view",
      "type": "function"
    },
    {
      "inputs": [],
      "name": "getMatchId",
      "outputs": [
        {
          "internalType": "uint256",
          "name": "",
          "type": "uint256"
        }
      ],
      "stateMutability": "view",
      "type": "function"
    },
    {
      "inputs": [],
      "name": "getOriginalOwner",
      "outputs": [
        {
          "internalType": "address",
          "name": "",
          "type": "address"
        }
      ],
      "stateMutability": "view",
      "type": "function"
    },
    {
      "inputs": [],
      "name": "getBalance",
      "outputs": [
        {
          "internalType": "uint256",
          "name": "",
          "type": "uint256"
        }
      ],
      "stateMutability": "view",
      "type": "function"
    }
  ],
  "bytecode": "0x60806040523480156200001157600080fd5b50604051620022d5380380620022d5833981810160405281019062000037919062000628565b620000576200004b6200047960201b60201c565b6200048160201b60201c565b85600460006101000a81548173ffffffffffffffffffffffffffffffffffffffff021916908373ffffffffffffffffffffffffffffffffffffffff1602179055508460038190555083600560146101000a81548160ff021916908360ff160217905550826006819055508160078190555080600860006101000a81548173ffffffffffffffffffffffffffffffffffffffff021916908373ffffffffffffffffffffffffffffffffffffffff1602179055506001600960146101000a81548160ff0219169083151502179055506000600960156101000a81548160ff02191690831515021790555085600160003073ffffffffffffffffffffffffffffffffffffffff1673ffffffffffffffffffffffffffffffffffffffff16815260200190815260200160002060000160006101000a81548173ffffffffffffffffffffffffffffffffffffffff021916908373ffffffffffffffffffffffffffffffffffffffff16021790555084600160003073ffffffffffffffffffffffffffffffffffffffff1673ffffffffffffffffffffffffffffffffffffffff1681526020019081526020016000206002018190555083600160003073ffffffffffffffffffffffffffffffffffffffff1673ffffffffffffffffffffffffffffffffffffffff16815260200190815260200160002060030160006101000a81548160ff021916908360ff16021790555082600160003073ffffffffffffffffffffffffffffffffffffffff1673ffffffffffffffffffffffffffffffffffffffff1681526020019081526020016000206004018190555081600160003073ffffffffffffffffffffffffffffffffffffffff1673ffffffffffffffffffffffffffffffffffffffff1681526020019081526020016000206005018190555060006002600063011530ea815260200190815260200160002060006101000a81548160ff021916908360ff160217905550600280600063011530e9815260200190815260200160002060006101000a81548160ff021916908360ff160217905550600280600063011530f2815260200190815260200160002060006101000a81548160ff021916908360ff16021790555060016002600063011530ee815260200190815260200160002060006101000a81548160ff021916908360ff160217905550600280600063011530f1815260200190815260200160002060006101000a81548160ff021916908360ff16021790555060016002600063011530ed815260200190815260200160002060006101000a81548160ff021916908360ff1602179055507f2844c95bf1b4598da931d527f903501abc60fe0199c65da52d5ce818c6c5e9618560405160200162000447919062000794565b6040516020818303038152906040526040516200046591906200086f565b60405180910390a150505050505062000893565b600033905090565b60008060009054906101000a900473ffffffffffffffffffffffffffffffffffffffff169050816000806101000a81548173ffffffffffffffffffffffffffffffffffffffff021916908373ffffffffffffffffffffffffffffffffffffffff1602179055508173ffffffffffffffffffffffffffffffffffffffff168173ffffffffffffffffffffffffffffffffffffffff167f8be0079c531659141344cd1fd0a4f28419497f9722a3daafe3b4186f6b6457e060405160405180910390a35050565b600080fd5b600073ffffffffffffffffffffffffffffffffffffffff82169050919050565b600062000577826200054a565b9050919050565b62000589816200056a565b81146200059557600080fd5b50565b600081519050620005a9816200057e565b92915050565b6000819050919050565b620005c481620005af565b8114620005d057600080fd5b50565b600081519050620005e481620005b9565b92915050565b600060ff82169050919050565b6200060281620005ea565b81146200060e57600080fd5b50565b6000815190506200062281620005f7565b92915050565b60008060008060008060c0878903121562000648576200064762000545565b5b60006200065889828a0162000598565b96505060206200066b89828a01620005d3565b95505060406200067e89828a0162000611565b94505060606200069189828a01620005d3565b9350506080620006a489828a01620005d3565b92505060a0620006b789828a0162000598565b9150509295509295509295565b600081905092915050565b7f5061727469646f20000000000000000000000000000000000000000000000000600082015250565b600062000707600883620006c4565b91506200071482620006cf565b600882019050919050565b6000819050919050565b6200073e6200073882620005af565b6200071f565b82525050565b7f2063726561646f00000000000000000000000000000000000000000000000000600082015250565b60006200077c600783620006c4565b9150620007898262000744565b600782019050919050565b6000620007a182620006f8565b9150620007af828462000729565b602082019150620007c0826200076d565b915081905092915050565b600081519050919050565b600082825260208201905092915050565b60005b8381101562000807578082015181840152602081019050620007ea565b8381111562000817576000848401525b50505050565b6000601f19601f8301169050919050565b60006200083b82620007cb565b620008478185620007d6565b935062000859818560208601620007e7565b62000864816200081d565b840191505092915050565b600060208201905081810360008301526200088b81846200082e565b905092915050565b611a3280620008a36000396000f3fe6080604052600436106100c65760003560e01c8063715018a61161007f578063ad91363311610059578063ad91363314610225578063d0b8a36114610250578063e11eb98d14610280578063f2fde38b146102c2576100cd565b8063715018a6146101b85780637cc1f867146101cf5780638da5cb5b146101fa576100cd565b806306011b21146100d257806312065fe014610102578063153dc1821461012d5780632c70444e1461015857806330bfcb5f1461018357806332a2c5d01461018d576100cd565b366100cd57005b600080fd5b6100ec60048036038101906100e791906110db565b6102eb565b6040516100f99190611123565b60405180910390f35b34801561010e57600080fd5b50610117610508565b6040516101249190611157565b60405180910390f35b34801561013957600080fd5b50610142610510565b60405161014f9190611157565b60405180910390f35b34801561016457600080fd5b5061016d61051a565b60405161017a9190611157565b60405180910390f35b61018b610520565b005b34801561019957600080fd5b506101a26108bb565b6040516101af9190611181565b60405180910390f35b3480156101c457600080fd5b506101cd6108c3565b005b3480156101db57600080fd5b506101e461094b565b6040516101f19190611251565b60405180910390f35b34801561020657600080fd5b5061020f610a89565b60405161021c9190611181565b60405180910390f35b34801561023157600080fd5b5061023a610ab2565b6040516102479190611181565b60405180910390f35b61026a600480360381019061026591906110db565b610adc565b6040516102779190611123565b60405180910390f35b34801561028c57600080fd5b506102a760048036038101906102a291906110db565b610dc7565b6040516102b99695949392919061127b565b60405180910390f35b3480156102ce57600080fd5b506102e960048036038101906102e491906110db565b610e50565b005b600081600460009054906101000a900473ffffffffffffffffffffffffffffffffffffffff1673ffffffffffffffffffffffffffffffffffffffff168173ffffffffffffffffffffffffffffffffffffffff161461037e576040517f08c379a000000000000000000000000000000000000000000000000000000000815260040161037590611339565b60405180910390fd5b600960149054906101000a900460ff166103cd576040517f08c379a00000000000000000000000000000000000000000000000000000000081526004016103c4906113a5565b60405180910390fd5b600960159054906101000a900460ff161561041d576040517f08c379a000000000000000000000000000000000000000000000000000000000815260040161041490611411565b60405180910390fd5b600460009054906101000a900473ffffffffffffffffffffffffffffffffffffffff1673ffffffffffffffffffffffffffffffffffffffff166108fc479081150290604051600060405180830381858888f19350505050158015610485573d6000803e3d6000fd5b506000600960146101000a81548160ff0219169083151502179055507f2844c95bf1b4598da931d527f903501abc60fe0199c65da52d5ce818c6c5e9616104ca6108bb565b6040516020016104da919061151c565b6040516020818303038152906040526040516104f691906115d5565b60405180910390a16001915050919050565b600047905090565b6000600354905090565b60035481565b600960149054906101000a900460ff1661056f576040517f08c379a0000000000000000000000000000000000000000000000000000000008152600401610566906113a5565b60405180910390fd5b6007543410156105b4576040517f08c379a00000000000000000000000000000000000000000000000000000000081526004016105ab90611643565b60405180910390fd5b60001515600960159054906101000a900460ff1615151461060a576040517f08c379a0000000000000000000000000000000000000000000000000000000008152600401610601906116af565b60405180910390fd5b33600560006101000a81548173ffffffffffffffffffffffffffffffffffffffff021916908373ffffffffffffffffffffffffffffffffffffffff160217905550600560009054906101000a900473ffffffffffffffffffffffffffffffffffffffff16600160003073ffffffffffffffffffffffffffffffffffffffff1673ffffffffffffffffffffffffffffffffffffffff16815260200190815260200160002060010160006101000a81548173ffffffffffffffffffffffffffffffffffffffff021916908373ffffffffffffffffffffffffffffffffffffffff1602179055506001600960156101000a81548160ff021916908315150217905550600860009054906101000a900473ffffffffffffffffffffffffffffffffffffffff16600960006101000a81548173ffffffffffffffffffffffffffffffffffffffff021916908373ffffffffffffffffffffffffffffffffffffffff160217905550600960009054906101000a900473ffffffffffffffffffffffffffffffffffffffff1673ffffffffffffffffffffffffffffffffffffffff1663305fc68d600560009054906101000a900473ffffffffffffffffffffffffffffffffffffffff16306040518363ffffffff1660e01b81526004016107eb92919061172e565b600060405180830381600087803b15801561080557600080fd5b505af1158015610819573d6000803e3d6000fd5b505050507f2844c95bf1b4598da931d527f903501abc60fe0199c65da52d5ce818c6c5e961600560009054906101000a900473ffffffffffffffffffffffffffffffffffffffff16600460009054906101000a900473ffffffffffffffffffffffffffffffffffffffff166040516020016108959291906117de565b6040516020818303038152906040526040516108b191906115d5565b60405180910390a1565b600030905090565b6108cb610f47565b73ffffffffffffffffffffffffffffffffffffffff166108e9610a89565b73ffffffffffffffffffffffffffffffffffffffff161461093f576040517f08c379a000000000000000000000000000000000000000000000000000000000815260040161093690611861565b60405180910390fd5b6109496000610f4f565b565b610953611013565b600160003073ffffffffffffffffffffffffffffffffffffffff1673ffffffffffffffffffffffffffffffffffffffff1681526020019081526020016000206040518060c00160405290816000820160009054906101000a900473ffffffffffffffffffffffffffffffffffffffff1673ffffffffffffffffffffffffffffffffffffffff1673ffffffffffffffffffffffffffffffffffffffff1681526020016001820160009054906101000a900473ffffffffffffffffffffffffffffffffffffffff1673ffffffffffffffffffffffffffffffffffffffff1673ffffffffffffffffffffffffffffffffffffffff168152602001600282015481526020016003820160009054906101000a900460ff1660ff1660ff16815260200160048201548152602001600582015481525050905090565b60008060009054906101000a900473ffffffffffffffffffffffffffffffffffffffff16905090565b6000600460009054906101000a900473ffffffffffffffffffffffffffffffffffffffff16905090565b600081600460009054906101000a900473ffffffffffffffffffffffffffffffffffffffff1673ffffffffffffffffffffffffffffffffffffffff168173ffffffffffffffffffffffffffffffffffffffff161480610b885750600560009054906101000a900473ffffffffffffffffffffffffffffffffffffffff1673ffffffffffffffffffffffffffffffffffffffff168173ffffffffffffffffffffffffffffffffffffffff16145b610bc7576040517f08c379a0000000000000000000000000000000000000000000000000000000008152600401610bbe906118cd565b60405180910390fd5b600960149054906101000a900460ff16610c16576040517f08c379a0000000000000000000000000000000000000000000000000000000008152600401610c0d906113a5565b60405180910390fd5b600960159054906101000a900460ff16610c2f57600080fd5b600560149054906101000a900460ff1660ff1660026000600354815260200190815260200160002060009054906101000a900460ff1660ff1603610cdb57600460009054906101000a900473ffffffffffffffffffffffffffffffffffffffff1673ffffffffffffffffffffffffffffffffffffffff166108fc479081150290604051600060405180830381858888f19350505050158015610cd5573d6000803e3d6000fd5b50610d45565b600560009054906101000a900473ffffffffffffffffffffffffffffffffffffffff1673ffffffffffffffffffffffffffffffffffffffff166108fc479081150290604051600060405180830381858888f19350505050158015610d43573d6000803e3d6000fd5b505b6000600960146101000a81548160ff0219169083151502179055507f2844c95bf1b4598da931d527f903501abc60fe0199c65da52d5ce818c6c5e961610d896108bb565b604051602001610d999190611939565b604051602081830303815290604052604051610db591906115d5565b60405180910390a16001915050919050565b60016020528060005260406000206000915090508060000160009054906101000a900473ffffffffffffffffffffffffffffffffffffffff16908060010160009054906101000a900473ffffffffffffffffffffffffffffffffffffffff16908060020154908060030160009054906101000a900460ff16908060040154908060050154905086565b610e58610f47565b73ffffffffffffffffffffffffffffffffffffffff16610e76610a89565b73ffffffffffffffffffffffffffffffffffffffff1614610ecc576040517f08c379a0000000000000000000000000000000000000000000000000000000008152600401610ec390611861565b60405180910390fd5b600073ffffffffffffffffffffffffffffffffffffffff168173ffffffffffffffffffffffffffffffffffffffff1603610f3b576040517f08c379a0000000000000000000000000000000000000000000000000000000008152600401610f32906119dc565b60405180910390fd5b610f4481610f4f565b50565b600033905090565b60008060009054906101000a900473ffffffffffffffffffffffffffffffffffffffff169050816000806101000a81548173ffffffffffffffffffffffffffffffffffffffff021916908373ffffffffffffffffffffffffffffffffffffffff1602179055508173ffffffffffffffffffffffffffffffffffffffff168173ffffffffffffffffffffffffffffffffffffffff167f8be0079c531659141344cd1fd0a4f28419497f9722a3daafe3b4186f6b6457e060405160405180910390a35050565b6040518060c00160405280600073ffffffffffffffffffffffffffffffffffffffff168152602001600073ffffffffffffffffffffffffffffffffffffffff16815260200160008152602001600060ff16815260200160008152602001600081525090565b600080fd5b600073ffffffffffffffffffffffffffffffffffffffff82169050919050565b60006110a88261107d565b9050919050565b6110b88161109d565b81146110c357600080fd5b50565b6000813590506110d5816110af565b92915050565b6000602082840312156110f1576110f0611078565b5b60006110ff848285016110c6565b91505092915050565b60008115159050919050565b61111d81611108565b82525050565b60006020820190506111386000830184611114565b92915050565b6000819050919050565b6111518161113e565b82525050565b600060208201905061116c6000830184611148565b92915050565b61117b8161109d565b82525050565b60006020820190506111966000830184611172565b92915050565b6111a58161109d565b82525050565b6111b48161113e565b82525050565b600060ff82169050919050565b6111d0816111ba565b82525050565b60c0820160008201516111ec600085018261119c565b5060208201516111ff602085018261119c565b50604082015161121260408501826111ab565b50606082015161122560608501826111c7565b50608082015161123860808501826111ab565b5060a082015161124b60a08501826111ab565b50505050565b600060c08201905061126660008301846111d6565b92915050565b611275816111ba565b82525050565b600060c0820190506112906000830189611172565b61129d6020830188611172565b6112aa6040830187611148565b6112b7606083018661126c565b6112c46080830185611148565b6112d160a0830184611148565b979650505050505050565b600082825260208201905092915050565b7f4e6f206572657320656c2063726561646f72206465206c612061707565737461600082015250565b60006113236020836112dc565b915061132e826112ed565b602082019050919050565b6000602082019050818103600083015261135281611316565b9050919050565b7f457374612061707565737461206e6f2065737461206163746976610000000000600082015250565b600061138f601b836112dc565b915061139a82611359565b602082019050919050565b600060208201905081810360008301526113be81611382565b9050919050565b7f4c612061707565737461207961206861207369646f2061636570746164610000600082015250565b60006113fb601e836112dc565b9150611406826113c5565b602082019050919050565b6000602082019050818103600083015261142a816113ee565b9050919050565b600081905092915050565b7f4170756573746120000000000000000000000000000000000000000000000000600082015250565b6000611472600883611431565b915061147d8261143c565b600882019050919050565b60008160601b9050919050565b60006114a082611488565b9050919050565b60006114b282611495565b9050919050565b6114ca6114c58261109d565b6114a7565b82525050565b7f20656c696d696e61646100000000000000000000000000000000000000000000600082015250565b6000611506600a83611431565b9150611511826114d0565b600a82019050919050565b600061152782611465565b915061153382846114b9565b601482019150611542826114f9565b915081905092915050565b600081519050919050565b60005b8381101561157657808201518184015260208101905061155b565b83811115611585576000848401525b50505050565b6000601f19601f8301169050919050565b60006115a78261154d565b6115b181856112dc565b93506115c1818560208601611558565b6115ca8161158b565b840191505092915050565b600060208201905081810360008301526115ef818461159c565b905092915050565b7f4170756573746120696e737566696369656e7465000000000000000000000000600082015250565b600061162d6014836112dc565b9150611638826115f7565b602082019050919050565b6000602082019050818103600083015261165c81611620565b9050919050565b7f4170756573746120796120616365707461646100000000000000000000000000600082015250565b60006116996013836112dc565b91506116a482611663565b602082019050919050565b600060208201905081810360008301526116c88161168c565b9050919050565b6000819050919050565b60006116f46116ef6116ea8461107d565b6116cf565b61107d565b9050919050565b6000611706826116d9565b9050919050565b6000611718826116fb565b9050919050565b6117288161170d565b82525050565b6000604082019050611743600083018561171f565b6117506020830184611172565b9392505050565b60006117628261107d565b9050919050565b600061177482611495565b9050919050565b61178c61178782611757565b611769565b82525050565b7f20686120616365707461646f206c612061707565737461206465200000000000600082015250565b60006117c8601b83611431565b91506117d382611792565b601b82019050919050565b60006117ea828561177b565b6014820191506117f9826117bb565b9150611805828461177b565b6014820191508190509392505050565b7f4f776e61626c653a2063616c6c6572206973206e6f7420746865206f776e6572600082015250565b600061184b6020836112dc565b915061185682611815565b602082019050919050565b6000602082019050818103600083015261187a8161183e565b9050919050565b7f4e6f207061727469636970617320656e20657374612061707565737461000000600082015250565b60006118b7601d836112dc565b91506118c282611881565b602082019050919050565b600060208201905081810360008301526118e6816118aa565b9050919050565b7f2072657375656c74610000000000000000000000000000000000000000000000600082015250565b6000611923600983611431565b915061192e826118ed565b600982019050919050565b600061194482611465565b915061195082846114b9565b60148201915061195f82611916565b915081905092915050565b7f4f776e61626c653a206e6577206f776e657220697320746865207a65726f206160008201527f6464726573730000000000000000000000000000000000000000000000000000602082015250565b60006119c66026836112dc565b91506119d18261196a565b604082019050919050565b600060208201905081810360008301526119f5816119b9565b905091905056fea2646970667358221220b98e529c985909fdcfdc4ba5448a098ad482f0125a029cf82756f47dce6639d864736f6c634300080e0033",
  "immutableReferences": {},
  "source": "/**\r\n *Submitted for verification at Etherscan.io on 2022-04-22\r\n */\r\n\r\n// Version de solidity del Smart Contract\r\n// SPDX-License-Identifier: UNLICENSED\r\n\r\npragma solidity 0.8.14;\r\nimport \"./Father.sol\";\r\nimport \"../client/node_modules/@openzeppelin/contracts/access/Ownable.sol\";\r\n\r\n\r\n// Informacion del Smart Contract\r\n// Nombre: Subasta\r\n// Logica: Implementa subasta de productos entre varios participantes\r\n\r\n// Declaracion del Smart Contract - Auction\r\ncontract Bet2Peer is Ownable {\r\n\r\n    // ----------- Variables (datos) -----------\r\n    enum resultType {\r\n        draw,\r\n        localWin,\r\n        visitorWin\r\n    }\r\n    struct contractInformation {\r\n        address originalOwner;\r\n        address counterGambler;\r\n        uint256 currentMatch;\r\n        uint8 result;\r\n        uint256 originalBet;\r\n        uint256 minimumCounterBet;\r\n    }\r\n    mapping (address => contractInformation) public contractInfo;\r\n    mapping (uint256 => uint8) private resultsByMatch; //TO-DO Quitar cuando est hecha la parte de chainlink\r\n    uint256 public currentMatch;\r\n    address payable originalOwner;\r\n    address payable counterGambler;\r\n    uint8 result;\r\n    uint256 originalBet;\r\n    uint256 minimumCounterBet;\r\n    address fatherAddress;\r\n    Father fatherContract;\r\n\r\n    bool activeBet;\r\n    bool isAccepted;\r\n\r\n    // ----------- Events -----------\r\n    event Status(string _message);\r\n    event betCreated (\r\n        string betCreated\r\n    );\r\n    event betAccepted (\r\n        string betAccepted\r\n    );\r\n\r\n    // ------------Modifiers ----------\r\n    modifier isParticipant(address sender) {\r\n        require(\r\n            sender == originalOwner || \r\n            sender == counterGambler,\r\n            \"No participas en esta apuesta\"\r\n        );\r\n        _;\r\n    }\r\n    modifier isOriginalOwner(address sender) {\r\n        require(\r\n            sender == originalOwner,\r\n            \"No eres el creador de la apuesta\"\r\n        );\r\n        _;\r\n    }\r\n    modifier contractActive() {\r\n        require(\r\n            activeBet, \r\n            \"Esta apuesta no esta activa\"\r\n            );\r\n        _;\r\n    }\r\n\r\n    // ----------- Constructor -----------\r\n    /**\r\n    _originalGambler: usuario que crea la apuesta\r\n    _matchId: id del partido de la apuesta\r\n    _result: resultado al que se apuesta\r\n    _originalBet: cantidad apostada\r\n    _minimumCounterBet: cantidad a percibir en caso de ganar\r\n    _fatherAddress: direccin del contrato padre\r\n     */\r\n    constructor(address _originalGambler, uint256 _matchId, uint8 _result, uint256 _originalBet, uint256 _minimumCounterBet, address _fatherAddress) {\r\n        originalOwner = payable(_originalGambler); //\r\n        currentMatch = _matchId; //\r\n        result = _result; //\r\n        originalBet = _originalBet; //\r\n        minimumCounterBet = _minimumCounterBet; //\r\n        fatherAddress = _fatherAddress;\r\n        activeBet = true;\r\n        isAccepted = false;\r\n        //Relleno el struct con toda la info del contrato\r\n        contractInfo[address(this)].originalOwner = _originalGambler;\r\n        contractInfo[address(this)].currentMatch = _matchId;\r\n        contractInfo[address(this)].result = _result;\r\n        contractInfo[address(this)].originalBet = _originalBet;\r\n        contractInfo[address(this)].minimumCounterBet = _minimumCounterBet;\r\n\r\n        //TO-DO Quitar estos datos hardcodeados cuando est hecho lo de chainlink\r\n        resultsByMatch[18165994] = 0;\r\n        resultsByMatch[18165993] = 2;\r\n        resultsByMatch[18166002] = 2;\r\n        resultsByMatch[18165998] = 1;\r\n        resultsByMatch[18166001] = 2;\r\n        resultsByMatch[18165997] = 1;\r\n        \r\n        // Se emite un Evento\r\n        emit Status(string(abi.encodePacked(\"Partido \", _matchId, \" creado\")));\r\n    }\r\n\r\n    // -------------------Functions ------------------\r\n\r\n    /**\r\n    Funcin para recibir los fondos desde el contrato padre\r\n     */\r\n    receive() external payable {}\r\n\r\n    /**\r\n    Funcin para aceptar la apuesta de otro usuario\r\n     */\r\n    function acceptBet() public payable \r\n        contractActive\r\n    {\r\n        require(msg.value >= minimumCounterBet, \"Apuesta insuficiente\");\r\n        require(isAccepted == false, \"Apuesta ya aceptada\");\r\n        counterGambler = payable(msg.sender);\r\n        contractInfo[address(this)].counterGambler = counterGambler;\r\n        isAccepted = true;\r\n        \r\n        fatherContract = Father(address(fatherAddress));\r\n        fatherContract.addBetToCounterGambler(counterGambler, address(this));\r\n\r\n        emit Status(string(abi.encodePacked(counterGambler, \" ha aceptado la apuesta de \", originalOwner)));\r\n    }\r\n\r\n    /**\r\n    Funcin para resulver una apuesta y repartir las ganancias\r\n     */\r\n    function resolveBet(address _sender) public payable \r\n        isParticipant(_sender)\r\n        contractActive returns (bool)\r\n    {\r\n        require(isAccepted);\r\n        //TO-DO \r\n        //Poner validacin para saber que el partido ha terminado\r\n        //TODO\r\n        //Hacemos la llamada a ChainLink\r\n        //comparamos result con el valor de ChainLink\r\n        if(resultsByMatch[currentMatch] == result/*resultado de ChainLink*/) {\r\n            //transferimos las ganancias al originalOwner\r\n            originalOwner.transfer(address(this).balance);\r\n        }\r\n        else {\r\n            //transferimos las ganancias al counterGambler\r\n            counterGambler.transfer(address(this).balance);\r\n        }\r\n        //desactivamos le contrato\r\n        activeBet = false;\r\n        //Emitimos el estatus\r\n        emit Status(string(abi.encodePacked(\"Apuesta \", getContractAddress(), \" resuelta\")));\r\n\r\n        return true;\r\n    }\r\n\r\n    /**\r\n    Funcin que elimina la apuesta en caso de no estar aceptada\r\n    Returns: true si la apuesta se elimina correctamente\r\n     */\r\n    function removeBet(address _originalOwner) public payable \r\n        isOriginalOwner(_originalOwner)\r\n        contractActive\r\n        returns (bool)\r\n    {\r\n        require(!isAccepted, \"La apuesta ya ha sido aceptada\");\r\n        originalOwner.transfer(address(this).balance);\r\n        activeBet = false;\r\n        //Emitimos el estatus\r\n        emit Status(string(abi.encodePacked(\"Apuesta \", getContractAddress(), \" eliminada\")));\r\n        return true;\r\n    }\r\n\r\n    /**\r\n    Funcin que devuelve la direccin del contrato\r\n     */\r\n    function getContractAddress() public view returns (address)  {\r\n        return address(this);\r\n    }\r\n\r\n    /**\r\n    Funcin que devuelve informacin del contrato\r\n     */\r\n    function getContractInfo() public view returns(contractInformation memory){\r\n        return contractInfo[address(this)];\r\n    }\r\n\r\n    /**\r\n    Funcin que devuelve el id del partido\r\n     */\r\n    function getMatchId() public view returns(uint256){\r\n        return currentMatch;\r\n    }\r\n\r\n    /**\r\n    Funcin que devuelve la direccin del creador de la apuesta\r\n     */\r\n    function getOriginalOwner() public view returns(address) {\r\n        return originalOwner;\r\n    }\r\n   \r\n   /**\r\n    Funcin temporal para comprobar que el balance est bien hecho\r\n     */\r\n   function getBalance() \r\n    public view returns(uint256) {\r\n        return address(this).balance;\r\n    }\r\n}\r\n",
  "sourcePath": "C:\\Desarrollo\\Master Blokchain\\bet2peer\\contracts\\Bet2Peer.sol",
  "compiler": {
    "name": "solc",
    "version": "0.8.14+commit.80d49f37.Emscripten.clang"
  },
  "schemaVersion": "3.4.7",
  "updatedAt": "2022-07-01T13:07:41.869Z",
  "networkType": "ethereum",
  "devdoc": {
    "kind": "dev",
    "methods": {
      "owner()": {
        "details": "Returns the address of the current owner."
      },
      "renounceOwnership()": {
        "details": "Leaves the contract without owner. It will not be possible to call `onlyOwner` functions anymore. Can only be called by the current owner. NOTE: Renouncing ownership will leave the contract without an owner, thereby removing any functionality that is only available to the owner."
      },
      "transferOwnership(address)": {
        "details": "Transfers ownership of the contract to a new account (`newOwner`). Can only be called by the current owner."
      }
    },
    "version": 1
  },
  "userdoc": {
    "kind": "user",
    "methods": {
      "acceptBet()": {
        "notice": "Funcin para aceptar la apuesta de otro usuario"
      },
      "constructor": {
        "notice": "_originalGambler: usuario que crea la apuesta _matchId: id del partido de la apuesta _result: resultado al que se apuesta _originalBet: cantidad apostada _minimumCounterBet: cantidad a percibir en caso de ganar _fatherAddress: direccin del contrato padre"
      },
      "getBalance()": {
        "notice": "Funcin temporal para comprobar que el balance est bien hecho"
      },
      "getContractAddress()": {
        "notice": "Funcin que devuelve la direccin del contrato"
      },
      "getContractInfo()": {
        "notice": "Funcin que devuelve informacin del contrato"
      },
      "getMatchId()": {
        "notice": "Funcin que devuelve el id del partido"
      },
      "getOriginalOwner()": {
        "notice": "Funcin que devuelve la direccin del creador de la apuesta"
      },
      "removeBet(address)": {
        "notice": "Funcin que elimina la apuesta en caso de no estar aceptada Returns: true si la apuesta se elimina correctamente"
      },
      "resolveBet(address)": {
        "notice": "Funcin para resulver una apuesta y repartir las ganancias"
      }
    },
    "version": 1
  }
}