{
  "contractName": "BetStorage",
  "abi": [
    {
      "inputs": [],
      "stateMutability": "nonpayable",
      "type": "constructor"
    },
    {
      "anonymous": false,
      "inputs": [
        {
          "indexed": true,
          "internalType": "address",
          "name": "previousOwner",
          "type": "address"
        },
        {
          "indexed": true,
          "internalType": "address",
          "name": "newOwner",
          "type": "address"
        }
      ],
      "name": "OwnershipTransferred",
      "type": "event"
    },
    {
      "inputs": [],
      "name": "activeContract",
      "outputs": [
        {
          "internalType": "bool",
          "name": "",
          "type": "bool"
        }
      ],
      "stateMutability": "view",
      "type": "function",
      "constant": true
    },
    {
      "inputs": [
        {
          "internalType": "uint256",
          "name": "",
          "type": "uint256"
        },
        {
          "internalType": "uint256",
          "name": "",
          "type": "uint256"
        }
      ],
      "name": "contractsByMatchId",
      "outputs": [
        {
          "internalType": "address",
          "name": "",
          "type": "address"
        }
      ],
      "stateMutability": "view",
      "type": "function",
      "constant": true
    },
    {
      "inputs": [
        {
          "internalType": "address",
          "name": "",
          "type": "address"
        },
        {
          "internalType": "uint256",
          "name": "",
          "type": "uint256"
        }
      ],
      "name": "contractsByUser",
      "outputs": [
        {
          "internalType": "address",
          "name": "",
          "type": "address"
        }
      ],
      "stateMutability": "view",
      "type": "function",
      "constant": true
    },
    {
      "inputs": [],
      "name": "owner",
      "outputs": [
        {
          "internalType": "address",
          "name": "",
          "type": "address"
        }
      ],
      "stateMutability": "view",
      "type": "function",
      "constant": true
    },
    {
      "inputs": [],
      "name": "renounceOwnership",
      "outputs": [],
      "stateMutability": "nonpayable",
      "type": "function"
    },
    {
      "inputs": [
        {
          "internalType": "address",
          "name": "newOwner",
          "type": "address"
        }
      ],
      "name": "transferOwnership",
      "outputs": [],
      "stateMutability": "nonpayable",
      "type": "function"
    },
    {
      "inputs": [
        {
          "internalType": "address",
          "name": "_address",
          "type": "address"
        }
      ],
      "name": "setAuthorizedFather",
      "outputs": [],
      "stateMutability": "nonpayable",
      "type": "function"
    },
    {
      "inputs": [],
      "name": "getAuthorizedFather",
      "outputs": [
        {
          "internalType": "address",
          "name": "",
          "type": "address"
        }
      ],
      "stateMutability": "view",
      "type": "function",
      "constant": true
    },
    {
      "inputs": [],
      "name": "isContractActive",
      "outputs": [
        {
          "internalType": "bool",
          "name": "",
          "type": "bool"
        }
      ],
      "stateMutability": "view",
      "type": "function",
      "constant": true
    },
    {
      "inputs": [
        {
          "internalType": "address",
          "name": "_user",
          "type": "address"
        },
        {
          "internalType": "address",
          "name": "_contract",
          "type": "address"
        }
      ],
      "name": "pushContractsByUser",
      "outputs": [],
      "stateMutability": "nonpayable",
      "type": "function"
    },
    {
      "inputs": [
        {
          "internalType": "address",
          "name": "_user",
          "type": "address"
        }
      ],
      "name": "getContractsByUser",
      "outputs": [
        {
          "internalType": "address[]",
          "name": "",
          "type": "address[]"
        }
      ],
      "stateMutability": "view",
      "type": "function",
      "constant": true
    },
    {
      "inputs": [
        {
          "internalType": "address",
          "name": "_user",
          "type": "address"
        }
      ],
      "name": "getAllBetsByUser",
      "outputs": [
        {
          "internalType": "address[]",
          "name": "",
          "type": "address[]"
        }
      ],
      "stateMutability": "view",
      "type": "function",
      "constant": true
    },
    {
      "inputs": [
        {
          "internalType": "address",
          "name": "_userAddress",
          "type": "address"
        },
        {
          "internalType": "uint256",
          "name": "_index",
          "type": "uint256"
        }
      ],
      "name": "removeBetFromUser",
      "outputs": [],
      "stateMutability": "nonpayable",
      "type": "function"
    },
    {
      "inputs": [
        {
          "internalType": "uint256",
          "name": "_matchId",
          "type": "uint256"
        },
        {
          "internalType": "address",
          "name": "_contract",
          "type": "address"
        }
      ],
      "name": "pushContractsByMatchId",
      "outputs": [],
      "stateMutability": "nonpayable",
      "type": "function"
    },
    {
      "inputs": [
        {
          "internalType": "uint256",
          "name": "_matchId",
          "type": "uint256"
        }
      ],
      "name": "getContractsByMatchId",
      "outputs": [
        {
          "internalType": "address[]",
          "name": "",
          "type": "address[]"
        }
      ],
      "stateMutability": "view",
      "type": "function",
      "constant": true
    },
    {
      "inputs": [
        {
          "internalType": "uint256",
          "name": "_matchId",
          "type": "uint256"
        }
      ],
      "name": "getAllBetsByMatchId",
      "outputs": [
        {
          "internalType": "address[]",
          "name": "",
          "type": "address[]"
        }
      ],
      "stateMutability": "view",
      "type": "function",
      "constant": true
    },
    {
      "inputs": [
        {
          "internalType": "uint256",
          "name": "_matchId",
          "type": "uint256"
        },
        {
          "internalType": "uint256",
          "name": "_index",
          "type": "uint256"
        }
      ],
      "name": "removeBetFromMatchId",
      "outputs": [],
      "stateMutability": "nonpayable",
      "type": "function"
    },
    {
      "inputs": [],
      "name": "enableContract",
      "outputs": [],
      "stateMutability": "nonpayable",
      "type": "function"
    },
    {
      "inputs": [],
      "name": "disableContract",
      "outputs": [],
      "stateMutability": "nonpayable",
      "type": "function"
    },
    {
      "inputs": [],
      "name": "isActive",
      "outputs": [
        {
          "internalType": "bool",
          "name": "",
          "type": "bool"
        }
      ],
      "stateMutability": "view",
      "type": "function",
      "constant": true
    }
  ],
  "bytecode": "0x608060405234801561001057600080fd5b5061002d61002261004d60201b60201c565b61005560201b60201c565b6001600060146101000a81548160ff021916908315150217905550610119565b600033905090565b60008060009054906101000a900473ffffffffffffffffffffffffffffffffffffffff169050816000806101000a81548173ffffffffffffffffffffffffffffffffffffffff021916908373ffffffffffffffffffffffffffffffffffffffff1602179055508173ffffffffffffffffffffffffffffffffffffffff168173ffffffffffffffffffffffffffffffffffffffff167f8be0079c531659141344cd1fd0a4f28419497f9722a3daafe3b4186f6b6457e060405160405180910390a35050565b611981806101286000396000f3fe608060405234801561001057600080fd5b506004361061012c5760003560e01c8063894ba833116100ad578063b23c78fd11610071578063b23c78fd14610309578063c407f09b14610327578063de4a038614610357578063f2fde38b14610375578063fd9db244146103915761012c565b8063894ba833146102775780638da5cb5b146102815780638f5949f91461029f57806396311483146102bd578063b077b8d9146102d95761012c565b80635ca1985a116100f45780635ca1985a146101e95780636caa25e1146102055780636db0bb4714610235578063715018a61461025157806387bfadf61461025b5761012c565b806322f3e2d414610131578063367edd321461014f5780634eca495f1461015957806356a6e68f1461018957806358648588146101b9575b600080fd5b6101396103ad565b604051610146919061131f565b60405180910390f35b6101576103c3565b005b610173600480360381019061016e919061139d565b6104a4565b6040516101809190611488565b60405180910390f35b6101a3600480360381019061019e91906114e0565b610571565b6040516101b09190611488565b60405180910390f35b6101d360048036038101906101ce919061150d565b610612565b6040516101e0919061155c565b60405180910390f35b61020360048036038101906101fe919061150d565b610660565b005b61021f600480360381019061021a9190611577565b6108db565b60405161022c919061155c565b60405180910390f35b61024f600480360381019061024a91906115b7565b610929565b005b610259610a31565b005b610275600480360381019061027091906115f7565b610ab9565b005b61027f610bed565b005b610289610ccc565b604051610296919061155c565b60405180910390f35b6102a7610cf5565b6040516102b4919061131f565b60405180910390f35b6102d760048036038101906102d2919061139d565b610d0b565b005b6102f360048036038101906102ee91906114e0565b610dcb565b6040516103009190611488565b60405180910390f35b610311610e6c565b60405161031e919061155c565b60405180910390f35b610341600480360381019061033c919061139d565b610e96565b60405161034e9190611488565b60405180910390f35b61035f610f63565b60405161036c919061131f565b60405180910390f35b61038f600480360381019061038a919061139d565b610f76565b005b6103ab60048036038101906103a69190611577565b61106d565b005b60008060149054906101000a900460ff16905090565b6103cb611238565b73ffffffffffffffffffffffffffffffffffffffff166103e9610ccc565b73ffffffffffffffffffffffffffffffffffffffff161461043f576040517f08c379a000000000000000000000000000000000000000000000000000000000815260040161043690611694565b60405180910390fd5b6104476103ad565b15610487576040517f08c379a000000000000000000000000000000000000000000000000000000000815260040161047e90611700565b60405180910390fd5b6001600060146101000a81548160ff021916908315150217905550565b6060600260008373ffffffffffffffffffffffffffffffffffffffff1673ffffffffffffffffffffffffffffffffffffffff16815260200190815260200160002080548060200260200160405190810160405280929190818152602001828054801561056557602002820191906000526020600020905b8160009054906101000a900473ffffffffffffffffffffffffffffffffffffffff1673ffffffffffffffffffffffffffffffffffffffff168152602001906001019080831161051b575b50505050509050919050565b60606003600083815260200190815260200160002080548060200260200160405190810160405280929190818152602001828054801561060657602002820191906000526020600020905b8160009054906101000a900473ffffffffffffffffffffffffffffffffffffffff1673ffffffffffffffffffffffffffffffffffffffff16815260200190600101908083116105bc575b50505050509050919050565b6002602052816000526040600020818154811061062e57600080fd5b906000526020600020016000915091509054906101000a900473ffffffffffffffffffffffffffffffffffffffff1681565b3373ffffffffffffffffffffffffffffffffffffffff16600160009054906101000a900473ffffffffffffffffffffffffffffffffffffffff1673ffffffffffffffffffffffffffffffffffffffff16146106f0576040517f08c379a00000000000000000000000000000000000000000000000000000000081526004016106e79061176c565b60405180910390fd5b600260008373ffffffffffffffffffffffffffffffffffffffff1673ffffffffffffffffffffffffffffffffffffffff1681526020019081526020016000206001600260008573ffffffffffffffffffffffffffffffffffffffff1673ffffffffffffffffffffffffffffffffffffffff1681526020019081526020016000208054905061077e91906117bb565b8154811061078f5761078e6117ef565b5b9060005260206000200160009054906101000a900473ffffffffffffffffffffffffffffffffffffffff16600260008473ffffffffffffffffffffffffffffffffffffffff1673ffffffffffffffffffffffffffffffffffffffff168152602001908152602001600020828154811061080b5761080a6117ef565b5b9060005260206000200160006101000a81548173ffffffffffffffffffffffffffffffffffffffff021916908373ffffffffffffffffffffffffffffffffffffffff160217905550600260008373ffffffffffffffffffffffffffffffffffffffff1673ffffffffffffffffffffffffffffffffffffffff1681526020019081526020016000208054806108a2576108a161181e565b5b6001900381819060005260206000200160006101000a81549073ffffffffffffffffffffffffffffffffffffffff021916905590555050565b600360205281600052604060002081815481106108f757600080fd5b906000526020600020016000915091509054906101000a900473ffffffffffffffffffffffffffffffffffffffff1681565b3373ffffffffffffffffffffffffffffffffffffffff16600160009054906101000a900473ffffffffffffffffffffffffffffffffffffffff1673ffffffffffffffffffffffffffffffffffffffff16146109b9576040517f08c379a00000000000000000000000000000000000000000000000000000000081526004016109b09061176c565b60405180910390fd5b60036000838152602001908152602001600020819080600181540180825580915050600190039060005260206000200160009091909190916101000a81548173ffffffffffffffffffffffffffffffffffffffff021916908373ffffffffffffffffffffffffffffffffffffffff1602179055505050565b610a39611238565b73ffffffffffffffffffffffffffffffffffffffff16610a57610ccc565b73ffffffffffffffffffffffffffffffffffffffff1614610aad576040517f08c379a0000000000000000000000000000000000000000000000000000000008152600401610aa490611694565b60405180910390fd5b610ab76000611240565b565b3373ffffffffffffffffffffffffffffffffffffffff16600160009054906101000a900473ffffffffffffffffffffffffffffffffffffffff1673ffffffffffffffffffffffffffffffffffffffff1614610b49576040517f08c379a0000000000000000000000000000000000000000000000000000000008152600401610b409061176c565b60405180910390fd5b600260008373ffffffffffffffffffffffffffffffffffffffff1673ffffffffffffffffffffffffffffffffffffffff168152602001908152602001600020819080600181540180825580915050600190039060005260206000200160009091909190916101000a81548173ffffffffffffffffffffffffffffffffffffffff021916908373ffffffffffffffffffffffffffffffffffffffff1602179055505050565b610bf5611238565b73ffffffffffffffffffffffffffffffffffffffff16610c13610ccc565b73ffffffffffffffffffffffffffffffffffffffff1614610c69576040517f08c379a0000000000000000000000000000000000000000000000000000000008152600401610c6090611694565b60405180910390fd5b610c716103ad565b610cb0576040517f08c379a0000000000000000000000000000000000000000000000000000000008152600401610ca790611899565b60405180910390fd5b60008060146101000a81548160ff021916908315150217905550565b60008060009054906101000a900473ffffffffffffffffffffffffffffffffffffffff16905090565b60008060149054906101000a900460ff16905090565b610d13611238565b73ffffffffffffffffffffffffffffffffffffffff16610d31610ccc565b73ffffffffffffffffffffffffffffffffffffffff1614610d87576040517f08c379a0000000000000000000000000000000000000000000000000000000008152600401610d7e90611694565b60405180910390fd5b80600160006101000a81548173ffffffffffffffffffffffffffffffffffffffff021916908373ffffffffffffffffffffffffffffffffffffffff16021790555050565b606060036000838152602001908152602001600020805480602002602001604051908101604052809291908181526020018280548015610e6057602002820191906000526020600020905b8160009054906101000a900473ffffffffffffffffffffffffffffffffffffffff1673ffffffffffffffffffffffffffffffffffffffff1681526020019060010190808311610e16575b50505050509050919050565b6000600160009054906101000a900473ffffffffffffffffffffffffffffffffffffffff16905090565b6060600260008373ffffffffffffffffffffffffffffffffffffffff1673ffffffffffffffffffffffffffffffffffffffff168152602001908152602001600020805480602002602001604051908101604052809291908181526020018280548015610f5757602002820191906000526020600020905b8160009054906101000a900473ffffffffffffffffffffffffffffffffffffffff1673ffffffffffffffffffffffffffffffffffffffff1681526020019060010190808311610f0d575b50505050509050919050565b600060149054906101000a900460ff1681565b610f7e611238565b73ffffffffffffffffffffffffffffffffffffffff16610f9c610ccc565b73ffffffffffffffffffffffffffffffffffffffff1614610ff2576040517f08c379a0000000000000000000000000000000000000000000000000000000008152600401610fe990611694565b60405180910390fd5b600073ffffffffffffffffffffffffffffffffffffffff168173ffffffffffffffffffffffffffffffffffffffff1603611061576040517f08c379a00000000000000000000000000000000000000000000000000000000081526004016110589061192b565b60405180910390fd5b61106a81611240565b50565b3373ffffffffffffffffffffffffffffffffffffffff16600160009054906101000a900473ffffffffffffffffffffffffffffffffffffffff1673ffffffffffffffffffffffffffffffffffffffff16146110fd576040517f08c379a00000000000000000000000000000000000000000000000000000000081526004016110f49061176c565b60405180910390fd5b600360008381526020019081526020016000206001600360008581526020019081526020016000208054905061113391906117bb565b81548110611144576111436117ef565b5b9060005260206000200160009054906101000a900473ffffffffffffffffffffffffffffffffffffffff16600360008481526020019081526020016000208281548110611194576111936117ef565b5b9060005260206000200160006101000a81548173ffffffffffffffffffffffffffffffffffffffff021916908373ffffffffffffffffffffffffffffffffffffffff160217905550600360008381526020019081526020016000208054806111ff576111fe61181e565b5b6001900381819060005260206000200160006101000a81549073ffffffffffffffffffffffffffffffffffffffff021916905590555050565b600033905090565b60008060009054906101000a900473ffffffffffffffffffffffffffffffffffffffff169050816000806101000a81548173ffffffffffffffffffffffffffffffffffffffff021916908373ffffffffffffffffffffffffffffffffffffffff1602179055508173ffffffffffffffffffffffffffffffffffffffff168173ffffffffffffffffffffffffffffffffffffffff167f8be0079c531659141344cd1fd0a4f28419497f9722a3daafe3b4186f6b6457e060405160405180910390a35050565b60008115159050919050565b61131981611304565b82525050565b60006020820190506113346000830184611310565b92915050565b600080fd5b600073ffffffffffffffffffffffffffffffffffffffff82169050919050565b600061136a8261133f565b9050919050565b61137a8161135f565b811461138557600080fd5b50565b60008135905061139781611371565b92915050565b6000602082840312156113b3576113b261133a565b5b60006113c184828501611388565b91505092915050565b600081519050919050565b600082825260208201905092915050565b6000819050602082019050919050565b6113ff8161135f565b82525050565b600061141183836113f6565b60208301905092915050565b6000602082019050919050565b6000611435826113ca565b61143f81856113d5565b935061144a836113e6565b8060005b8381101561147b5781516114628882611405565b975061146d8361141d565b92505060018101905061144e565b5085935050505092915050565b600060208201905081810360008301526114a2818461142a565b905092915050565b6000819050919050565b6114bd816114aa565b81146114c857600080fd5b50565b6000813590506114da816114b4565b92915050565b6000602082840312156114f6576114f561133a565b5b6000611504848285016114cb565b91505092915050565b600080604083850312156115245761152361133a565b5b600061153285828601611388565b9250506020611543858286016114cb565b9150509250929050565b6115568161135f565b82525050565b6000602082019050611571600083018461154d565b92915050565b6000806040838503121561158e5761158d61133a565b5b600061159c858286016114cb565b92505060206115ad858286016114cb565b9150509250929050565b600080604083850312156115ce576115cd61133a565b5b60006115dc858286016114cb565b92505060206115ed85828601611388565b9150509250929050565b6000806040838503121561160e5761160d61133a565b5b600061161c85828601611388565b925050602061162d85828601611388565b9150509250929050565b600082825260208201905092915050565b7f4f776e61626c653a2063616c6c6572206973206e6f7420746865206f776e6572600082015250565b600061167e602083611637565b915061168982611648565b602082019050919050565b600060208201905081810360008301526116ad81611671565b9050919050565b7f536d61727420636f6e747261637420697320656e61626c656400000000000000600082015250565b60006116ea601983611637565b91506116f5826116b4565b602082019050919050565b60006020820190508181036000830152611719816116dd565b9050919050565b7f4e6f7420617574686f72697a6564000000000000000000000000000000000000600082015250565b6000611756600e83611637565b915061176182611720565b602082019050919050565b6000602082019050818103600083015261178581611749565b9050919050565b7f4e487b7100000000000000000000000000000000000000000000000000000000600052601160045260246000fd5b60006117c6826114aa565b91506117d1836114aa565b9250828210156117e4576117e361178c565b5b828203905092915050565b7f4e487b7100000000000000000000000000000000000000000000000000000000600052603260045260246000fd5b7f4e487b7100000000000000000000000000000000000000000000000000000000600052603160045260246000fd5b7f536d61727420636f6e74726163742069732064697361626c6564000000000000600082015250565b6000611883601a83611637565b915061188e8261184d565b602082019050919050565b600060208201905081810360008301526118b281611876565b9050919050565b7f4f776e61626c653a206e6577206f776e657220697320746865207a65726f206160008201527f6464726573730000000000000000000000000000000000000000000000000000602082015250565b6000611915602683611637565b9150611920826118b9565b604082019050919050565b6000602082019050818103600083015261194481611908565b905091905056fea264697066735822122003bc35d917d3089b273ea951d67ee30a06a96344efd71a284174e7eb915d4be764736f6c634300080e0033",
  "immutableReferences": {},
  "source": "/**\r\n *Submitted for verification at Etherscan.io on 2022-04-22\r\n */\r\n\r\n// Version de solidity del Smart Contract\r\n// SPDX-License-Identifier: UNLICENSED\r\npragma solidity ^0.8.6;\r\nimport \"../client/node_modules/@openzeppelin/contracts/access/Ownable.sol\";\r\n\r\n//this contract is used to store data\r\ncontract BetStorage is Ownable{\r\n   \r\n    //Estado del contrato\r\n    bool public activeContract;\r\n\r\n    //*********** VAR INTERNAS ************\r\n    //Se crea una lista de acceso para las direcciones que pueden utilizar este storage\r\n    address authorizedFather;\r\n\r\n    //*********** VAR BET ************\r\n    //mapping de todos los contratos(apuestas) creados por un usuario \r\n    //      usuario     contrato\r\n    mapping(address =>  address[]) public contractsByUser;\r\n\r\n    //mapping de todos los contratos(apuestas) creados para un partido concreto\r\n    //      matchId    contrato\r\n    mapping(uint256 => address[]) public contractsByMatchId;\r\n  \r\n    //*********** MODIFIERS ************\r\n    //modifier checks si la direccion esta permitida para modificar datos\r\n    modifier isAllowed() {\r\n        require(authorizedFather == msg.sender, \"Not authorized\");\r\n        _;\r\n    }\r\n\r\n    constructor(){\r\n        activeContract = true;\r\n    }\r\n\r\n    //*********** ACCESS FUNCTIONS ************\r\n    //brinda el acceso al contrato father que se encuentra en productivo\r\n    function setAuthorizedFather(address _address) onlyOwner public {\r\n        authorizedFather = _address;  \r\n    }\r\n     \r\n    //Vailda si el contrato est activo    \r\n    function getAuthorizedFather() public view returns (address){\r\n        return authorizedFather;\r\n    }\r\n\r\n    function isContractActive() public view returns (bool){\r\n        return activeContract;\r\n    }\r\n    \r\n\r\n    //*********** STORAGE FUNCTIONS ************\r\n    \r\n    //CONTRACTS BY USER\r\n    function pushContractsByUser(address _user, address _contract) isAllowed public {\r\n        contractsByUser[_user].push(_contract);\r\n    } \r\n\r\n    function getContractsByUser(address _user) public view returns (address[] memory){\r\n        return contractsByUser[_user];\r\n    }  \r\n\r\n    function getAllBetsByUser(address _user) public view returns (address[] memory){\r\n        return contractsByUser[_user];\r\n    }\r\n\r\n    function removeBetFromUser(address _userAddress, uint _index) isAllowed public{\r\n        contractsByUser[_userAddress][_index] = contractsByUser[_userAddress][contractsByUser[_userAddress].length - 1];\r\n        contractsByUser[_userAddress].pop();\r\n    }\r\n\r\n    //CONTRACTS BY MATCH ID\r\n    function pushContractsByMatchId(uint256 _matchId, address _contract) isAllowed public {\r\n        contractsByMatchId[_matchId].push(_contract);\r\n    }\r\n\r\n    function getContractsByMatchId(uint256 _matchId) public view returns (address[] memory){\r\n        return contractsByMatchId[_matchId];\r\n    }    \r\n\r\n    function getAllBetsByMatchId(uint256 _matchId) public view returns (address[] memory){\r\n        return contractsByMatchId[_matchId];\r\n    }\r\n\r\n    function removeBetFromMatchId(uint256 _matchId, uint _index) isAllowed public{\r\n        contractsByMatchId[_matchId][_index] = contractsByMatchId[_matchId][contractsByMatchId[_matchId].length - 1];\r\n        contractsByMatchId[_matchId].pop();\r\n    }\r\n\r\n    //*********** PANIC FUNCTIONS ************\r\n    //habilita el contrato\r\n    function enableContract() public onlyOwner {\r\n        require(!isActive(), \"Smart contract is enabled\");\r\n        activeContract = true;\r\n    }\r\n\r\n    //deshabilita el contrato\r\n    function disableContract() public onlyOwner {\r\n        require(isActive(), \"Smart contract is disabled\");\r\n        activeContract = false;\r\n    }\r\n\r\n    //Vailda si el contrato est activo    \r\n    function isActive() public view returns (bool){\r\n        return (activeContract);\r\n    }\r\n}",
  "sourcePath": "C:\\Desarrollo\\Master Blokchain\\bet2peer\\contracts\\BetStorage.sol",
  "compiler": {
    "name": "solc",
    "version": "0.8.14+commit.80d49f37.Emscripten.clang"
  },
  "schemaVersion": "3.4.7",
  "updatedAt": "2022-07-07T15:27:30.564Z",
  "networkType": "ethereum",
  "devdoc": {
    "kind": "dev",
    "methods": {
      "owner()": {
        "details": "Returns the address of the current owner."
      },
      "renounceOwnership()": {
        "details": "Leaves the contract without owner. It will not be possible to call `onlyOwner` functions anymore. Can only be called by the current owner. NOTE: Renouncing ownership will leave the contract without an owner, thereby removing any functionality that is only available to the owner."
      },
      "transferOwnership(address)": {
        "details": "Transfers ownership of the contract to a new account (`newOwner`). Can only be called by the current owner."
      }
    },
    "version": 1
  },
  "userdoc": {
    "kind": "user",
    "methods": {},
    "version": 1
  }
}