{
  "contractName": "Father",
  "abi": [
    {
      "inputs": [],
      "stateMutability": "nonpayable",
      "type": "constructor"
    },
    {
      "anonymous": false,
      "inputs": [
        {
          "indexed": false,
          "internalType": "string",
          "name": "_message",
          "type": "string"
        }
      ],
      "name": "Status",
      "type": "event"
    },
    {
      "inputs": [],
      "name": "bet",
      "outputs": [
        {
          "internalType": "contract Bet2Peer",
          "name": "",
          "type": "address"
        }
      ],
      "stateMutability": "view",
      "type": "function",
      "constant": true
    },
    {
      "inputs": [
        {
          "internalType": "uint256",
          "name": "_matchId",
          "type": "uint256"
        },
        {
          "internalType": "uint8",
          "name": "_result",
          "type": "uint8"
        },
        {
          "internalType": "uint256",
          "name": "_originalBet",
          "type": "uint256"
        },
        {
          "internalType": "uint256",
          "name": "_minimumCounterBet",
          "type": "uint256"
        }
      ],
      "name": "createBet",
      "outputs": [],
      "stateMutability": "payable",
      "type": "function",
      "payable": true
    },
    {
      "inputs": [
        {
          "internalType": "address payable",
          "name": "_contract",
          "type": "address"
        }
      ],
      "name": "removeBet",
      "outputs": [],
      "stateMutability": "nonpayable",
      "type": "function"
    },
    {
      "inputs": [
        {
          "internalType": "address payable",
          "name": "_contract",
          "type": "address"
        }
      ],
      "name": "resolveBet",
      "outputs": [],
      "stateMutability": "nonpayable",
      "type": "function"
    },
    {
      "inputs": [
        {
          "internalType": "address",
          "name": "counterGambler",
          "type": "address"
        },
        {
          "internalType": "address",
          "name": "_sonContract",
          "type": "address"
        }
      ],
      "name": "addBetToCounterGambler",
      "outputs": [],
      "stateMutability": "payable",
      "type": "function",
      "payable": true
    },
    {
      "inputs": [
        {
          "internalType": "address",
          "name": "_user",
          "type": "address"
        }
      ],
      "name": "getAllBetsByUser",
      "outputs": [
        {
          "internalType": "address[]",
          "name": "",
          "type": "address[]"
        }
      ],
      "stateMutability": "view",
      "type": "function",
      "constant": true
    },
    {
      "inputs": [
        {
          "internalType": "uint256",
          "name": "_matchId",
          "type": "uint256"
        }
      ],
      "name": "getAllBetsByMatchId",
      "outputs": [
        {
          "internalType": "address[]",
          "name": "",
          "type": "address[]"
        }
      ],
      "stateMutability": "view",
      "type": "function",
      "constant": true
    },
    {
      "inputs": [],
      "name": "isActive",
      "outputs": [
        {
          "internalType": "bool",
          "name": "",
          "type": "bool"
        }
      ],
      "stateMutability": "view",
      "type": "function",
      "constant": true
    },
    {
      "inputs": [
        {
          "internalType": "uint256",
          "name": "_matchId",
          "type": "uint256"
        },
        {
          "internalType": "uint256",
          "name": "_index",
          "type": "uint256"
        }
      ],
      "name": "removeBetFromMatch",
      "outputs": [],
      "stateMutability": "nonpayable",
      "type": "function"
    },
    {
      "inputs": [
        {
          "internalType": "address",
          "name": "_userAddress",
          "type": "address"
        },
        {
          "internalType": "uint256",
          "name": "_index",
          "type": "uint256"
        }
      ],
      "name": "removeBetFromUser",
      "outputs": [],
      "stateMutability": "nonpayable",
      "type": "function"
    },
    {
      "inputs": [],
      "name": "stopContract",
      "outputs": [],
      "stateMutability": "nonpayable",
      "type": "function"
    }
  ],
  "bytecode": "0x608060405234801561001057600080fd5b5033600160006101000a81548173ffffffffffffffffffffffffffffffffffffffff021916908373ffffffffffffffffffffffffffffffffffffffff1602179055506001600560006101000a81548160ff0219169083151502179055506144728061007c6000396000f3fe608060405260043610620000aa5760003560e01c8063305fc68d116200006d578063305fc68d146200018557806339c7312b14620001a557806356a6e68f14620001c55780635ca1985a1462000209578063c407f09b1462000237578063d0b8a361146200027b57620000aa565b806306011b2114620000af57806311610c2514620000dd57806311e55361146200010d57806312253a6c146200013b57806322f3e2d41462000155575b600080fd5b348015620000bc57600080fd5b50620000db6004803603810190620000d591906200176e565b620002a9565b005b348015620000ea57600080fd5b50620000f5620007a3565b6040516200010491906200180b565b60405180910390f35b3480156200011a57600080fd5b5062000139600480360381019062000133919062001863565b620007c7565b005b3480156200014857600080fd5b50620001536200090d565b005b3480156200016257600080fd5b506200016d62000a5e565b6040516200017c9190620018c7565b60405180910390f35b620001a360048036038101906200019d919062001929565b62000a75565b005b620001c36004803603810190620001bd9190620019ae565b62000b19565b005b348015620001d257600080fd5b50620001f16004803603810190620001eb919062001a20565b62000ecf565b60405162000200919062001b20565b60405180910390f35b3480156200021657600080fd5b506200023560048036038101906200022f919062001b44565b62000f72565b005b3480156200024457600080fd5b506200026360048036038101906200025d919062001b8b565b62001168565b60405162000272919062001b20565b60405180910390f35b3480156200028857600080fd5b50620002a76004803603810190620002a191906200176e565b62001237565b005b600560009054906101000a900460ff16620002fb576040517f08c379a0000000000000000000000000000000000000000000000000000000008152600401620002f29062001c1e565b60405180910390fd5b806000806101000a81548173ffffffffffffffffffffffffffffffffffffffff021916908373ffffffffffffffffffffffffffffffffffffffff1602179055503373ffffffffffffffffffffffffffffffffffffffff1660008054906101000a900473ffffffffffffffffffffffffffffffffffffffff1673ffffffffffffffffffffffffffffffffffffffff1663ad9136336040518163ffffffff1660e01b8152600401602060405180830381865afa158015620003be573d6000803e3d6000fd5b505050506040513d601f19601f82011682018060405250810190620003e4919062001c57565b73ffffffffffffffffffffffffffffffffffffffff16146200043d576040517f08c379a0000000000000000000000000000000000000000000000000000000008152600401620004349062001cff565b60405180910390fd5b60008054906101000a900473ffffffffffffffffffffffffffffffffffffffff1673ffffffffffffffffffffffffffffffffffffffff166306011b21336040518263ffffffff1660e01b815260040162000498919062001d32565b6020604051808303816000875af1158015620004b8573d6000803e3d6000fd5b505050506040513d601f19601f82011682018060405250810190620004de919062001d80565b15620007a0576000620005b7600260003373ffffffffffffffffffffffffffffffffffffffff1673ffffffffffffffffffffffffffffffffffffffff168152602001908152602001600020805480602002602001604051908101604052809291908181526020018280548015620005ab57602002820191906000526020600020905b8160009054906101000a900473ffffffffffffffffffffffffffffffffffffffff1673ffffffffffffffffffffffffffffffffffffffff168152602001906001019080831162000560575b5050505050836200162f565b90506000620006f2600360008060009054906101000a900473ffffffffffffffffffffffffffffffffffffffff1673ffffffffffffffffffffffffffffffffffffffff1663153dc1826040518163ffffffff1660e01b8152600401602060405180830381865afa15801562000630573d6000803e3d6000fd5b505050506040513d601f19601f8201168201806040525081019062000656919062001dc9565b8152602001908152602001600020805480602002602001604051908101604052809291908181526020018280548015620006e657602002820191906000526020600020905b8160009054906101000a900473ffffffffffffffffffffffffffffffffffffffff1673ffffffffffffffffffffffffffffffffffffffff16815260200190600101908083116200069b575b5050505050846200162f565b905062000700338362000f72565b6200079d60008054906101000a900473ffffffffffffffffffffffffffffffffffffffff1673ffffffffffffffffffffffffffffffffffffffff1663153dc1826040518163ffffffff1660e01b8152600401602060405180830381865afa15801562000770573d6000803e3d6000fd5b505050506040513d601f19601f8201168201806040525081019062000796919062001dc9565b82620007c7565b50505b50565b60008054906101000a900473ffffffffffffffffffffffffffffffffffffffff1681565b6003600083815260200190815260200160002060016003600085815260200190815260200160002080549050620007ff919062001e2a565b8154811062000813576200081262001e65565b5b9060005260206000200160009054906101000a900473ffffffffffffffffffffffffffffffffffffffff1660036000848152602001908152602001600020828154811062000866576200086562001e65565b5b9060005260206000200160006101000a81548173ffffffffffffffffffffffffffffffffffffffff021916908373ffffffffffffffffffffffffffffffffffffffff16021790555060036000838152602001908152602001600020805480620008d457620008d362001e94565b5b6001900381819060005260206000200160006101000a81549073ffffffffffffffffffffffffffffffffffffffff021916905590555050565b600160009054906101000a900473ffffffffffffffffffffffffffffffffffffffff1673ffffffffffffffffffffffffffffffffffffffff163373ffffffffffffffffffffffffffffffffffffffff1614620009a0576040517f08c379a0000000000000000000000000000000000000000000000000000000008152600401620009979062001f13565b60405180910390fd5b6000600560006101000a81548160ff021916908315150217905550600160009054906101000a900473ffffffffffffffffffffffffffffffffffffffff1673ffffffffffffffffffffffffffffffffffffffff166108fc479081150290604051600060405180830381858888f1935050505015801562000a24573d6000803e3d6000fd5b507f2844c95bf1b4598da931d527f903501abc60fe0199c65da52d5ce818c6c5e96160405162000a549062001f85565b60405180910390a1565b6000600560009054906101000a900460ff16905090565b600260008373ffffffffffffffffffffffffffffffffffffffff1673ffffffffffffffffffffffffffffffffffffffff168152602001908152602001600020819080600181540180825580915050600190039060005260206000200160009091909190916101000a81548173ffffffffffffffffffffffffffffffffffffffff021916908373ffffffffffffffffffffffffffffffffffffffff1602179055505050565b600560009054906101000a900460ff1662000b6b576040517f08c379a000000000000000000000000000000000000000000000000000000000815260040162000b629062001c1e565b60405180910390fd5b33848484843060405162000b7f90620016f6565b62000b909695949392919062001fc9565b604051809103906000f08015801562000bad573d6000803e3d6000fd5b506000806101000a81548173ffffffffffffffffffffffffffffffffffffffff021916908373ffffffffffffffffffffffffffffffffffffffff16021790555060008060009054906101000a900473ffffffffffffffffffffffffffffffffffffffff1690508073ffffffffffffffffffffffffffffffffffffffff166108fc349081150290604051600060405180830381858888f1935050505015801562000c5a573d6000803e3d6000fd5b50600260003373ffffffffffffffffffffffffffffffffffffffff1673ffffffffffffffffffffffffffffffffffffffff16815260200190815260200160002060008054906101000a900473ffffffffffffffffffffffffffffffffffffffff1673ffffffffffffffffffffffffffffffffffffffff166332a2c5d06040518163ffffffff1660e01b8152600401602060405180830381865afa15801562000d06573d6000803e3d6000fd5b505050506040513d601f19601f8201168201806040525081019062000d2c919062001c57565b9080600181540180825580915050600190039060005260206000200160009091909190916101000a81548173ffffffffffffffffffffffffffffffffffffffff021916908373ffffffffffffffffffffffffffffffffffffffff1602179055506003600086815260200190815260200160002060008054906101000a900473ffffffffffffffffffffffffffffffffffffffff1673ffffffffffffffffffffffffffffffffffffffff166332a2c5d06040518163ffffffff1660e01b8152600401602060405180830381865afa15801562000e0b573d6000803e3d6000fd5b505050506040513d601f19601f8201168201806040525081019062000e31919062001c57565b9080600181540180825580915050600190039060005260206000200160009091909190916101000a81548173ffffffffffffffffffffffffffffffffffffffff021916908373ffffffffffffffffffffffffffffffffffffffff1602179055507f2844c95bf1b4598da931d527f903501abc60fe0199c65da52d5ce818c6c5e96160405162000ec09062002086565b60405180910390a15050505050565b60606003600083815260200190815260200160002080548060200260200160405190810160405280929190818152602001828054801562000f6657602002820191906000526020600020905b8160009054906101000a900473ffffffffffffffffffffffffffffffffffffffff1673ffffffffffffffffffffffffffffffffffffffff168152602001906001019080831162000f1b575b50505050509050919050565b600260008373ffffffffffffffffffffffffffffffffffffffff1673ffffffffffffffffffffffffffffffffffffffff1681526020019081526020016000206001600260008573ffffffffffffffffffffffffffffffffffffffff1673ffffffffffffffffffffffffffffffffffffffff1681526020019081526020016000208054905062001002919062001e2a565b8154811062001016576200101562001e65565b5b9060005260206000200160009054906101000a900473ffffffffffffffffffffffffffffffffffffffff16600260008473ffffffffffffffffffffffffffffffffffffffff1673ffffffffffffffffffffffffffffffffffffffff168152602001908152602001600020828154811062001095576200109462001e65565b5b9060005260206000200160006101000a81548173ffffffffffffffffffffffffffffffffffffffff021916908373ffffffffffffffffffffffffffffffffffffffff160217905550600260008373ffffffffffffffffffffffffffffffffffffffff1673ffffffffffffffffffffffffffffffffffffffff1681526020019081526020016000208054806200112f576200112e62001e94565b5b6001900381819060005260206000200160006101000a81549073ffffffffffffffffffffffffffffffffffffffff021916905590555050565b6060600260008373ffffffffffffffffffffffffffffffffffffffff1673ffffffffffffffffffffffffffffffffffffffff1681526020019081526020016000208054806020026020016040519081016040528092919081815260200182805480156200122b57602002820191906000526020600020905b8160009054906101000a900473ffffffffffffffffffffffffffffffffffffffff1673ffffffffffffffffffffffffffffffffffffffff1681526020019060010190808311620011e0575b50505050509050919050565b600560009054906101000a900460ff1662001289576040517f08c379a0000000000000000000000000000000000000000000000000000000008152600401620012809062001c1e565b60405180910390fd5b806000806101000a81548173ffffffffffffffffffffffffffffffffffffffff021916908373ffffffffffffffffffffffffffffffffffffffff16021790555060008054906101000a900473ffffffffffffffffffffffffffffffffffffffff1673ffffffffffffffffffffffffffffffffffffffff1663d0b8a361336040518263ffffffff1660e01b815260040162001324919062001d32565b6020604051808303816000875af115801562001344573d6000803e3d6000fd5b505050506040513d601f19601f820116820180604052508101906200136a919062001d80565b156200162c57600062001443600260003373ffffffffffffffffffffffffffffffffffffffff1673ffffffffffffffffffffffffffffffffffffffff1681526020019081526020016000208054806020026020016040519081016040528092919081815260200182805480156200143757602002820191906000526020600020905b8160009054906101000a900473ffffffffffffffffffffffffffffffffffffffff1673ffffffffffffffffffffffffffffffffffffffff1681526020019060010190808311620013ec575b5050505050836200162f565b905060006200157e600360008060009054906101000a900473ffffffffffffffffffffffffffffffffffffffff1673ffffffffffffffffffffffffffffffffffffffff1663153dc1826040518163ffffffff1660e01b8152600401602060405180830381865afa158015620014bc573d6000803e3d6000fd5b505050506040513d601f19601f82011682018060405250810190620014e2919062001dc9565b81526020019081526020016000208054806020026020016040519081016040528092919081815260200182805480156200157257602002820191906000526020600020905b8160009054906101000a900473ffffffffffffffffffffffffffffffffffffffff1673ffffffffffffffffffffffffffffffffffffffff168152602001906001019080831162001527575b5050505050846200162f565b90506200158c338362000f72565b6200162960008054906101000a900473ffffffffffffffffffffffffffffffffffffffff1673ffffffffffffffffffffffffffffffffffffffff1663153dc1826040518163ffffffff1660e01b8152600401602060405180830381865afa158015620015fc573d6000803e3d6000fd5b505050506040513d601f19601f8201168201806040525081019062001622919062001dc9565b82620007c7565b50505b50565b600080600090505b8351811015620016b2578273ffffffffffffffffffffffffffffffffffffffff168482815181106200166e576200166d62001e65565b5b602002602001015173ffffffffffffffffffffffffffffffffffffffff16036200169c5780915050620016f0565b8080620016a990620020a8565b91505062001637565b506040517f08c379a0000000000000000000000000000000000000000000000000000000008152600401620016e79062002145565b60405180910390fd5b92915050565b6122d5806200216883390190565b600080fd5b600073ffffffffffffffffffffffffffffffffffffffff82169050919050565b6000620017368262001709565b9050919050565b620017488162001729565b81146200175457600080fd5b50565b60008135905062001768816200173d565b92915050565b60006020828403121562001787576200178662001704565b5b6000620017978482850162001757565b91505092915050565b6000819050919050565b6000620017cb620017c5620017bf8462001709565b620017a0565b62001709565b9050919050565b6000620017df82620017aa565b9050919050565b6000620017f382620017d2565b9050919050565b6200180581620017e6565b82525050565b6000602082019050620018226000830184620017fa565b92915050565b6000819050919050565b6200183d8162001828565b81146200184957600080fd5b50565b6000813590506200185d8162001832565b92915050565b600080604083850312156200187d576200187c62001704565b5b60006200188d858286016200184c565b9250506020620018a0858286016200184c565b9150509250929050565b60008115159050919050565b620018c181620018aa565b82525050565b6000602082019050620018de6000830184620018b6565b92915050565b6000620018f18262001709565b9050919050565b6200190381620018e4565b81146200190f57600080fd5b50565b6000813590506200192381620018f8565b92915050565b6000806040838503121562001943576200194262001704565b5b6000620019538582860162001912565b9250506020620019668582860162001912565b9150509250929050565b600060ff82169050919050565b620019888162001970565b81146200199457600080fd5b50565b600081359050620019a8816200197d565b92915050565b60008060008060808587031215620019cb57620019ca62001704565b5b6000620019db878288016200184c565b9450506020620019ee8782880162001997565b935050604062001a01878288016200184c565b925050606062001a14878288016200184c565b91505092959194509250565b60006020828403121562001a395762001a3862001704565b5b600062001a49848285016200184c565b91505092915050565b600081519050919050565b600082825260208201905092915050565b6000819050602082019050919050565b62001a8981620018e4565b82525050565b600062001a9d838362001a7e565b60208301905092915050565b6000602082019050919050565b600062001ac38262001a52565b62001acf818562001a5d565b935062001adc8362001a6e565b8060005b8381101562001b1357815162001af7888262001a8f565b975062001b048362001aa9565b92505060018101905062001ae0565b5085935050505092915050565b6000602082019050818103600083015262001b3c818462001ab6565b905092915050565b6000806040838503121562001b5e5762001b5d62001704565b5b600062001b6e8582860162001912565b925050602062001b81858286016200184c565b9150509250929050565b60006020828403121562001ba45762001ba362001704565b5b600062001bb48482850162001912565b91505092915050565b600082825260208201905092915050565b7f536f7272792c20636f6e74726163742064697361626c65640000000000000000600082015250565b600062001c0660188362001bbd565b915062001c138262001bce565b602082019050919050565b6000602082019050818103600083015262001c398162001bf7565b9050919050565b60008151905062001c5181620018f8565b92915050565b60006020828403121562001c705762001c6f62001704565b5b600062001c808482850162001c40565b91505092915050565b7f4e6f206572657320656c2063726561646f72206465206573746120617075657360008201527f7461000000000000000000000000000000000000000000000000000000000000602082015250565b600062001ce760228362001bbd565b915062001cf48262001c89565b604082019050919050565b6000602082019050818103600083015262001d1a8162001cd8565b9050919050565b62001d2c81620018e4565b82525050565b600060208201905062001d49600083018462001d21565b92915050565b62001d5a81620018aa565b811462001d6657600080fd5b50565b60008151905062001d7a8162001d4f565b92915050565b60006020828403121562001d995762001d9862001704565b5b600062001da98482850162001d69565b91505092915050565b60008151905062001dc38162001832565b92915050565b60006020828403121562001de25762001de162001704565b5b600062001df28482850162001db2565b91505092915050565b7f4e487b7100000000000000000000000000000000000000000000000000000000600052601160045260246000fd5b600062001e378262001828565b915062001e448362001828565b92508282101562001e5a5762001e5962001dfb565b5b828203905092915050565b7f4e487b7100000000000000000000000000000000000000000000000000000000600052603260045260246000fd5b7f4e487b7100000000000000000000000000000000000000000000000000000000600052603160045260246000fd5b7f596f75206d75737420626520746865206f726967696e616c204f574e45520000600082015250565b600062001efb601e8362001bbd565b915062001f088262001ec3565b602082019050919050565b6000602082019050818103600083015262001f2e8162001eec565b9050919050565b7f456c20636f6e747261746f2073652068612070617261646f0000000000000000600082015250565b600062001f6d60188362001bbd565b915062001f7a8262001f35565b602082019050919050565b6000602082019050818103600083015262001fa08162001f5e565b9050919050565b62001fb28162001828565b82525050565b62001fc38162001970565b82525050565b600060c08201905062001fe0600083018962001d21565b62001fef602083018862001fa7565b62001ffe604083018762001fb8565b6200200d606083018662001fa7565b6200201c608083018562001fa7565b6200202b60a083018462001d21565b979650505050505050565b7f4265742063726561746564000000000000000000000000000000000000000000600082015250565b60006200206e600b8362001bbd565b91506200207b8262002036565b602082019050919050565b60006020820190508181036000830152620020a1816200205f565b9050919050565b6000620020b58262001828565b91507fffffffffffffffffffffffffffffffffffffffffffffffffffffffffffffffff8203620020ea57620020e962001dfb565b5b600182019050919050565b7f4e6f7420466f756e640000000000000000000000000000000000000000000000600082015250565b60006200212d60098362001bbd565b91506200213a82620020f5565b602082019050919050565b6000602082019050818103600083015262002160816200211e565b905091905056fe60806040523480156200001157600080fd5b50604051620022d5380380620022d5833981810160405281019062000037919062000628565b620000576200004b6200047960201b60201c565b6200048160201b60201c565b85600460006101000a81548173ffffffffffffffffffffffffffffffffffffffff021916908373ffffffffffffffffffffffffffffffffffffffff1602179055508460038190555083600560146101000a81548160ff021916908360ff160217905550826006819055508160078190555080600860006101000a81548173ffffffffffffffffffffffffffffffffffffffff021916908373ffffffffffffffffffffffffffffffffffffffff1602179055506001600960146101000a81548160ff0219169083151502179055506000600960156101000a81548160ff02191690831515021790555085600160003073ffffffffffffffffffffffffffffffffffffffff1673ffffffffffffffffffffffffffffffffffffffff16815260200190815260200160002060000160006101000a81548173ffffffffffffffffffffffffffffffffffffffff021916908373ffffffffffffffffffffffffffffffffffffffff16021790555084600160003073ffffffffffffffffffffffffffffffffffffffff1673ffffffffffffffffffffffffffffffffffffffff1681526020019081526020016000206002018190555083600160003073ffffffffffffffffffffffffffffffffffffffff1673ffffffffffffffffffffffffffffffffffffffff16815260200190815260200160002060030160006101000a81548160ff021916908360ff16021790555082600160003073ffffffffffffffffffffffffffffffffffffffff1673ffffffffffffffffffffffffffffffffffffffff1681526020019081526020016000206004018190555081600160003073ffffffffffffffffffffffffffffffffffffffff1673ffffffffffffffffffffffffffffffffffffffff1681526020019081526020016000206005018190555060006002600063011530ea815260200190815260200160002060006101000a81548160ff021916908360ff160217905550600280600063011530e9815260200190815260200160002060006101000a81548160ff021916908360ff160217905550600280600063011530f2815260200190815260200160002060006101000a81548160ff021916908360ff16021790555060016002600063011530ee815260200190815260200160002060006101000a81548160ff021916908360ff160217905550600280600063011530f1815260200190815260200160002060006101000a81548160ff021916908360ff16021790555060016002600063011530ed815260200190815260200160002060006101000a81548160ff021916908360ff1602179055507f2844c95bf1b4598da931d527f903501abc60fe0199c65da52d5ce818c6c5e9618560405160200162000447919062000794565b6040516020818303038152906040526040516200046591906200086f565b60405180910390a150505050505062000893565b600033905090565b60008060009054906101000a900473ffffffffffffffffffffffffffffffffffffffff169050816000806101000a81548173ffffffffffffffffffffffffffffffffffffffff021916908373ffffffffffffffffffffffffffffffffffffffff1602179055508173ffffffffffffffffffffffffffffffffffffffff168173ffffffffffffffffffffffffffffffffffffffff167f8be0079c531659141344cd1fd0a4f28419497f9722a3daafe3b4186f6b6457e060405160405180910390a35050565b600080fd5b600073ffffffffffffffffffffffffffffffffffffffff82169050919050565b600062000577826200054a565b9050919050565b62000589816200056a565b81146200059557600080fd5b50565b600081519050620005a9816200057e565b92915050565b6000819050919050565b620005c481620005af565b8114620005d057600080fd5b50565b600081519050620005e481620005b9565b92915050565b600060ff82169050919050565b6200060281620005ea565b81146200060e57600080fd5b50565b6000815190506200062281620005f7565b92915050565b60008060008060008060c0878903121562000648576200064762000545565b5b60006200065889828a0162000598565b96505060206200066b89828a01620005d3565b95505060406200067e89828a0162000611565b94505060606200069189828a01620005d3565b9350506080620006a489828a01620005d3565b92505060a0620006b789828a0162000598565b9150509295509295509295565b600081905092915050565b7f5061727469646f20000000000000000000000000000000000000000000000000600082015250565b600062000707600883620006c4565b91506200071482620006cf565b600882019050919050565b6000819050919050565b6200073e6200073882620005af565b6200071f565b82525050565b7f2063726561646f00000000000000000000000000000000000000000000000000600082015250565b60006200077c600783620006c4565b9150620007898262000744565b600782019050919050565b6000620007a182620006f8565b9150620007af828462000729565b602082019150620007c0826200076d565b915081905092915050565b600081519050919050565b600082825260208201905092915050565b60005b8381101562000807578082015181840152602081019050620007ea565b8381111562000817576000848401525b50505050565b6000601f19601f8301169050919050565b60006200083b82620007cb565b620008478185620007d6565b935062000859818560208601620007e7565b62000864816200081d565b840191505092915050565b600060208201905081810360008301526200088b81846200082e565b905092915050565b611a3280620008a36000396000f3fe6080604052600436106100c65760003560e01c8063715018a61161007f578063ad91363311610059578063ad91363314610225578063d0b8a36114610250578063e11eb98d14610280578063f2fde38b146102c2576100cd565b8063715018a6146101b85780637cc1f867146101cf5780638da5cb5b146101fa576100cd565b806306011b21146100d257806312065fe014610102578063153dc1821461012d5780632c70444e1461015857806330bfcb5f1461018357806332a2c5d01461018d576100cd565b366100cd57005b600080fd5b6100ec60048036038101906100e791906110db565b6102eb565b6040516100f99190611123565b60405180910390f35b34801561010e57600080fd5b50610117610508565b6040516101249190611157565b60405180910390f35b34801561013957600080fd5b50610142610510565b60405161014f9190611157565b60405180910390f35b34801561016457600080fd5b5061016d61051a565b60405161017a9190611157565b60405180910390f35b61018b610520565b005b34801561019957600080fd5b506101a26108bb565b6040516101af9190611181565b60405180910390f35b3480156101c457600080fd5b506101cd6108c3565b005b3480156101db57600080fd5b506101e461094b565b6040516101f19190611251565b60405180910390f35b34801561020657600080fd5b5061020f610a89565b60405161021c9190611181565b60405180910390f35b34801561023157600080fd5b5061023a610ab2565b6040516102479190611181565b60405180910390f35b61026a600480360381019061026591906110db565b610adc565b6040516102779190611123565b60405180910390f35b34801561028c57600080fd5b506102a760048036038101906102a291906110db565b610dc7565b6040516102b99695949392919061127b565b60405180910390f35b3480156102ce57600080fd5b506102e960048036038101906102e491906110db565b610e50565b005b600081600460009054906101000a900473ffffffffffffffffffffffffffffffffffffffff1673ffffffffffffffffffffffffffffffffffffffff168173ffffffffffffffffffffffffffffffffffffffff161461037e576040517f08c379a000000000000000000000000000000000000000000000000000000000815260040161037590611339565b60405180910390fd5b600960149054906101000a900460ff166103cd576040517f08c379a00000000000000000000000000000000000000000000000000000000081526004016103c4906113a5565b60405180910390fd5b600960159054906101000a900460ff161561041d576040517f08c379a000000000000000000000000000000000000000000000000000000000815260040161041490611411565b60405180910390fd5b600460009054906101000a900473ffffffffffffffffffffffffffffffffffffffff1673ffffffffffffffffffffffffffffffffffffffff166108fc479081150290604051600060405180830381858888f19350505050158015610485573d6000803e3d6000fd5b506000600960146101000a81548160ff0219169083151502179055507f2844c95bf1b4598da931d527f903501abc60fe0199c65da52d5ce818c6c5e9616104ca6108bb565b6040516020016104da919061151c565b6040516020818303038152906040526040516104f691906115d5565b60405180910390a16001915050919050565b600047905090565b6000600354905090565b60035481565b600960149054906101000a900460ff1661056f576040517f08c379a0000000000000000000000000000000000000000000000000000000008152600401610566906113a5565b60405180910390fd5b6007543410156105b4576040517f08c379a00000000000000000000000000000000000000000000000000000000081526004016105ab90611643565b60405180910390fd5b60001515600960159054906101000a900460ff1615151461060a576040517f08c379a0000000000000000000000000000000000000000000000000000000008152600401610601906116af565b60405180910390fd5b33600560006101000a81548173ffffffffffffffffffffffffffffffffffffffff021916908373ffffffffffffffffffffffffffffffffffffffff160217905550600560009054906101000a900473ffffffffffffffffffffffffffffffffffffffff16600160003073ffffffffffffffffffffffffffffffffffffffff1673ffffffffffffffffffffffffffffffffffffffff16815260200190815260200160002060010160006101000a81548173ffffffffffffffffffffffffffffffffffffffff021916908373ffffffffffffffffffffffffffffffffffffffff1602179055506001600960156101000a81548160ff021916908315150217905550600860009054906101000a900473ffffffffffffffffffffffffffffffffffffffff16600960006101000a81548173ffffffffffffffffffffffffffffffffffffffff021916908373ffffffffffffffffffffffffffffffffffffffff160217905550600960009054906101000a900473ffffffffffffffffffffffffffffffffffffffff1673ffffffffffffffffffffffffffffffffffffffff1663305fc68d600560009054906101000a900473ffffffffffffffffffffffffffffffffffffffff16306040518363ffffffff1660e01b81526004016107eb92919061172e565b600060405180830381600087803b15801561080557600080fd5b505af1158015610819573d6000803e3d6000fd5b505050507f2844c95bf1b4598da931d527f903501abc60fe0199c65da52d5ce818c6c5e961600560009054906101000a900473ffffffffffffffffffffffffffffffffffffffff16600460009054906101000a900473ffffffffffffffffffffffffffffffffffffffff166040516020016108959291906117de565b6040516020818303038152906040526040516108b191906115d5565b60405180910390a1565b600030905090565b6108cb610f47565b73ffffffffffffffffffffffffffffffffffffffff166108e9610a89565b73ffffffffffffffffffffffffffffffffffffffff161461093f576040517f08c379a000000000000000000000000000000000000000000000000000000000815260040161093690611861565b60405180910390fd5b6109496000610f4f565b565b610953611013565b600160003073ffffffffffffffffffffffffffffffffffffffff1673ffffffffffffffffffffffffffffffffffffffff1681526020019081526020016000206040518060c00160405290816000820160009054906101000a900473ffffffffffffffffffffffffffffffffffffffff1673ffffffffffffffffffffffffffffffffffffffff1673ffffffffffffffffffffffffffffffffffffffff1681526020016001820160009054906101000a900473ffffffffffffffffffffffffffffffffffffffff1673ffffffffffffffffffffffffffffffffffffffff1673ffffffffffffffffffffffffffffffffffffffff168152602001600282015481526020016003820160009054906101000a900460ff1660ff1660ff16815260200160048201548152602001600582015481525050905090565b60008060009054906101000a900473ffffffffffffffffffffffffffffffffffffffff16905090565b6000600460009054906101000a900473ffffffffffffffffffffffffffffffffffffffff16905090565b600081600460009054906101000a900473ffffffffffffffffffffffffffffffffffffffff1673ffffffffffffffffffffffffffffffffffffffff168173ffffffffffffffffffffffffffffffffffffffff161480610b885750600560009054906101000a900473ffffffffffffffffffffffffffffffffffffffff1673ffffffffffffffffffffffffffffffffffffffff168173ffffffffffffffffffffffffffffffffffffffff16145b610bc7576040517f08c379a0000000000000000000000000000000000000000000000000000000008152600401610bbe906118cd565b60405180910390fd5b600960149054906101000a900460ff16610c16576040517f08c379a0000000000000000000000000000000000000000000000000000000008152600401610c0d906113a5565b60405180910390fd5b600960159054906101000a900460ff16610c2f57600080fd5b600560149054906101000a900460ff1660ff1660026000600354815260200190815260200160002060009054906101000a900460ff1660ff1603610cdb57600460009054906101000a900473ffffffffffffffffffffffffffffffffffffffff1673ffffffffffffffffffffffffffffffffffffffff166108fc479081150290604051600060405180830381858888f19350505050158015610cd5573d6000803e3d6000fd5b50610d45565b600560009054906101000a900473ffffffffffffffffffffffffffffffffffffffff1673ffffffffffffffffffffffffffffffffffffffff166108fc479081150290604051600060405180830381858888f19350505050158015610d43573d6000803e3d6000fd5b505b6000600960146101000a81548160ff0219169083151502179055507f2844c95bf1b4598da931d527f903501abc60fe0199c65da52d5ce818c6c5e961610d896108bb565b604051602001610d999190611939565b604051602081830303815290604052604051610db591906115d5565b60405180910390a16001915050919050565b60016020528060005260406000206000915090508060000160009054906101000a900473ffffffffffffffffffffffffffffffffffffffff16908060010160009054906101000a900473ffffffffffffffffffffffffffffffffffffffff16908060020154908060030160009054906101000a900460ff16908060040154908060050154905086565b610e58610f47565b73ffffffffffffffffffffffffffffffffffffffff16610e76610a89565b73ffffffffffffffffffffffffffffffffffffffff1614610ecc576040517f08c379a0000000000000000000000000000000000000000000000000000000008152600401610ec390611861565b60405180910390fd5b600073ffffffffffffffffffffffffffffffffffffffff168173ffffffffffffffffffffffffffffffffffffffff1603610f3b576040517f08c379a0000000000000000000000000000000000000000000000000000000008152600401610f32906119dc565b60405180910390fd5b610f4481610f4f565b50565b600033905090565b60008060009054906101000a900473ffffffffffffffffffffffffffffffffffffffff169050816000806101000a81548173ffffffffffffffffffffffffffffffffffffffff021916908373ffffffffffffffffffffffffffffffffffffffff1602179055508173ffffffffffffffffffffffffffffffffffffffff168173ffffffffffffffffffffffffffffffffffffffff167f8be0079c531659141344cd1fd0a4f28419497f9722a3daafe3b4186f6b6457e060405160405180910390a35050565b6040518060c00160405280600073ffffffffffffffffffffffffffffffffffffffff168152602001600073ffffffffffffffffffffffffffffffffffffffff16815260200160008152602001600060ff16815260200160008152602001600081525090565b600080fd5b600073ffffffffffffffffffffffffffffffffffffffff82169050919050565b60006110a88261107d565b9050919050565b6110b88161109d565b81146110c357600080fd5b50565b6000813590506110d5816110af565b92915050565b6000602082840312156110f1576110f0611078565b5b60006110ff848285016110c6565b91505092915050565b60008115159050919050565b61111d81611108565b82525050565b60006020820190506111386000830184611114565b92915050565b6000819050919050565b6111518161113e565b82525050565b600060208201905061116c6000830184611148565b92915050565b61117b8161109d565b82525050565b60006020820190506111966000830184611172565b92915050565b6111a58161109d565b82525050565b6111b48161113e565b82525050565b600060ff82169050919050565b6111d0816111ba565b82525050565b60c0820160008201516111ec600085018261119c565b5060208201516111ff602085018261119c565b50604082015161121260408501826111ab565b50606082015161122560608501826111c7565b50608082015161123860808501826111ab565b5060a082015161124b60a08501826111ab565b50505050565b600060c08201905061126660008301846111d6565b92915050565b611275816111ba565b82525050565b600060c0820190506112906000830189611172565b61129d6020830188611172565b6112aa6040830187611148565b6112b7606083018661126c565b6112c46080830185611148565b6112d160a0830184611148565b979650505050505050565b600082825260208201905092915050565b7f4e6f206572657320656c2063726561646f72206465206c612061707565737461600082015250565b60006113236020836112dc565b915061132e826112ed565b602082019050919050565b6000602082019050818103600083015261135281611316565b9050919050565b7f457374612061707565737461206e6f2065737461206163746976610000000000600082015250565b600061138f601b836112dc565b915061139a82611359565b602082019050919050565b600060208201905081810360008301526113be81611382565b9050919050565b7f4c612061707565737461207961206861207369646f2061636570746164610000600082015250565b60006113fb601e836112dc565b9150611406826113c5565b602082019050919050565b6000602082019050818103600083015261142a816113ee565b9050919050565b600081905092915050565b7f4170756573746120000000000000000000000000000000000000000000000000600082015250565b6000611472600883611431565b915061147d8261143c565b600882019050919050565b60008160601b9050919050565b60006114a082611488565b9050919050565b60006114b282611495565b9050919050565b6114ca6114c58261109d565b6114a7565b82525050565b7f20656c696d696e61646100000000000000000000000000000000000000000000600082015250565b6000611506600a83611431565b9150611511826114d0565b600a82019050919050565b600061152782611465565b915061153382846114b9565b601482019150611542826114f9565b915081905092915050565b600081519050919050565b60005b8381101561157657808201518184015260208101905061155b565b83811115611585576000848401525b50505050565b6000601f19601f8301169050919050565b60006115a78261154d565b6115b181856112dc565b93506115c1818560208601611558565b6115ca8161158b565b840191505092915050565b600060208201905081810360008301526115ef818461159c565b905092915050565b7f4170756573746120696e737566696369656e7465000000000000000000000000600082015250565b600061162d6014836112dc565b9150611638826115f7565b602082019050919050565b6000602082019050818103600083015261165c81611620565b9050919050565b7f4170756573746120796120616365707461646100000000000000000000000000600082015250565b60006116996013836112dc565b91506116a482611663565b602082019050919050565b600060208201905081810360008301526116c88161168c565b9050919050565b6000819050919050565b60006116f46116ef6116ea8461107d565b6116cf565b61107d565b9050919050565b6000611706826116d9565b9050919050565b6000611718826116fb565b9050919050565b6117288161170d565b82525050565b6000604082019050611743600083018561171f565b6117506020830184611172565b9392505050565b60006117628261107d565b9050919050565b600061177482611495565b9050919050565b61178c61178782611757565b611769565b82525050565b7f20686120616365707461646f206c612061707565737461206465200000000000600082015250565b60006117c8601b83611431565b91506117d382611792565b601b82019050919050565b60006117ea828561177b565b6014820191506117f9826117bb565b9150611805828461177b565b6014820191508190509392505050565b7f4f776e61626c653a2063616c6c6572206973206e6f7420746865206f776e6572600082015250565b600061184b6020836112dc565b915061185682611815565b602082019050919050565b6000602082019050818103600083015261187a8161183e565b9050919050565b7f4e6f207061727469636970617320656e20657374612061707565737461000000600082015250565b60006118b7601d836112dc565b91506118c282611881565b602082019050919050565b600060208201905081810360008301526118e6816118aa565b9050919050565b7f2072657375656c74610000000000000000000000000000000000000000000000600082015250565b6000611923600983611431565b915061192e826118ed565b600982019050919050565b600061194482611465565b915061195082846114b9565b60148201915061195f82611916565b915081905092915050565b7f4f776e61626c653a206e6577206f776e657220697320746865207a65726f206160008201527f6464726573730000000000000000000000000000000000000000000000000000602082015250565b60006119c66026836112dc565b91506119d18261196a565b604082019050919050565b600060208201905081810360008301526119f5816119b9565b905091905056fea2646970667358221220b98e529c985909fdcfdc4ba5448a098ad482f0125a029cf82756f47dce6639d864736f6c634300080e0033a26469706673582212200ae8780e6ff57e3e6c8e61a9ae2da75252f68e369f192ebf69b77c0a25da976364736f6c634300080e0033",
  "immutableReferences": {},
  "source": "/**\r\n *Submitted for verification at Etherscan.io on 2022-04-22\r\n */\r\n\r\n// Version de solidity del Smart Contract\r\n// SPDX-License-Identifier: UNLICENSED\r\n\r\npragma solidity 0.8.14;\r\nimport \"./Bet2Peer.sol\";\r\nimport \"../client/node_modules/@openzeppelin/contracts/access/Ownable.sol\";\r\n// Informacion del Smart Contract\r\n// Nombre: Creador de Apuestas\r\n// Logica: Implementa la creacin de contratos\r\n\r\n// Declaracion del Smart Contract - Auction\r\ncontract Father {\r\n\r\n    // ----------- Variables (datos) -----------\r\n    //Contrato hijo\r\n    Bet2Peer public bet;\r\n    //direccin del creador de la apuesta\r\n    address payable contractOwner;\r\n\r\n    //mapping de todos los contratos(apuestas) creados por un usuario \r\n    //      usuario     contrato\r\n    mapping(address =>  address[]) private contractsByUser;\r\n    //mapping de todos los contratos(apuestas) creados para un partido concreto\r\n    //      matchId    contrato\r\n    mapping(uint256 => address[]) private contractsByMatchId;\r\n    //mapping de todos los contratos(apuestas) creados por un usuario con su contractId y MatchId\r\n    //      usuario            matchId    contrato\r\n    mapping(address => mapping(uint256 => address[])) private contractsByMatchIdAndUser;\r\n    \r\n    //Estado del contrato\r\n    bool activeContract;\r\n\r\n    // ----------- Events -----------\r\n    event Status(string _message);\r\n\r\n    // ------------Modifiers ----------\r\n    modifier contractActive() {\r\n        require(activeContract, \"Sorry, contract disabled\");\r\n        _;\r\n    }\r\n\r\n    // ----------- Constructor -----------\r\n    // Uso: Inicializa el Smart Contract - Father\r\n    constructor() {\r\n        contractOwner = payable(msg.sender);\r\n        activeContract = true;\r\n    }\r\n\r\n    // -------------------Functions ------------------\r\n    /**\r\n    Funcion\r\n    Funcin lanzada para cear una nueva apuesta\r\n    _matchId: id del partido de la apuesta\r\n    _result: resultado al que se apuesta\r\n    _originalBet: cantidad apostada\r\n    _minimumCounterBet: cantidad a percibir en caso de ganar\r\n     */\r\n    function createBet(uint256 _matchId, uint8 _result, uint256 _originalBet, uint256 _minimumCounterBet) public payable \r\n        contractActive\r\n    {\r\n        //Creo un nuevo contrato hijo para la apuesta\r\n        bet = new Bet2Peer(msg.sender, _matchId, _result, _originalBet, _minimumCounterBet, address(this));\r\n        // address contractAddress = address(bet);\r\n        address payable payableContractAddress = payable(address(bet));\r\n        // address payable payableContractAddress = address(uint160(contractAddress));\r\n        payableContractAddress.transfer(msg.value);\r\n\r\n        // payable(bet).transfer(msg.value);\r\n        //Aado la direccin del contrato a los mapas del usuario y del partido\r\n        contractsByUser[msg.sender].push(bet.getContractAddress());\r\n        contractsByMatchId[_matchId].push(bet.getContractAddress());\r\n        emit Status(\"Bet created\");\r\n    }\r\n\r\n    /**\r\n    Funcin para eliminar una apuesta\r\n    _contracto: direccin de la apuesta que se quiere eliminar\r\n    _matchId: id del partido de la apuesta\r\n     */\r\n    function removeBet(address payable _contract) public\r\n        contractActive\r\n    {\r\n        //Asigno a la variable bet el contrato hijo en cuestin\r\n        bet = Bet2Peer(_contract);\r\n        require(bet.getOriginalOwner() == msg.sender, \"No eres el creador de esta apuesta\");\r\n        //si el contrato se desactiva correctamente elimino el address de los arrays\r\n        if(bet.removeBet(msg.sender)){\r\n            //busco el index del contrato en los arrays del usurio y partido\r\n            uint256 _userContractIndex = indexOf(contractsByUser[msg.sender], _contract);\r\n            uint256 _matchContractIndex = indexOf(contractsByMatchId[bet.getMatchId()], _contract);\r\n            removeBetFromUser(msg.sender, _userContractIndex);\r\n            removeBetFromMatch(bet.getMatchId(), _matchContractIndex);\r\n        }\r\n    }\r\n\r\nfunction resolveBet(address payable _contract) public\r\n        contractActive\r\n    {\r\n        //Asigno a la variable bet el contrato hijo en cuestin\r\n        bet = Bet2Peer(_contract);\r\n\r\n        //si el contrato se desactiva correctamente elimino el address de los arrays\r\n        if(bet.resolveBet(msg.sender)){\r\n            //busco el index del contrato en los arrays del usurio y partido\r\n            uint256 _userContractIndex = indexOf(contractsByUser[msg.sender], _contract);\r\n            uint256 _matchContractIndex = indexOf(contractsByMatchId[bet.getMatchId()], _contract);\r\n            removeBetFromUser(msg.sender, _userContractIndex);\r\n            removeBetFromMatch(bet.getMatchId(), _matchContractIndex);\r\n        }\r\n    }\r\n    \r\n\r\n    function addBetToCounterGambler(address counterGambler, address _sonContract) public payable{\r\n        contractsByUser[counterGambler].push(_sonContract);\r\n    }\r\n\r\n    /**\r\n    Funcin que devuelve todos los contratos(apuestas) creadas por un usuario\r\n    _user: direccin del usuario del que se muestran las apuestas\r\n     */\r\n    function getAllBetsByUser(address _user) public view returns (address[] memory){\r\n        return contractsByUser[_user];\r\n    }\r\n\r\n    /**\r\n    Funcin que devuelve todos los contratos(apuetas) creadas para un partido concreto\r\n    _matchId: id del partido del que se muestran las apuestas\r\n     */\r\n    function getAllBetsByMatchId(uint256 _matchId) public view returns (address[] memory){\r\n        return contractsByMatchId[_matchId];\r\n    }\r\n\r\n    /**\r\n    Funcin que devuelve si el contrato est activo o no\r\n     */\r\n    function isActive() public view returns (bool){\r\n        return (activeContract);\r\n    }\r\n\r\n    /**\r\n    Funcin que devuelve la posicin de un elemento de un array\r\n    _arr: array en el que se busca el elemento\r\n    _searchFor: elemento que se busca\r\n     */\r\n    function indexOf(address[] memory _arr, address _searchFor) private pure returns (uint256) {\r\n    for (uint256 i = 0; i < _arr.length; i++) {\r\n      if (_arr[i] == _searchFor) {\r\n        return i;\r\n      }\r\n    }\r\n    revert(\"Not Found\");\r\n  }\r\n\r\n  function removeBetFromMatch(uint256 _matchId, uint _index) public{\r\n    contractsByMatchId[_matchId][_index] = contractsByMatchId[_matchId][contractsByMatchId[_matchId].length - 1];\r\n    contractsByMatchId[_matchId].pop();\r\n  }\r\n\r\n  function removeBetFromUser(address _userAddress, uint _index) public{\r\n    contractsByUser[_userAddress][_index] = contractsByUser[_userAddress][contractsByUser[_userAddress].length - 1];\r\n    contractsByUser[_userAddress].pop();\r\n  }\r\n\r\n\r\n////////////////////////////Panic Functions////////////////////////\r\n    // Funcion\r\n    // Nombre: stopContract\r\n    // Uso: pausa el contrato y saca todos los fondos en caso de emergencia\r\n    function stopContract() public {\r\n        require(msg.sender == contractOwner, \"You must be the original OWNER\");\r\n        // Finaliza la subasta\r\n        activeContract = false;\r\n        // Devuelve el dinero al maximo postor\r\n        contractOwner.transfer(address(this).balance);\r\n        \r\n        // Se emite un evento\r\n        emit Status(\"El contrato se ha parado\");\r\n    }\r\n}\r\n",
  "sourcePath": "C:\\Desarrollo\\Master Blokchain\\bet2peer\\contracts\\Father.sol",
  "compiler": {
    "name": "solc",
    "version": "0.8.14+commit.80d49f37.Emscripten.clang"
  },
  "schemaVersion": "3.4.7",
  "updatedAt": "2022-07-01T13:07:41.846Z",
  "networkType": "ethereum",
  "devdoc": {
    "kind": "dev",
    "methods": {},
    "version": 1
  },
  "userdoc": {
    "kind": "user",
    "methods": {
      "createBet(uint256,uint8,uint256,uint256)": {
        "notice": "Funcion Funcin lanzada para cear una nueva apuesta _matchId: id del partido de la apuesta _result: resultado al que se apuesta _originalBet: cantidad apostada _minimumCounterBet: cantidad a percibir en caso de ganar"
      },
      "getAllBetsByMatchId(uint256)": {
        "notice": "Funcin que devuelve todos los contratos(apuetas) creadas para un partido concreto _matchId: id del partido del que se muestran las apuestas"
      },
      "getAllBetsByUser(address)": {
        "notice": "Funcin que devuelve todos los contratos(apuestas) creadas por un usuario _user: direccin del usuario del que se muestran las apuestas"
      },
      "isActive()": {
        "notice": "Funcin que devuelve si el contrato est activo o no"
      },
      "removeBet(address)": {
        "notice": "Funcin para eliminar una apuesta _contracto: direccin de la apuesta que se quiere eliminar _matchId: id del partido de la apuesta"
      }
    },
    "version": 1
  }
}