{
  "contractName": "Father",
  "abi": [
    {
      "inputs": [],
      "stateMutability": "nonpayable",
      "type": "constructor"
    },
    {
      "anonymous": false,
      "inputs": [
        {
          "indexed": false,
          "internalType": "string",
          "name": "_message",
          "type": "string"
        }
      ],
      "name": "Status",
      "type": "event"
    },
    {
      "inputs": [],
      "name": "bet",
      "outputs": [
        {
          "internalType": "contract Bet2Peer",
          "name": "",
          "type": "address"
        }
      ],
      "stateMutability": "view",
      "type": "function"
    },
    {
      "inputs": [
        {
          "internalType": "uint256",
          "name": "_matchId",
          "type": "uint256"
        },
        {
          "internalType": "uint8",
          "name": "_result",
          "type": "uint8"
        },
        {
          "internalType": "uint256",
          "name": "_originalBet",
          "type": "uint256"
        },
        {
          "internalType": "uint8",
          "name": "_minimumCounterBet",
          "type": "uint8"
        }
      ],
      "name": "createBet",
      "outputs": [],
      "stateMutability": "payable",
      "type": "function"
    },
    {
      "inputs": [
        {
          "internalType": "address",
          "name": "_contract",
          "type": "address"
        }
      ],
      "name": "removeBet",
      "outputs": [],
      "stateMutability": "nonpayable",
      "type": "function"
    },
    {
      "inputs": [
        {
          "internalType": "address",
          "name": "counterGambler",
          "type": "address"
        },
        {
          "internalType": "address",
          "name": "_sonContract",
          "type": "address"
        }
      ],
      "name": "addBetToCounterGambler",
      "outputs": [],
      "stateMutability": "payable",
      "type": "function"
    },
    {
      "inputs": [
        {
          "internalType": "address",
          "name": "_user",
          "type": "address"
        }
      ],
      "name": "getAllBetsByUser",
      "outputs": [
        {
          "internalType": "address[]",
          "name": "",
          "type": "address[]"
        }
      ],
      "stateMutability": "view",
      "type": "function"
    },
    {
      "inputs": [
        {
          "internalType": "uint256",
          "name": "_matchId",
          "type": "uint256"
        }
      ],
      "name": "getAllBetsByMatchId",
      "outputs": [
        {
          "internalType": "address[]",
          "name": "",
          "type": "address[]"
        }
      ],
      "stateMutability": "view",
      "type": "function"
    },
    {
      "inputs": [],
      "name": "isActive",
      "outputs": [
        {
          "internalType": "bool",
          "name": "",
          "type": "bool"
        }
      ],
      "stateMutability": "view",
      "type": "function"
    },
    {
      "inputs": [],
      "name": "stopContract",
      "outputs": [],
      "stateMutability": "nonpayable",
      "type": "function"
    }
  ],
  "bytecode": "0x608060405234801561001057600080fd5b5033600160006101000a81548173ffffffffffffffffffffffffffffffffffffffff021916908373ffffffffffffffffffffffffffffffffffffffff1602179055506001600560006101000a81548160ff021916908315150217905550613a828061007c6000396000f3fe608060405260043610620000865760003560e01c8063305fc68d1162000055578063305fc68d146200013357806356a6e68f1462000153578063c407f09b1462000197578063cfb43e9d14620001db5762000086565b806306011b21146200008b57806311610c2514620000b957806312253a6c14620000e957806322f3e2d41462000103575b600080fd5b3480156200009857600080fd5b50620000b76004803603810190620000b1919062000fcf565b620001fb565b005b348015620000c657600080fd5b50620000d1620007a7565b604051620000e091906200106c565b60405180910390f35b348015620000f657600080fd5b5062000101620007cb565b005b3480156200011057600080fd5b506200011b6200091c565b6040516200012a9190620010a6565b60405180910390f35b6200015160048036038101906200014b9190620010c3565b62000933565b005b3480156200016057600080fd5b506200017f600480360381019062000179919062001145565b620009d7565b6040516200018e919062001245565b60405180910390f35b348015620001a457600080fd5b50620001c36004803603810190620001bd919062000fcf565b62000a7a565b604051620001d2919062001245565b60405180910390f35b620001f96004803603810190620001f39190620012a7565b62000b49565b005b600560009054906101000a900460ff166200024d576040517f08c379a000000000000000000000000000000000000000000000000000000000815260040162000244906200137a565b60405180910390fd5b806000806101000a81548173ffffffffffffffffffffffffffffffffffffffff021916908373ffffffffffffffffffffffffffffffffffffffff1602179055503373ffffffffffffffffffffffffffffffffffffffff1660008054906101000a900473ffffffffffffffffffffffffffffffffffffffff1673ffffffffffffffffffffffffffffffffffffffff1663ad9136336040518163ffffffff1660e01b8152600401602060405180830381865afa15801562000310573d6000803e3d6000fd5b505050506040513d601f19601f82011682018060405250810190620003369190620013b3565b73ffffffffffffffffffffffffffffffffffffffff16146200038f576040517f08c379a000000000000000000000000000000000000000000000000000000000815260040162000386906200145b565b60405180910390fd5b600062000462600260003373ffffffffffffffffffffffffffffffffffffffff1673ffffffffffffffffffffffffffffffffffffffff1681526020019081526020016000208054806020026020016040519081016040528092919081815260200182805480156200045657602002820191906000526020600020905b8160009054906101000a900473ffffffffffffffffffffffffffffffffffffffff1673ffffffffffffffffffffffffffffffffffffffff16815260200190600101908083116200040b575b50505050508362000e90565b905060006200059d600360008060009054906101000a900473ffffffffffffffffffffffffffffffffffffffff1673ffffffffffffffffffffffffffffffffffffffff1663153dc1826040518163ffffffff1660e01b8152600401602060405180830381865afa158015620004db573d6000803e3d6000fd5b505050506040513d601f19601f8201168201806040525081019062000501919062001494565b81526020019081526020016000208054806020026020016040519081016040528092919081815260200182805480156200059157602002820191906000526020600020905b8160009054906101000a900473ffffffffffffffffffffffffffffffffffffffff1673ffffffffffffffffffffffffffffffffffffffff168152602001906001019080831162000546575b50505050508462000e90565b905060008054906101000a900473ffffffffffffffffffffffffffffffffffffffff1673ffffffffffffffffffffffffffffffffffffffff1663fc884bff6040518163ffffffff1660e01b81526004016020604051808303816000875af11580156200060d573d6000803e3d6000fd5b505050506040513d601f19601f82011682018060405250810190620006339190620014f7565b15620007a257600260003373ffffffffffffffffffffffffffffffffffffffff1673ffffffffffffffffffffffffffffffffffffffff16815260200190815260200160002082815481106200068d576200068c62001529565b5b9060005260206000200160006101000a81549073ffffffffffffffffffffffffffffffffffffffff0219169055600360008060009054906101000a900473ffffffffffffffffffffffffffffffffffffffff1673ffffffffffffffffffffffffffffffffffffffff1663153dc1826040518163ffffffff1660e01b8152600401602060405180830381865afa1580156200072b573d6000803e3d6000fd5b505050506040513d601f19601f8201168201806040525081019062000751919062001494565b8152602001908152602001600020818154811062000774576200077362001529565b5b9060005260206000200160006101000a81549073ffffffffffffffffffffffffffffffffffffffff02191690555b505050565b60008054906101000a900473ffffffffffffffffffffffffffffffffffffffff1681565b600160009054906101000a900473ffffffffffffffffffffffffffffffffffffffff1673ffffffffffffffffffffffffffffffffffffffff163373ffffffffffffffffffffffffffffffffffffffff16146200085e576040517f08c379a00000000000000000000000000000000000000000000000000000000081526004016200085590620015a8565b60405180910390fd5b6000600560006101000a81548160ff021916908315150217905550600160009054906101000a900473ffffffffffffffffffffffffffffffffffffffff1673ffffffffffffffffffffffffffffffffffffffff166108fc479081150290604051600060405180830381858888f19350505050158015620008e2573d6000803e3d6000fd5b507f2844c95bf1b4598da931d527f903501abc60fe0199c65da52d5ce818c6c5e96160405162000912906200161a565b60405180910390a1565b6000600560009054906101000a900460ff16905090565b600260008373ffffffffffffffffffffffffffffffffffffffff1673ffffffffffffffffffffffffffffffffffffffff168152602001908152602001600020819080600181540180825580915050600190039060005260206000200160009091909190916101000a81548173ffffffffffffffffffffffffffffffffffffffff021916908373ffffffffffffffffffffffffffffffffffffffff1602179055505050565b60606003600083815260200190815260200160002080548060200260200160405190810160405280929190818152602001828054801562000a6e57602002820191906000526020600020905b8160009054906101000a900473ffffffffffffffffffffffffffffffffffffffff1673ffffffffffffffffffffffffffffffffffffffff168152602001906001019080831162000a23575b50505050509050919050565b6060600260008373ffffffffffffffffffffffffffffffffffffffff1673ffffffffffffffffffffffffffffffffffffffff16815260200190815260200160002080548060200260200160405190810160405280929190818152602001828054801562000b3d57602002820191906000526020600020905b8160009054906101000a900473ffffffffffffffffffffffffffffffffffffffff1673ffffffffffffffffffffffffffffffffffffffff168152602001906001019080831162000af2575b50505050509050919050565b600560009054906101000a900460ff1662000b9b576040517f08c379a000000000000000000000000000000000000000000000000000000000815260040162000b92906200137a565b60405180910390fd5b33848484843060405162000baf9062000f57565b62000bc096959493929190620016a8565b604051809103906000f08015801562000bdd573d6000803e3d6000fd5b506000806101000a81548173ffffffffffffffffffffffffffffffffffffffff021916908373ffffffffffffffffffffffffffffffffffffffff160217905550600260003373ffffffffffffffffffffffffffffffffffffffff1673ffffffffffffffffffffffffffffffffffffffff16815260200190815260200160002060008054906101000a900473ffffffffffffffffffffffffffffffffffffffff1673ffffffffffffffffffffffffffffffffffffffff166332a2c5d06040518163ffffffff1660e01b8152600401602060405180830381865afa15801562000cc8573d6000803e3d6000fd5b505050506040513d601f19601f8201168201806040525081019062000cee9190620013b3565b9080600181540180825580915050600190039060005260206000200160009091909190916101000a81548173ffffffffffffffffffffffffffffffffffffffff021916908373ffffffffffffffffffffffffffffffffffffffff1602179055506003600085815260200190815260200160002060008054906101000a900473ffffffffffffffffffffffffffffffffffffffff1673ffffffffffffffffffffffffffffffffffffffff166332a2c5d06040518163ffffffff1660e01b8152600401602060405180830381865afa15801562000dcd573d6000803e3d6000fd5b505050506040513d601f19601f8201168201806040525081019062000df39190620013b3565b9080600181540180825580915050600190039060005260206000200160009091909190916101000a81548173ffffffffffffffffffffffffffffffffffffffff021916908373ffffffffffffffffffffffffffffffffffffffff1602179055507f2844c95bf1b4598da931d527f903501abc60fe0199c65da52d5ce818c6c5e96160405162000e829062001765565b60405180910390a150505050565b600080600090505b835181101562000f13578273ffffffffffffffffffffffffffffffffffffffff1684828151811062000ecf5762000ece62001529565b5b602002602001015173ffffffffffffffffffffffffffffffffffffffff160362000efd578091505062000f51565b808062000f0a90620017b6565b91505062000e98565b506040517f08c379a000000000000000000000000000000000000000000000000000000000815260040162000f489062001853565b60405180910390fd5b92915050565b6121d7806200187683390190565b600080fd5b600073ffffffffffffffffffffffffffffffffffffffff82169050919050565b600062000f978262000f6a565b9050919050565b62000fa98162000f8a565b811462000fb557600080fd5b50565b60008135905062000fc98162000f9e565b92915050565b60006020828403121562000fe85762000fe762000f65565b5b600062000ff88482850162000fb8565b91505092915050565b6000819050919050565b60006200102c62001026620010208462000f6a565b62001001565b62000f6a565b9050919050565b600062001040826200100b565b9050919050565b6000620010548262001033565b9050919050565b620010668162001047565b82525050565b60006020820190506200108360008301846200105b565b92915050565b60008115159050919050565b620010a08162001089565b82525050565b6000602082019050620010bd600083018462001095565b92915050565b60008060408385031215620010dd57620010dc62000f65565b5b6000620010ed8582860162000fb8565b9250506020620011008582860162000fb8565b9150509250929050565b6000819050919050565b6200111f816200110a565b81146200112b57600080fd5b50565b6000813590506200113f8162001114565b92915050565b6000602082840312156200115e576200115d62000f65565b5b60006200116e848285016200112e565b91505092915050565b600081519050919050565b600082825260208201905092915050565b6000819050602082019050919050565b620011ae8162000f8a565b82525050565b6000620011c28383620011a3565b60208301905092915050565b6000602082019050919050565b6000620011e88262001177565b620011f4818562001182565b9350620012018362001193565b8060005b83811015620012385781516200121c8882620011b4565b97506200122983620011ce565b92505060018101905062001205565b5085935050505092915050565b60006020820190508181036000830152620012618184620011db565b905092915050565b600060ff82169050919050565b620012818162001269565b81146200128d57600080fd5b50565b600081359050620012a18162001276565b92915050565b60008060008060808587031215620012c457620012c362000f65565b5b6000620012d4878288016200112e565b9450506020620012e78782880162001290565b9350506040620012fa878288016200112e565b92505060606200130d8782880162001290565b91505092959194509250565b600082825260208201905092915050565b7f536f7272792c20636f6e74726163742064697361626c65640000000000000000600082015250565b60006200136260188362001319565b91506200136f826200132a565b602082019050919050565b60006020820190508181036000830152620013958162001353565b9050919050565b600081519050620013ad8162000f9e565b92915050565b600060208284031215620013cc57620013cb62000f65565b5b6000620013dc848285016200139c565b91505092915050565b7f4e6f206572657320656c2063726561646f72206465206573746120617075657360008201527f7461000000000000000000000000000000000000000000000000000000000000602082015250565b60006200144360228362001319565b91506200145082620013e5565b604082019050919050565b60006020820190508181036000830152620014768162001434565b9050919050565b6000815190506200148e8162001114565b92915050565b600060208284031215620014ad57620014ac62000f65565b5b6000620014bd848285016200147d565b91505092915050565b620014d18162001089565b8114620014dd57600080fd5b50565b600081519050620014f181620014c6565b92915050565b60006020828403121562001510576200150f62000f65565b5b60006200152084828501620014e0565b91505092915050565b7f4e487b7100000000000000000000000000000000000000000000000000000000600052603260045260246000fd5b7f596f75206d75737420626520746865206f726967696e616c204f574e45520000600082015250565b600062001590601e8362001319565b91506200159d8262001558565b602082019050919050565b60006020820190508181036000830152620015c38162001581565b9050919050565b7f456c20636f6e747261746f2073652068612070617261646f0000000000000000600082015250565b60006200160260188362001319565b91506200160f82620015ca565b602082019050919050565b600060208201905081810360008301526200163581620015f3565b9050919050565b620016478162000f8a565b82525050565b62001658816200110a565b82525050565b620016698162001269565b82525050565b6000620016906200168a620016848462001269565b62001001565b6200110a565b9050919050565b620016a2816200166f565b82525050565b600060c082019050620016bf60008301896200163c565b620016ce60208301886200164d565b620016dd60408301876200165e565b620016ec60608301866200164d565b620016fb608083018562001697565b6200170a60a08301846200163c565b979650505050505050565b7f4265742063726561746564000000000000000000000000000000000000000000600082015250565b60006200174d600b8362001319565b91506200175a8262001715565b602082019050919050565b6000602082019050818103600083015262001780816200173e565b9050919050565b7f4e487b7100000000000000000000000000000000000000000000000000000000600052601160045260246000fd5b6000620017c3826200110a565b91507fffffffffffffffffffffffffffffffffffffffffffffffffffffffffffffffff8203620017f857620017f762001787565b5b600182019050919050565b7f4e6f7420466f756e640000000000000000000000000000000000000000000000600082015250565b60006200183b60098362001319565b9150620018488262001803565b602082019050919050565b600060208201905081810360008301526200186e816200182c565b905091905056fe60806040523480156200001157600080fd5b50604051620021d7380380620021d7833981810160405281019062000037919062000505565b620000576200004b6200035660201b60201c565b6200035e60201b60201c565b85600360006101000a81548173ffffffffffffffffffffffffffffffffffffffff021916908373ffffffffffffffffffffffffffffffffffffffff1602179055508460028190555083600460146101000a81548160ff021916908360ff160217905550826005819055508160068190555080600760006101000a81548173ffffffffffffffffffffffffffffffffffffffff021916908373ffffffffffffffffffffffffffffffffffffffff1602179055506001600860146101000a81548160ff0219169083151502179055506000600860156101000a81548160ff02191690831515021790555085600160003073ffffffffffffffffffffffffffffffffffffffff1673ffffffffffffffffffffffffffffffffffffffff16815260200190815260200160002060000160006101000a81548173ffffffffffffffffffffffffffffffffffffffff021916908373ffffffffffffffffffffffffffffffffffffffff16021790555084600160003073ffffffffffffffffffffffffffffffffffffffff1673ffffffffffffffffffffffffffffffffffffffff1681526020019081526020016000206002018190555083600160003073ffffffffffffffffffffffffffffffffffffffff1673ffffffffffffffffffffffffffffffffffffffff16815260200190815260200160002060030160006101000a81548160ff021916908360ff16021790555082600160003073ffffffffffffffffffffffffffffffffffffffff1673ffffffffffffffffffffffffffffffffffffffff1681526020019081526020016000206004018190555081600160003073ffffffffffffffffffffffffffffffffffffffff1673ffffffffffffffffffffffffffffffffffffffff168152602001908152602001600020600501819055507f2844c95bf1b4598da931d527f903501abc60fe0199c65da52d5ce818c6c5e9618560405160200162000324919062000671565b6040516020818303038152906040526040516200034291906200074c565b60405180910390a150505050505062000770565b600033905090565b60008060009054906101000a900473ffffffffffffffffffffffffffffffffffffffff169050816000806101000a81548173ffffffffffffffffffffffffffffffffffffffff021916908373ffffffffffffffffffffffffffffffffffffffff1602179055508173ffffffffffffffffffffffffffffffffffffffff168173ffffffffffffffffffffffffffffffffffffffff167f8be0079c531659141344cd1fd0a4f28419497f9722a3daafe3b4186f6b6457e060405160405180910390a35050565b600080fd5b600073ffffffffffffffffffffffffffffffffffffffff82169050919050565b6000620004548262000427565b9050919050565b620004668162000447565b81146200047257600080fd5b50565b60008151905062000486816200045b565b92915050565b6000819050919050565b620004a1816200048c565b8114620004ad57600080fd5b50565b600081519050620004c18162000496565b92915050565b600060ff82169050919050565b620004df81620004c7565b8114620004eb57600080fd5b50565b600081519050620004ff81620004d4565b92915050565b60008060008060008060c0878903121562000525576200052462000422565b5b60006200053589828a0162000475565b96505060206200054889828a01620004b0565b95505060406200055b89828a01620004ee565b94505060606200056e89828a01620004b0565b93505060806200058189828a01620004b0565b92505060a06200059489828a0162000475565b9150509295509295509295565b600081905092915050565b7f5061727469646f20000000000000000000000000000000000000000000000000600082015250565b6000620005e4600883620005a1565b9150620005f182620005ac565b600882019050919050565b6000819050919050565b6200061b62000615826200048c565b620005fc565b82525050565b7f2063726561646f00000000000000000000000000000000000000000000000000600082015250565b600062000659600783620005a1565b9150620006668262000621565b600782019050919050565b60006200067e82620005d5565b91506200068c828462000606565b6020820191506200069d826200064a565b915081905092915050565b600081519050919050565b600082825260208201905092915050565b60005b83811015620006e4578082015181840152602081019050620006c7565b83811115620006f4576000848401525b50505050565b6000601f19601f8301169050919050565b60006200071882620006a8565b620007248185620006b3565b935062000736818560208601620006c4565b6200074181620006fa565b840191505092915050565b600060208201905081810360008301526200076881846200070b565b905092915050565b611a5780620007806000396000f3fe6080604052600436106100a75760003560e01c80638da5cb5b116100645780638da5cb5b146101795780638fced626146101a4578063ad913633146101ae578063e11eb98d146101d9578063f2fde38b1461021b578063fc884bff14610244576100a7565b8063153dc182146100ac5780632c70444e146100d757806330bfcb5f1461010257806332a2c5d01461010c578063715018a6146101375780637cc1f8671461014e575b600080fd5b3480156100b857600080fd5b506100c1610262565b6040516100ce91906110b6565b60405180910390f35b3480156100e357600080fd5b506100ec61026c565b6040516100f991906110b6565b60405180910390f35b61010a610272565b005b34801561011857600080fd5b50610121610676565b60405161012e9190611112565b60405180910390f35b34801561014357600080fd5b5061014c6106fa565b005b34801561015a57600080fd5b50610163610782565b60405161017091906111e2565b60405180910390f35b34801561018557600080fd5b5061018e6108c0565b60405161019b9190611112565b60405180910390f35b6101ac6108e9565b005b3480156101ba57600080fd5b506101c3610ba7565b6040516101d09190611112565b60405180910390f35b3480156101e557600080fd5b5061020060048036038101906101fb919061122e565b610bd1565b6040516102129695949392919061126a565b60405180910390f35b34801561022757600080fd5b50610242600480360381019061023d919061122e565b610c5a565b005b61024c610d51565b60405161025991906112e6565b60405180910390f35b6000600254905090565b60025481565b600860149054906101000a900460ff166102c1576040517f08c379a00000000000000000000000000000000000000000000000000000000081526004016102b89061135e565b60405180910390fd5b600654341015610306576040517f08c379a00000000000000000000000000000000000000000000000000000000081526004016102fd906113ca565b60405180910390fd5b60001515600860159054906101000a900460ff1615151461035c576040517f08c379a000000000000000000000000000000000000000000000000000000000815260040161035390611436565b60405180910390fd5b33600460006101000a81548173ffffffffffffffffffffffffffffffffffffffff021916908373ffffffffffffffffffffffffffffffffffffffff160217905550600460009054906101000a900473ffffffffffffffffffffffffffffffffffffffff1673ffffffffffffffffffffffffffffffffffffffff166108fc349081150290604051600060405180830381858888f19350505050158015610405573d6000803e3d6000fd5b50600460009054906101000a900473ffffffffffffffffffffffffffffffffffffffff16600160003073ffffffffffffffffffffffffffffffffffffffff1673ffffffffffffffffffffffffffffffffffffffff16815260200190815260200160002060010160006101000a81548173ffffffffffffffffffffffffffffffffffffffff021916908373ffffffffffffffffffffffffffffffffffffffff1602179055506001600860156101000a81548160ff021916908315150217905550600760009054906101000a900473ffffffffffffffffffffffffffffffffffffffff16600860006101000a81548173ffffffffffffffffffffffffffffffffffffffff021916908373ffffffffffffffffffffffffffffffffffffffff160217905550600860009054906101000a900473ffffffffffffffffffffffffffffffffffffffff1673ffffffffffffffffffffffffffffffffffffffff1663305fc68d600460009054906101000a900473ffffffffffffffffffffffffffffffffffffffff16306040518363ffffffff1660e01b81526004016105a69291906114b5565b600060405180830381600087803b1580156105c057600080fd5b505af11580156105d4573d6000803e3d6000fd5b505050507f2844c95bf1b4598da931d527f903501abc60fe0199c65da52d5ce818c6c5e961600460009054906101000a900473ffffffffffffffffffffffffffffffffffffffff16600360009054906101000a900473ffffffffffffffffffffffffffffffffffffffff1660405160200161065092919061158f565b60405160208183030381529060405260405161066c919061164e565b60405180910390a1565b6000610680610f6c565b73ffffffffffffffffffffffffffffffffffffffff1661069e6108c0565b73ffffffffffffffffffffffffffffffffffffffff16146106f4576040517f08c379a00000000000000000000000000000000000000000000000000000000081526004016106eb906116bc565b60405180910390fd5b30905090565b610702610f6c565b73ffffffffffffffffffffffffffffffffffffffff166107206108c0565b73ffffffffffffffffffffffffffffffffffffffff1614610776576040517f08c379a000000000000000000000000000000000000000000000000000000000815260040161076d906116bc565b60405180910390fd5b6107806000610f74565b565b61078a611038565b600160003073ffffffffffffffffffffffffffffffffffffffff1673ffffffffffffffffffffffffffffffffffffffff1681526020019081526020016000206040518060c00160405290816000820160009054906101000a900473ffffffffffffffffffffffffffffffffffffffff1673ffffffffffffffffffffffffffffffffffffffff1673ffffffffffffffffffffffffffffffffffffffff1681526020016001820160009054906101000a900473ffffffffffffffffffffffffffffffffffffffff1673ffffffffffffffffffffffffffffffffffffffff1673ffffffffffffffffffffffffffffffffffffffff168152602001600282015481526020016003820160009054906101000a900460ff1660ff1660ff16815260200160048201548152602001600582015481525050905090565b60008060009054906101000a900473ffffffffffffffffffffffffffffffffffffffff16905090565b33600360009054906101000a900473ffffffffffffffffffffffffffffffffffffffff1673ffffffffffffffffffffffffffffffffffffffff168173ffffffffffffffffffffffffffffffffffffffff1614806109935750600460009054906101000a900473ffffffffffffffffffffffffffffffffffffffff1673ffffffffffffffffffffffffffffffffffffffff168173ffffffffffffffffffffffffffffffffffffffff16145b6109d2576040517f08c379a00000000000000000000000000000000000000000000000000000000081526004016109c990611728565b60405180910390fd5b600860149054906101000a900460ff16610a21576040517f08c379a0000000000000000000000000000000000000000000000000000000008152600401610a189061135e565b60405180910390fd5b600860159054906101000a900460ff16610a3a57600080fd5b6001600460149054906101000a900460ff1660ff1603610ac257600360009054906101000a900473ffffffffffffffffffffffffffffffffffffffff1673ffffffffffffffffffffffffffffffffffffffff166108fc479081150290604051600060405180830381858888f19350505050158015610abc573d6000803e3d6000fd5b50610b2c565b600460009054906101000a900473ffffffffffffffffffffffffffffffffffffffff1673ffffffffffffffffffffffffffffffffffffffff166108fc479081150290604051600060405180830381858888f19350505050158015610b2a573d6000803e3d6000fd5b505b6000600860146101000a81548160ff0219169083151502179055507f2844c95bf1b4598da931d527f903501abc60fe0199c65da52d5ce818c6c5e961610b70610676565b604051602001610b809190611809565b604051602081830303815290604052604051610b9c919061164e565b60405180910390a150565b6000600360009054906101000a900473ffffffffffffffffffffffffffffffffffffffff16905090565b60016020528060005260406000206000915090508060000160009054906101000a900473ffffffffffffffffffffffffffffffffffffffff16908060010160009054906101000a900473ffffffffffffffffffffffffffffffffffffffff16908060020154908060030160009054906101000a900460ff16908060040154908060050154905086565b610c62610f6c565b73ffffffffffffffffffffffffffffffffffffffff16610c806108c0565b73ffffffffffffffffffffffffffffffffffffffff1614610cd6576040517f08c379a0000000000000000000000000000000000000000000000000000000008152600401610ccd906116bc565b60405180910390fd5b600073ffffffffffffffffffffffffffffffffffffffff168173ffffffffffffffffffffffffffffffffffffffff1603610d45576040517f08c379a0000000000000000000000000000000000000000000000000000000008152600401610d3c906118ac565b60405180910390fd5b610d4e81610f74565b50565b600033600360009054906101000a900473ffffffffffffffffffffffffffffffffffffffff1673ffffffffffffffffffffffffffffffffffffffff168173ffffffffffffffffffffffffffffffffffffffff1614610de4576040517f08c379a0000000000000000000000000000000000000000000000000000000008152600401610ddb90611918565b60405180910390fd5b600860149054906101000a900460ff16610e33576040517f08c379a0000000000000000000000000000000000000000000000000000000008152600401610e2a9061135e565b60405180910390fd5b600860159054906101000a900460ff1615610e83576040517f08c379a0000000000000000000000000000000000000000000000000000000008152600401610e7a90611984565b60405180910390fd5b600360009054906101000a900473ffffffffffffffffffffffffffffffffffffffff1673ffffffffffffffffffffffffffffffffffffffff166108fc479081150290604051600060405180830381858888f19350505050158015610eeb573d6000803e3d6000fd5b506000600860146101000a81548160ff0219169083151502179055507f2844c95bf1b4598da931d527f903501abc60fe0199c65da52d5ce818c6c5e961610f30610676565b604051602001610f4091906119f0565b604051602081830303815290604052604051610f5c919061164e565b60405180910390a1600191505090565b600033905090565b60008060009054906101000a900473ffffffffffffffffffffffffffffffffffffffff169050816000806101000a81548173ffffffffffffffffffffffffffffffffffffffff021916908373ffffffffffffffffffffffffffffffffffffffff1602179055508173ffffffffffffffffffffffffffffffffffffffff168173ffffffffffffffffffffffffffffffffffffffff167f8be0079c531659141344cd1fd0a4f28419497f9722a3daafe3b4186f6b6457e060405160405180910390a35050565b6040518060c00160405280600073ffffffffffffffffffffffffffffffffffffffff168152602001600073ffffffffffffffffffffffffffffffffffffffff16815260200160008152602001600060ff16815260200160008152602001600081525090565b6000819050919050565b6110b08161109d565b82525050565b60006020820190506110cb60008301846110a7565b92915050565b600073ffffffffffffffffffffffffffffffffffffffff82169050919050565b60006110fc826110d1565b9050919050565b61110c816110f1565b82525050565b60006020820190506111276000830184611103565b92915050565b611136816110f1565b82525050565b6111458161109d565b82525050565b600060ff82169050919050565b6111618161114b565b82525050565b60c08201600082015161117d600085018261112d565b506020820151611190602085018261112d565b5060408201516111a3604085018261113c565b5060608201516111b66060850182611158565b5060808201516111c9608085018261113c565b5060a08201516111dc60a085018261113c565b50505050565b600060c0820190506111f76000830184611167565b92915050565b600080fd5b61120b816110f1565b811461121657600080fd5b50565b60008135905061122881611202565b92915050565b600060208284031215611244576112436111fd565b5b600061125284828501611219565b91505092915050565b6112648161114b565b82525050565b600060c08201905061127f6000830189611103565b61128c6020830188611103565b61129960408301876110a7565b6112a6606083018661125b565b6112b360808301856110a7565b6112c060a08301846110a7565b979650505050505050565b60008115159050919050565b6112e0816112cb565b82525050565b60006020820190506112fb60008301846112d7565b92915050565b600082825260208201905092915050565b7f457374612061707565737461206e6f2065737461206163746976610000000000600082015250565b6000611348601b83611301565b915061135382611312565b602082019050919050565b600060208201905081810360008301526113778161133b565b9050919050565b7f4170756573746120696e737566696369656e7465000000000000000000000000600082015250565b60006113b4601483611301565b91506113bf8261137e565b602082019050919050565b600060208201905081810360008301526113e3816113a7565b9050919050565b7f4170756573746120796120616365707461646100000000000000000000000000600082015250565b6000611420601383611301565b915061142b826113ea565b602082019050919050565b6000602082019050818103600083015261144f81611413565b9050919050565b6000819050919050565b600061147b611476611471846110d1565b611456565b6110d1565b9050919050565b600061148d82611460565b9050919050565b600061149f82611482565b9050919050565b6114af81611494565b82525050565b60006040820190506114ca60008301856114a6565b6114d76020830184611103565b9392505050565b60006114e9826110d1565b9050919050565b60008160601b9050919050565b6000611508826114f0565b9050919050565b600061151a826114fd565b9050919050565b61153261152d826114de565b61150f565b82525050565b600081905092915050565b7f20686120616365707461646f206c612061707565737461206465200000000000600082015250565b6000611579601b83611538565b915061158482611543565b601b82019050919050565b600061159b8285611521565b6014820191506115aa8261156c565b91506115b68284611521565b6014820191508190509392505050565b600081519050919050565b60005b838110156115ef5780820151818401526020810190506115d4565b838111156115fe576000848401525b50505050565b6000601f19601f8301169050919050565b6000611620826115c6565b61162a8185611301565b935061163a8185602086016115d1565b61164381611604565b840191505092915050565b600060208201905081810360008301526116688184611615565b905092915050565b7f4f776e61626c653a2063616c6c6572206973206e6f7420746865206f776e6572600082015250565b60006116a6602083611301565b91506116b182611670565b602082019050919050565b600060208201905081810360008301526116d581611699565b9050919050565b7f4e6f207061727469636970617320656e20657374612061707565737461000000600082015250565b6000611712601d83611301565b915061171d826116dc565b602082019050919050565b6000602082019050818103600083015261174181611705565b9050919050565b7f4170756573746120000000000000000000000000000000000000000000000000600082015250565b600061177e600883611538565b915061178982611748565b600882019050919050565b600061179f826114fd565b9050919050565b6117b76117b2826110f1565b611794565b82525050565b7f2072657375656c74610000000000000000000000000000000000000000000000600082015250565b60006117f3600983611538565b91506117fe826117bd565b600982019050919050565b600061181482611771565b915061182082846117a6565b60148201915061182f826117e6565b915081905092915050565b7f4f776e61626c653a206e6577206f776e657220697320746865207a65726f206160008201527f6464726573730000000000000000000000000000000000000000000000000000602082015250565b6000611896602683611301565b91506118a18261183a565b604082019050919050565b600060208201905081810360008301526118c581611889565b9050919050565b7f4e6f206572657320656c2063726561646f72206465206c612061707565737461600082015250565b6000611902602083611301565b915061190d826118cc565b602082019050919050565b60006020820190508181036000830152611931816118f5565b9050919050565b7f4c612061707565737461207961206861207369646f2061636570746164610000600082015250565b600061196e601e83611301565b915061197982611938565b602082019050919050565b6000602082019050818103600083015261199d81611961565b9050919050565b7f20656c696d696e61646100000000000000000000000000000000000000000000600082015250565b60006119da600a83611538565b91506119e5826119a4565b600a82019050919050565b60006119fb82611771565b9150611a0782846117a6565b601482019150611a16826119cd565b91508190509291505056fea26469706673582212204d3777cbdf193888b1b55e107108781295d37e7a253fae40e952277120a375c864736f6c634300080e0033a26469706673582212208a31410cdbbe73bdfe6307f4e37fcfe90097128dcae41fd3c7788f305c6f69aa64736f6c634300080e0033",
  "immutableReferences": {},
  "source": "/**\r\n *Submitted for verification at Etherscan.io on 2022-04-22\r\n */\r\n\r\n// Version de solidity del Smart Contract\r\n// SPDX-License-Identifier: UNLICENSED\r\n\r\npragma solidity 0.8.14;\r\nimport \"./Bet2Peer.sol\";\r\nimport \"../client/node_modules/@openzeppelin/contracts/access/Ownable.sol\";\r\n// Informacion del Smart Contract\r\n// Nombre: Creador de Apuestas\r\n// Logica: Implementa la creacin de contratos\r\n\r\n// Declaracion del Smart Contract - Auction\r\ncontract Father {\r\n\r\n    // ----------- Variables (datos) -----------\r\n    //Contrato hijo\r\n    Bet2Peer public bet;\r\n    //direccin del creador de la apuesta\r\n    address payable contractOwner;\r\n\r\n    //mapping de todos los contratos(apuestas) creados por un usuario \r\n    //      usuario     contrato\r\n    mapping(address =>  address[]) private contractsByUser;\r\n    //mapping de todos los contratos(apuestas) creados para un partido concreto\r\n    //      matchId    contrato\r\n    mapping(uint256 => address[]) private contractsByMatchId;\r\n    //mapping de todos los contratos(apuestas) creados por un usuario con su contractId y MatchId\r\n    //      usuario            matchId    contrato\r\n    mapping(address => mapping(uint256 => address[])) private contractsByMatchIdAndUser;\r\n    \r\n    //Estado del contrato\r\n    bool activeContract;\r\n\r\n    // ----------- Events -----------\r\n    event Status(string _message);\r\n\r\n    // ------------Modifiers ----------\r\n    modifier contractActive() {\r\n        require(activeContract, \"Sorry, contract disabled\");\r\n        _;\r\n    }\r\n\r\n    // ----------- Constructor -----------\r\n    // Uso: Inicializa el Smart Contract - Father\r\n    constructor() {\r\n        contractOwner = payable(msg.sender);\r\n        activeContract = true;\r\n    }\r\n\r\n    // -------------------Functions ------------------\r\n    /**\r\n    Funcion\r\n    Funcin lanzada para cear una nueva apuesta\r\n    _matchId: id del partido de la apuesta\r\n    _result: resultado al que se apuesta\r\n    _originalBet: cantidad apostada\r\n    _minimumCounterBet: cantidad a percibir en caso de ganar\r\n     */\r\n    function createBet(uint256 _matchId, uint8 _result, uint256 _originalBet, uint8 _minimumCounterBet) public payable \r\n        contractActive\r\n    {\r\n        //Creo un nuevo contrato hijo para la apuesta\r\n        bet = new Bet2Peer(msg.sender, _matchId, _result, _originalBet, _minimumCounterBet, address(this));\r\n        //Aado la direccin del contrato a los mapas del usuario y del partido\r\n        contractsByUser[msg.sender].push(bet.getContractAddress());\r\n        contractsByMatchId[_matchId].push(bet.getContractAddress());\r\n        emit Status(\"Bet created\");\r\n    }\r\n\r\n    /**\r\n    Funcin para eliminar una apuesta\r\n    _contracto: direccin de la apuesta que se quiere eliminar\r\n    _matchId: id del partido de la apuesta\r\n     */\r\n    function removeBet(address _contract) public\r\n        contractActive\r\n    {\r\n        //Asigno a la variable bet el contrato hijo en cuestin\r\n        bet = Bet2Peer(_contract);\r\n        require(bet.getOriginalOwner() == msg.sender, \"No eres el creador de esta apuesta\");\r\n        //busco el index del contrato en los arrays del usurio y partido\r\n        uint256 _index = indexOf(contractsByUser[msg.sender], _contract);\r\n        uint256 _index2 = indexOf(contractsByMatchId[bet.getMatchId()], _contract);\r\n        //si el contrato se desactiva correctamente elimino el address de los arrays\r\n        if(bet.removeBet()){\r\n            delete contractsByUser[msg.sender][_index];\r\n            delete contractsByMatchId[bet.getMatchId()][_index2];\r\n        }\r\n    }\r\n\r\n    function addBetToCounterGambler(address counterGambler, address _sonContract) public payable{\r\n        contractsByUser[counterGambler].push(_sonContract);\r\n    }\r\n\r\n    /**\r\n    Funcin que devuelve todos los contratos(apuestas) creadas por un usuario\r\n    _user: direccin del usuario del que se muestran las apuestas\r\n     */\r\n    function getAllBetsByUser(address _user) public view returns (address[] memory){\r\n        return contractsByUser[_user];\r\n    }\r\n\r\n    /**\r\n    Funcin que devuelve todos los contratos(apuetas) creadas para un partido concreto\r\n    _matchId: id del partido del que se muestran las apuestas\r\n     */\r\n    function getAllBetsByMatchId(uint256 _matchId) public view returns (address[] memory){\r\n        return contractsByMatchId[_matchId];\r\n    }\r\n\r\n    /**\r\n    Funcin que devuelve si el contrato est activo o no\r\n     */\r\n    function isActive() public view returns (bool){\r\n        return (activeContract);\r\n    }\r\n\r\n    /**\r\n    Funcin que devuelve la posicin de un elemento de un array\r\n    _arr: array en el que se busca el elemento\r\n    _searchFor: elemento que se busca\r\n     */\r\n    function indexOf(address[] memory _arr, address _searchFor) private pure returns (uint256) {\r\n    for (uint256 i = 0; i < _arr.length; i++) {\r\n      if (_arr[i] == _searchFor) {\r\n        return i;\r\n      }\r\n    }\r\n    revert(\"Not Found\");\r\n  }\r\n\r\n\r\n////////////////////////////Panic Functions////////////////////////\r\n    // Funcion\r\n    // Nombre: stopContract\r\n    // Uso: pausa el contrato y saca todos los fondos en caso de emergencia\r\n    function stopContract() public {\r\n        require(msg.sender == contractOwner, \"You must be the original OWNER\");\r\n        // Finaliza la subasta\r\n        activeContract = false;\r\n        // Devuelve el dinero al maximo postor\r\n        contractOwner.transfer(address(this).balance);\r\n        \r\n        // Se emite un evento\r\n        emit Status(\"El contrato se ha parado\");\r\n    }\r\n}\r\n",
  "sourcePath": "C:\\Desarrollo\\Master Blokchain\\bet2peer\\contracts\\Father.sol",
  "compiler": {
    "name": "solc",
    "version": "0.8.14+commit.80d49f37.Emscripten.clang"
  },
  "schemaVersion": "3.4.7",
  "updatedAt": "2022-06-23T14:02:13.012Z",
  "devdoc": {
    "kind": "dev",
    "methods": {},
    "version": 1
  },
  "userdoc": {
    "kind": "user",
    "methods": {
      "createBet(uint256,uint8,uint256,uint8)": {
        "notice": "Funcion Funcin lanzada para cear una nueva apuesta _matchId: id del partido de la apuesta _result: resultado al que se apuesta _originalBet: cantidad apostada _minimumCounterBet: cantidad a percibir en caso de ganar"
      },
      "getAllBetsByMatchId(uint256)": {
        "notice": "Funcin que devuelve todos los contratos(apuetas) creadas para un partido concreto _matchId: id del partido del que se muestran las apuestas"
      },
      "getAllBetsByUser(address)": {
        "notice": "Funcin que devuelve todos los contratos(apuestas) creadas por un usuario _user: direccin del usuario del que se muestran las apuestas"
      },
      "isActive()": {
        "notice": "Funcin que devuelve si el contrato est activo o no"
      },
      "removeBet(address)": {
        "notice": "Funcin para eliminar una apuesta _contracto: direccin de la apuesta que se quiere eliminar _matchId: id del partido de la apuesta"
      }
    },
    "version": 1
  }
}