{
  "contractName": "Father",
  "abi": [
    {
      "inputs": [],
      "stateMutability": "nonpayable",
      "type": "constructor"
    },
    {
      "anonymous": false,
      "inputs": [
        {
          "indexed": false,
          "internalType": "string",
          "name": "_message",
          "type": "string"
        }
      ],
      "name": "Status",
      "type": "event"
    },
    {
      "inputs": [],
      "name": "bet",
      "outputs": [
        {
          "internalType": "contract Bet2Peer",
          "name": "",
          "type": "address"
        }
      ],
      "stateMutability": "view",
      "type": "function"
    },
    {
      "inputs": [
        {
          "internalType": "uint256",
          "name": "_matchId",
          "type": "uint256"
        },
        {
          "internalType": "uint8",
          "name": "_result",
          "type": "uint8"
        },
        {
          "internalType": "uint256",
          "name": "_originalBet",
          "type": "uint256"
        },
        {
          "internalType": "uint8",
          "name": "_minimumCounterBet",
          "type": "uint8"
        }
      ],
      "name": "createBet",
      "outputs": [],
      "stateMutability": "payable",
      "type": "function"
    },
    {
      "inputs": [
        {
          "internalType": "address",
          "name": "_contract",
          "type": "address"
        }
      ],
      "name": "removeBet",
      "outputs": [],
      "stateMutability": "nonpayable",
      "type": "function"
    },
    {
      "inputs": [
        {
          "internalType": "address",
          "name": "_user",
          "type": "address"
        }
      ],
      "name": "getAllBetsByUser",
      "outputs": [
        {
          "internalType": "address[]",
          "name": "",
          "type": "address[]"
        }
      ],
      "stateMutability": "view",
      "type": "function"
    },
    {
      "inputs": [
        {
          "internalType": "uint256",
          "name": "_matchId",
          "type": "uint256"
        }
      ],
      "name": "getAllBetsByMatchId",
      "outputs": [
        {
          "internalType": "address[]",
          "name": "",
          "type": "address[]"
        }
      ],
      "stateMutability": "view",
      "type": "function"
    },
    {
      "inputs": [],
      "name": "isActive",
      "outputs": [
        {
          "internalType": "bool",
          "name": "",
          "type": "bool"
        }
      ],
      "stateMutability": "view",
      "type": "function"
    },
    {
      "inputs": [],
      "name": "stopContract",
      "outputs": [],
      "stateMutability": "nonpayable",
      "type": "function"
    }
  ],
  "bytecode": "0x608060405234801561001057600080fd5b5033600160006101000a81548173ffffffffffffffffffffffffffffffffffffffff021916908373ffffffffffffffffffffffffffffffffffffffff1602179055506001600560006101000a81548160ff021916908315150217905550612feb8061007c6000396000f3fe6080604052600436106200007a5760003560e01c806322f3e2d4116200005557806322f3e2d414620000f757806356a6e68f1462000127578063c407f09b146200016b578063cfb43e9d14620001af576200007a565b806306011b21146200007f57806311610c2514620000ad57806312253a6c14620000dd575b600080fd5b3480156200008c57600080fd5b50620000ab6004803603810190620000a5919062000ec8565b620001cf565b005b348015620000ba57600080fd5b50620000c56200077b565b604051620000d4919062000f65565b60405180910390f35b348015620000ea57600080fd5b50620000f56200079f565b005b3480156200010457600080fd5b506200010f620008f0565b6040516200011e919062000f9f565b60405180910390f35b3480156200013457600080fd5b506200015360048036038101906200014d919062000ff7565b62000907565b604051620001629190620010f7565b60405180910390f35b3480156200017857600080fd5b5062000197600480360381019062000191919062000ec8565b620009aa565b604051620001a69190620010f7565b60405180910390f35b620001cd6004803603810190620001c7919062001159565b62000a79565b005b600560009054906101000a900460ff1662000221576040517f08c379a000000000000000000000000000000000000000000000000000000000815260040162000218906200122c565b60405180910390fd5b806000806101000a81548173ffffffffffffffffffffffffffffffffffffffff021916908373ffffffffffffffffffffffffffffffffffffffff1602179055503373ffffffffffffffffffffffffffffffffffffffff1660008054906101000a900473ffffffffffffffffffffffffffffffffffffffff1673ffffffffffffffffffffffffffffffffffffffff1663ad9136336040518163ffffffff1660e01b8152600401602060405180830381865afa158015620002e4573d6000803e3d6000fd5b505050506040513d601f19601f820116820180604052508101906200030a919062001265565b73ffffffffffffffffffffffffffffffffffffffff161462000363576040517f08c379a00000000000000000000000000000000000000000000000000000000081526004016200035a906200130d565b60405180910390fd5b600062000436600260003373ffffffffffffffffffffffffffffffffffffffff1673ffffffffffffffffffffffffffffffffffffffff1681526020019081526020016000208054806020026020016040519081016040528092919081815260200182805480156200042a57602002820191906000526020600020905b8160009054906101000a900473ffffffffffffffffffffffffffffffffffffffff1673ffffffffffffffffffffffffffffffffffffffff1681526020019060010190808311620003df575b50505050508362000d89565b9050600062000571600360008060009054906101000a900473ffffffffffffffffffffffffffffffffffffffff1673ffffffffffffffffffffffffffffffffffffffff1663153dc1826040518163ffffffff1660e01b8152600401602060405180830381865afa158015620004af573d6000803e3d6000fd5b505050506040513d601f19601f82011682018060405250810190620004d5919062001346565b81526020019081526020016000208054806020026020016040519081016040528092919081815260200182805480156200056557602002820191906000526020600020905b8160009054906101000a900473ffffffffffffffffffffffffffffffffffffffff1673ffffffffffffffffffffffffffffffffffffffff16815260200190600101908083116200051a575b50505050508462000d89565b905060008054906101000a900473ffffffffffffffffffffffffffffffffffffffff1673ffffffffffffffffffffffffffffffffffffffff1663fc884bff6040518163ffffffff1660e01b81526004016020604051808303816000875af1158015620005e1573d6000803e3d6000fd5b505050506040513d601f19601f82011682018060405250810190620006079190620013a9565b156200077657600260003373ffffffffffffffffffffffffffffffffffffffff1673ffffffffffffffffffffffffffffffffffffffff1681526020019081526020016000208281548110620006615762000660620013db565b5b9060005260206000200160006101000a81549073ffffffffffffffffffffffffffffffffffffffff0219169055600360008060009054906101000a900473ffffffffffffffffffffffffffffffffffffffff1673ffffffffffffffffffffffffffffffffffffffff1663153dc1826040518163ffffffff1660e01b8152600401602060405180830381865afa158015620006ff573d6000803e3d6000fd5b505050506040513d601f19601f8201168201806040525081019062000725919062001346565b81526020019081526020016000208181548110620007485762000747620013db565b5b9060005260206000200160006101000a81549073ffffffffffffffffffffffffffffffffffffffff02191690555b505050565b60008054906101000a900473ffffffffffffffffffffffffffffffffffffffff1681565b600160009054906101000a900473ffffffffffffffffffffffffffffffffffffffff1673ffffffffffffffffffffffffffffffffffffffff163373ffffffffffffffffffffffffffffffffffffffff161462000832576040517f08c379a000000000000000000000000000000000000000000000000000000000815260040162000829906200145a565b60405180910390fd5b6000600560006101000a81548160ff021916908315150217905550600160009054906101000a900473ffffffffffffffffffffffffffffffffffffffff1673ffffffffffffffffffffffffffffffffffffffff166108fc479081150290604051600060405180830381858888f19350505050158015620008b6573d6000803e3d6000fd5b507f2844c95bf1b4598da931d527f903501abc60fe0199c65da52d5ce818c6c5e961604051620008e690620014cc565b60405180910390a1565b6000600560009054906101000a900460ff16905090565b6060600360008381526020019081526020016000208054806020026020016040519081016040528092919081815260200182805480156200099e57602002820191906000526020600020905b8160009054906101000a900473ffffffffffffffffffffffffffffffffffffffff1673ffffffffffffffffffffffffffffffffffffffff168152602001906001019080831162000953575b50505050509050919050565b6060600260008373ffffffffffffffffffffffffffffffffffffffff1673ffffffffffffffffffffffffffffffffffffffff16815260200190815260200160002080548060200260200160405190810160405280929190818152602001828054801562000a6d57602002820191906000526020600020905b8160009054906101000a900473ffffffffffffffffffffffffffffffffffffffff1673ffffffffffffffffffffffffffffffffffffffff168152602001906001019080831162000a22575b50505050509050919050565b600560009054906101000a900460ff1662000acb576040517f08c379a000000000000000000000000000000000000000000000000000000000815260040162000ac2906200122c565b60405180910390fd5b33848484843060405162000adf9062000e50565b62000af0969594939291906200155a565b604051809103906000f08015801562000b0d573d6000803e3d6000fd5b506000806101000a81548173ffffffffffffffffffffffffffffffffffffffff021916908373ffffffffffffffffffffffffffffffffffffffff160217905550600260003373ffffffffffffffffffffffffffffffffffffffff1673ffffffffffffffffffffffffffffffffffffffff16815260200190815260200160002060008054906101000a900473ffffffffffffffffffffffffffffffffffffffff1673ffffffffffffffffffffffffffffffffffffffff166332a2c5d06040518163ffffffff1660e01b8152600401602060405180830381865afa15801562000bf8573d6000803e3d6000fd5b505050506040513d601f19601f8201168201806040525081019062000c1e919062001265565b9080600181540180825580915050600190039060005260206000200160009091909190916101000a81548173ffffffffffffffffffffffffffffffffffffffff021916908373ffffffffffffffffffffffffffffffffffffffff1602179055506003600085815260200190815260200160002060008054906101000a900473ffffffffffffffffffffffffffffffffffffffff1673ffffffffffffffffffffffffffffffffffffffff166332a2c5d06040518163ffffffff1660e01b8152600401602060405180830381865afa15801562000cfd573d6000803e3d6000fd5b505050506040513d601f19601f8201168201806040525081019062000d23919062001265565b9080600181540180825580915050600190039060005260206000200160009091909190916101000a81548173ffffffffffffffffffffffffffffffffffffffff021916908373ffffffffffffffffffffffffffffffffffffffff16021790555050505050565b600080600090505b835181101562000e0c578273ffffffffffffffffffffffffffffffffffffffff1684828151811062000dc85762000dc7620013db565b5b602002602001015173ffffffffffffffffffffffffffffffffffffffff160362000df6578091505062000e4a565b808062000e0390620015f6565b91505062000d91565b506040517f08c379a000000000000000000000000000000000000000000000000000000000815260040162000e419062001693565b60405180910390fd5b92915050565b61190080620016b683390190565b600080fd5b600073ffffffffffffffffffffffffffffffffffffffff82169050919050565b600062000e908262000e63565b9050919050565b62000ea28162000e83565b811462000eae57600080fd5b50565b60008135905062000ec28162000e97565b92915050565b60006020828403121562000ee15762000ee062000e5e565b5b600062000ef18482850162000eb1565b91505092915050565b6000819050919050565b600062000f2562000f1f62000f198462000e63565b62000efa565b62000e63565b9050919050565b600062000f398262000f04565b9050919050565b600062000f4d8262000f2c565b9050919050565b62000f5f8162000f40565b82525050565b600060208201905062000f7c600083018462000f54565b92915050565b60008115159050919050565b62000f998162000f82565b82525050565b600060208201905062000fb6600083018462000f8e565b92915050565b6000819050919050565b62000fd18162000fbc565b811462000fdd57600080fd5b50565b60008135905062000ff18162000fc6565b92915050565b60006020828403121562001010576200100f62000e5e565b5b6000620010208482850162000fe0565b91505092915050565b600081519050919050565b600082825260208201905092915050565b6000819050602082019050919050565b620010608162000e83565b82525050565b600062001074838362001055565b60208301905092915050565b6000602082019050919050565b60006200109a8262001029565b620010a6818562001034565b9350620010b38362001045565b8060005b83811015620010ea578151620010ce888262001066565b9750620010db8362001080565b925050600181019050620010b7565b5085935050505092915050565b600060208201905081810360008301526200111381846200108d565b905092915050565b600060ff82169050919050565b62001133816200111b565b81146200113f57600080fd5b50565b600081359050620011538162001128565b92915050565b6000806000806080858703121562001176576200117562000e5e565b5b6000620011868782880162000fe0565b9450506020620011998782880162001142565b9350506040620011ac8782880162000fe0565b9250506060620011bf8782880162001142565b91505092959194509250565b600082825260208201905092915050565b7f536f7272792c20636f6e74726163742064697361626c65640000000000000000600082015250565b600062001214601883620011cb565b91506200122182620011dc565b602082019050919050565b60006020820190508181036000830152620012478162001205565b9050919050565b6000815190506200125f8162000e97565b92915050565b6000602082840312156200127e576200127d62000e5e565b5b60006200128e848285016200124e565b91505092915050565b7f4e6f206572657320656c2063726561646f72206465206573746120617075657360008201527f7461000000000000000000000000000000000000000000000000000000000000602082015250565b6000620012f5602283620011cb565b9150620013028262001297565b604082019050919050565b600060208201905081810360008301526200132881620012e6565b9050919050565b600081519050620013408162000fc6565b92915050565b6000602082840312156200135f576200135e62000e5e565b5b60006200136f848285016200132f565b91505092915050565b620013838162000f82565b81146200138f57600080fd5b50565b600081519050620013a38162001378565b92915050565b600060208284031215620013c257620013c162000e5e565b5b6000620013d28482850162001392565b91505092915050565b7f4e487b7100000000000000000000000000000000000000000000000000000000600052603260045260246000fd5b7f596f75206d75737420626520746865206f726967696e616c204f574e45520000600082015250565b600062001442601e83620011cb565b91506200144f826200140a565b602082019050919050565b60006020820190508181036000830152620014758162001433565b9050919050565b7f456c20636f6e747261746f2073652068612070617261646f0000000000000000600082015250565b6000620014b4601883620011cb565b9150620014c1826200147c565b602082019050919050565b60006020820190508181036000830152620014e781620014a5565b9050919050565b620014f98162000e83565b82525050565b6200150a8162000fbc565b82525050565b6200151b816200111b565b82525050565b6000620015426200153c62001536846200111b565b62000efa565b62000fbc565b9050919050565b620015548162001521565b82525050565b600060c082019050620015716000830189620014ee565b620015806020830188620014ff565b6200158f604083018762001510565b6200159e6060830186620014ff565b620015ad608083018562001549565b620015bc60a0830184620014ee565b979650505050505050565b7f4e487b7100000000000000000000000000000000000000000000000000000000600052601160045260246000fd5b6000620016038262000fbc565b91507fffffffffffffffffffffffffffffffffffffffffffffffffffffffffffffffff8203620016385762001637620015c7565b5b600182019050919050565b7f4e6f7420466f756e640000000000000000000000000000000000000000000000600082015250565b60006200167b600983620011cb565b9150620016888262001643565b602082019050919050565b60006020820190508181036000830152620016ae816200166c565b905091905056fe60806040523480156200001157600080fd5b506040516200190038038062001900833981810160405281019062000037919062000339565b620000576200004b6200018a60201b60201c565b6200019260201b60201c565b85600260006101000a81548173ffffffffffffffffffffffffffffffffffffffff021916908373ffffffffffffffffffffffffffffffffffffffff1602179055508460018190555083600360146101000a81548160ff021916908360ff160217905550826004819055508160058190555080600660006101000a81548173ffffffffffffffffffffffffffffffffffffffff021916908373ffffffffffffffffffffffffffffffffffffffff1602179055506001600660146101000a81548160ff0219169083151502179055507f2844c95bf1b4598da931d527f903501abc60fe0199c65da52d5ce818c6c5e96185604051602001620001589190620004a5565b60405160208183030381529060405260405162000176919062000580565b60405180910390a1505050505050620005a4565b600033905090565b60008060009054906101000a900473ffffffffffffffffffffffffffffffffffffffff169050816000806101000a81548173ffffffffffffffffffffffffffffffffffffffff021916908373ffffffffffffffffffffffffffffffffffffffff1602179055508173ffffffffffffffffffffffffffffffffffffffff168173ffffffffffffffffffffffffffffffffffffffff167f8be0079c531659141344cd1fd0a4f28419497f9722a3daafe3b4186f6b6457e060405160405180910390a35050565b600080fd5b600073ffffffffffffffffffffffffffffffffffffffff82169050919050565b600062000288826200025b565b9050919050565b6200029a816200027b565b8114620002a657600080fd5b50565b600081519050620002ba816200028f565b92915050565b6000819050919050565b620002d581620002c0565b8114620002e157600080fd5b50565b600081519050620002f581620002ca565b92915050565b600060ff82169050919050565b6200031381620002fb565b81146200031f57600080fd5b50565b600081519050620003338162000308565b92915050565b60008060008060008060c0878903121562000359576200035862000256565b5b60006200036989828a01620002a9565b96505060206200037c89828a01620002e4565b95505060406200038f89828a0162000322565b9450506060620003a289828a01620002e4565b9350506080620003b589828a01620002e4565b92505060a0620003c889828a01620002a9565b9150509295509295509295565b600081905092915050565b7f5061727469646f20000000000000000000000000000000000000000000000000600082015250565b600062000418600883620003d5565b91506200042582620003e0565b600882019050919050565b6000819050919050565b6200044f6200044982620002c0565b62000430565b82525050565b7f2063726561646f00000000000000000000000000000000000000000000000000600082015250565b60006200048d600783620003d5565b91506200049a8262000455565b600782019050919050565b6000620004b28262000409565b9150620004c082846200043a565b602082019150620004d1826200047e565b915081905092915050565b600081519050919050565b600082825260208201905092915050565b60005b8381101562000518578082015181840152602081019050620004fb565b8381111562000528576000848401525b50505050565b6000601f19601f8301169050919050565b60006200054c82620004dc565b620005588185620004e7565b93506200056a818560208601620004f8565b62000575816200052e565b840191505092915050565b600060208201905081810360008301526200059c81846200053f565b905092915050565b61134c80620005b46000396000f3fe6080604052600436106100915760003560e01c80638da5cb5b116100595780638da5cb5b146101385780638fced62614610163578063ad9136331461016d578063f2fde38b14610198578063fc884bff146101c157610091565b8063153dc182146100965780632c70444e146100c157806330bfcb5f146100ec57806332a2c5d0146100f6578063715018a614610121575b600080fd5b3480156100a257600080fd5b506100ab6101df565b6040516100b89190610bdf565b60405180910390f35b3480156100cd57600080fd5b506100d66101e9565b6040516100e39190610bdf565b60405180910390f35b6100f46101ef565b005b34801561010257600080fd5b5061010b6103cb565b6040516101189190610c3b565b60405180910390f35b34801561012d57600080fd5b5061013661044f565b005b34801561014457600080fd5b5061014d6104d7565b60405161015a9190610c3b565b60405180910390f35b61016b610500565b005b34801561017957600080fd5b506101826107be565b60405161018f9190610c3b565b60405180910390f35b3480156101a457600080fd5b506101bf60048036038101906101ba9190610c87565b6107e8565b005b6101c96108df565b6040516101d69190610ccf565b60405180910390f35b6000600154905090565b60015481565b600660149054906101000a900460ff1661023e576040517f08c379a000000000000000000000000000000000000000000000000000000000815260040161023590610d47565b60405180910390fd5b600554341015610283576040517f08c379a000000000000000000000000000000000000000000000000000000000815260040161027a90610db3565b60405180910390fd5b33600360006101000a81548173ffffffffffffffffffffffffffffffffffffffff021916908373ffffffffffffffffffffffffffffffffffffffff160217905550600360009054906101000a900473ffffffffffffffffffffffffffffffffffffffff1673ffffffffffffffffffffffffffffffffffffffff166108fc349081150290604051600060405180830381858888f1935050505015801561032c573d6000803e3d6000fd5b507f2844c95bf1b4598da931d527f903501abc60fe0199c65da52d5ce818c6c5e961600360009054906101000a900473ffffffffffffffffffffffffffffffffffffffff16600260009054906101000a900473ffffffffffffffffffffffffffffffffffffffff166040516020016103a5929190610e84565b6040516020818303038152906040526040516103c19190610f43565b60405180910390a1565b60006103d5610afa565b73ffffffffffffffffffffffffffffffffffffffff166103f36104d7565b73ffffffffffffffffffffffffffffffffffffffff1614610449576040517f08c379a000000000000000000000000000000000000000000000000000000000815260040161044090610fb1565b60405180910390fd5b30905090565b610457610afa565b73ffffffffffffffffffffffffffffffffffffffff166104756104d7565b73ffffffffffffffffffffffffffffffffffffffff16146104cb576040517f08c379a00000000000000000000000000000000000000000000000000000000081526004016104c290610fb1565b60405180910390fd5b6104d56000610b02565b565b60008060009054906101000a900473ffffffffffffffffffffffffffffffffffffffff16905090565b33600260009054906101000a900473ffffffffffffffffffffffffffffffffffffffff1673ffffffffffffffffffffffffffffffffffffffff168173ffffffffffffffffffffffffffffffffffffffff1614806105aa5750600360009054906101000a900473ffffffffffffffffffffffffffffffffffffffff1673ffffffffffffffffffffffffffffffffffffffff168173ffffffffffffffffffffffffffffffffffffffff16145b6105e9576040517f08c379a00000000000000000000000000000000000000000000000000000000081526004016105e09061101d565b60405180910390fd5b600660149054906101000a900460ff16610638576040517f08c379a000000000000000000000000000000000000000000000000000000000815260040161062f90610d47565b60405180910390fd5b600660159054906101000a900460ff1661065157600080fd5b6001600360149054906101000a900460ff1660ff16036106d957600260009054906101000a900473ffffffffffffffffffffffffffffffffffffffff1673ffffffffffffffffffffffffffffffffffffffff166108fc479081150290604051600060405180830381858888f193505050501580156106d3573d6000803e3d6000fd5b50610743565b600360009054906101000a900473ffffffffffffffffffffffffffffffffffffffff1673ffffffffffffffffffffffffffffffffffffffff166108fc479081150290604051600060405180830381858888f19350505050158015610741573d6000803e3d6000fd5b505b6000600660146101000a81548160ff0219169083151502179055507f2844c95bf1b4598da931d527f903501abc60fe0199c65da52d5ce818c6c5e9616107876103cb565b60405160200161079791906110fe565b6040516020818303038152906040526040516107b39190610f43565b60405180910390a150565b6000600260009054906101000a900473ffffffffffffffffffffffffffffffffffffffff16905090565b6107f0610afa565b73ffffffffffffffffffffffffffffffffffffffff1661080e6104d7565b73ffffffffffffffffffffffffffffffffffffffff1614610864576040517f08c379a000000000000000000000000000000000000000000000000000000000815260040161085b90610fb1565b60405180910390fd5b600073ffffffffffffffffffffffffffffffffffffffff168173ffffffffffffffffffffffffffffffffffffffff16036108d3576040517f08c379a00000000000000000000000000000000000000000000000000000000081526004016108ca906111a1565b60405180910390fd5b6108dc81610b02565b50565b600033600260009054906101000a900473ffffffffffffffffffffffffffffffffffffffff1673ffffffffffffffffffffffffffffffffffffffff168173ffffffffffffffffffffffffffffffffffffffff1614610972576040517f08c379a00000000000000000000000000000000000000000000000000000000081526004016109699061120d565b60405180910390fd5b600660149054906101000a900460ff166109c1576040517f08c379a00000000000000000000000000000000000000000000000000000000081526004016109b890610d47565b60405180910390fd5b600660159054906101000a900460ff1615610a11576040517f08c379a0000000000000000000000000000000000000000000000000000000008152600401610a0890611279565b60405180910390fd5b600260009054906101000a900473ffffffffffffffffffffffffffffffffffffffff1673ffffffffffffffffffffffffffffffffffffffff166108fc479081150290604051600060405180830381858888f19350505050158015610a79573d6000803e3d6000fd5b506000600660146101000a81548160ff0219169083151502179055507f2844c95bf1b4598da931d527f903501abc60fe0199c65da52d5ce818c6c5e961610abe6103cb565b604051602001610ace91906112e5565b604051602081830303815290604052604051610aea9190610f43565b60405180910390a1600191505090565b600033905090565b60008060009054906101000a900473ffffffffffffffffffffffffffffffffffffffff169050816000806101000a81548173ffffffffffffffffffffffffffffffffffffffff021916908373ffffffffffffffffffffffffffffffffffffffff1602179055508173ffffffffffffffffffffffffffffffffffffffff168173ffffffffffffffffffffffffffffffffffffffff167f8be0079c531659141344cd1fd0a4f28419497f9722a3daafe3b4186f6b6457e060405160405180910390a35050565b6000819050919050565b610bd981610bc6565b82525050565b6000602082019050610bf46000830184610bd0565b92915050565b600073ffffffffffffffffffffffffffffffffffffffff82169050919050565b6000610c2582610bfa565b9050919050565b610c3581610c1a565b82525050565b6000602082019050610c506000830184610c2c565b92915050565b600080fd5b610c6481610c1a565b8114610c6f57600080fd5b50565b600081359050610c8181610c5b565b92915050565b600060208284031215610c9d57610c9c610c56565b5b6000610cab84828501610c72565b91505092915050565b60008115159050919050565b610cc981610cb4565b82525050565b6000602082019050610ce46000830184610cc0565b92915050565b600082825260208201905092915050565b7f457374612061707565737461206e6f2065737461206163746976610000000000600082015250565b6000610d31601b83610cea565b9150610d3c82610cfb565b602082019050919050565b60006020820190508181036000830152610d6081610d24565b9050919050565b7f4170756573746120696e737566696369656e7465000000000000000000000000600082015250565b6000610d9d601483610cea565b9150610da882610d67565b602082019050919050565b60006020820190508181036000830152610dcc81610d90565b9050919050565b6000610dde82610bfa565b9050919050565b60008160601b9050919050565b6000610dfd82610de5565b9050919050565b6000610e0f82610df2565b9050919050565b610e27610e2282610dd3565b610e04565b82525050565b600081905092915050565b7f20686120616365707461646f206c612061707565737461206465200000000000600082015250565b6000610e6e601b83610e2d565b9150610e7982610e38565b601b82019050919050565b6000610e908285610e16565b601482019150610e9f82610e61565b9150610eab8284610e16565b6014820191508190509392505050565b600081519050919050565b60005b83811015610ee4578082015181840152602081019050610ec9565b83811115610ef3576000848401525b50505050565b6000601f19601f8301169050919050565b6000610f1582610ebb565b610f1f8185610cea565b9350610f2f818560208601610ec6565b610f3881610ef9565b840191505092915050565b60006020820190508181036000830152610f5d8184610f0a565b905092915050565b7f4f776e61626c653a2063616c6c6572206973206e6f7420746865206f776e6572600082015250565b6000610f9b602083610cea565b9150610fa682610f65565b602082019050919050565b60006020820190508181036000830152610fca81610f8e565b9050919050565b7f4e6f207061727469636970617320656e20657374612061707565737461000000600082015250565b6000611007601d83610cea565b915061101282610fd1565b602082019050919050565b6000602082019050818103600083015261103681610ffa565b9050919050565b7f4170756573746120000000000000000000000000000000000000000000000000600082015250565b6000611073600883610e2d565b915061107e8261103d565b600882019050919050565b600061109482610df2565b9050919050565b6110ac6110a782610c1a565b611089565b82525050565b7f2072657375656c74610000000000000000000000000000000000000000000000600082015250565b60006110e8600983610e2d565b91506110f3826110b2565b600982019050919050565b600061110982611066565b9150611115828461109b565b601482019150611124826110db565b915081905092915050565b7f4f776e61626c653a206e6577206f776e657220697320746865207a65726f206160008201527f6464726573730000000000000000000000000000000000000000000000000000602082015250565b600061118b602683610cea565b91506111968261112f565b604082019050919050565b600060208201905081810360008301526111ba8161117e565b9050919050565b7f4e6f206572657320656c2063726561646f72206465206c612061707565737461600082015250565b60006111f7602083610cea565b9150611202826111c1565b602082019050919050565b60006020820190508181036000830152611226816111ea565b9050919050565b7f4c612061707565737461207961206861207369646f2061636570746164610000600082015250565b6000611263601e83610cea565b915061126e8261122d565b602082019050919050565b6000602082019050818103600083015261129281611256565b9050919050565b7f20656c696d696e61646100000000000000000000000000000000000000000000600082015250565b60006112cf600a83610e2d565b91506112da82611299565b600a82019050919050565b60006112f082611066565b91506112fc828461109b565b60148201915061130b826112c2565b91508190509291505056fea26469706673582212205d45e5ec78901196411bef0819708bc299957fa9f1e3048deb1da8bef894f58164736f6c634300080e0033a26469706673582212202390738c1b72492dfa4c0ed9dd7d3567dff183a1b696414525c0996a627384c164736f6c634300080e0033",
  "immutableReferences": {},
  "source": "/**\r\n *Submitted for verification at Etherscan.io on 2022-04-22\r\n */\r\n\r\n// Version de solidity del Smart Contract\r\n// SPDX-License-Identifier: UNLICENSED\r\n\r\npragma solidity 0.8.14;\r\nimport \"./Bet2Peer.sol\";\r\nimport \"../client/node_modules/@openzeppelin/contracts/access/Ownable.sol\";\r\n// Informacion del Smart Contract\r\n// Nombre: Creador de Apuestas\r\n// Logica: Implementa la creacin de contratos\r\n\r\n// Declaracion del Smart Contract - Auction\r\ncontract Father {\r\n\r\n    // ----------- Variables (datos) -----------\r\n    //Contrato hijo\r\n    Bet2Peer public bet;\r\n    //direccin del creador de la apuesta\r\n    address payable contractOwner;\r\n\r\n    //mapping de todos los contratos(apuestas) creados por un usuario \r\n    //      usuario     contrato\r\n    mapping(address =>  address[]) private contractsByUser;\r\n    //mapping de todos los contratos(apuestas) creados para un partido concreto\r\n    //      matchId    contrato\r\n    mapping(uint256 => address[]) private contractsByMatchId;\r\n    //mapping de todos los contratos(apuestas) creados por un usuario con su contractId y MatchId\r\n    //      usuario            matchId    contrato\r\n    mapping(address => mapping(uint256 => address[])) private contractsByMatchIdAndUser;\r\n    \r\n    //Estado del contrato\r\n    bool activeContract;\r\n\r\n    // ----------- Events -----------\r\n    event Status(string _message);\r\n\r\n    // ------------Modifiers ----------\r\n    modifier contractActive() {\r\n        require(activeContract, \"Sorry, contract disabled\");\r\n        _;\r\n    }\r\n\r\n    // ----------- Constructor -----------\r\n    // Uso: Inicializa el Smart Contract - Father\r\n    constructor() {\r\n        contractOwner = payable(msg.sender);\r\n        activeContract = true;\r\n    }\r\n\r\n    // -------------------Functions ------------------\r\n    /**\r\n    Funcion\r\n    Funcin lanzada para cear una nueva apuesta\r\n    _matchId: id del partido de la apuesta\r\n    _result: resultado al que se apuesta\r\n    _originalBet: cantidad apostada\r\n    _minimumCounterBet: cantidad a percibir en caso de ganar\r\n     */\r\n    function createBet(uint256 _matchId, uint8 _result, uint256 _originalBet, uint8 _minimumCounterBet) public payable \r\n        contractActive\r\n    {\r\n        //Creo un nuevo contrato hijo para la apuesta\r\n        bet = new Bet2Peer(msg.sender, _matchId, _result, _originalBet, _minimumCounterBet, address(this));\r\n        //Aado la direccin del contrato a los mapas del usuario y del partido\r\n        contractsByUser[msg.sender].push(bet.getContractAddress());\r\n        contractsByMatchId[_matchId].push(bet.getContractAddress());\r\n    }\r\n\r\n    /**\r\n    Funcin para eliminar una apuesta\r\n    _contracto: direccin de la apuesta que se quiere eliminar\r\n    _matchId: id del partido de la apuesta\r\n     */\r\n    function removeBet(address _contract) public\r\n        contractActive\r\n    {\r\n        //Asigno a la variable bet el contrato hijo en cuestin\r\n        bet = Bet2Peer(_contract);\r\n        require(bet.getOriginalOwner() == msg.sender, \"No eres el creador de esta apuesta\");\r\n        //busco el index del contrato en los arrays del usurio y partido\r\n        uint256 _index = indexOf(contractsByUser[msg.sender], _contract);\r\n        uint256 _index2 = indexOf(contractsByMatchId[bet.getMatchId()], _contract);\r\n        //si el contrato se desactiva correctamente elimino el address de los arrays\r\n        if(bet.removeBet()){\r\n            delete contractsByUser[msg.sender][_index];\r\n            delete contractsByMatchId[bet.getMatchId()][_index2];\r\n        }\r\n    }\r\n\r\n    /**\r\n    Funcin que devuelve todos los contratos(apuestas) creadas por un usuario\r\n    _user: direccin del usuario del que se muestran las apuestas\r\n     */\r\n    function getAllBetsByUser(address _user) public view returns (address[] memory){\r\n        return contractsByUser[_user];\r\n    }\r\n\r\n    /**\r\n    Funcin que devuelve todos los contratos(apuetas) creadas para un partido concreto\r\n    _matchId: id del partido del que se muestran las apuestas\r\n     */\r\n    function getAllBetsByMatchId(uint256 _matchId) public view returns (address[] memory){\r\n        return contractsByMatchId[_matchId];\r\n    }\r\n\r\n    /**\r\n    Funcin que devuelve si el contrato est activo o no\r\n     */\r\n    function isActive() public view returns (bool){\r\n        return (activeContract);\r\n    }\r\n\r\n    /**\r\n    Funcin que devuelve la posicin de un elemento de un array\r\n    _arr: array en el que se busca el elemento\r\n    _searchFor: elemento que se busca\r\n     */\r\n    function indexOf(address[] memory _arr, address _searchFor) private pure returns (uint256) {\r\n    for (uint256 i = 0; i < _arr.length; i++) {\r\n      if (_arr[i] == _searchFor) {\r\n        return i;\r\n      }\r\n    }\r\n    revert(\"Not Found\");\r\n  }\r\n\r\n\r\n////////////////////////////Panic Functions////////////////////////\r\n    // Funcion\r\n    // Nombre: stopContract\r\n    // Uso: pausa el contrato y saca todos los fondos en caso de emergencia\r\n    function stopContract() public {\r\n        require(msg.sender == contractOwner, \"You must be the original OWNER\");\r\n        // Finaliza la subasta\r\n        activeContract = false;\r\n        // Devuelve el dinero al maximo postor\r\n        contractOwner.transfer(address(this).balance);\r\n        \r\n        // Se emite un evento\r\n        emit Status(\"El contrato se ha parado\");\r\n    }\r\n}\r\n",
  "sourcePath": "C:\\Desarrollo\\Master Blokchain\\bet2peer\\contracts\\Father.sol",
  "compiler": {
    "name": "solc",
    "version": "0.8.14+commit.80d49f37.Emscripten.clang"
  },
  "schemaVersion": "3.4.7",
  "updatedAt": "2022-06-10T17:32:30.987Z",
  "devdoc": {
    "kind": "dev",
    "methods": {},
    "version": 1
  },
  "userdoc": {
    "kind": "user",
    "methods": {
      "createBet(uint256,uint8,uint256,uint8)": {
        "notice": "Funcion Funcin lanzada para cear una nueva apuesta _matchId: id del partido de la apuesta _result: resultado al que se apuesta _originalBet: cantidad apostada _minimumCounterBet: cantidad a percibir en caso de ganar"
      },
      "getAllBetsByMatchId(uint256)": {
        "notice": "Funcin que devuelve todos los contratos(apuetas) creadas para un partido concreto _matchId: id del partido del que se muestran las apuestas"
      },
      "getAllBetsByUser(address)": {
        "notice": "Funcin que devuelve todos los contratos(apuestas) creadas por un usuario _user: direccin del usuario del que se muestran las apuestas"
      },
      "isActive()": {
        "notice": "Funcin que devuelve si el contrato est activo o no"
      },
      "removeBet(address)": {
        "notice": "Funcin para eliminar una apuesta _contracto: direccin de la apuesta que se quiere eliminar _matchId: id del partido de la apuesta"
      }
    },
    "version": 1
  }
}