{
  "contractName": "Father",
  "abi": [
    {
      "anonymous": false,
      "inputs": [
        {
          "indexed": true,
          "internalType": "address",
          "name": "previousOwner",
          "type": "address"
        },
        {
          "indexed": true,
          "internalType": "address",
          "name": "newOwner",
          "type": "address"
        }
      ],
      "name": "OwnershipTransferred",
      "type": "event"
    },
    {
      "anonymous": false,
      "inputs": [
        {
          "indexed": false,
          "internalType": "string",
          "name": "_message",
          "type": "string"
        }
      ],
      "name": "Status",
      "type": "event"
    },
    {
      "inputs": [],
      "name": "bet",
      "outputs": [
        {
          "internalType": "contract Bet2Peer",
          "name": "",
          "type": "address"
        }
      ],
      "stateMutability": "view",
      "type": "function",
      "constant": true
    },
    {
      "inputs": [],
      "name": "owner",
      "outputs": [
        {
          "internalType": "address",
          "name": "",
          "type": "address"
        }
      ],
      "stateMutability": "view",
      "type": "function",
      "constant": true
    },
    {
      "inputs": [],
      "name": "renounceOwnership",
      "outputs": [],
      "stateMutability": "nonpayable",
      "type": "function"
    },
    {
      "inputs": [
        {
          "internalType": "address",
          "name": "newOwner",
          "type": "address"
        }
      ],
      "name": "transferOwnership",
      "outputs": [],
      "stateMutability": "nonpayable",
      "type": "function"
    },
    {
      "inputs": [
        {
          "internalType": "address",
          "name": "_storageAddress",
          "type": "address"
        }
      ],
      "name": "setStorageContract",
      "outputs": [],
      "stateMutability": "nonpayable",
      "type": "function"
    },
    {
      "inputs": [
        {
          "internalType": "uint256",
          "name": "_matchId",
          "type": "uint256"
        },
        {
          "internalType": "uint8",
          "name": "_result",
          "type": "uint8"
        },
        {
          "internalType": "uint256",
          "name": "_originalBet",
          "type": "uint256"
        },
        {
          "internalType": "uint256",
          "name": "_minimumCounterBet",
          "type": "uint256"
        }
      ],
      "name": "createBet",
      "outputs": [],
      "stateMutability": "payable",
      "type": "function",
      "payable": true
    },
    {
      "inputs": [
        {
          "internalType": "address payable",
          "name": "_contract",
          "type": "address"
        }
      ],
      "name": "removeBet",
      "outputs": [],
      "stateMutability": "nonpayable",
      "type": "function"
    },
    {
      "inputs": [
        {
          "internalType": "address payable",
          "name": "_contract",
          "type": "address"
        }
      ],
      "name": "resolveBet",
      "outputs": [],
      "stateMutability": "nonpayable",
      "type": "function"
    },
    {
      "inputs": [
        {
          "internalType": "address",
          "name": "counterGambler",
          "type": "address"
        },
        {
          "internalType": "address",
          "name": "_sonContract",
          "type": "address"
        }
      ],
      "name": "addBetToCounterGambler",
      "outputs": [],
      "stateMutability": "payable",
      "type": "function",
      "payable": true
    },
    {
      "inputs": [
        {
          "internalType": "address",
          "name": "_user",
          "type": "address"
        }
      ],
      "name": "getAllBetsByUser",
      "outputs": [
        {
          "internalType": "address[]",
          "name": "",
          "type": "address[]"
        }
      ],
      "stateMutability": "view",
      "type": "function",
      "constant": true
    },
    {
      "inputs": [
        {
          "internalType": "uint256",
          "name": "_matchId",
          "type": "uint256"
        }
      ],
      "name": "getAllBetsByMatchId",
      "outputs": [
        {
          "internalType": "address[]",
          "name": "",
          "type": "address[]"
        }
      ],
      "stateMutability": "view",
      "type": "function",
      "constant": true
    },
    {
      "inputs": [],
      "name": "isActive",
      "outputs": [
        {
          "internalType": "bool",
          "name": "",
          "type": "bool"
        }
      ],
      "stateMutability": "view",
      "type": "function",
      "constant": true
    },
    {
      "inputs": [],
      "name": "version",
      "outputs": [
        {
          "internalType": "string",
          "name": "",
          "type": "string"
        }
      ],
      "stateMutability": "pure",
      "type": "function",
      "constant": true
    }
  ],
  "bytecode": "0x60806040523480156200001157600080fd5b5062000032620000266200003860201b60201c565b6200004060201b60201c565b62000104565b600033905090565b60008060009054906101000a900473ffffffffffffffffffffffffffffffffffffffff169050816000806101000a81548173ffffffffffffffffffffffffffffffffffffffff021916908373ffffffffffffffffffffffffffffffffffffffff1602179055508173ffffffffffffffffffffffffffffffffffffffff168173ffffffffffffffffffffffffffffffffffffffff167f8be0079c531659141344cd1fd0a4f28419497f9722a3daafe3b4186f6b6457e060405160405180910390a35050565b614ce980620001146000396000f3fe608060405260043610620000d45760003560e01c806356a6e68f116200008b578063c407f09b1162000061578063c407f09b1462000265578063d0b8a36114620002a9578063dc38b0a214620002d7578063f2fde38b146200030557620000d4565b806356a6e68f14620001d7578063715018a6146200021b5780638da5cb5b146200023557620000d4565b806306011b2114620000d957806311610c25146200010757806322f3e2d41462000137578063305fc68d146200016757806339c7312b146200018757806354fd4d5014620001a7575b600080fd5b348015620000e657600080fd5b50620001056004803603810190620000ff919062001d0a565b62000333565b005b3480156200011457600080fd5b506200011f620009b3565b6040516200012e919062001da7565b60405180910390f35b3480156200014457600080fd5b506200014f620009d9565b6040516200015e919062001de1565b60405180910390f35b6200018560048036038101906200017f919062001e43565b62000a74565b005b620001a560048036038101906200019f919062001f03565b62000b0b565b005b348015620001b457600080fd5b50620001bf62000f5d565b604051620001ce919062002019565b60405180910390f35b348015620001e457600080fd5b50620002036004803603810190620001fd91906200203d565b62000f9a565b6040516200021291906200213d565b60405180910390f35b3480156200022857600080fd5b506200023362001049565b005b3480156200024257600080fd5b506200024d620010da565b6040516200025c919062002172565b60405180910390f35b3480156200027257600080fd5b506200029160048036038101906200028b91906200218f565b62001103565b604051620002a091906200213d565b60405180910390f35b348015620002b657600080fd5b50620002d56004803603810190620002cf919062001d0a565b620011b2565b005b348015620002e457600080fd5b50620003036004803603810190620002fd91906200218f565b620019a9565b005b3480156200031257600080fd5b506200033160048036038101906200032b91906200218f565b620019ed565b005b600260009054906101000a900473ffffffffffffffffffffffffffffffffffffffff1673ffffffffffffffffffffffffffffffffffffffff16638f5949f96040518163ffffffff1660e01b8152600401602060405180830381865afa158015620003a1573d6000803e3d6000fd5b505050506040513d601f19601f82011682018060405250810190620003c79190620021f2565b62000409576040517f08c379a0000000000000000000000000000000000000000000000000000000008152600401620004009062002274565b60405180910390fd5b80600160006101000a81548173ffffffffffffffffffffffffffffffffffffffff021916908373ffffffffffffffffffffffffffffffffffffffff1602179055503273ffffffffffffffffffffffffffffffffffffffff16600160009054906101000a900473ffffffffffffffffffffffffffffffffffffffff1673ffffffffffffffffffffffffffffffffffffffff1663ad9136336040518163ffffffff1660e01b8152600401602060405180830381865afa158015620004cf573d6000803e3d6000fd5b505050506040513d601f19601f82011682018060405250810190620004f59190620022ad565b73ffffffffffffffffffffffffffffffffffffffff16146200054e576040517f08c379a0000000000000000000000000000000000000000000000000000000008152600401620005459062002355565b60405180910390fd5b600160009054906101000a900473ffffffffffffffffffffffffffffffffffffffff1673ffffffffffffffffffffffffffffffffffffffff166306011b21326040518263ffffffff1660e01b8152600401620005ab919062002172565b6020604051808303816000875af1158015620005cb573d6000803e3d6000fd5b505050506040513d601f19601f82011682018060405250810190620005f19190620021f2565b15620009b0576000620006aa600260009054906101000a900473ffffffffffffffffffffffffffffffffffffffff1673ffffffffffffffffffffffffffffffffffffffff16634eca495f326040518263ffffffff1660e01b81526004016200065a919062002172565b600060405180830381865afa15801562000678573d6000803e3d6000fd5b505050506040513d6000823e3d601f19601f82011682018060405250810190620006a39190620024db565b8362001af0565b90506000620007f2600260009054906101000a900473ffffffffffffffffffffffffffffffffffffffff1673ffffffffffffffffffffffffffffffffffffffff1663b077b8d9600160009054906101000a900473ffffffffffffffffffffffffffffffffffffffff1673ffffffffffffffffffffffffffffffffffffffff1663153dc1826040518163ffffffff1660e01b8152600401602060405180830381865afa1580156200075e573d6000803e3d6000fd5b505050506040513d601f19601f8201168201806040525081019062000784919062002543565b6040518263ffffffff1660e01b8152600401620007a2919062002586565b600060405180830381865afa158015620007c0573d6000803e3d6000fd5b505050506040513d6000823e3d601f19601f82011682018060405250810190620007eb9190620024db565b8462001af0565b9050600260009054906101000a900473ffffffffffffffffffffffffffffffffffffffff1673ffffffffffffffffffffffffffffffffffffffff16635ca1985a32846040518363ffffffff1660e01b815260040162000853929190620025a3565b600060405180830381600087803b1580156200086e57600080fd5b505af115801562000883573d6000803e3d6000fd5b50505050600260009054906101000a900473ffffffffffffffffffffffffffffffffffffffff1673ffffffffffffffffffffffffffffffffffffffff1663fd9db244600160009054906101000a900473ffffffffffffffffffffffffffffffffffffffff1673ffffffffffffffffffffffffffffffffffffffff1663153dc1826040518163ffffffff1660e01b8152600401602060405180830381865afa15801562000933573d6000803e3d6000fd5b505050506040513d601f19601f8201168201806040525081019062000959919062002543565b836040518363ffffffff1660e01b815260040162000979929190620025d0565b600060405180830381600087803b1580156200099457600080fd5b505af1158015620009a9573d6000803e3d6000fd5b5050505050505b50565b600160009054906101000a900473ffffffffffffffffffffffffffffffffffffffff1681565b6000600260009054906101000a900473ffffffffffffffffffffffffffffffffffffffff1673ffffffffffffffffffffffffffffffffffffffff166322f3e2d46040518163ffffffff1660e01b8152600401602060405180830381865afa15801562000a49573d6000803e3d6000fd5b505050506040513d601f19601f8201168201806040525081019062000a6f9190620021f2565b905090565b600260009054906101000a900473ffffffffffffffffffffffffffffffffffffffff1673ffffffffffffffffffffffffffffffffffffffff166387bfadf683836040518363ffffffff1660e01b815260040162000ad3929190620025fd565b600060405180830381600087803b15801562000aee57600080fd5b505af115801562000b03573d6000803e3d6000fd5b505050505050565b600260009054906101000a900473ffffffffffffffffffffffffffffffffffffffff1673ffffffffffffffffffffffffffffffffffffffff16638f5949f96040518163ffffffff1660e01b8152600401602060405180830381865afa15801562000b79573d6000803e3d6000fd5b505050506040513d601f19601f8201168201806040525081019062000b9f9190620021f2565b62000be1576040517f08c379a000000000000000000000000000000000000000000000000000000000815260040162000bd89062002274565b60405180910390fd5b32848484843060405162000bf59062001c83565b62000c06969594939291906200263b565b604051809103906000f08015801562000c23573d6000803e3d6000fd5b50600160006101000a81548173ffffffffffffffffffffffffffffffffffffffff021916908373ffffffffffffffffffffffffffffffffffffffff1602179055506000600160009054906101000a900473ffffffffffffffffffffffffffffffffffffffff1690508073ffffffffffffffffffffffffffffffffffffffff166108fc349081150290604051600060405180830381858888f1935050505015801562000cd2573d6000803e3d6000fd5b50600260009054906101000a900473ffffffffffffffffffffffffffffffffffffffff1673ffffffffffffffffffffffffffffffffffffffff166387bfadf632600160009054906101000a900473ffffffffffffffffffffffffffffffffffffffff1673ffffffffffffffffffffffffffffffffffffffff166332a2c5d06040518163ffffffff1660e01b8152600401602060405180830381865afa15801562000d80573d6000803e3d6000fd5b505050506040513d601f19601f8201168201806040525081019062000da69190620022ad565b6040518363ffffffff1660e01b815260040162000dc5929190620025fd565b600060405180830381600087803b15801562000de057600080fd5b505af115801562000df5573d6000803e3d6000fd5b50505050600260009054906101000a900473ffffffffffffffffffffffffffffffffffffffff1673ffffffffffffffffffffffffffffffffffffffff16636db0bb4786600160009054906101000a900473ffffffffffffffffffffffffffffffffffffffff1673ffffffffffffffffffffffffffffffffffffffff166332a2c5d06040518163ffffffff1660e01b8152600401602060405180830381865afa15801562000ea6573d6000803e3d6000fd5b505050506040513d601f19601f8201168201806040525081019062000ecc9190620022ad565b6040518363ffffffff1660e01b815260040162000eeb929190620026a8565b600060405180830381600087803b15801562000f0657600080fd5b505af115801562000f1b573d6000803e3d6000fd5b505050507f2844c95bf1b4598da931d527f903501abc60fe0199c65da52d5ce818c6c5e96160405162000f4e9062002725565b60405180910390a15050505050565b60606040518060400160405280600481526020017f76312e3000000000000000000000000000000000000000000000000000000000815250905090565b6060600260009054906101000a900473ffffffffffffffffffffffffffffffffffffffff1673ffffffffffffffffffffffffffffffffffffffff166356a6e68f836040518263ffffffff1660e01b815260040162000ff9919062002586565b600060405180830381865afa15801562001017573d6000803e3d6000fd5b505050506040513d6000823e3d601f19601f82011682018060405250810190620010429190620024db565b9050919050565b6200105362001bb7565b73ffffffffffffffffffffffffffffffffffffffff1662001073620010da565b73ffffffffffffffffffffffffffffffffffffffff1614620010cc576040517f08c379a0000000000000000000000000000000000000000000000000000000008152600401620010c39062002797565b60405180910390fd5b620010d8600062001bbf565b565b60008060009054906101000a900473ffffffffffffffffffffffffffffffffffffffff16905090565b6060600260009054906101000a900473ffffffffffffffffffffffffffffffffffffffff1673ffffffffffffffffffffffffffffffffffffffff1663c407f09b836040518263ffffffff1660e01b815260040162001162919062002172565b600060405180830381865afa15801562001180573d6000803e3d6000fd5b505050506040513d6000823e3d601f19601f82011682018060405250810190620011ab9190620024db565b9050919050565b600260009054906101000a900473ffffffffffffffffffffffffffffffffffffffff1673ffffffffffffffffffffffffffffffffffffffff16638f5949f96040518163ffffffff1660e01b8152600401602060405180830381865afa15801562001220573d6000803e3d6000fd5b505050506040513d601f19601f82011682018060405250810190620012469190620021f2565b62001288576040517f08c379a00000000000000000000000000000000000000000000000000000000081526004016200127f9062002274565b60405180910390fd5b80600160006101000a81548173ffffffffffffffffffffffffffffffffffffffff021916908373ffffffffffffffffffffffffffffffffffffffff160217905550600160009054906101000a900473ffffffffffffffffffffffffffffffffffffffff1673ffffffffffffffffffffffffffffffffffffffff1663d0b8a361326040518263ffffffff1660e01b815260040162001326919062002172565b6020604051808303816000875af115801562001346573d6000803e3d6000fd5b505050506040513d601f19601f820116820180604052508101906200136c9190620021f2565b15620019a6576000600160009054906101000a900473ffffffffffffffffffffffffffffffffffffffff1673ffffffffffffffffffffffffffffffffffffffff1663ad9136336040518163ffffffff1660e01b8152600401602060405180830381865afa158015620013e2573d6000803e3d6000fd5b505050506040513d601f19601f82011682018060405250810190620014089190620022ad565b90506000600160009054906101000a900473ffffffffffffffffffffffffffffffffffffffff1673ffffffffffffffffffffffffffffffffffffffff16636bfc77436040518163ffffffff1660e01b8152600401602060405180830381865afa1580156200147a573d6000803e3d6000fd5b505050506040513d601f19601f82011682018060405250810190620014a09190620022ad565b9050600062001555600260009054906101000a900473ffffffffffffffffffffffffffffffffffffffff1673ffffffffffffffffffffffffffffffffffffffff16634eca495f856040518263ffffffff1660e01b815260040162001505919062002172565b600060405180830381865afa15801562001523573d6000803e3d6000fd5b505050506040513d6000823e3d601f19601f820116820180604052508101906200154e9190620024db565b8562001af0565b905060006200160a600260009054906101000a900473ffffffffffffffffffffffffffffffffffffffff1673ffffffffffffffffffffffffffffffffffffffff16634eca495f856040518263ffffffff1660e01b8152600401620015ba919062002172565b600060405180830381865afa158015620015d8573d6000803e3d6000fd5b505050506040513d6000823e3d601f19601f82011682018060405250810190620016039190620024db565b8662001af0565b9050600062001752600260009054906101000a900473ffffffffffffffffffffffffffffffffffffffff1673ffffffffffffffffffffffffffffffffffffffff1663b077b8d9600160009054906101000a900473ffffffffffffffffffffffffffffffffffffffff1673ffffffffffffffffffffffffffffffffffffffff1663153dc1826040518163ffffffff1660e01b8152600401602060405180830381865afa158015620016be573d6000803e3d6000fd5b505050506040513d601f19601f82011682018060405250810190620016e4919062002543565b6040518263ffffffff1660e01b815260040162001702919062002586565b600060405180830381865afa15801562001720573d6000803e3d6000fd5b505050506040513d6000823e3d601f19601f820116820180604052508101906200174b9190620024db565b8762001af0565b9050600260009054906101000a900473ffffffffffffffffffffffffffffffffffffffff1673ffffffffffffffffffffffffffffffffffffffff16635ca1985a86856040518363ffffffff1660e01b8152600401620017b3929190620025a3565b600060405180830381600087803b158015620017ce57600080fd5b505af1158015620017e3573d6000803e3d6000fd5b50505050600260009054906101000a900473ffffffffffffffffffffffffffffffffffffffff1673ffffffffffffffffffffffffffffffffffffffff16635ca1985a85846040518363ffffffff1660e01b815260040162001846929190620025a3565b600060405180830381600087803b1580156200186157600080fd5b505af115801562001876573d6000803e3d6000fd5b50505050600260009054906101000a900473ffffffffffffffffffffffffffffffffffffffff1673ffffffffffffffffffffffffffffffffffffffff1663fd9db244600160009054906101000a900473ffffffffffffffffffffffffffffffffffffffff1673ffffffffffffffffffffffffffffffffffffffff1663153dc1826040518163ffffffff1660e01b8152600401602060405180830381865afa15801562001926573d6000803e3d6000fd5b505050506040513d601f19601f820116820180604052508101906200194c919062002543565b836040518363ffffffff1660e01b81526004016200196c929190620025d0565b600060405180830381600087803b1580156200198757600080fd5b505af11580156200199c573d6000803e3d6000fd5b5050505050505050505b50565b80600260006101000a81548173ffffffffffffffffffffffffffffffffffffffff021916908373ffffffffffffffffffffffffffffffffffffffff16021790555050565b620019f762001bb7565b73ffffffffffffffffffffffffffffffffffffffff1662001a17620010da565b73ffffffffffffffffffffffffffffffffffffffff161462001a70576040517f08c379a000000000000000000000000000000000000000000000000000000000815260040162001a679062002797565b60405180910390fd5b600073ffffffffffffffffffffffffffffffffffffffff168173ffffffffffffffffffffffffffffffffffffffff160362001ae2576040517f08c379a000000000000000000000000000000000000000000000000000000000815260040162001ad9906200282f565b60405180910390fd5b62001aed8162001bbf565b50565b600080600090505b835181101562001b73578273ffffffffffffffffffffffffffffffffffffffff1684828151811062001b2f5762001b2e62002851565b5b602002602001015173ffffffffffffffffffffffffffffffffffffffff160362001b5d578091505062001bb1565b808062001b6a90620028af565b91505062001af8565b506040517f08c379a000000000000000000000000000000000000000000000000000000000815260040162001ba8906200294c565b60405180910390fd5b92915050565b600033905090565b60008060009054906101000a900473ffffffffffffffffffffffffffffffffffffffff169050816000806101000a81548173ffffffffffffffffffffffffffffffffffffffff021916908373ffffffffffffffffffffffffffffffffffffffff1602179055508173ffffffffffffffffffffffffffffffffffffffff168173ffffffffffffffffffffffffffffffffffffffff167f8be0079c531659141344cd1fd0a4f28419497f9722a3daafe3b4186f6b6457e060405160405180910390a35050565b612345806200296f83390190565b6000604051905090565b600080fd5b600080fd5b600073ffffffffffffffffffffffffffffffffffffffff82169050919050565b600062001cd28262001ca5565b9050919050565b62001ce48162001cc5565b811462001cf057600080fd5b50565b60008135905062001d048162001cd9565b92915050565b60006020828403121562001d235762001d2262001c9b565b5b600062001d338482850162001cf3565b91505092915050565b6000819050919050565b600062001d6762001d6162001d5b8462001ca5565b62001d3c565b62001ca5565b9050919050565b600062001d7b8262001d46565b9050919050565b600062001d8f8262001d6e565b9050919050565b62001da18162001d82565b82525050565b600060208201905062001dbe600083018462001d96565b92915050565b60008115159050919050565b62001ddb8162001dc4565b82525050565b600060208201905062001df8600083018462001dd0565b92915050565b600062001e0b8262001ca5565b9050919050565b62001e1d8162001dfe565b811462001e2957600080fd5b50565b60008135905062001e3d8162001e12565b92915050565b6000806040838503121562001e5d5762001e5c62001c9b565b5b600062001e6d8582860162001e2c565b925050602062001e808582860162001e2c565b9150509250929050565b6000819050919050565b62001e9f8162001e8a565b811462001eab57600080fd5b50565b60008135905062001ebf8162001e94565b92915050565b600060ff82169050919050565b62001edd8162001ec5565b811462001ee957600080fd5b50565b60008135905062001efd8162001ed2565b92915050565b6000806000806080858703121562001f205762001f1f62001c9b565b5b600062001f308782880162001eae565b945050602062001f438782880162001eec565b935050604062001f568782880162001eae565b925050606062001f698782880162001eae565b91505092959194509250565b600081519050919050565b600082825260208201905092915050565b60005b8381101562001fb157808201518184015260208101905062001f94565b8381111562001fc1576000848401525b50505050565b6000601f19601f8301169050919050565b600062001fe58262001f75565b62001ff1818562001f80565b93506200200381856020860162001f91565b6200200e8162001fc7565b840191505092915050565b6000602082019050818103600083015262002035818462001fd8565b905092915050565b60006020828403121562002056576200205562001c9b565b5b6000620020668482850162001eae565b91505092915050565b600081519050919050565b600082825260208201905092915050565b6000819050602082019050919050565b620020a68162001dfe565b82525050565b6000620020ba83836200209b565b60208301905092915050565b6000602082019050919050565b6000620020e0826200206f565b620020ec81856200207a565b9350620020f9836200208b565b8060005b8381101562002130578151620021148882620020ac565b97506200212183620020c6565b925050600181019050620020fd565b5085935050505092915050565b60006020820190508181036000830152620021598184620020d3565b905092915050565b6200216c8162001dfe565b82525050565b600060208201905062002189600083018462002161565b92915050565b600060208284031215620021a857620021a762001c9b565b5b6000620021b88482850162001e2c565b91505092915050565b620021cc8162001dc4565b8114620021d857600080fd5b50565b600081519050620021ec81620021c1565b92915050565b6000602082840312156200220b576200220a62001c9b565b5b60006200221b84828501620021db565b91505092915050565b7f536f7272792c20636f6e74726163742064697361626c65640000000000000000600082015250565b60006200225c60188362001f80565b9150620022698262002224565b602082019050919050565b600060208201905081810360008301526200228f816200224d565b9050919050565b600081519050620022a78162001e12565b92915050565b600060208284031215620022c657620022c562001c9b565b5b6000620022d68482850162002296565b91505092915050565b7f4e6f206572657320656c2063726561646f72206465206573746120617075657360008201527f7461000000000000000000000000000000000000000000000000000000000000602082015250565b60006200233d60228362001f80565b91506200234a82620022df565b604082019050919050565b6000602082019050818103600083015262002370816200232e565b9050919050565b600080fd5b7f4e487b7100000000000000000000000000000000000000000000000000000000600052604160045260246000fd5b620023b68262001fc7565b810181811067ffffffffffffffff82111715620023d857620023d76200237c565b5b80604052505050565b6000620023ed62001c91565b9050620023fb8282620023ab565b919050565b600067ffffffffffffffff8211156200241e576200241d6200237c565b5b602082029050602081019050919050565b600080fd5b60006200244b620024458462002400565b620023e1565b905080838252602082019050602084028301858111156200247157620024706200242f565b5b835b818110156200249e578062002489888262002296565b84526020840193505060208101905062002473565b5050509392505050565b600082601f830112620024c057620024bf62002377565b5b8151620024d284826020860162002434565b91505092915050565b600060208284031215620024f457620024f362001c9b565b5b600082015167ffffffffffffffff81111562002515576200251462001ca0565b5b6200252384828501620024a8565b91505092915050565b6000815190506200253d8162001e94565b92915050565b6000602082840312156200255c576200255b62001c9b565b5b60006200256c848285016200252c565b91505092915050565b620025808162001e8a565b82525050565b60006020820190506200259d600083018462002575565b92915050565b6000604082019050620025ba600083018562002161565b620025c9602083018462002575565b9392505050565b6000604082019050620025e7600083018562002575565b620025f6602083018462002575565b9392505050565b600060408201905062002614600083018562002161565b62002623602083018462002161565b9392505050565b620026358162001ec5565b82525050565b600060c08201905062002652600083018962002161565b62002661602083018862002575565b6200267060408301876200262a565b6200267f606083018662002575565b6200268e608083018562002575565b6200269d60a083018462002161565b979650505050505050565b6000604082019050620026bf600083018562002575565b620026ce602083018462002161565b9392505050565b7f4265742063726561746564000000000000000000000000000000000000000000600082015250565b60006200270d600b8362001f80565b91506200271a82620026d5565b602082019050919050565b600060208201905081810360008301526200274081620026fe565b9050919050565b7f4f776e61626c653a2063616c6c6572206973206e6f7420746865206f776e6572600082015250565b60006200277f60208362001f80565b91506200278c8262002747565b602082019050919050565b60006020820190508181036000830152620027b28162002770565b9050919050565b7f4f776e61626c653a206e6577206f776e657220697320746865207a65726f206160008201527f6464726573730000000000000000000000000000000000000000000000000000602082015250565b60006200281760268362001f80565b91506200282482620027b9565b604082019050919050565b600060208201905081810360008301526200284a8162002808565b9050919050565b7f4e487b7100000000000000000000000000000000000000000000000000000000600052603260045260246000fd5b7f4e487b7100000000000000000000000000000000000000000000000000000000600052601160045260246000fd5b6000620028bc8262001e8a565b91507fffffffffffffffffffffffffffffffffffffffffffffffffffffffffffffffff8203620028f157620028f062002880565b5b600182019050919050565b7f4e6f7420466f756e640000000000000000000000000000000000000000000000600082015250565b60006200293460098362001f80565b91506200294182620028fc565b602082019050919050565b60006020820190508181036000830152620029678162002925565b905091905056fe60806040523480156200001157600080fd5b506040516200234538038062002345833981810160405281019062000037919062000628565b620000576200004b6200047960201b60201c565b6200048160201b60201c565b85600460006101000a81548173ffffffffffffffffffffffffffffffffffffffff021916908373ffffffffffffffffffffffffffffffffffffffff1602179055508460038190555083600560146101000a81548160ff021916908360ff160217905550826006819055508160078190555080600860006101000a81548173ffffffffffffffffffffffffffffffffffffffff021916908373ffffffffffffffffffffffffffffffffffffffff1602179055506001600960146101000a81548160ff0219169083151502179055506000600960156101000a81548160ff02191690831515021790555085600160003073ffffffffffffffffffffffffffffffffffffffff1673ffffffffffffffffffffffffffffffffffffffff16815260200190815260200160002060000160006101000a81548173ffffffffffffffffffffffffffffffffffffffff021916908373ffffffffffffffffffffffffffffffffffffffff16021790555084600160003073ffffffffffffffffffffffffffffffffffffffff1673ffffffffffffffffffffffffffffffffffffffff1681526020019081526020016000206002018190555083600160003073ffffffffffffffffffffffffffffffffffffffff1673ffffffffffffffffffffffffffffffffffffffff16815260200190815260200160002060030160006101000a81548160ff021916908360ff16021790555082600160003073ffffffffffffffffffffffffffffffffffffffff1673ffffffffffffffffffffffffffffffffffffffff1681526020019081526020016000206004018190555081600160003073ffffffffffffffffffffffffffffffffffffffff1673ffffffffffffffffffffffffffffffffffffffff1681526020019081526020016000206005018190555060006002600063011530ea815260200190815260200160002060006101000a81548160ff021916908360ff160217905550600280600063011530e9815260200190815260200160002060006101000a81548160ff021916908360ff160217905550600280600063011530f2815260200190815260200160002060006101000a81548160ff021916908360ff16021790555060016002600063011530ee815260200190815260200160002060006101000a81548160ff021916908360ff160217905550600280600063011530f1815260200190815260200160002060006101000a81548160ff021916908360ff16021790555060016002600063011530ed815260200190815260200160002060006101000a81548160ff021916908360ff1602179055507f2844c95bf1b4598da931d527f903501abc60fe0199c65da52d5ce818c6c5e9618560405160200162000447919062000794565b6040516020818303038152906040526040516200046591906200086f565b60405180910390a150505050505062000893565b600033905090565b60008060009054906101000a900473ffffffffffffffffffffffffffffffffffffffff169050816000806101000a81548173ffffffffffffffffffffffffffffffffffffffff021916908373ffffffffffffffffffffffffffffffffffffffff1602179055508173ffffffffffffffffffffffffffffffffffffffff168173ffffffffffffffffffffffffffffffffffffffff167f8be0079c531659141344cd1fd0a4f28419497f9722a3daafe3b4186f6b6457e060405160405180910390a35050565b600080fd5b600073ffffffffffffffffffffffffffffffffffffffff82169050919050565b600062000577826200054a565b9050919050565b62000589816200056a565b81146200059557600080fd5b50565b600081519050620005a9816200057e565b92915050565b6000819050919050565b620005c481620005af565b8114620005d057600080fd5b50565b600081519050620005e481620005b9565b92915050565b600060ff82169050919050565b6200060281620005ea565b81146200060e57600080fd5b50565b6000815190506200062281620005f7565b92915050565b60008060008060008060c0878903121562000648576200064762000545565b5b60006200065889828a0162000598565b96505060206200066b89828a01620005d3565b95505060406200067e89828a0162000611565b94505060606200069189828a01620005d3565b9350506080620006a489828a01620005d3565b92505060a0620006b789828a0162000598565b9150509295509295509295565b600081905092915050565b7f5061727469646f20000000000000000000000000000000000000000000000000600082015250565b600062000707600883620006c4565b91506200071482620006cf565b600882019050919050565b6000819050919050565b6200073e6200073882620005af565b6200071f565b82525050565b7f2063726561646f00000000000000000000000000000000000000000000000000600082015250565b60006200077c600783620006c4565b9150620007898262000744565b600782019050919050565b6000620007a182620006f8565b9150620007af828462000729565b602082019150620007c0826200076d565b915081905092915050565b600081519050919050565b600082825260208201905092915050565b60005b8381101562000807578082015181840152602081019050620007ea565b8381111562000817576000848401525b50505050565b6000601f19601f8301169050919050565b60006200083b82620007cb565b620008478185620007d6565b935062000859818560208601620007e7565b62000864816200081d565b840191505092915050565b600060208201905081810360008301526200088b81846200082e565b905092915050565b611aa280620008a36000396000f3fe6080604052600436106100e15760003560e01c8063715018a61161007f578063ad91363311610059578063ad9136331461026b578063d0b8a36114610296578063e11eb98d146102c6578063f2fde38b14610308576100e8565b8063715018a6146101fe5780637cc1f867146102155780638da5cb5b14610240576100e8565b80632c70444e116100bb5780632c70444e1461017357806330bfcb5f1461019e57806332a2c5d0146101a85780636bfc7743146101d3576100e8565b806306011b21146100ed57806312065fe01461011d578063153dc18214610148576100e8565b366100e857005b600080fd5b6101076004803603810190610102919061114b565b610331565b6040516101149190611193565b60405180910390f35b34801561012957600080fd5b5061013261054e565b60405161013f91906111c7565b60405180910390f35b34801561015457600080fd5b5061015d610556565b60405161016a91906111c7565b60405180910390f35b34801561017f57600080fd5b50610188610560565b60405161019591906111c7565b60405180910390f35b6101a6610566565b005b3480156101b457600080fd5b506101bd610901565b6040516101ca91906111f1565b60405180910390f35b3480156101df57600080fd5b506101e8610909565b6040516101f591906111f1565b60405180910390f35b34801561020a57600080fd5b50610213610933565b005b34801561022157600080fd5b5061022a6109bb565b60405161023791906112c1565b60405180910390f35b34801561024c57600080fd5b50610255610af9565b60405161026291906111f1565b60405180910390f35b34801561027757600080fd5b50610280610b22565b60405161028d91906111f1565b60405180910390f35b6102b060048036038101906102ab919061114b565b610b4c565b6040516102bd9190611193565b60405180910390f35b3480156102d257600080fd5b506102ed60048036038101906102e8919061114b565b610e37565b6040516102ff969594939291906112eb565b60405180910390f35b34801561031457600080fd5b5061032f600480360381019061032a919061114b565b610ec0565b005b600081600460009054906101000a900473ffffffffffffffffffffffffffffffffffffffff1673ffffffffffffffffffffffffffffffffffffffff168173ffffffffffffffffffffffffffffffffffffffff16146103c4576040517f08c379a00000000000000000000000000000000000000000000000000000000081526004016103bb906113a9565b60405180910390fd5b600960149054906101000a900460ff16610413576040517f08c379a000000000000000000000000000000000000000000000000000000000815260040161040a90611415565b60405180910390fd5b600960159054906101000a900460ff1615610463576040517f08c379a000000000000000000000000000000000000000000000000000000000815260040161045a90611481565b60405180910390fd5b600460009054906101000a900473ffffffffffffffffffffffffffffffffffffffff1673ffffffffffffffffffffffffffffffffffffffff166108fc479081150290604051600060405180830381858888f193505050501580156104cb573d6000803e3d6000fd5b506000600960146101000a81548160ff0219169083151502179055507f2844c95bf1b4598da931d527f903501abc60fe0199c65da52d5ce818c6c5e961610510610901565b604051602001610520919061158c565b60405160208183030381529060405260405161053c9190611645565b60405180910390a16001915050919050565b600047905090565b6000600354905090565b60035481565b600960149054906101000a900460ff166105b5576040517f08c379a00000000000000000000000000000000000000000000000000000000081526004016105ac90611415565b60405180910390fd5b6007543410156105fa576040517f08c379a00000000000000000000000000000000000000000000000000000000081526004016105f1906116b3565b60405180910390fd5b60001515600960159054906101000a900460ff16151514610650576040517f08c379a00000000000000000000000000000000000000000000000000000000081526004016106479061171f565b60405180910390fd5b32600560006101000a81548173ffffffffffffffffffffffffffffffffffffffff021916908373ffffffffffffffffffffffffffffffffffffffff160217905550600560009054906101000a900473ffffffffffffffffffffffffffffffffffffffff16600160003073ffffffffffffffffffffffffffffffffffffffff1673ffffffffffffffffffffffffffffffffffffffff16815260200190815260200160002060010160006101000a81548173ffffffffffffffffffffffffffffffffffffffff021916908373ffffffffffffffffffffffffffffffffffffffff1602179055506001600960156101000a81548160ff021916908315150217905550600860009054906101000a900473ffffffffffffffffffffffffffffffffffffffff16600960006101000a81548173ffffffffffffffffffffffffffffffffffffffff021916908373ffffffffffffffffffffffffffffffffffffffff160217905550600960009054906101000a900473ffffffffffffffffffffffffffffffffffffffff1673ffffffffffffffffffffffffffffffffffffffff1663305fc68d600560009054906101000a900473ffffffffffffffffffffffffffffffffffffffff16306040518363ffffffff1660e01b815260040161083192919061179e565b600060405180830381600087803b15801561084b57600080fd5b505af115801561085f573d6000803e3d6000fd5b505050507f2844c95bf1b4598da931d527f903501abc60fe0199c65da52d5ce818c6c5e961600560009054906101000a900473ffffffffffffffffffffffffffffffffffffffff16600460009054906101000a900473ffffffffffffffffffffffffffffffffffffffff166040516020016108db92919061184e565b6040516020818303038152906040526040516108f79190611645565b60405180910390a1565b600030905090565b6000600560009054906101000a900473ffffffffffffffffffffffffffffffffffffffff16905090565b61093b610fb7565b73ffffffffffffffffffffffffffffffffffffffff16610959610af9565b73ffffffffffffffffffffffffffffffffffffffff16146109af576040517f08c379a00000000000000000000000000000000000000000000000000000000081526004016109a6906118d1565b60405180910390fd5b6109b96000610fbf565b565b6109c3611083565b600160003073ffffffffffffffffffffffffffffffffffffffff1673ffffffffffffffffffffffffffffffffffffffff1681526020019081526020016000206040518060c00160405290816000820160009054906101000a900473ffffffffffffffffffffffffffffffffffffffff1673ffffffffffffffffffffffffffffffffffffffff1673ffffffffffffffffffffffffffffffffffffffff1681526020016001820160009054906101000a900473ffffffffffffffffffffffffffffffffffffffff1673ffffffffffffffffffffffffffffffffffffffff1673ffffffffffffffffffffffffffffffffffffffff168152602001600282015481526020016003820160009054906101000a900460ff1660ff1660ff16815260200160048201548152602001600582015481525050905090565b60008060009054906101000a900473ffffffffffffffffffffffffffffffffffffffff16905090565b6000600460009054906101000a900473ffffffffffffffffffffffffffffffffffffffff16905090565b600081600460009054906101000a900473ffffffffffffffffffffffffffffffffffffffff1673ffffffffffffffffffffffffffffffffffffffff168173ffffffffffffffffffffffffffffffffffffffff161480610bf85750600560009054906101000a900473ffffffffffffffffffffffffffffffffffffffff1673ffffffffffffffffffffffffffffffffffffffff168173ffffffffffffffffffffffffffffffffffffffff16145b610c37576040517f08c379a0000000000000000000000000000000000000000000000000000000008152600401610c2e9061193d565b60405180910390fd5b600960149054906101000a900460ff16610c86576040517f08c379a0000000000000000000000000000000000000000000000000000000008152600401610c7d90611415565b60405180910390fd5b600960159054906101000a900460ff16610c9f57600080fd5b600560149054906101000a900460ff1660ff1660026000600354815260200190815260200160002060009054906101000a900460ff1660ff1603610d4b57600460009054906101000a900473ffffffffffffffffffffffffffffffffffffffff1673ffffffffffffffffffffffffffffffffffffffff166108fc479081150290604051600060405180830381858888f19350505050158015610d45573d6000803e3d6000fd5b50610db5565b600560009054906101000a900473ffffffffffffffffffffffffffffffffffffffff1673ffffffffffffffffffffffffffffffffffffffff166108fc479081150290604051600060405180830381858888f19350505050158015610db3573d6000803e3d6000fd5b505b6000600960146101000a81548160ff0219169083151502179055507f2844c95bf1b4598da931d527f903501abc60fe0199c65da52d5ce818c6c5e961610df9610901565b604051602001610e0991906119a9565b604051602081830303815290604052604051610e259190611645565b60405180910390a16001915050919050565b60016020528060005260406000206000915090508060000160009054906101000a900473ffffffffffffffffffffffffffffffffffffffff16908060010160009054906101000a900473ffffffffffffffffffffffffffffffffffffffff16908060020154908060030160009054906101000a900460ff16908060040154908060050154905086565b610ec8610fb7565b73ffffffffffffffffffffffffffffffffffffffff16610ee6610af9565b73ffffffffffffffffffffffffffffffffffffffff1614610f3c576040517f08c379a0000000000000000000000000000000000000000000000000000000008152600401610f33906118d1565b60405180910390fd5b600073ffffffffffffffffffffffffffffffffffffffff168173ffffffffffffffffffffffffffffffffffffffff1603610fab576040517f08c379a0000000000000000000000000000000000000000000000000000000008152600401610fa290611a4c565b60405180910390fd5b610fb481610fbf565b50565b600033905090565b60008060009054906101000a900473ffffffffffffffffffffffffffffffffffffffff169050816000806101000a81548173ffffffffffffffffffffffffffffffffffffffff021916908373ffffffffffffffffffffffffffffffffffffffff1602179055508173ffffffffffffffffffffffffffffffffffffffff168173ffffffffffffffffffffffffffffffffffffffff167f8be0079c531659141344cd1fd0a4f28419497f9722a3daafe3b4186f6b6457e060405160405180910390a35050565b6040518060c00160405280600073ffffffffffffffffffffffffffffffffffffffff168152602001600073ffffffffffffffffffffffffffffffffffffffff16815260200160008152602001600060ff16815260200160008152602001600081525090565b600080fd5b600073ffffffffffffffffffffffffffffffffffffffff82169050919050565b6000611118826110ed565b9050919050565b6111288161110d565b811461113357600080fd5b50565b6000813590506111458161111f565b92915050565b600060208284031215611161576111606110e8565b5b600061116f84828501611136565b91505092915050565b60008115159050919050565b61118d81611178565b82525050565b60006020820190506111a86000830184611184565b92915050565b6000819050919050565b6111c1816111ae565b82525050565b60006020820190506111dc60008301846111b8565b92915050565b6111eb8161110d565b82525050565b600060208201905061120660008301846111e2565b92915050565b6112158161110d565b82525050565b611224816111ae565b82525050565b600060ff82169050919050565b6112408161122a565b82525050565b60c08201600082015161125c600085018261120c565b50602082015161126f602085018261120c565b506040820151611282604085018261121b565b5060608201516112956060850182611237565b5060808201516112a8608085018261121b565b5060a08201516112bb60a085018261121b565b50505050565b600060c0820190506112d66000830184611246565b92915050565b6112e58161122a565b82525050565b600060c08201905061130060008301896111e2565b61130d60208301886111e2565b61131a60408301876111b8565b61132760608301866112dc565b61133460808301856111b8565b61134160a08301846111b8565b979650505050505050565b600082825260208201905092915050565b7f4e6f206572657320656c2063726561646f72206465206c612061707565737461600082015250565b600061139360208361134c565b915061139e8261135d565b602082019050919050565b600060208201905081810360008301526113c281611386565b9050919050565b7f457374612061707565737461206e6f2065737461206163746976610000000000600082015250565b60006113ff601b8361134c565b915061140a826113c9565b602082019050919050565b6000602082019050818103600083015261142e816113f2565b9050919050565b7f4c612061707565737461207961206861207369646f2061636570746164610000600082015250565b600061146b601e8361134c565b915061147682611435565b602082019050919050565b6000602082019050818103600083015261149a8161145e565b9050919050565b600081905092915050565b7f4170756573746120000000000000000000000000000000000000000000000000600082015250565b60006114e26008836114a1565b91506114ed826114ac565b600882019050919050565b60008160601b9050919050565b6000611510826114f8565b9050919050565b600061152282611505565b9050919050565b61153a6115358261110d565b611517565b82525050565b7f20656c696d696e61646100000000000000000000000000000000000000000000600082015250565b6000611576600a836114a1565b915061158182611540565b600a82019050919050565b6000611597826114d5565b91506115a38284611529565b6014820191506115b282611569565b915081905092915050565b600081519050919050565b60005b838110156115e65780820151818401526020810190506115cb565b838111156115f5576000848401525b50505050565b6000601f19601f8301169050919050565b6000611617826115bd565b611621818561134c565b93506116318185602086016115c8565b61163a816115fb565b840191505092915050565b6000602082019050818103600083015261165f818461160c565b905092915050565b7f4170756573746120696e737566696369656e7465000000000000000000000000600082015250565b600061169d60148361134c565b91506116a882611667565b602082019050919050565b600060208201905081810360008301526116cc81611690565b9050919050565b7f4170756573746120796120616365707461646100000000000000000000000000600082015250565b600061170960138361134c565b9150611714826116d3565b602082019050919050565b60006020820190508181036000830152611738816116fc565b9050919050565b6000819050919050565b600061176461175f61175a846110ed565b61173f565b6110ed565b9050919050565b600061177682611749565b9050919050565b60006117888261176b565b9050919050565b6117988161177d565b82525050565b60006040820190506117b3600083018561178f565b6117c060208301846111e2565b9392505050565b60006117d2826110ed565b9050919050565b60006117e482611505565b9050919050565b6117fc6117f7826117c7565b6117d9565b82525050565b7f20686120616365707461646f206c612061707565737461206465200000000000600082015250565b6000611838601b836114a1565b915061184382611802565b601b82019050919050565b600061185a82856117eb565b6014820191506118698261182b565b915061187582846117eb565b6014820191508190509392505050565b7f4f776e61626c653a2063616c6c6572206973206e6f7420746865206f776e6572600082015250565b60006118bb60208361134c565b91506118c682611885565b602082019050919050565b600060208201905081810360008301526118ea816118ae565b9050919050565b7f4e6f207061727469636970617320656e20657374612061707565737461000000600082015250565b6000611927601d8361134c565b9150611932826118f1565b602082019050919050565b600060208201905081810360008301526119568161191a565b9050919050565b7f2072657375656c74610000000000000000000000000000000000000000000000600082015250565b60006119936009836114a1565b915061199e8261195d565b600982019050919050565b60006119b4826114d5565b91506119c08284611529565b6014820191506119cf82611986565b915081905092915050565b7f4f776e61626c653a206e6577206f776e657220697320746865207a65726f206160008201527f6464726573730000000000000000000000000000000000000000000000000000602082015250565b6000611a3660268361134c565b9150611a41826119da565b604082019050919050565b60006020820190508181036000830152611a6581611a29565b905091905056fea2646970667358221220a483da035dfc9b8f28f8349f959d32dc065bd7b6b2778c75f33328cf6b3bf08564736f6c634300080e0033a26469706673582212204dc48a31855ac39fa1a8f8ba31a9d61cba48fbba0922954eab599dde930e8dfe64736f6c634300080e0033",
  "immutableReferences": {},
  "source": "/**\r\n *Submitted for verification at Etherscan.io on 2022-04-22\r\n */\r\n\r\n// Version de solidity del Smart Contract\r\n// SPDX-License-Identifier: UNLICENSED\r\n\r\npragma solidity 0.8.14;\r\nimport \"./IFather.sol\";\r\nimport \"./Bet2Peer.sol\";\r\nimport \"./BetStorage.sol\";\r\nimport \"../client/node_modules/@openzeppelin/contracts/access/Ownable.sol\";\r\n\r\n// Informacion del Smart Contract\r\n// Nombre: Creador de Apuestas\r\n// Logica: Implementa la creacin de contratos\r\n\r\n// Declaracion del Smart Contract - Auction\r\ncontract Father is IFather, Ownable{\r\n\r\n    // ----------- Variables (datos) -----------\r\n    //Contrato hijo\r\n    Bet2Peer public bet;\r\n    \r\n    BetStorage _betStorage;\r\n   \r\n    // ----------- Events -----------\r\n    event Status(string _message);\r\n\r\n    // ------------Modifiers ----------\r\n    modifier contractActive() {\r\n        require(_betStorage.isContractActive(), \"Sorry, contract disabled\");\r\n        _;\r\n    }\r\n\r\n    //set the address of the storage contract that this contract should user\r\n    //all functions will read and write data to this contract\r\n    function setStorageContract(address _storageAddress) public {\r\n        _betStorage = BetStorage(_storageAddress);    \r\n    }\r\n\r\n\r\n    // -------------------Functions ------------------\r\n    /**\r\n    Funcion\r\n    Funcin lanzada para cear una nueva apuesta\r\n    _matchId: id del partido de la apuesta\r\n    _result: resultado al que se apuesta\r\n    _originalBet: cantidad apostada\r\n    _minimumCounterBet: cantidad a percibir en caso de ganar\r\n     */\r\n    function createBet(uint256 _matchId, uint8 _result, uint256 _originalBet, uint256 _minimumCounterBet) override external payable \r\n        contractActive\r\n    {\r\n         //Creo un nuevo contrato hijo para la apuesta\r\n        bet = new Bet2Peer(tx.origin, _matchId, _result, _originalBet, _minimumCounterBet, address(this));\r\n        // address contractAddress = address(bet);\r\n        address payable payableContractAddress = payable(address(bet));\r\n        // address payable payableContractAddress = address(uint160(contractAddress));\r\n        payableContractAddress.transfer(msg.value);\r\n\r\n        // payable(bet).transfer(msg.value);\r\n        //Aado la direccin del contrato a los mapas del usuario y del partido\r\n        _betStorage.pushContractsByUser(tx.origin, bet.getContractAddress());\r\n        _betStorage.pushContractsByMatchId(_matchId, bet.getContractAddress());\r\n                       \r\n        emit Status(\"Bet created\");\r\n    }  \r\n\r\n    /**\r\n    Funcin para eliminar una apuesta\r\n    _contracto: direccin de la apuesta que se quiere eliminar\r\n    _matchId: id del partido de la apuesta\r\n     */\r\n    function removeBet(address payable _contract) override external \r\n        contractActive\r\n    {\r\n        //Asigno a la variable bet el contrato hijo en cuestin\r\n        bet = Bet2Peer(_contract);\r\n        require(bet.getOriginalOwner() == tx.origin, \"No eres el creador de esta apuesta\");\r\n        //si el contrato se desactiva correctamente elimino el address de los arrays\r\n        if(bet.removeBet(tx.origin)){\r\n            //busco el index del contrato en los arrays del usurio y partido\r\n            uint256 _userContractIndex = indexOf(_betStorage.getContractsByUser(tx.origin), _contract);\r\n            uint256 _matchContractIndex = indexOf(_betStorage.getContractsByMatchId(bet.getMatchId()), _contract);\r\n            _betStorage.removeBetFromUser(tx.origin, _userContractIndex);\r\n            _betStorage.removeBetFromMatchId(bet.getMatchId(), _matchContractIndex);\r\n        }\r\n\r\n    }\r\n\r\n    /**\r\n    Funcin para resolver apuesta\r\n    _contracto: direccin de la apuesta que se quiere resolver\r\n     */\r\n    function resolveBet(address payable _contract) override external\r\n        contractActive\r\n    {\r\n        //Asigno a la variable bet el contrato hijo en cuestin\r\n        bet = Bet2Peer(_contract);\r\n\r\n        //si el contrato se desactiva correctamente elimino el address de los arrays\r\n        if(bet.resolveBet(tx.origin)){\r\n            //busco el index del contrato en los arrays del usurio y partido\r\n            address originalOwner = bet.getOriginalOwner();\r\n            address counterGambler = bet.getCounterGambler();\r\n            uint256 _originalOwnerContractIndex = indexOf(_betStorage.getContractsByUser(originalOwner), _contract);\r\n            uint256 _counterGamblerContractIndex = indexOf(_betStorage.getContractsByUser(counterGambler), _contract);\r\n            uint256 _matchContractIndex = indexOf(_betStorage.getContractsByMatchId(bet.getMatchId()), _contract);\r\n            _betStorage.removeBetFromUser(originalOwner, _originalOwnerContractIndex);\r\n            _betStorage.removeBetFromUser(counterGambler, _counterGamblerContractIndex);\r\n            _betStorage.removeBetFromMatchId(bet.getMatchId(), _matchContractIndex);\r\n        }\r\n    }\r\n    \r\n    function addBetToCounterGambler(address counterGambler, address _sonContract) override external payable{\r\n        _betStorage.pushContractsByUser(counterGambler, _sonContract);\r\n    }\r\n\r\n    /**\r\n    Funcin que devuelve todos los contratos(apuestas) creadas por un usuario\r\n    _user: direccin del usuario del que se muestran las apuestas\r\n     */\r\n    function getAllBetsByUser(address _user) override external view returns (address[] memory){\r\n        return _betStorage.getAllBetsByUser(_user);\r\n    }\r\n\r\n    /**\r\n    Funcin que devuelve todos los contratos(apuetas) creadas para un partido concreto\r\n    _matchId: id del partido del que se muestran las apuestas\r\n     */\r\n    function getAllBetsByMatchId(uint256 _matchId) override external view returns (address[] memory){\r\n        return _betStorage.getAllBetsByMatchId(_matchId);\r\n    }\r\n    \r\n    /**\r\n    Funcin que devuelve la posicin de un elemento de un array\r\n    _arr: array en el que se busca el elemento\r\n    _searchFor: elemento que se busca\r\n     */\r\n    function indexOf(address[] memory _arr, address _searchFor) private pure returns (uint256) {\r\n        for (uint256 i = 0; i < _arr.length; i++) {\r\n        if (_arr[i] == _searchFor) {\r\n            return i;\r\n        }\r\n        }\r\n        revert(\"Not Found\");\r\n    }\r\n\r\n    //*********** PANIC FUNCTIONS ************\r\n    //Vailda si el contrato est activo    \r\n    function isActive() override external view returns (bool){\r\n        return _betStorage.isActive();\r\n    }\r\n\r\n    function version() override external pure returns (string memory){\r\n        return \"v1.0\";\r\n    }\r\n}",
  "sourcePath": "C:\\Desarrollo\\Master Blokchain\\bet2peer\\contracts\\Father.sol",
  "compiler": {
    "name": "solc",
    "version": "0.8.14+commit.80d49f37.Emscripten.clang"
  },
  "schemaVersion": "3.4.7",
  "updatedAt": "2022-07-07T15:27:31.056Z",
  "networkType": "ethereum",
  "devdoc": {
    "kind": "dev",
    "methods": {
      "owner()": {
        "details": "Returns the address of the current owner."
      },
      "renounceOwnership()": {
        "details": "Leaves the contract without owner. It will not be possible to call `onlyOwner` functions anymore. Can only be called by the current owner. NOTE: Renouncing ownership will leave the contract without an owner, thereby removing any functionality that is only available to the owner."
      },
      "transferOwnership(address)": {
        "details": "Transfers ownership of the contract to a new account (`newOwner`). Can only be called by the current owner."
      }
    },
    "version": 1
  },
  "userdoc": {
    "kind": "user",
    "methods": {
      "createBet(uint256,uint8,uint256,uint256)": {
        "notice": "Funcion Funcin lanzada para cear una nueva apuesta _matchId: id del partido de la apuesta _result: resultado al que se apuesta _originalBet: cantidad apostada _minimumCounterBet: cantidad a percibir en caso de ganar"
      },
      "getAllBetsByMatchId(uint256)": {
        "notice": "Funcin que devuelve todos los contratos(apuetas) creadas para un partido concreto _matchId: id del partido del que se muestran las apuestas"
      },
      "getAllBetsByUser(address)": {
        "notice": "Funcin que devuelve todos los contratos(apuestas) creadas por un usuario _user: direccin del usuario del que se muestran las apuestas"
      },
      "removeBet(address)": {
        "notice": "Funcin para eliminar una apuesta _contracto: direccin de la apuesta que se quiere eliminar _matchId: id del partido de la apuesta"
      },
      "resolveBet(address)": {
        "notice": "Funcin para resolver apuesta _contracto: direccin de la apuesta que se quiere resolver"
      }
    },
    "version": 1
  }
}