{
  "contractName": "Father",
  "abi": [
    {
      "inputs": [],
      "stateMutability": "nonpayable",
      "type": "constructor"
    },
    {
      "anonymous": false,
      "inputs": [
        {
          "indexed": false,
          "internalType": "string",
          "name": "_message",
          "type": "string"
        }
      ],
      "name": "Status",
      "type": "event"
    },
    {
      "inputs": [],
      "name": "bet",
      "outputs": [
        {
          "internalType": "contract Bet2Peer",
          "name": "",
          "type": "address"
        }
      ],
      "stateMutability": "view",
      "type": "function",
      "constant": true
    },
    {
      "inputs": [
        {
          "internalType": "uint256",
          "name": "_matchId",
          "type": "uint256"
        },
        {
          "internalType": "uint8",
          "name": "_result",
          "type": "uint8"
        },
        {
          "internalType": "uint256",
          "name": "_originalBet",
          "type": "uint256"
        },
        {
          "internalType": "uint8",
          "name": "_minimumCounterBet",
          "type": "uint8"
        }
      ],
      "name": "createBet",
      "outputs": [],
      "stateMutability": "payable",
      "type": "function",
      "payable": true
    },
    {
      "inputs": [
        {
          "internalType": "address",
          "name": "_contract",
          "type": "address"
        }
      ],
      "name": "removeBet",
      "outputs": [],
      "stateMutability": "nonpayable",
      "type": "function"
    },
    {
      "inputs": [
        {
          "internalType": "address",
          "name": "_user",
          "type": "address"
        }
      ],
      "name": "getAllBetsByUser",
      "outputs": [
        {
          "internalType": "address[]",
          "name": "",
          "type": "address[]"
        }
      ],
      "stateMutability": "view",
      "type": "function",
      "constant": true
    },
    {
      "inputs": [
        {
          "internalType": "uint256",
          "name": "_matchId",
          "type": "uint256"
        }
      ],
      "name": "getAllBetsByMatchId",
      "outputs": [
        {
          "internalType": "address[]",
          "name": "",
          "type": "address[]"
        }
      ],
      "stateMutability": "view",
      "type": "function",
      "constant": true
    },
    {
      "inputs": [],
      "name": "isActive",
      "outputs": [
        {
          "internalType": "bool",
          "name": "",
          "type": "bool"
        }
      ],
      "stateMutability": "view",
      "type": "function",
      "constant": true
    },
    {
      "inputs": [],
      "name": "stopContract",
      "outputs": [],
      "stateMutability": "nonpayable",
      "type": "function"
    }
  ],
  "bytecode": "0x608060405234801561001057600080fd5b5033600160006101000a81548173ffffffffffffffffffffffffffffffffffffffff021916908373ffffffffffffffffffffffffffffffffffffffff1602179055506001600560006101000a81548160ff0219169083151502179055506135798061007c6000396000f3fe6080604052600436106200007a5760003560e01c806322f3e2d4116200005557806322f3e2d414620000f757806356a6e68f1462000127578063c407f09b146200016b578063cfb43e9d14620001af576200007a565b806306011b21146200007f57806311610c2514620000ad57806312253a6c14620000dd575b600080fd5b3480156200008c57600080fd5b50620000ab6004803603810190620000a5919062000eff565b620001cf565b005b348015620000ba57600080fd5b50620000c56200077b565b604051620000d4919062000f9c565b60405180910390f35b348015620000ea57600080fd5b50620000f56200079f565b005b3480156200010457600080fd5b506200010f620008f0565b6040516200011e919062000fd6565b60405180910390f35b3480156200013457600080fd5b506200015360048036038101906200014d91906200102e565b62000907565b6040516200016291906200112e565b60405180910390f35b3480156200017857600080fd5b5062000197600480360381019062000191919062000eff565b620009aa565b604051620001a691906200112e565b60405180910390f35b620001cd6004803603810190620001c7919062001190565b62000a79565b005b600560009054906101000a900460ff1662000221576040517f08c379a0000000000000000000000000000000000000000000000000000000008152600401620002189062001263565b60405180910390fd5b806000806101000a81548173ffffffffffffffffffffffffffffffffffffffff021916908373ffffffffffffffffffffffffffffffffffffffff1602179055503373ffffffffffffffffffffffffffffffffffffffff1660008054906101000a900473ffffffffffffffffffffffffffffffffffffffff1673ffffffffffffffffffffffffffffffffffffffff1663ad9136336040518163ffffffff1660e01b8152600401602060405180830381865afa158015620002e4573d6000803e3d6000fd5b505050506040513d601f19601f820116820180604052508101906200030a91906200129c565b73ffffffffffffffffffffffffffffffffffffffff161462000363576040517f08c379a00000000000000000000000000000000000000000000000000000000081526004016200035a9062001344565b60405180910390fd5b600062000436600260003373ffffffffffffffffffffffffffffffffffffffff1673ffffffffffffffffffffffffffffffffffffffff1681526020019081526020016000208054806020026020016040519081016040528092919081815260200182805480156200042a57602002820191906000526020600020905b8160009054906101000a900473ffffffffffffffffffffffffffffffffffffffff1673ffffffffffffffffffffffffffffffffffffffff1681526020019060010190808311620003df575b50505050508362000dc0565b9050600062000571600360008060009054906101000a900473ffffffffffffffffffffffffffffffffffffffff1673ffffffffffffffffffffffffffffffffffffffff1663153dc1826040518163ffffffff1660e01b8152600401602060405180830381865afa158015620004af573d6000803e3d6000fd5b505050506040513d601f19601f82011682018060405250810190620004d591906200137d565b81526020019081526020016000208054806020026020016040519081016040528092919081815260200182805480156200056557602002820191906000526020600020905b8160009054906101000a900473ffffffffffffffffffffffffffffffffffffffff1673ffffffffffffffffffffffffffffffffffffffff16815260200190600101908083116200051a575b50505050508462000dc0565b905060008054906101000a900473ffffffffffffffffffffffffffffffffffffffff1673ffffffffffffffffffffffffffffffffffffffff1663fc884bff6040518163ffffffff1660e01b81526004016020604051808303816000875af1158015620005e1573d6000803e3d6000fd5b505050506040513d601f19601f82011682018060405250810190620006079190620013e0565b156200077657600260003373ffffffffffffffffffffffffffffffffffffffff1673ffffffffffffffffffffffffffffffffffffffff168152602001908152602001600020828154811062000661576200066062001412565b5b9060005260206000200160006101000a81549073ffffffffffffffffffffffffffffffffffffffff0219169055600360008060009054906101000a900473ffffffffffffffffffffffffffffffffffffffff1673ffffffffffffffffffffffffffffffffffffffff1663153dc1826040518163ffffffff1660e01b8152600401602060405180830381865afa158015620006ff573d6000803e3d6000fd5b505050506040513d601f19601f820116820180604052508101906200072591906200137d565b8152602001908152602001600020818154811062000748576200074762001412565b5b9060005260206000200160006101000a81549073ffffffffffffffffffffffffffffffffffffffff02191690555b505050565b60008054906101000a900473ffffffffffffffffffffffffffffffffffffffff1681565b600160009054906101000a900473ffffffffffffffffffffffffffffffffffffffff1673ffffffffffffffffffffffffffffffffffffffff163373ffffffffffffffffffffffffffffffffffffffff161462000832576040517f08c379a0000000000000000000000000000000000000000000000000000000008152600401620008299062001491565b60405180910390fd5b6000600560006101000a81548160ff021916908315150217905550600160009054906101000a900473ffffffffffffffffffffffffffffffffffffffff1673ffffffffffffffffffffffffffffffffffffffff166108fc479081150290604051600060405180830381858888f19350505050158015620008b6573d6000803e3d6000fd5b507f2844c95bf1b4598da931d527f903501abc60fe0199c65da52d5ce818c6c5e961604051620008e69062001503565b60405180910390a1565b6000600560009054906101000a900460ff16905090565b6060600360008381526020019081526020016000208054806020026020016040519081016040528092919081815260200182805480156200099e57602002820191906000526020600020905b8160009054906101000a900473ffffffffffffffffffffffffffffffffffffffff1673ffffffffffffffffffffffffffffffffffffffff168152602001906001019080831162000953575b50505050509050919050565b6060600260008373ffffffffffffffffffffffffffffffffffffffff1673ffffffffffffffffffffffffffffffffffffffff16815260200190815260200160002080548060200260200160405190810160405280929190818152602001828054801562000a6d57602002820191906000526020600020905b8160009054906101000a900473ffffffffffffffffffffffffffffffffffffffff1673ffffffffffffffffffffffffffffffffffffffff168152602001906001019080831162000a22575b50505050509050919050565b600560009054906101000a900460ff1662000acb576040517f08c379a000000000000000000000000000000000000000000000000000000000815260040162000ac29062001263565b60405180910390fd5b33848484843060405162000adf9062000e87565b62000af09695949392919062001591565b604051809103906000f08015801562000b0d573d6000803e3d6000fd5b506000806101000a81548173ffffffffffffffffffffffffffffffffffffffff021916908373ffffffffffffffffffffffffffffffffffffffff160217905550600260003373ffffffffffffffffffffffffffffffffffffffff1673ffffffffffffffffffffffffffffffffffffffff16815260200190815260200160002060008054906101000a900473ffffffffffffffffffffffffffffffffffffffff1673ffffffffffffffffffffffffffffffffffffffff166332a2c5d06040518163ffffffff1660e01b8152600401602060405180830381865afa15801562000bf8573d6000803e3d6000fd5b505050506040513d601f19601f8201168201806040525081019062000c1e91906200129c565b9080600181540180825580915050600190039060005260206000200160009091909190916101000a81548173ffffffffffffffffffffffffffffffffffffffff021916908373ffffffffffffffffffffffffffffffffffffffff1602179055506003600085815260200190815260200160002060008054906101000a900473ffffffffffffffffffffffffffffffffffffffff1673ffffffffffffffffffffffffffffffffffffffff166332a2c5d06040518163ffffffff1660e01b8152600401602060405180830381865afa15801562000cfd573d6000803e3d6000fd5b505050506040513d601f19601f8201168201806040525081019062000d2391906200129c565b9080600181540180825580915050600190039060005260206000200160009091909190916101000a81548173ffffffffffffffffffffffffffffffffffffffff021916908373ffffffffffffffffffffffffffffffffffffffff1602179055507f2844c95bf1b4598da931d527f903501abc60fe0199c65da52d5ce818c6c5e96160405162000db2906200164e565b60405180910390a150505050565b600080600090505b835181101562000e43578273ffffffffffffffffffffffffffffffffffffffff1684828151811062000dff5762000dfe62001412565b5b602002602001015173ffffffffffffffffffffffffffffffffffffffff160362000e2d578091505062000e81565b808062000e3a906200169f565b91505062000dc8565b506040517f08c379a000000000000000000000000000000000000000000000000000000000815260040162000e78906200173c565b60405180910390fd5b92915050565b611de5806200175f83390190565b600080fd5b600073ffffffffffffffffffffffffffffffffffffffff82169050919050565b600062000ec78262000e9a565b9050919050565b62000ed98162000eba565b811462000ee557600080fd5b50565b60008135905062000ef98162000ece565b92915050565b60006020828403121562000f185762000f1762000e95565b5b600062000f288482850162000ee8565b91505092915050565b6000819050919050565b600062000f5c62000f5662000f508462000e9a565b62000f31565b62000e9a565b9050919050565b600062000f708262000f3b565b9050919050565b600062000f848262000f63565b9050919050565b62000f968162000f77565b82525050565b600060208201905062000fb3600083018462000f8b565b92915050565b60008115159050919050565b62000fd08162000fb9565b82525050565b600060208201905062000fed600083018462000fc5565b92915050565b6000819050919050565b620010088162000ff3565b81146200101457600080fd5b50565b600081359050620010288162000ffd565b92915050565b60006020828403121562001047576200104662000e95565b5b6000620010578482850162001017565b91505092915050565b600081519050919050565b600082825260208201905092915050565b6000819050602082019050919050565b620010978162000eba565b82525050565b6000620010ab83836200108c565b60208301905092915050565b6000602082019050919050565b6000620010d18262001060565b620010dd81856200106b565b9350620010ea836200107c565b8060005b83811015620011215781516200110588826200109d565b97506200111283620010b7565b925050600181019050620010ee565b5085935050505092915050565b600060208201905081810360008301526200114a8184620010c4565b905092915050565b600060ff82169050919050565b6200116a8162001152565b81146200117657600080fd5b50565b6000813590506200118a816200115f565b92915050565b60008060008060808587031215620011ad57620011ac62000e95565b5b6000620011bd8782880162001017565b9450506020620011d08782880162001179565b9350506040620011e38782880162001017565b9250506060620011f68782880162001179565b91505092959194509250565b600082825260208201905092915050565b7f536f7272792c20636f6e74726163742064697361626c65640000000000000000600082015250565b60006200124b60188362001202565b9150620012588262001213565b602082019050919050565b600060208201905081810360008301526200127e816200123c565b9050919050565b600081519050620012968162000ece565b92915050565b600060208284031215620012b557620012b462000e95565b5b6000620012c58482850162001285565b91505092915050565b7f4e6f206572657320656c2063726561646f72206465206573746120617075657360008201527f7461000000000000000000000000000000000000000000000000000000000000602082015250565b60006200132c60228362001202565b91506200133982620012ce565b604082019050919050565b600060208201905081810360008301526200135f816200131d565b9050919050565b600081519050620013778162000ffd565b92915050565b60006020828403121562001396576200139562000e95565b5b6000620013a68482850162001366565b91505092915050565b620013ba8162000fb9565b8114620013c657600080fd5b50565b600081519050620013da81620013af565b92915050565b600060208284031215620013f957620013f862000e95565b5b60006200140984828501620013c9565b91505092915050565b7f4e487b7100000000000000000000000000000000000000000000000000000000600052603260045260246000fd5b7f596f75206d75737420626520746865206f726967696e616c204f574e45520000600082015250565b600062001479601e8362001202565b9150620014868262001441565b602082019050919050565b60006020820190508181036000830152620014ac816200146a565b9050919050565b7f456c20636f6e747261746f2073652068612070617261646f0000000000000000600082015250565b6000620014eb60188362001202565b9150620014f882620014b3565b602082019050919050565b600060208201905081810360008301526200151e81620014dc565b9050919050565b620015308162000eba565b82525050565b620015418162000ff3565b82525050565b620015528162001152565b82525050565b600062001579620015736200156d8462001152565b62000f31565b62000ff3565b9050919050565b6200158b8162001558565b82525050565b600060c082019050620015a8600083018962001525565b620015b7602083018862001536565b620015c6604083018762001547565b620015d5606083018662001536565b620015e4608083018562001580565b620015f360a083018462001525565b979650505050505050565b7f4265742063726561746564000000000000000000000000000000000000000000600082015250565b600062001636600b8362001202565b91506200164382620015fe565b602082019050919050565b60006020820190508181036000830152620016698162001627565b9050919050565b7f4e487b7100000000000000000000000000000000000000000000000000000000600052601160045260246000fd5b6000620016ac8262000ff3565b91507fffffffffffffffffffffffffffffffffffffffffffffffffffffffffffffffff8203620016e157620016e062001670565b5b600182019050919050565b7f4e6f7420466f756e640000000000000000000000000000000000000000000000600082015250565b60006200172460098362001202565b91506200173182620016ec565b602082019050919050565b60006020820190508181036000830152620017578162001715565b905091905056fe60806040523480156200001157600080fd5b5060405162001de538038062001de58339818101604052810190620000379190620004ea565b620000576200004b6200033b60201b60201c565b6200034360201b60201c565b85600360006101000a81548173ffffffffffffffffffffffffffffffffffffffff021916908373ffffffffffffffffffffffffffffffffffffffff1602179055508460028190555083600460146101000a81548160ff021916908360ff160217905550826005819055508160068190555080600760006101000a81548173ffffffffffffffffffffffffffffffffffffffff021916908373ffffffffffffffffffffffffffffffffffffffff1602179055506001600760146101000a81548160ff02191690831515021790555085600160003073ffffffffffffffffffffffffffffffffffffffff1673ffffffffffffffffffffffffffffffffffffffff16815260200190815260200160002060000160006101000a81548173ffffffffffffffffffffffffffffffffffffffff021916908373ffffffffffffffffffffffffffffffffffffffff16021790555084600160003073ffffffffffffffffffffffffffffffffffffffff1673ffffffffffffffffffffffffffffffffffffffff1681526020019081526020016000206001018190555083600160003073ffffffffffffffffffffffffffffffffffffffff1673ffffffffffffffffffffffffffffffffffffffff16815260200190815260200160002060020160006101000a81548160ff021916908360ff16021790555082600160003073ffffffffffffffffffffffffffffffffffffffff1673ffffffffffffffffffffffffffffffffffffffff1681526020019081526020016000206003018190555081600160003073ffffffffffffffffffffffffffffffffffffffff1673ffffffffffffffffffffffffffffffffffffffff168152602001908152602001600020600401819055507f2844c95bf1b4598da931d527f903501abc60fe0199c65da52d5ce818c6c5e9618560405160200162000309919062000656565b60405160208183030381529060405260405162000327919062000731565b60405180910390a150505050505062000755565b600033905090565b60008060009054906101000a900473ffffffffffffffffffffffffffffffffffffffff169050816000806101000a81548173ffffffffffffffffffffffffffffffffffffffff021916908373ffffffffffffffffffffffffffffffffffffffff1602179055508173ffffffffffffffffffffffffffffffffffffffff168173ffffffffffffffffffffffffffffffffffffffff167f8be0079c531659141344cd1fd0a4f28419497f9722a3daafe3b4186f6b6457e060405160405180910390a35050565b600080fd5b600073ffffffffffffffffffffffffffffffffffffffff82169050919050565b600062000439826200040c565b9050919050565b6200044b816200042c565b81146200045757600080fd5b50565b6000815190506200046b8162000440565b92915050565b6000819050919050565b620004868162000471565b81146200049257600080fd5b50565b600081519050620004a6816200047b565b92915050565b600060ff82169050919050565b620004c481620004ac565b8114620004d057600080fd5b50565b600081519050620004e481620004b9565b92915050565b60008060008060008060c087890312156200050a576200050962000407565b5b60006200051a89828a016200045a565b96505060206200052d89828a0162000495565b95505060406200054089828a01620004d3565b94505060606200055389828a0162000495565b93505060806200056689828a0162000495565b92505060a06200057989828a016200045a565b9150509295509295509295565b600081905092915050565b7f5061727469646f20000000000000000000000000000000000000000000000000600082015250565b6000620005c960088362000586565b9150620005d68262000591565b600882019050919050565b6000819050919050565b62000600620005fa8262000471565b620005e1565b82525050565b7f2063726561646f00000000000000000000000000000000000000000000000000600082015250565b60006200063e60078362000586565b91506200064b8262000606565b600782019050919050565b60006200066382620005ba565b9150620006718284620005eb565b60208201915062000682826200062f565b915081905092915050565b600081519050919050565b600082825260208201905092915050565b60005b83811015620006c9578082015181840152602081019050620006ac565b83811115620006d9576000848401525b50505050565b6000601f19601f8301169050919050565b6000620006fd826200068d565b62000709818562000698565b93506200071b818560208601620006a9565b6200072681620006df565b840191505092915050565b600060208201905081810360008301526200074d8184620006f0565b905092915050565b61168080620007656000396000f3fe6080604052600436106100a75760003560e01c80638da5cb5b116100645780638da5cb5b146101795780638fced626146101a4578063ad913633146101ae578063e11eb98d146101d9578063f2fde38b1461021a578063fc884bff14610243576100a7565b8063153dc182146100ac5780632c70444e146100d757806330bfcb5f1461010257806332a2c5d01461010c578063715018a6146101375780637cc1f8671461014e575b600080fd5b3480156100b857600080fd5b506100c1610261565b6040516100ce9190610df4565b60405180910390f35b3480156100e357600080fd5b506100ec61026b565b6040516100f99190610df4565b60405180910390f35b61010a610271565b005b34801561011857600080fd5b5061012161044d565b60405161012e9190610e50565b60405180910390f35b34801561014357600080fd5b5061014c6104d1565b005b34801561015a57600080fd5b50610163610559565b6040516101709190610f0d565b60405180910390f35b34801561018557600080fd5b5061018e610641565b60405161019b9190610e50565b60405180910390f35b6101ac61066a565b005b3480156101ba57600080fd5b506101c3610928565b6040516101d09190610e50565b60405180910390f35b3480156101e557600080fd5b5061020060048036038101906101fb9190610f59565b610952565b604051610211959493929190610f95565b60405180910390f35b34801561022657600080fd5b50610241600480360381019061023c9190610f59565b6109b5565b005b61024b610aac565b6040516102589190611003565b60405180910390f35b6000600254905090565b60025481565b600760149054906101000a900460ff166102c0576040517f08c379a00000000000000000000000000000000000000000000000000000000081526004016102b79061107b565b60405180910390fd5b600654341015610305576040517f08c379a00000000000000000000000000000000000000000000000000000000081526004016102fc906110e7565b60405180910390fd5b33600460006101000a81548173ffffffffffffffffffffffffffffffffffffffff021916908373ffffffffffffffffffffffffffffffffffffffff160217905550600460009054906101000a900473ffffffffffffffffffffffffffffffffffffffff1673ffffffffffffffffffffffffffffffffffffffff166108fc349081150290604051600060405180830381858888f193505050501580156103ae573d6000803e3d6000fd5b507f2844c95bf1b4598da931d527f903501abc60fe0199c65da52d5ce818c6c5e961600460009054906101000a900473ffffffffffffffffffffffffffffffffffffffff16600360009054906101000a900473ffffffffffffffffffffffffffffffffffffffff166040516020016104279291906111b8565b6040516020818303038152906040526040516104439190611277565b60405180910390a1565b6000610457610cc7565b73ffffffffffffffffffffffffffffffffffffffff16610475610641565b73ffffffffffffffffffffffffffffffffffffffff16146104cb576040517f08c379a00000000000000000000000000000000000000000000000000000000081526004016104c2906112e5565b60405180910390fd5b30905090565b6104d9610cc7565b73ffffffffffffffffffffffffffffffffffffffff166104f7610641565b73ffffffffffffffffffffffffffffffffffffffff161461054d576040517f08c379a0000000000000000000000000000000000000000000000000000000008152600401610544906112e5565b60405180910390fd5b6105576000610ccf565b565b610561610d93565b600160003073ffffffffffffffffffffffffffffffffffffffff1673ffffffffffffffffffffffffffffffffffffffff1681526020019081526020016000206040518060a00160405290816000820160009054906101000a900473ffffffffffffffffffffffffffffffffffffffff1673ffffffffffffffffffffffffffffffffffffffff1673ffffffffffffffffffffffffffffffffffffffff168152602001600182015481526020016002820160009054906101000a900460ff1660ff1660ff16815260200160038201548152602001600482015481525050905090565b60008060009054906101000a900473ffffffffffffffffffffffffffffffffffffffff16905090565b33600360009054906101000a900473ffffffffffffffffffffffffffffffffffffffff1673ffffffffffffffffffffffffffffffffffffffff168173ffffffffffffffffffffffffffffffffffffffff1614806107145750600460009054906101000a900473ffffffffffffffffffffffffffffffffffffffff1673ffffffffffffffffffffffffffffffffffffffff168173ffffffffffffffffffffffffffffffffffffffff16145b610753576040517f08c379a000000000000000000000000000000000000000000000000000000000815260040161074a90611351565b60405180910390fd5b600760149054906101000a900460ff166107a2576040517f08c379a00000000000000000000000000000000000000000000000000000000081526004016107999061107b565b60405180910390fd5b600760159054906101000a900460ff166107bb57600080fd5b6001600460149054906101000a900460ff1660ff160361084357600360009054906101000a900473ffffffffffffffffffffffffffffffffffffffff1673ffffffffffffffffffffffffffffffffffffffff166108fc479081150290604051600060405180830381858888f1935050505015801561083d573d6000803e3d6000fd5b506108ad565b600460009054906101000a900473ffffffffffffffffffffffffffffffffffffffff1673ffffffffffffffffffffffffffffffffffffffff166108fc479081150290604051600060405180830381858888f193505050501580156108ab573d6000803e3d6000fd5b505b6000600760146101000a81548160ff0219169083151502179055507f2844c95bf1b4598da931d527f903501abc60fe0199c65da52d5ce818c6c5e9616108f161044d565b6040516020016109019190611432565b60405160208183030381529060405260405161091d9190611277565b60405180910390a150565b6000600360009054906101000a900473ffffffffffffffffffffffffffffffffffffffff16905090565b60016020528060005260406000206000915090508060000160009054906101000a900473ffffffffffffffffffffffffffffffffffffffff16908060010154908060020160009054906101000a900460ff16908060030154908060040154905085565b6109bd610cc7565b73ffffffffffffffffffffffffffffffffffffffff166109db610641565b73ffffffffffffffffffffffffffffffffffffffff1614610a31576040517f08c379a0000000000000000000000000000000000000000000000000000000008152600401610a28906112e5565b60405180910390fd5b600073ffffffffffffffffffffffffffffffffffffffff168173ffffffffffffffffffffffffffffffffffffffff1603610aa0576040517f08c379a0000000000000000000000000000000000000000000000000000000008152600401610a97906114d5565b60405180910390fd5b610aa981610ccf565b50565b600033600360009054906101000a900473ffffffffffffffffffffffffffffffffffffffff1673ffffffffffffffffffffffffffffffffffffffff168173ffffffffffffffffffffffffffffffffffffffff1614610b3f576040517f08c379a0000000000000000000000000000000000000000000000000000000008152600401610b3690611541565b60405180910390fd5b600760149054906101000a900460ff16610b8e576040517f08c379a0000000000000000000000000000000000000000000000000000000008152600401610b859061107b565b60405180910390fd5b600760159054906101000a900460ff1615610bde576040517f08c379a0000000000000000000000000000000000000000000000000000000008152600401610bd5906115ad565b60405180910390fd5b600360009054906101000a900473ffffffffffffffffffffffffffffffffffffffff1673ffffffffffffffffffffffffffffffffffffffff166108fc479081150290604051600060405180830381858888f19350505050158015610c46573d6000803e3d6000fd5b506000600760146101000a81548160ff0219169083151502179055507f2844c95bf1b4598da931d527f903501abc60fe0199c65da52d5ce818c6c5e961610c8b61044d565b604051602001610c9b9190611619565b604051602081830303815290604052604051610cb79190611277565b60405180910390a1600191505090565b600033905090565b60008060009054906101000a900473ffffffffffffffffffffffffffffffffffffffff169050816000806101000a81548173ffffffffffffffffffffffffffffffffffffffff021916908373ffffffffffffffffffffffffffffffffffffffff1602179055508173ffffffffffffffffffffffffffffffffffffffff168173ffffffffffffffffffffffffffffffffffffffff167f8be0079c531659141344cd1fd0a4f28419497f9722a3daafe3b4186f6b6457e060405160405180910390a35050565b6040518060a00160405280600073ffffffffffffffffffffffffffffffffffffffff16815260200160008152602001600060ff16815260200160008152602001600081525090565b6000819050919050565b610dee81610ddb565b82525050565b6000602082019050610e096000830184610de5565b92915050565b600073ffffffffffffffffffffffffffffffffffffffff82169050919050565b6000610e3a82610e0f565b9050919050565b610e4a81610e2f565b82525050565b6000602082019050610e656000830184610e41565b92915050565b610e7481610e2f565b82525050565b610e8381610ddb565b82525050565b600060ff82169050919050565b610e9f81610e89565b82525050565b60a082016000820151610ebb6000850182610e6b565b506020820151610ece6020850182610e7a565b506040820151610ee16040850182610e96565b506060820151610ef46060850182610e7a565b506080820151610f076080850182610e7a565b50505050565b600060a082019050610f226000830184610ea5565b92915050565b600080fd5b610f3681610e2f565b8114610f4157600080fd5b50565b600081359050610f5381610f2d565b92915050565b600060208284031215610f6f57610f6e610f28565b5b6000610f7d84828501610f44565b91505092915050565b610f8f81610e89565b82525050565b600060a082019050610faa6000830188610e41565b610fb76020830187610de5565b610fc46040830186610f86565b610fd16060830185610de5565b610fde6080830184610de5565b9695505050505050565b60008115159050919050565b610ffd81610fe8565b82525050565b60006020820190506110186000830184610ff4565b92915050565b600082825260208201905092915050565b7f457374612061707565737461206e6f2065737461206163746976610000000000600082015250565b6000611065601b8361101e565b91506110708261102f565b602082019050919050565b6000602082019050818103600083015261109481611058565b9050919050565b7f4170756573746120696e737566696369656e7465000000000000000000000000600082015250565b60006110d160148361101e565b91506110dc8261109b565b602082019050919050565b60006020820190508181036000830152611100816110c4565b9050919050565b600061111282610e0f565b9050919050565b60008160601b9050919050565b600061113182611119565b9050919050565b600061114382611126565b9050919050565b61115b61115682611107565b611138565b82525050565b600081905092915050565b7f20686120616365707461646f206c612061707565737461206465200000000000600082015250565b60006111a2601b83611161565b91506111ad8261116c565b601b82019050919050565b60006111c4828561114a565b6014820191506111d382611195565b91506111df828461114a565b6014820191508190509392505050565b600081519050919050565b60005b838110156112185780820151818401526020810190506111fd565b83811115611227576000848401525b50505050565b6000601f19601f8301169050919050565b6000611249826111ef565b611253818561101e565b93506112638185602086016111fa565b61126c8161122d565b840191505092915050565b60006020820190508181036000830152611291818461123e565b905092915050565b7f4f776e61626c653a2063616c6c6572206973206e6f7420746865206f776e6572600082015250565b60006112cf60208361101e565b91506112da82611299565b602082019050919050565b600060208201905081810360008301526112fe816112c2565b9050919050565b7f4e6f207061727469636970617320656e20657374612061707565737461000000600082015250565b600061133b601d8361101e565b915061134682611305565b602082019050919050565b6000602082019050818103600083015261136a8161132e565b9050919050565b7f4170756573746120000000000000000000000000000000000000000000000000600082015250565b60006113a7600883611161565b91506113b282611371565b600882019050919050565b60006113c882611126565b9050919050565b6113e06113db82610e2f565b6113bd565b82525050565b7f2072657375656c74610000000000000000000000000000000000000000000000600082015250565b600061141c600983611161565b9150611427826113e6565b600982019050919050565b600061143d8261139a565b915061144982846113cf565b6014820191506114588261140f565b915081905092915050565b7f4f776e61626c653a206e6577206f776e657220697320746865207a65726f206160008201527f6464726573730000000000000000000000000000000000000000000000000000602082015250565b60006114bf60268361101e565b91506114ca82611463565b604082019050919050565b600060208201905081810360008301526114ee816114b2565b9050919050565b7f4e6f206572657320656c2063726561646f72206465206c612061707565737461600082015250565b600061152b60208361101e565b9150611536826114f5565b602082019050919050565b6000602082019050818103600083015261155a8161151e565b9050919050565b7f4c612061707565737461207961206861207369646f2061636570746164610000600082015250565b6000611597601e8361101e565b91506115a282611561565b602082019050919050565b600060208201905081810360008301526115c68161158a565b9050919050565b7f20656c696d696e61646100000000000000000000000000000000000000000000600082015250565b6000611603600a83611161565b915061160e826115cd565b600a82019050919050565b60006116248261139a565b915061163082846113cf565b60148201915061163f826115f6565b91508190509291505056fea26469706673582212203ea99ec1748eb8e16c80996fce1b12663aab8a258378f4cb126641b04fd0ba1f64736f6c634300080e0033a2646970667358221220a5acf17bda2829bfcd641d276aaf33b0ed902e428eefe1c62b5ee351a81416a664736f6c634300080e0033",
  "immutableReferences": {},
  "source": "/**\r\n *Submitted for verification at Etherscan.io on 2022-04-22\r\n */\r\n\r\n// Version de solidity del Smart Contract\r\n// SPDX-License-Identifier: UNLICENSED\r\n\r\npragma solidity 0.8.14;\r\nimport \"./Bet2Peer.sol\";\r\nimport \"../client/node_modules/@openzeppelin/contracts/access/Ownable.sol\";\r\n// Informacion del Smart Contract\r\n// Nombre: Creador de Apuestas\r\n// Logica: Implementa la creacin de contratos\r\n\r\n// Declaracion del Smart Contract - Auction\r\ncontract Father {\r\n\r\n    // ----------- Variables (datos) -----------\r\n    //Contrato hijo\r\n    Bet2Peer public bet;\r\n    //direccin del creador de la apuesta\r\n    address payable contractOwner;\r\n\r\n    //mapping de todos los contratos(apuestas) creados por un usuario \r\n    //      usuario     contrato\r\n    mapping(address =>  address[]) private contractsByUser;\r\n    //mapping de todos los contratos(apuestas) creados para un partido concreto\r\n    //      matchId    contrato\r\n    mapping(uint256 => address[]) private contractsByMatchId;\r\n    //mapping de todos los contratos(apuestas) creados por un usuario con su contractId y MatchId\r\n    //      usuario            matchId    contrato\r\n    mapping(address => mapping(uint256 => address[])) private contractsByMatchIdAndUser;\r\n    \r\n    //Estado del contrato\r\n    bool activeContract;\r\n\r\n    // ----------- Events -----------\r\n    event Status(string _message);\r\n\r\n    // ------------Modifiers ----------\r\n    modifier contractActive() {\r\n        require(activeContract, \"Sorry, contract disabled\");\r\n        _;\r\n    }\r\n\r\n    // ----------- Constructor -----------\r\n    // Uso: Inicializa el Smart Contract - Father\r\n    constructor() {\r\n        contractOwner = payable(msg.sender);\r\n        activeContract = true;\r\n    }\r\n\r\n    // -------------------Functions ------------------\r\n    /**\r\n    Funcion\r\n    Funcin lanzada para cear una nueva apuesta\r\n    _matchId: id del partido de la apuesta\r\n    _result: resultado al que se apuesta\r\n    _originalBet: cantidad apostada\r\n    _minimumCounterBet: cantidad a percibir en caso de ganar\r\n     */\r\n    function createBet(uint256 _matchId, uint8 _result, uint256 _originalBet, uint8 _minimumCounterBet) public payable \r\n        contractActive\r\n    {\r\n        //Creo un nuevo contrato hijo para la apuesta\r\n        bet = new Bet2Peer(msg.sender, _matchId, _result, _originalBet, _minimumCounterBet, address(this));\r\n        //Aado la direccin del contrato a los mapas del usuario y del partido\r\n        contractsByUser[msg.sender].push(bet.getContractAddress());\r\n        contractsByMatchId[_matchId].push(bet.getContractAddress());\r\n        emit Status(\"Bet created\");\r\n    }\r\n\r\n    /**\r\n    Funcin para eliminar una apuesta\r\n    _contracto: direccin de la apuesta que se quiere eliminar\r\n    _matchId: id del partido de la apuesta\r\n     */\r\n    function removeBet(address _contract) public\r\n        contractActive\r\n    {\r\n        //Asigno a la variable bet el contrato hijo en cuestin\r\n        bet = Bet2Peer(_contract);\r\n        require(bet.getOriginalOwner() == msg.sender, \"No eres el creador de esta apuesta\");\r\n        //busco el index del contrato en los arrays del usurio y partido\r\n        uint256 _index = indexOf(contractsByUser[msg.sender], _contract);\r\n        uint256 _index2 = indexOf(contractsByMatchId[bet.getMatchId()], _contract);\r\n        //si el contrato se desactiva correctamente elimino el address de los arrays\r\n        if(bet.removeBet()){\r\n            delete contractsByUser[msg.sender][_index];\r\n            delete contractsByMatchId[bet.getMatchId()][_index2];\r\n        }\r\n    }\r\n\r\n    /**\r\n    Funcin que devuelve todos los contratos(apuestas) creadas por un usuario\r\n    _user: direccin del usuario del que se muestran las apuestas\r\n     */\r\n    function getAllBetsByUser(address _user) public view returns (address[] memory){\r\n        return contractsByUser[_user];\r\n    }\r\n\r\n    /**\r\n    Funcin que devuelve todos los contratos(apuetas) creadas para un partido concreto\r\n    _matchId: id del partido del que se muestran las apuestas\r\n     */\r\n    function getAllBetsByMatchId(uint256 _matchId) public view returns (address[] memory){\r\n        return contractsByMatchId[_matchId];\r\n    }\r\n\r\n    /**\r\n    Funcin que devuelve si el contrato est activo o no\r\n     */\r\n    function isActive() public view returns (bool){\r\n        return (activeContract);\r\n    }\r\n\r\n    /**\r\n    Funcin que devuelve la posicin de un elemento de un array\r\n    _arr: array en el que se busca el elemento\r\n    _searchFor: elemento que se busca\r\n     */\r\n    function indexOf(address[] memory _arr, address _searchFor) private pure returns (uint256) {\r\n    for (uint256 i = 0; i < _arr.length; i++) {\r\n      if (_arr[i] == _searchFor) {\r\n        return i;\r\n      }\r\n    }\r\n    revert(\"Not Found\");\r\n  }\r\n\r\n\r\n////////////////////////////Panic Functions////////////////////////\r\n    // Funcion\r\n    // Nombre: stopContract\r\n    // Uso: pausa el contrato y saca todos los fondos en caso de emergencia\r\n    function stopContract() public {\r\n        require(msg.sender == contractOwner, \"You must be the original OWNER\");\r\n        // Finaliza la subasta\r\n        activeContract = false;\r\n        // Devuelve el dinero al maximo postor\r\n        contractOwner.transfer(address(this).balance);\r\n        \r\n        // Se emite un evento\r\n        emit Status(\"El contrato se ha parado\");\r\n    }\r\n}\r\n",
  "sourcePath": "C:\\Desarrollo\\Master Blokchain\\bet2peer\\contracts\\Father.sol",
  "compiler": {
    "name": "solc",
    "version": "0.8.14+commit.80d49f37.Emscripten.clang"
  },
  "schemaVersion": "3.4.7",
  "updatedAt": "2022-06-17T18:49:30.758Z",
  "networkType": "ethereum",
  "devdoc": {
    "kind": "dev",
    "methods": {},
    "version": 1
  },
  "userdoc": {
    "kind": "user",
    "methods": {
      "createBet(uint256,uint8,uint256,uint8)": {
        "notice": "Funcion Funcin lanzada para cear una nueva apuesta _matchId: id del partido de la apuesta _result: resultado al que se apuesta _originalBet: cantidad apostada _minimumCounterBet: cantidad a percibir en caso de ganar"
      },
      "getAllBetsByMatchId(uint256)": {
        "notice": "Funcin que devuelve todos los contratos(apuetas) creadas para un partido concreto _matchId: id del partido del que se muestran las apuestas"
      },
      "getAllBetsByUser(address)": {
        "notice": "Funcin que devuelve todos los contratos(apuestas) creadas por un usuario _user: direccin del usuario del que se muestran las apuestas"
      },
      "isActive()": {
        "notice": "Funcin que devuelve si el contrato est activo o no"
      },
      "removeBet(address)": {
        "notice": "Funcin para eliminar una apuesta _contracto: direccin de la apuesta que se quiere eliminar _matchId: id del partido de la apuesta"
      }
    },
    "version": 1
  }
}