{
  "contractName": "Father",
  "abi": [
    {
      "inputs": [],
      "stateMutability": "nonpayable",
      "type": "constructor"
    },
    {
      "anonymous": false,
      "inputs": [
        {
          "indexed": false,
          "internalType": "string",
          "name": "_message",
          "type": "string"
        }
      ],
      "name": "Status",
      "type": "event"
    },
    {
      "inputs": [],
      "name": "bet",
      "outputs": [
        {
          "internalType": "contract Bet2Peer",
          "name": "",
          "type": "address"
        }
      ],
      "stateMutability": "view",
      "type": "function",
      "constant": true
    },
    {
      "inputs": [
        {
          "internalType": "uint256",
          "name": "_matchId",
          "type": "uint256"
        },
        {
          "internalType": "uint8",
          "name": "_result",
          "type": "uint8"
        },
        {
          "internalType": "uint256",
          "name": "_originalBet",
          "type": "uint256"
        },
        {
          "internalType": "uint8",
          "name": "_minimumCounterBet",
          "type": "uint8"
        }
      ],
      "name": "createBet",
      "outputs": [],
      "stateMutability": "payable",
      "type": "function",
      "payable": true
    },
    {
      "inputs": [
        {
          "internalType": "address payable",
          "name": "_contract",
          "type": "address"
        }
      ],
      "name": "removeBet",
      "outputs": [],
      "stateMutability": "nonpayable",
      "type": "function"
    },
    {
      "inputs": [
        {
          "internalType": "address",
          "name": "counterGambler",
          "type": "address"
        },
        {
          "internalType": "address",
          "name": "_sonContract",
          "type": "address"
        }
      ],
      "name": "addBetToCounterGambler",
      "outputs": [],
      "stateMutability": "payable",
      "type": "function",
      "payable": true
    },
    {
      "inputs": [
        {
          "internalType": "address",
          "name": "_user",
          "type": "address"
        }
      ],
      "name": "getAllBetsByUser",
      "outputs": [
        {
          "internalType": "address[]",
          "name": "",
          "type": "address[]"
        }
      ],
      "stateMutability": "view",
      "type": "function",
      "constant": true
    },
    {
      "inputs": [
        {
          "internalType": "uint256",
          "name": "_matchId",
          "type": "uint256"
        }
      ],
      "name": "getAllBetsByMatchId",
      "outputs": [
        {
          "internalType": "address[]",
          "name": "",
          "type": "address[]"
        }
      ],
      "stateMutability": "view",
      "type": "function",
      "constant": true
    },
    {
      "inputs": [],
      "name": "isActive",
      "outputs": [
        {
          "internalType": "bool",
          "name": "",
          "type": "bool"
        }
      ],
      "stateMutability": "view",
      "type": "function",
      "constant": true
    },
    {
      "inputs": [
        {
          "internalType": "uint256",
          "name": "_matchId",
          "type": "uint256"
        },
        {
          "internalType": "uint256",
          "name": "_index",
          "type": "uint256"
        }
      ],
      "name": "removeBetFromMatch",
      "outputs": [],
      "stateMutability": "nonpayable",
      "type": "function"
    },
    {
      "inputs": [
        {
          "internalType": "address",
          "name": "_userAddress",
          "type": "address"
        },
        {
          "internalType": "uint256",
          "name": "_index",
          "type": "uint256"
        }
      ],
      "name": "removeBetFromUser",
      "outputs": [],
      "stateMutability": "nonpayable",
      "type": "function"
    },
    {
      "inputs": [],
      "name": "stopContract",
      "outputs": [],
      "stateMutability": "nonpayable",
      "type": "function"
    }
  ],
  "bytecode": "0x608060405234801561001057600080fd5b5033600160006101000a81548173ffffffffffffffffffffffffffffffffffffffff021916908373ffffffffffffffffffffffffffffffffffffffff1602179055506001600560006101000a81548160ff021916908315150217905550613f9a8061007c6000396000f3fe6080604052600436106200009e5760003560e01c8063305fc68d1162000061578063305fc68d146200017957806356a6e68f14620001995780635ca1985a14620001dd578063c407f09b146200020b578063cfb43e9d146200024f576200009e565b806306011b2114620000a357806311610c2514620000d157806311e55361146200010157806312253a6c146200012f57806322f3e2d41462000149575b600080fd5b348015620000b057600080fd5b50620000cf6004803603810190620000c991906200133c565b6200026f565b005b348015620000de57600080fd5b50620000e962000769565b604051620000f89190620013d9565b60405180910390f35b3480156200010e57600080fd5b506200012d600480360381019062000127919062001431565b6200078d565b005b3480156200013c57600080fd5b5062000147620008d3565b005b3480156200015657600080fd5b506200016162000a24565b60405162000170919062001495565b60405180910390f35b620001976004803603810190620001919190620014f7565b62000a3b565b005b348015620001a657600080fd5b50620001c56004803603810190620001bf91906200153e565b62000adf565b604051620001d491906200163e565b60405180910390f35b348015620001ea57600080fd5b5062000209600480360381019062000203919062001662565b62000b82565b005b3480156200021857600080fd5b50620002376004803603810190620002319190620016a9565b62000d78565b6040516200024691906200163e565b60405180910390f35b6200026d600480360381019062000267919062001719565b62000e47565b005b600560009054906101000a900460ff16620002c1576040517f08c379a0000000000000000000000000000000000000000000000000000000008152600401620002b890620017ec565b60405180910390fd5b806000806101000a81548173ffffffffffffffffffffffffffffffffffffffff021916908373ffffffffffffffffffffffffffffffffffffffff1602179055503373ffffffffffffffffffffffffffffffffffffffff1660008054906101000a900473ffffffffffffffffffffffffffffffffffffffff1673ffffffffffffffffffffffffffffffffffffffff1663ad9136336040518163ffffffff1660e01b8152600401602060405180830381865afa15801562000384573d6000803e3d6000fd5b505050506040513d601f19601f82011682018060405250810190620003aa919062001825565b73ffffffffffffffffffffffffffffffffffffffff161462000403576040517f08c379a0000000000000000000000000000000000000000000000000000000008152600401620003fa90620018cd565b60405180910390fd5b6000620004d6600260003373ffffffffffffffffffffffffffffffffffffffff1673ffffffffffffffffffffffffffffffffffffffff168152602001908152602001600020805480602002602001604051908101604052809291908181526020018280548015620004ca57602002820191906000526020600020905b8160009054906101000a900473ffffffffffffffffffffffffffffffffffffffff1673ffffffffffffffffffffffffffffffffffffffff16815260200190600101908083116200047f575b505050505083620011fd565b9050600062000611600360008060009054906101000a900473ffffffffffffffffffffffffffffffffffffffff1673ffffffffffffffffffffffffffffffffffffffff1663153dc1826040518163ffffffff1660e01b8152600401602060405180830381865afa1580156200054f573d6000803e3d6000fd5b505050506040513d601f19601f8201168201806040525081019062000575919062001906565b81526020019081526020016000208054806020026020016040519081016040528092919081815260200182805480156200060557602002820191906000526020600020905b8160009054906101000a900473ffffffffffffffffffffffffffffffffffffffff1673ffffffffffffffffffffffffffffffffffffffff1681526020019060010190808311620005ba575b505050505084620011fd565b905060008054906101000a900473ffffffffffffffffffffffffffffffffffffffff1673ffffffffffffffffffffffffffffffffffffffff166306011b21336040518263ffffffff1660e01b81526004016200066e919062001949565b6020604051808303816000875af11580156200068e573d6000803e3d6000fd5b505050506040513d601f19601f82011682018060405250810190620006b4919062001997565b156200076457620006c6338362000b82565b6200076360008054906101000a900473ffffffffffffffffffffffffffffffffffffffff1673ffffffffffffffffffffffffffffffffffffffff1663153dc1826040518163ffffffff1660e01b8152600401602060405180830381865afa15801562000736573d6000803e3d6000fd5b505050506040513d601f19601f820116820180604052508101906200075c919062001906565b826200078d565b5b505050565b60008054906101000a900473ffffffffffffffffffffffffffffffffffffffff1681565b6003600083815260200190815260200160002060016003600085815260200190815260200160002080549050620007c59190620019f8565b81548110620007d957620007d862001a33565b5b9060005260206000200160009054906101000a900473ffffffffffffffffffffffffffffffffffffffff166003600084815260200190815260200160002082815481106200082c576200082b62001a33565b5b9060005260206000200160006101000a81548173ffffffffffffffffffffffffffffffffffffffff021916908373ffffffffffffffffffffffffffffffffffffffff160217905550600360008381526020019081526020016000208054806200089a576200089962001a62565b5b6001900381819060005260206000200160006101000a81549073ffffffffffffffffffffffffffffffffffffffff021916905590555050565b600160009054906101000a900473ffffffffffffffffffffffffffffffffffffffff1673ffffffffffffffffffffffffffffffffffffffff163373ffffffffffffffffffffffffffffffffffffffff161462000966576040517f08c379a00000000000000000000000000000000000000000000000000000000081526004016200095d9062001ae1565b60405180910390fd5b6000600560006101000a81548160ff021916908315150217905550600160009054906101000a900473ffffffffffffffffffffffffffffffffffffffff1673ffffffffffffffffffffffffffffffffffffffff166108fc479081150290604051600060405180830381858888f19350505050158015620009ea573d6000803e3d6000fd5b507f2844c95bf1b4598da931d527f903501abc60fe0199c65da52d5ce818c6c5e96160405162000a1a9062001b53565b60405180910390a1565b6000600560009054906101000a900460ff16905090565b600260008373ffffffffffffffffffffffffffffffffffffffff1673ffffffffffffffffffffffffffffffffffffffff168152602001908152602001600020819080600181540180825580915050600190039060005260206000200160009091909190916101000a81548173ffffffffffffffffffffffffffffffffffffffff021916908373ffffffffffffffffffffffffffffffffffffffff1602179055505050565b60606003600083815260200190815260200160002080548060200260200160405190810160405280929190818152602001828054801562000b7657602002820191906000526020600020905b8160009054906101000a900473ffffffffffffffffffffffffffffffffffffffff1673ffffffffffffffffffffffffffffffffffffffff168152602001906001019080831162000b2b575b50505050509050919050565b600260008373ffffffffffffffffffffffffffffffffffffffff1673ffffffffffffffffffffffffffffffffffffffff1681526020019081526020016000206001600260008573ffffffffffffffffffffffffffffffffffffffff1673ffffffffffffffffffffffffffffffffffffffff1681526020019081526020016000208054905062000c129190620019f8565b8154811062000c265762000c2562001a33565b5b9060005260206000200160009054906101000a900473ffffffffffffffffffffffffffffffffffffffff16600260008473ffffffffffffffffffffffffffffffffffffffff1673ffffffffffffffffffffffffffffffffffffffff168152602001908152602001600020828154811062000ca55762000ca462001a33565b5b9060005260206000200160006101000a81548173ffffffffffffffffffffffffffffffffffffffff021916908373ffffffffffffffffffffffffffffffffffffffff160217905550600260008373ffffffffffffffffffffffffffffffffffffffff1673ffffffffffffffffffffffffffffffffffffffff16815260200190815260200160002080548062000d3f5762000d3e62001a62565b5b6001900381819060005260206000200160006101000a81549073ffffffffffffffffffffffffffffffffffffffff021916905590555050565b6060600260008373ffffffffffffffffffffffffffffffffffffffff1673ffffffffffffffffffffffffffffffffffffffff16815260200190815260200160002080548060200260200160405190810160405280929190818152602001828054801562000e3b57602002820191906000526020600020905b8160009054906101000a900473ffffffffffffffffffffffffffffffffffffffff1673ffffffffffffffffffffffffffffffffffffffff168152602001906001019080831162000df0575b50505050509050919050565b600560009054906101000a900460ff1662000e99576040517f08c379a000000000000000000000000000000000000000000000000000000000815260040162000e9090620017ec565b60405180910390fd5b33848484843060405162000ead90620012c4565b62000ebe9695949392919062001bd0565b604051809103906000f08015801562000edb573d6000803e3d6000fd5b506000806101000a81548173ffffffffffffffffffffffffffffffffffffffff021916908373ffffffffffffffffffffffffffffffffffffffff16021790555060008060009054906101000a900473ffffffffffffffffffffffffffffffffffffffff1690508073ffffffffffffffffffffffffffffffffffffffff166108fc349081150290604051600060405180830381858888f1935050505015801562000f88573d6000803e3d6000fd5b50600260003373ffffffffffffffffffffffffffffffffffffffff1673ffffffffffffffffffffffffffffffffffffffff16815260200190815260200160002060008054906101000a900473ffffffffffffffffffffffffffffffffffffffff1673ffffffffffffffffffffffffffffffffffffffff166332a2c5d06040518163ffffffff1660e01b8152600401602060405180830381865afa15801562001034573d6000803e3d6000fd5b505050506040513d601f19601f820116820180604052508101906200105a919062001825565b9080600181540180825580915050600190039060005260206000200160009091909190916101000a81548173ffffffffffffffffffffffffffffffffffffffff021916908373ffffffffffffffffffffffffffffffffffffffff1602179055506003600086815260200190815260200160002060008054906101000a900473ffffffffffffffffffffffffffffffffffffffff1673ffffffffffffffffffffffffffffffffffffffff166332a2c5d06040518163ffffffff1660e01b8152600401602060405180830381865afa15801562001139573d6000803e3d6000fd5b505050506040513d601f19601f820116820180604052508101906200115f919062001825565b9080600181540180825580915050600190039060005260206000200160009091909190916101000a81548173ffffffffffffffffffffffffffffffffffffffff021916908373ffffffffffffffffffffffffffffffffffffffff1602179055507f2844c95bf1b4598da931d527f903501abc60fe0199c65da52d5ce818c6c5e961604051620011ee9062001c8d565b60405180910390a15050505050565b600080600090505b835181101562001280578273ffffffffffffffffffffffffffffffffffffffff168482815181106200123c576200123b62001a33565b5b602002602001015173ffffffffffffffffffffffffffffffffffffffff16036200126a5780915050620012be565b8080620012779062001caf565b91505062001205565b506040517f08c379a0000000000000000000000000000000000000000000000000000000008152600401620012b59062001d4c565b60405180910390fd5b92915050565b6121f68062001d6f83390190565b600080fd5b600073ffffffffffffffffffffffffffffffffffffffff82169050919050565b60006200130482620012d7565b9050919050565b6200131681620012f7565b81146200132257600080fd5b50565b60008135905062001336816200130b565b92915050565b600060208284031215620013555762001354620012d2565b5b6000620013658482850162001325565b91505092915050565b6000819050919050565b600062001399620013936200138d84620012d7565b6200136e565b620012d7565b9050919050565b6000620013ad8262001378565b9050919050565b6000620013c182620013a0565b9050919050565b620013d381620013b4565b82525050565b6000602082019050620013f06000830184620013c8565b92915050565b6000819050919050565b6200140b81620013f6565b81146200141757600080fd5b50565b6000813590506200142b8162001400565b92915050565b600080604083850312156200144b576200144a620012d2565b5b60006200145b858286016200141a565b92505060206200146e858286016200141a565b9150509250929050565b60008115159050919050565b6200148f8162001478565b82525050565b6000602082019050620014ac600083018462001484565b92915050565b6000620014bf82620012d7565b9050919050565b620014d181620014b2565b8114620014dd57600080fd5b50565b600081359050620014f181620014c6565b92915050565b60008060408385031215620015115762001510620012d2565b5b60006200152185828601620014e0565b92505060206200153485828601620014e0565b9150509250929050565b600060208284031215620015575762001556620012d2565b5b600062001567848285016200141a565b91505092915050565b600081519050919050565b600082825260208201905092915050565b6000819050602082019050919050565b620015a781620014b2565b82525050565b6000620015bb83836200159c565b60208301905092915050565b6000602082019050919050565b6000620015e18262001570565b620015ed81856200157b565b9350620015fa836200158c565b8060005b8381101562001631578151620016158882620015ad565b97506200162283620015c7565b925050600181019050620015fe565b5085935050505092915050565b600060208201905081810360008301526200165a8184620015d4565b905092915050565b600080604083850312156200167c576200167b620012d2565b5b60006200168c85828601620014e0565b92505060206200169f858286016200141a565b9150509250929050565b600060208284031215620016c257620016c1620012d2565b5b6000620016d284828501620014e0565b91505092915050565b600060ff82169050919050565b620016f381620016db565b8114620016ff57600080fd5b50565b6000813590506200171381620016e8565b92915050565b60008060008060808587031215620017365762001735620012d2565b5b600062001746878288016200141a565b9450506020620017598782880162001702565b93505060406200176c878288016200141a565b92505060606200177f8782880162001702565b91505092959194509250565b600082825260208201905092915050565b7f536f7272792c20636f6e74726163742064697361626c65640000000000000000600082015250565b6000620017d46018836200178b565b9150620017e1826200179c565b602082019050919050565b600060208201905081810360008301526200180781620017c5565b9050919050565b6000815190506200181f81620014c6565b92915050565b6000602082840312156200183e576200183d620012d2565b5b60006200184e848285016200180e565b91505092915050565b7f4e6f206572657320656c2063726561646f72206465206573746120617075657360008201527f7461000000000000000000000000000000000000000000000000000000000000602082015250565b6000620018b56022836200178b565b9150620018c28262001857565b604082019050919050565b60006020820190508181036000830152620018e881620018a6565b9050919050565b600081519050620019008162001400565b92915050565b6000602082840312156200191f576200191e620012d2565b5b60006200192f84828501620018ef565b91505092915050565b6200194381620014b2565b82525050565b600060208201905062001960600083018462001938565b92915050565b620019718162001478565b81146200197d57600080fd5b50565b600081519050620019918162001966565b92915050565b600060208284031215620019b057620019af620012d2565b5b6000620019c08482850162001980565b91505092915050565b7f4e487b7100000000000000000000000000000000000000000000000000000000600052601160045260246000fd5b600062001a0582620013f6565b915062001a1283620013f6565b92508282101562001a285762001a27620019c9565b5b828203905092915050565b7f4e487b7100000000000000000000000000000000000000000000000000000000600052603260045260246000fd5b7f4e487b7100000000000000000000000000000000000000000000000000000000600052603160045260246000fd5b7f596f75206d75737420626520746865206f726967696e616c204f574e45520000600082015250565b600062001ac9601e836200178b565b915062001ad68262001a91565b602082019050919050565b6000602082019050818103600083015262001afc8162001aba565b9050919050565b7f456c20636f6e747261746f2073652068612070617261646f0000000000000000600082015250565b600062001b3b6018836200178b565b915062001b488262001b03565b602082019050919050565b6000602082019050818103600083015262001b6e8162001b2c565b9050919050565b62001b8081620013f6565b82525050565b62001b9181620016db565b82525050565b600062001bb862001bb262001bac84620016db565b6200136e565b620013f6565b9050919050565b62001bca8162001b97565b82525050565b600060c08201905062001be7600083018962001938565b62001bf6602083018862001b75565b62001c05604083018762001b86565b62001c14606083018662001b75565b62001c23608083018562001bbf565b62001c3260a083018462001938565b979650505050505050565b7f4265742063726561746564000000000000000000000000000000000000000000600082015250565b600062001c75600b836200178b565b915062001c828262001c3d565b602082019050919050565b6000602082019050818103600083015262001ca88162001c66565b9050919050565b600062001cbc82620013f6565b91507fffffffffffffffffffffffffffffffffffffffffffffffffffffffffffffffff820362001cf15762001cf0620019c9565b5b600182019050919050565b7f4e6f7420466f756e640000000000000000000000000000000000000000000000600082015250565b600062001d346009836200178b565b915062001d418262001cfc565b602082019050919050565b6000602082019050818103600083015262001d678162001d25565b905091905056fe60806040523480156200001157600080fd5b50604051620021f6380380620021f6833981810160405281019062000037919062000505565b620000576200004b6200035660201b60201c565b6200035e60201b60201c565b85600360006101000a81548173ffffffffffffffffffffffffffffffffffffffff021916908373ffffffffffffffffffffffffffffffffffffffff1602179055508460028190555083600460146101000a81548160ff021916908360ff160217905550826005819055508160068190555080600760006101000a81548173ffffffffffffffffffffffffffffffffffffffff021916908373ffffffffffffffffffffffffffffffffffffffff1602179055506001600860146101000a81548160ff0219169083151502179055506000600860156101000a81548160ff02191690831515021790555085600160003073ffffffffffffffffffffffffffffffffffffffff1673ffffffffffffffffffffffffffffffffffffffff16815260200190815260200160002060000160006101000a81548173ffffffffffffffffffffffffffffffffffffffff021916908373ffffffffffffffffffffffffffffffffffffffff16021790555084600160003073ffffffffffffffffffffffffffffffffffffffff1673ffffffffffffffffffffffffffffffffffffffff1681526020019081526020016000206002018190555083600160003073ffffffffffffffffffffffffffffffffffffffff1673ffffffffffffffffffffffffffffffffffffffff16815260200190815260200160002060030160006101000a81548160ff021916908360ff16021790555082600160003073ffffffffffffffffffffffffffffffffffffffff1673ffffffffffffffffffffffffffffffffffffffff1681526020019081526020016000206004018190555081600160003073ffffffffffffffffffffffffffffffffffffffff1673ffffffffffffffffffffffffffffffffffffffff168152602001908152602001600020600501819055507f2844c95bf1b4598da931d527f903501abc60fe0199c65da52d5ce818c6c5e9618560405160200162000324919062000671565b6040516020818303038152906040526040516200034291906200074c565b60405180910390a150505050505062000770565b600033905090565b60008060009054906101000a900473ffffffffffffffffffffffffffffffffffffffff169050816000806101000a81548173ffffffffffffffffffffffffffffffffffffffff021916908373ffffffffffffffffffffffffffffffffffffffff1602179055508173ffffffffffffffffffffffffffffffffffffffff168173ffffffffffffffffffffffffffffffffffffffff167f8be0079c531659141344cd1fd0a4f28419497f9722a3daafe3b4186f6b6457e060405160405180910390a35050565b600080fd5b600073ffffffffffffffffffffffffffffffffffffffff82169050919050565b6000620004548262000427565b9050919050565b620004668162000447565b81146200047257600080fd5b50565b60008151905062000486816200045b565b92915050565b6000819050919050565b620004a1816200048c565b8114620004ad57600080fd5b50565b600081519050620004c18162000496565b92915050565b600060ff82169050919050565b620004df81620004c7565b8114620004eb57600080fd5b50565b600081519050620004ff81620004d4565b92915050565b60008060008060008060c0878903121562000525576200052462000422565b5b60006200053589828a0162000475565b96505060206200054889828a01620004b0565b95505060406200055b89828a01620004ee565b94505060606200056e89828a01620004b0565b93505060806200058189828a01620004b0565b92505060a06200059489828a0162000475565b9150509295509295509295565b600081905092915050565b7f5061727469646f20000000000000000000000000000000000000000000000000600082015250565b6000620005e4600883620005a1565b9150620005f182620005ac565b600882019050919050565b6000819050919050565b6200061b62000615826200048c565b620005fc565b82525050565b7f2063726561646f00000000000000000000000000000000000000000000000000600082015250565b600062000659600783620005a1565b9150620006668262000621565b600782019050919050565b60006200067e82620005d5565b91506200068c828462000606565b6020820191506200069d826200064a565b915081905092915050565b600081519050919050565b600082825260208201905092915050565b60005b83811015620006e4578082015181840152602081019050620006c7565b83811115620006f4576000848401525b50505050565b6000601f19601f8301169050919050565b60006200071882620006a8565b620007248185620006b3565b935062000736818560208601620006c4565b6200074181620006fa565b840191505092915050565b600060208201905081810360008301526200076881846200070b565b905092915050565b611a7680620007806000396000f3fe6080604052600436106100ab5760003560e01c80637cc1f867116100645780637cc1f867146101895780638da5cb5b146101b45780638fced626146101df578063ad913633146101e9578063e11eb98d14610214578063f2fde38b14610256576100b2565b806306011b21146100b7578063153dc182146100e75780632c70444e1461011257806330bfcb5f1461013d57806332a2c5d014610147578063715018a614610172576100b2565b366100b257005b600080fd5b6100d160048036038101906100cc919061111f565b61027f565b6040516100de9190611167565b60405180910390f35b3480156100f357600080fd5b506100fc61049c565b604051610109919061119b565b60405180910390f35b34801561011e57600080fd5b506101276104a6565b604051610134919061119b565b60405180910390f35b6101456104ac565b005b34801561015357600080fd5b5061015c6108b0565b60405161016991906111c5565b60405180910390f35b34801561017e57600080fd5b50610187610934565b005b34801561019557600080fd5b5061019e6109bc565b6040516101ab9190611295565b60405180910390f35b3480156101c057600080fd5b506101c9610afa565b6040516101d691906111c5565b60405180910390f35b6101e7610b23565b005b3480156101f557600080fd5b506101fe610de1565b60405161020b91906111c5565b60405180910390f35b34801561022057600080fd5b5061023b6004803603810190610236919061111f565b610e0b565b60405161024d969594939291906112bf565b60405180910390f35b34801561026257600080fd5b5061027d6004803603810190610278919061111f565b610e94565b005b600081600360009054906101000a900473ffffffffffffffffffffffffffffffffffffffff1673ffffffffffffffffffffffffffffffffffffffff168173ffffffffffffffffffffffffffffffffffffffff1614610312576040517f08c379a00000000000000000000000000000000000000000000000000000000081526004016103099061137d565b60405180910390fd5b600860149054906101000a900460ff16610361576040517f08c379a0000000000000000000000000000000000000000000000000000000008152600401610358906113e9565b60405180910390fd5b600860159054906101000a900460ff16156103b1576040517f08c379a00000000000000000000000000000000000000000000000000000000081526004016103a890611455565b60405180910390fd5b600360009054906101000a900473ffffffffffffffffffffffffffffffffffffffff1673ffffffffffffffffffffffffffffffffffffffff166108fc479081150290604051600060405180830381858888f19350505050158015610419573d6000803e3d6000fd5b506000600860146101000a81548160ff0219169083151502179055507f2844c95bf1b4598da931d527f903501abc60fe0199c65da52d5ce818c6c5e96161045e6108b0565b60405160200161046e9190611560565b60405160208183030381529060405260405161048a9190611619565b60405180910390a16001915050919050565b6000600254905090565b60025481565b600860149054906101000a900460ff166104fb576040517f08c379a00000000000000000000000000000000000000000000000000000000081526004016104f2906113e9565b60405180910390fd5b600654341015610540576040517f08c379a000000000000000000000000000000000000000000000000000000000815260040161053790611687565b60405180910390fd5b60001515600860159054906101000a900460ff16151514610596576040517f08c379a000000000000000000000000000000000000000000000000000000000815260040161058d906116f3565b60405180910390fd5b33600460006101000a81548173ffffffffffffffffffffffffffffffffffffffff021916908373ffffffffffffffffffffffffffffffffffffffff160217905550600460009054906101000a900473ffffffffffffffffffffffffffffffffffffffff1673ffffffffffffffffffffffffffffffffffffffff166108fc349081150290604051600060405180830381858888f1935050505015801561063f573d6000803e3d6000fd5b50600460009054906101000a900473ffffffffffffffffffffffffffffffffffffffff16600160003073ffffffffffffffffffffffffffffffffffffffff1673ffffffffffffffffffffffffffffffffffffffff16815260200190815260200160002060010160006101000a81548173ffffffffffffffffffffffffffffffffffffffff021916908373ffffffffffffffffffffffffffffffffffffffff1602179055506001600860156101000a81548160ff021916908315150217905550600760009054906101000a900473ffffffffffffffffffffffffffffffffffffffff16600860006101000a81548173ffffffffffffffffffffffffffffffffffffffff021916908373ffffffffffffffffffffffffffffffffffffffff160217905550600860009054906101000a900473ffffffffffffffffffffffffffffffffffffffff1673ffffffffffffffffffffffffffffffffffffffff1663305fc68d600460009054906101000a900473ffffffffffffffffffffffffffffffffffffffff16306040518363ffffffff1660e01b81526004016107e0929190611772565b600060405180830381600087803b1580156107fa57600080fd5b505af115801561080e573d6000803e3d6000fd5b505050507f2844c95bf1b4598da931d527f903501abc60fe0199c65da52d5ce818c6c5e961600460009054906101000a900473ffffffffffffffffffffffffffffffffffffffff16600360009054906101000a900473ffffffffffffffffffffffffffffffffffffffff1660405160200161088a929190611822565b6040516020818303038152906040526040516108a69190611619565b60405180910390a1565b60006108ba610f8b565b73ffffffffffffffffffffffffffffffffffffffff166108d8610afa565b73ffffffffffffffffffffffffffffffffffffffff161461092e576040517f08c379a0000000000000000000000000000000000000000000000000000000008152600401610925906118a5565b60405180910390fd5b30905090565b61093c610f8b565b73ffffffffffffffffffffffffffffffffffffffff1661095a610afa565b73ffffffffffffffffffffffffffffffffffffffff16146109b0576040517f08c379a00000000000000000000000000000000000000000000000000000000081526004016109a7906118a5565b60405180910390fd5b6109ba6000610f93565b565b6109c4611057565b600160003073ffffffffffffffffffffffffffffffffffffffff1673ffffffffffffffffffffffffffffffffffffffff1681526020019081526020016000206040518060c00160405290816000820160009054906101000a900473ffffffffffffffffffffffffffffffffffffffff1673ffffffffffffffffffffffffffffffffffffffff1673ffffffffffffffffffffffffffffffffffffffff1681526020016001820160009054906101000a900473ffffffffffffffffffffffffffffffffffffffff1673ffffffffffffffffffffffffffffffffffffffff1673ffffffffffffffffffffffffffffffffffffffff168152602001600282015481526020016003820160009054906101000a900460ff1660ff1660ff16815260200160048201548152602001600582015481525050905090565b60008060009054906101000a900473ffffffffffffffffffffffffffffffffffffffff16905090565b33600360009054906101000a900473ffffffffffffffffffffffffffffffffffffffff1673ffffffffffffffffffffffffffffffffffffffff168173ffffffffffffffffffffffffffffffffffffffff161480610bcd5750600460009054906101000a900473ffffffffffffffffffffffffffffffffffffffff1673ffffffffffffffffffffffffffffffffffffffff168173ffffffffffffffffffffffffffffffffffffffff16145b610c0c576040517f08c379a0000000000000000000000000000000000000000000000000000000008152600401610c0390611911565b60405180910390fd5b600860149054906101000a900460ff16610c5b576040517f08c379a0000000000000000000000000000000000000000000000000000000008152600401610c52906113e9565b60405180910390fd5b600860159054906101000a900460ff16610c7457600080fd5b6001600460149054906101000a900460ff1660ff1603610cfc57600360009054906101000a900473ffffffffffffffffffffffffffffffffffffffff1673ffffffffffffffffffffffffffffffffffffffff166108fc479081150290604051600060405180830381858888f19350505050158015610cf6573d6000803e3d6000fd5b50610d66565b600460009054906101000a900473ffffffffffffffffffffffffffffffffffffffff1673ffffffffffffffffffffffffffffffffffffffff166108fc479081150290604051600060405180830381858888f19350505050158015610d64573d6000803e3d6000fd5b505b6000600860146101000a81548160ff0219169083151502179055507f2844c95bf1b4598da931d527f903501abc60fe0199c65da52d5ce818c6c5e961610daa6108b0565b604051602001610dba919061197d565b604051602081830303815290604052604051610dd69190611619565b60405180910390a150565b6000600360009054906101000a900473ffffffffffffffffffffffffffffffffffffffff16905090565b60016020528060005260406000206000915090508060000160009054906101000a900473ffffffffffffffffffffffffffffffffffffffff16908060010160009054906101000a900473ffffffffffffffffffffffffffffffffffffffff16908060020154908060030160009054906101000a900460ff16908060040154908060050154905086565b610e9c610f8b565b73ffffffffffffffffffffffffffffffffffffffff16610eba610afa565b73ffffffffffffffffffffffffffffffffffffffff1614610f10576040517f08c379a0000000000000000000000000000000000000000000000000000000008152600401610f07906118a5565b60405180910390fd5b600073ffffffffffffffffffffffffffffffffffffffff168173ffffffffffffffffffffffffffffffffffffffff1603610f7f576040517f08c379a0000000000000000000000000000000000000000000000000000000008152600401610f7690611a20565b60405180910390fd5b610f8881610f93565b50565b600033905090565b60008060009054906101000a900473ffffffffffffffffffffffffffffffffffffffff169050816000806101000a81548173ffffffffffffffffffffffffffffffffffffffff021916908373ffffffffffffffffffffffffffffffffffffffff1602179055508173ffffffffffffffffffffffffffffffffffffffff168173ffffffffffffffffffffffffffffffffffffffff167f8be0079c531659141344cd1fd0a4f28419497f9722a3daafe3b4186f6b6457e060405160405180910390a35050565b6040518060c00160405280600073ffffffffffffffffffffffffffffffffffffffff168152602001600073ffffffffffffffffffffffffffffffffffffffff16815260200160008152602001600060ff16815260200160008152602001600081525090565b600080fd5b600073ffffffffffffffffffffffffffffffffffffffff82169050919050565b60006110ec826110c1565b9050919050565b6110fc816110e1565b811461110757600080fd5b50565b600081359050611119816110f3565b92915050565b600060208284031215611135576111346110bc565b5b60006111438482850161110a565b91505092915050565b60008115159050919050565b6111618161114c565b82525050565b600060208201905061117c6000830184611158565b92915050565b6000819050919050565b61119581611182565b82525050565b60006020820190506111b0600083018461118c565b92915050565b6111bf816110e1565b82525050565b60006020820190506111da60008301846111b6565b92915050565b6111e9816110e1565b82525050565b6111f881611182565b82525050565b600060ff82169050919050565b611214816111fe565b82525050565b60c08201600082015161123060008501826111e0565b50602082015161124360208501826111e0565b50604082015161125660408501826111ef565b506060820151611269606085018261120b565b50608082015161127c60808501826111ef565b5060a082015161128f60a08501826111ef565b50505050565b600060c0820190506112aa600083018461121a565b92915050565b6112b9816111fe565b82525050565b600060c0820190506112d460008301896111b6565b6112e160208301886111b6565b6112ee604083018761118c565b6112fb60608301866112b0565b611308608083018561118c565b61131560a083018461118c565b979650505050505050565b600082825260208201905092915050565b7f4e6f206572657320656c2063726561646f72206465206c612061707565737461600082015250565b6000611367602083611320565b915061137282611331565b602082019050919050565b600060208201905081810360008301526113968161135a565b9050919050565b7f457374612061707565737461206e6f2065737461206163746976610000000000600082015250565b60006113d3601b83611320565b91506113de8261139d565b602082019050919050565b60006020820190508181036000830152611402816113c6565b9050919050565b7f4c612061707565737461207961206861207369646f2061636570746164610000600082015250565b600061143f601e83611320565b915061144a82611409565b602082019050919050565b6000602082019050818103600083015261146e81611432565b9050919050565b600081905092915050565b7f4170756573746120000000000000000000000000000000000000000000000000600082015250565b60006114b6600883611475565b91506114c182611480565b600882019050919050565b60008160601b9050919050565b60006114e4826114cc565b9050919050565b60006114f6826114d9565b9050919050565b61150e611509826110e1565b6114eb565b82525050565b7f20656c696d696e61646100000000000000000000000000000000000000000000600082015250565b600061154a600a83611475565b915061155582611514565b600a82019050919050565b600061156b826114a9565b915061157782846114fd565b6014820191506115868261153d565b915081905092915050565b600081519050919050565b60005b838110156115ba57808201518184015260208101905061159f565b838111156115c9576000848401525b50505050565b6000601f19601f8301169050919050565b60006115eb82611591565b6115f58185611320565b935061160581856020860161159c565b61160e816115cf565b840191505092915050565b6000602082019050818103600083015261163381846115e0565b905092915050565b7f4170756573746120696e737566696369656e7465000000000000000000000000600082015250565b6000611671601483611320565b915061167c8261163b565b602082019050919050565b600060208201905081810360008301526116a081611664565b9050919050565b7f4170756573746120796120616365707461646100000000000000000000000000600082015250565b60006116dd601383611320565b91506116e8826116a7565b602082019050919050565b6000602082019050818103600083015261170c816116d0565b9050919050565b6000819050919050565b600061173861173361172e846110c1565b611713565b6110c1565b9050919050565b600061174a8261171d565b9050919050565b600061175c8261173f565b9050919050565b61176c81611751565b82525050565b60006040820190506117876000830185611763565b61179460208301846111b6565b9392505050565b60006117a6826110c1565b9050919050565b60006117b8826114d9565b9050919050565b6117d06117cb8261179b565b6117ad565b82525050565b7f20686120616365707461646f206c612061707565737461206465200000000000600082015250565b600061180c601b83611475565b9150611817826117d6565b601b82019050919050565b600061182e82856117bf565b60148201915061183d826117ff565b915061184982846117bf565b6014820191508190509392505050565b7f4f776e61626c653a2063616c6c6572206973206e6f7420746865206f776e6572600082015250565b600061188f602083611320565b915061189a82611859565b602082019050919050565b600060208201905081810360008301526118be81611882565b9050919050565b7f4e6f207061727469636970617320656e20657374612061707565737461000000600082015250565b60006118fb601d83611320565b9150611906826118c5565b602082019050919050565b6000602082019050818103600083015261192a816118ee565b9050919050565b7f2072657375656c74610000000000000000000000000000000000000000000000600082015250565b6000611967600983611475565b915061197282611931565b600982019050919050565b6000611988826114a9565b915061199482846114fd565b6014820191506119a38261195a565b915081905092915050565b7f4f776e61626c653a206e6577206f776e657220697320746865207a65726f206160008201527f6464726573730000000000000000000000000000000000000000000000000000602082015250565b6000611a0a602683611320565b9150611a15826119ae565b604082019050919050565b60006020820190508181036000830152611a39816119fd565b905091905056fea264697066735822122084c0055d60ce66595ae7d1717c1e75b9ff3a00e2031334c4bdce802695fcd3e964736f6c634300080e0033a26469706673582212209edd5404311ccefbd7093c59add7dd54f0ac071e10b5f717ebc0883d2e88eb8064736f6c634300080e0033",
  "immutableReferences": {},
  "source": "/**\r\n *Submitted for verification at Etherscan.io on 2022-04-22\r\n */\r\n\r\n// Version de solidity del Smart Contract\r\n// SPDX-License-Identifier: UNLICENSED\r\n\r\npragma solidity 0.8.14;\r\nimport \"./Bet2Peer.sol\";\r\nimport \"../client/node_modules/@openzeppelin/contracts/access/Ownable.sol\";\r\n// Informacion del Smart Contract\r\n// Nombre: Creador de Apuestas\r\n// Logica: Implementa la creacin de contratos\r\n\r\n// Declaracion del Smart Contract - Auction\r\ncontract Father {\r\n\r\n    // ----------- Variables (datos) -----------\r\n    //Contrato hijo\r\n    Bet2Peer public bet;\r\n    //direccin del creador de la apuesta\r\n    address payable contractOwner;\r\n\r\n    //mapping de todos los contratos(apuestas) creados por un usuario \r\n    //      usuario     contrato\r\n    mapping(address =>  address[]) private contractsByUser;\r\n    //mapping de todos los contratos(apuestas) creados para un partido concreto\r\n    //      matchId    contrato\r\n    mapping(uint256 => address[]) private contractsByMatchId;\r\n    //mapping de todos los contratos(apuestas) creados por un usuario con su contractId y MatchId\r\n    //      usuario            matchId    contrato\r\n    mapping(address => mapping(uint256 => address[])) private contractsByMatchIdAndUser;\r\n    \r\n    //Estado del contrato\r\n    bool activeContract;\r\n\r\n    // ----------- Events -----------\r\n    event Status(string _message);\r\n\r\n    // ------------Modifiers ----------\r\n    modifier contractActive() {\r\n        require(activeContract, \"Sorry, contract disabled\");\r\n        _;\r\n    }\r\n\r\n    // ----------- Constructor -----------\r\n    // Uso: Inicializa el Smart Contract - Father\r\n    constructor() {\r\n        contractOwner = payable(msg.sender);\r\n        activeContract = true;\r\n    }\r\n\r\n    // -------------------Functions ------------------\r\n    /**\r\n    Funcion\r\n    Funcin lanzada para cear una nueva apuesta\r\n    _matchId: id del partido de la apuesta\r\n    _result: resultado al que se apuesta\r\n    _originalBet: cantidad apostada\r\n    _minimumCounterBet: cantidad a percibir en caso de ganar\r\n     */\r\n    function createBet(uint256 _matchId, uint8 _result, uint256 _originalBet, uint8 _minimumCounterBet) public payable \r\n        contractActive\r\n    {\r\n        //Creo un nuevo contrato hijo para la apuesta\r\n        bet = new Bet2Peer(msg.sender, _matchId, _result, _originalBet, _minimumCounterBet, address(this));\r\n        // address contractAddress = address(bet);\r\n        address payable payableContractAddress = payable(address(bet));\r\n        // address payable payableContractAddress = address(uint160(contractAddress));\r\n        payableContractAddress.transfer(msg.value);\r\n\r\n        // payable(bet).transfer(msg.value);\r\n        //Aado la direccin del contrato a los mapas del usuario y del partido\r\n        contractsByUser[msg.sender].push(bet.getContractAddress());\r\n        contractsByMatchId[_matchId].push(bet.getContractAddress());\r\n        emit Status(\"Bet created\");\r\n    }\r\n\r\n    /**\r\n    Funcin para eliminar una apuesta\r\n    _contracto: direccin de la apuesta que se quiere eliminar\r\n    _matchId: id del partido de la apuesta\r\n     */\r\n    function removeBet(address payable _contract) public\r\n        contractActive\r\n    {\r\n        //Asigno a la variable bet el contrato hijo en cuestin\r\n        bet = Bet2Peer(_contract);\r\n        require(bet.getOriginalOwner() == msg.sender, \"No eres el creador de esta apuesta\");\r\n        //busco el index del contrato en los arrays del usurio y partido\r\n        uint256 _userContractIndex = indexOf(contractsByUser[msg.sender], _contract);\r\n        uint256 _matchContractIndex = indexOf(contractsByMatchId[bet.getMatchId()], _contract);\r\n        //si el contrato se desactiva correctamente elimino el address de los arrays\r\n        if(bet.removeBet(msg.sender)){\r\n            removeBetFromUser(msg.sender, _userContractIndex);\r\n            removeBetFromMatch(bet.getMatchId(), _matchContractIndex);\r\n        }\r\n    }\r\n\r\n    function addBetToCounterGambler(address counterGambler, address _sonContract) public payable{\r\n        contractsByUser[counterGambler].push(_sonContract);\r\n    }\r\n\r\n    /**\r\n    Funcin que devuelve todos los contratos(apuestas) creadas por un usuario\r\n    _user: direccin del usuario del que se muestran las apuestas\r\n     */\r\n    function getAllBetsByUser(address _user) public view returns (address[] memory){\r\n        return contractsByUser[_user];\r\n    }\r\n\r\n    /**\r\n    Funcin que devuelve todos los contratos(apuetas) creadas para un partido concreto\r\n    _matchId: id del partido del que se muestran las apuestas\r\n     */\r\n    function getAllBetsByMatchId(uint256 _matchId) public view returns (address[] memory){\r\n        return contractsByMatchId[_matchId];\r\n    }\r\n\r\n    /**\r\n    Funcin que devuelve si el contrato est activo o no\r\n     */\r\n    function isActive() public view returns (bool){\r\n        return (activeContract);\r\n    }\r\n\r\n    /**\r\n    Funcin que devuelve la posicin de un elemento de un array\r\n    _arr: array en el que se busca el elemento\r\n    _searchFor: elemento que se busca\r\n     */\r\n    function indexOf(address[] memory _arr, address _searchFor) private pure returns (uint256) {\r\n    for (uint256 i = 0; i < _arr.length; i++) {\r\n      if (_arr[i] == _searchFor) {\r\n        return i;\r\n      }\r\n    }\r\n    revert(\"Not Found\");\r\n  }\r\n\r\n  function removeBetFromMatch(uint256 _matchId, uint _index) public{\r\n    contractsByMatchId[_matchId][_index] = contractsByMatchId[_matchId][contractsByMatchId[_matchId].length - 1];\r\n    contractsByMatchId[_matchId].pop();\r\n  }\r\n\r\n  function removeBetFromUser(address _userAddress, uint _index) public{\r\n    contractsByUser[_userAddress][_index] = contractsByUser[_userAddress][contractsByUser[_userAddress].length - 1];\r\n    contractsByUser[_userAddress].pop();\r\n  }\r\n\r\n\r\n////////////////////////////Panic Functions////////////////////////\r\n    // Funcion\r\n    // Nombre: stopContract\r\n    // Uso: pausa el contrato y saca todos los fondos en caso de emergencia\r\n    function stopContract() public {\r\n        require(msg.sender == contractOwner, \"You must be the original OWNER\");\r\n        // Finaliza la subasta\r\n        activeContract = false;\r\n        // Devuelve el dinero al maximo postor\r\n        contractOwner.transfer(address(this).balance);\r\n        \r\n        // Se emite un evento\r\n        emit Status(\"El contrato se ha parado\");\r\n    }\r\n}\r\n",
  "sourcePath": "C:\\Desarrollo\\Master Blokchain\\bet2peer\\contracts\\Father.sol",
  "compiler": {
    "name": "solc",
    "version": "0.8.14+commit.80d49f37.Emscripten.clang"
  },
  "schemaVersion": "3.4.7",
  "updatedAt": "2022-06-25T07:04:01.432Z",
  "networkType": "ethereum",
  "devdoc": {
    "kind": "dev",
    "methods": {},
    "version": 1
  },
  "userdoc": {
    "kind": "user",
    "methods": {
      "createBet(uint256,uint8,uint256,uint8)": {
        "notice": "Funcion Funcin lanzada para cear una nueva apuesta _matchId: id del partido de la apuesta _result: resultado al que se apuesta _originalBet: cantidad apostada _minimumCounterBet: cantidad a percibir en caso de ganar"
      },
      "getAllBetsByMatchId(uint256)": {
        "notice": "Funcin que devuelve todos los contratos(apuetas) creadas para un partido concreto _matchId: id del partido del que se muestran las apuestas"
      },
      "getAllBetsByUser(address)": {
        "notice": "Funcin que devuelve todos los contratos(apuestas) creadas por un usuario _user: direccin del usuario del que se muestran las apuestas"
      },
      "isActive()": {
        "notice": "Funcin que devuelve si el contrato est activo o no"
      },
      "removeBet(address)": {
        "notice": "Funcin para eliminar una apuesta _contracto: direccin de la apuesta que se quiere eliminar _matchId: id del partido de la apuesta"
      }
    },
    "version": 1
  }
}