{
  "contractName": "Father",
  "abi": [
    {
      "inputs": [],
      "stateMutability": "nonpayable",
      "type": "constructor"
    },
    {
      "anonymous": false,
      "inputs": [
        {
          "indexed": false,
          "internalType": "string",
          "name": "_message",
          "type": "string"
        }
      ],
      "name": "Status",
      "type": "event"
    },
    {
      "inputs": [],
      "name": "bet",
      "outputs": [
        {
          "internalType": "contract Bet2Peer",
          "name": "",
          "type": "address"
        }
      ],
      "stateMutability": "view",
      "type": "function",
      "constant": true
    },
    {
      "inputs": [
        {
          "internalType": "uint256",
          "name": "_matchId",
          "type": "uint256"
        },
        {
          "internalType": "uint8",
          "name": "_result",
          "type": "uint8"
        },
        {
          "internalType": "uint256",
          "name": "_originalBet",
          "type": "uint256"
        },
        {
          "internalType": "uint8",
          "name": "_minimumCounterBet",
          "type": "uint8"
        }
      ],
      "name": "createBet",
      "outputs": [],
      "stateMutability": "payable",
      "type": "function",
      "payable": true
    },
    {
      "inputs": [
        {
          "internalType": "address",
          "name": "_contract",
          "type": "address"
        }
      ],
      "name": "removeBet",
      "outputs": [],
      "stateMutability": "nonpayable",
      "type": "function"
    },
    {
      "inputs": [
        {
          "internalType": "address",
          "name": "counterGambler",
          "type": "address"
        },
        {
          "internalType": "address",
          "name": "_sonContract",
          "type": "address"
        }
      ],
      "name": "addBetToCounterGambler",
      "outputs": [],
      "stateMutability": "payable",
      "type": "function",
      "payable": true
    },
    {
      "inputs": [
        {
          "internalType": "address",
          "name": "_user",
          "type": "address"
        }
      ],
      "name": "getAllBetsByUser",
      "outputs": [
        {
          "internalType": "address[]",
          "name": "",
          "type": "address[]"
        }
      ],
      "stateMutability": "view",
      "type": "function",
      "constant": true
    },
    {
      "inputs": [
        {
          "internalType": "uint256",
          "name": "_matchId",
          "type": "uint256"
        }
      ],
      "name": "getAllBetsByMatchId",
      "outputs": [
        {
          "internalType": "address[]",
          "name": "",
          "type": "address[]"
        }
      ],
      "stateMutability": "view",
      "type": "function",
      "constant": true
    },
    {
      "inputs": [],
      "name": "isActive",
      "outputs": [
        {
          "internalType": "bool",
          "name": "",
          "type": "bool"
        }
      ],
      "stateMutability": "view",
      "type": "function",
      "constant": true
    },
    {
      "inputs": [],
      "name": "stopContract",
      "outputs": [],
      "stateMutability": "nonpayable",
      "type": "function"
    }
  ],
  "bytecode": "0x608060405234801561001057600080fd5b5033600160006101000a81548173ffffffffffffffffffffffffffffffffffffffff021916908373ffffffffffffffffffffffffffffffffffffffff1602179055506001600560006101000a81548160ff021916908315150217905550613ac08061007c6000396000f3fe608060405260043610620000865760003560e01c8063305fc68d1162000055578063305fc68d146200013357806356a6e68f1462000153578063c407f09b1462000197578063cfb43e9d14620001db5762000086565b806306011b21146200008b57806311610c2514620000b957806312253a6c14620000e957806322f3e2d41462000103575b600080fd5b3480156200009857600080fd5b50620000b76004803603810190620000b1919062000fdc565b620001fb565b005b348015620000c657600080fd5b50620000d1620007b4565b604051620000e0919062001079565b60405180910390f35b348015620000f657600080fd5b5062000101620007d8565b005b3480156200011057600080fd5b506200011b62000929565b6040516200012a9190620010b3565b60405180910390f35b6200015160048036038101906200014b9190620010d0565b62000940565b005b3480156200016057600080fd5b506200017f600480360381019062000179919062001152565b620009e4565b6040516200018e919062001252565b60405180910390f35b348015620001a457600080fd5b50620001c36004803603810190620001bd919062000fdc565b62000a87565b604051620001d2919062001252565b60405180910390f35b620001f96004803603810190620001f39190620012b4565b62000b56565b005b600560009054906101000a900460ff166200024d576040517f08c379a0000000000000000000000000000000000000000000000000000000008152600401620002449062001387565b60405180910390fd5b806000806101000a81548173ffffffffffffffffffffffffffffffffffffffff021916908373ffffffffffffffffffffffffffffffffffffffff1602179055503373ffffffffffffffffffffffffffffffffffffffff1660008054906101000a900473ffffffffffffffffffffffffffffffffffffffff1673ffffffffffffffffffffffffffffffffffffffff1663ad9136336040518163ffffffff1660e01b8152600401602060405180830381865afa15801562000310573d6000803e3d6000fd5b505050506040513d601f19601f82011682018060405250810190620003369190620013c0565b73ffffffffffffffffffffffffffffffffffffffff16146200038f576040517f08c379a0000000000000000000000000000000000000000000000000000000008152600401620003869062001468565b60405180910390fd5b600062000462600260003373ffffffffffffffffffffffffffffffffffffffff1673ffffffffffffffffffffffffffffffffffffffff1681526020019081526020016000208054806020026020016040519081016040528092919081815260200182805480156200045657602002820191906000526020600020905b8160009054906101000a900473ffffffffffffffffffffffffffffffffffffffff1673ffffffffffffffffffffffffffffffffffffffff16815260200190600101908083116200040b575b50505050508362000e9d565b905060006200059d600360008060009054906101000a900473ffffffffffffffffffffffffffffffffffffffff1673ffffffffffffffffffffffffffffffffffffffff1663153dc1826040518163ffffffff1660e01b8152600401602060405180830381865afa158015620004db573d6000803e3d6000fd5b505050506040513d601f19601f82011682018060405250810190620005019190620014a1565b81526020019081526020016000208054806020026020016040519081016040528092919081815260200182805480156200059157602002820191906000526020600020905b8160009054906101000a900473ffffffffffffffffffffffffffffffffffffffff1673ffffffffffffffffffffffffffffffffffffffff168152602001906001019080831162000546575b50505050508462000e9d565b905060008054906101000a900473ffffffffffffffffffffffffffffffffffffffff1673ffffffffffffffffffffffffffffffffffffffff166306011b21336040518263ffffffff1660e01b8152600401620005fa9190620014e4565b6020604051808303816000875af11580156200061a573d6000803e3d6000fd5b505050506040513d601f19601f8201168201806040525081019062000640919062001532565b15620007af57600260003373ffffffffffffffffffffffffffffffffffffffff1673ffffffffffffffffffffffffffffffffffffffff16815260200190815260200160002082815481106200069a576200069962001564565b5b9060005260206000200160006101000a81549073ffffffffffffffffffffffffffffffffffffffff0219169055600360008060009054906101000a900473ffffffffffffffffffffffffffffffffffffffff1673ffffffffffffffffffffffffffffffffffffffff1663153dc1826040518163ffffffff1660e01b8152600401602060405180830381865afa15801562000738573d6000803e3d6000fd5b505050506040513d601f19601f820116820180604052508101906200075e9190620014a1565b8152602001908152602001600020818154811062000781576200078062001564565b5b9060005260206000200160006101000a81549073ffffffffffffffffffffffffffffffffffffffff02191690555b505050565b60008054906101000a900473ffffffffffffffffffffffffffffffffffffffff1681565b600160009054906101000a900473ffffffffffffffffffffffffffffffffffffffff1673ffffffffffffffffffffffffffffffffffffffff163373ffffffffffffffffffffffffffffffffffffffff16146200086b576040517f08c379a00000000000000000000000000000000000000000000000000000000081526004016200086290620015e3565b60405180910390fd5b6000600560006101000a81548160ff021916908315150217905550600160009054906101000a900473ffffffffffffffffffffffffffffffffffffffff1673ffffffffffffffffffffffffffffffffffffffff166108fc479081150290604051600060405180830381858888f19350505050158015620008ef573d6000803e3d6000fd5b507f2844c95bf1b4598da931d527f903501abc60fe0199c65da52d5ce818c6c5e9616040516200091f9062001655565b60405180910390a1565b6000600560009054906101000a900460ff16905090565b600260008373ffffffffffffffffffffffffffffffffffffffff1673ffffffffffffffffffffffffffffffffffffffff168152602001908152602001600020819080600181540180825580915050600190039060005260206000200160009091909190916101000a81548173ffffffffffffffffffffffffffffffffffffffff021916908373ffffffffffffffffffffffffffffffffffffffff1602179055505050565b60606003600083815260200190815260200160002080548060200260200160405190810160405280929190818152602001828054801562000a7b57602002820191906000526020600020905b8160009054906101000a900473ffffffffffffffffffffffffffffffffffffffff1673ffffffffffffffffffffffffffffffffffffffff168152602001906001019080831162000a30575b50505050509050919050565b6060600260008373ffffffffffffffffffffffffffffffffffffffff1673ffffffffffffffffffffffffffffffffffffffff16815260200190815260200160002080548060200260200160405190810160405280929190818152602001828054801562000b4a57602002820191906000526020600020905b8160009054906101000a900473ffffffffffffffffffffffffffffffffffffffff1673ffffffffffffffffffffffffffffffffffffffff168152602001906001019080831162000aff575b50505050509050919050565b600560009054906101000a900460ff1662000ba8576040517f08c379a000000000000000000000000000000000000000000000000000000000815260040162000b9f9062001387565b60405180910390fd5b33848484843060405162000bbc9062000f64565b62000bcd96959493929190620016d2565b604051809103906000f08015801562000bea573d6000803e3d6000fd5b506000806101000a81548173ffffffffffffffffffffffffffffffffffffffff021916908373ffffffffffffffffffffffffffffffffffffffff160217905550600260003373ffffffffffffffffffffffffffffffffffffffff1673ffffffffffffffffffffffffffffffffffffffff16815260200190815260200160002060008054906101000a900473ffffffffffffffffffffffffffffffffffffffff1673ffffffffffffffffffffffffffffffffffffffff166332a2c5d06040518163ffffffff1660e01b8152600401602060405180830381865afa15801562000cd5573d6000803e3d6000fd5b505050506040513d601f19601f8201168201806040525081019062000cfb9190620013c0565b9080600181540180825580915050600190039060005260206000200160009091909190916101000a81548173ffffffffffffffffffffffffffffffffffffffff021916908373ffffffffffffffffffffffffffffffffffffffff1602179055506003600085815260200190815260200160002060008054906101000a900473ffffffffffffffffffffffffffffffffffffffff1673ffffffffffffffffffffffffffffffffffffffff166332a2c5d06040518163ffffffff1660e01b8152600401602060405180830381865afa15801562000dda573d6000803e3d6000fd5b505050506040513d601f19601f8201168201806040525081019062000e009190620013c0565b9080600181540180825580915050600190039060005260206000200160009091909190916101000a81548173ffffffffffffffffffffffffffffffffffffffff021916908373ffffffffffffffffffffffffffffffffffffffff1602179055507f2844c95bf1b4598da931d527f903501abc60fe0199c65da52d5ce818c6c5e96160405162000e8f906200178f565b60405180910390a150505050565b600080600090505b835181101562000f20578273ffffffffffffffffffffffffffffffffffffffff1684828151811062000edc5762000edb62001564565b5b602002602001015173ffffffffffffffffffffffffffffffffffffffff160362000f0a578091505062000f5e565b808062000f1790620017e0565b91505062000ea5565b506040517f08c379a000000000000000000000000000000000000000000000000000000000815260040162000f55906200187d565b60405180910390fd5b92915050565b6121eb80620018a083390190565b600080fd5b600073ffffffffffffffffffffffffffffffffffffffff82169050919050565b600062000fa48262000f77565b9050919050565b62000fb68162000f97565b811462000fc257600080fd5b50565b60008135905062000fd68162000fab565b92915050565b60006020828403121562000ff55762000ff462000f72565b5b6000620010058482850162000fc5565b91505092915050565b6000819050919050565b600062001039620010336200102d8462000f77565b6200100e565b62000f77565b9050919050565b60006200104d8262001018565b9050919050565b6000620010618262001040565b9050919050565b620010738162001054565b82525050565b600060208201905062001090600083018462001068565b92915050565b60008115159050919050565b620010ad8162001096565b82525050565b6000602082019050620010ca6000830184620010a2565b92915050565b60008060408385031215620010ea57620010e962000f72565b5b6000620010fa8582860162000fc5565b92505060206200110d8582860162000fc5565b9150509250929050565b6000819050919050565b6200112c8162001117565b81146200113857600080fd5b50565b6000813590506200114c8162001121565b92915050565b6000602082840312156200116b576200116a62000f72565b5b60006200117b848285016200113b565b91505092915050565b600081519050919050565b600082825260208201905092915050565b6000819050602082019050919050565b620011bb8162000f97565b82525050565b6000620011cf8383620011b0565b60208301905092915050565b6000602082019050919050565b6000620011f58262001184565b6200120181856200118f565b93506200120e83620011a0565b8060005b8381101562001245578151620012298882620011c1565b97506200123683620011db565b92505060018101905062001212565b5085935050505092915050565b600060208201905081810360008301526200126e8184620011e8565b905092915050565b600060ff82169050919050565b6200128e8162001276565b81146200129a57600080fd5b50565b600081359050620012ae8162001283565b92915050565b60008060008060808587031215620012d157620012d062000f72565b5b6000620012e1878288016200113b565b9450506020620012f4878288016200129d565b935050604062001307878288016200113b565b92505060606200131a878288016200129d565b91505092959194509250565b600082825260208201905092915050565b7f536f7272792c20636f6e74726163742064697361626c65640000000000000000600082015250565b60006200136f60188362001326565b91506200137c8262001337565b602082019050919050565b60006020820190508181036000830152620013a28162001360565b9050919050565b600081519050620013ba8162000fab565b92915050565b600060208284031215620013d957620013d862000f72565b5b6000620013e984828501620013a9565b91505092915050565b7f4e6f206572657320656c2063726561646f72206465206573746120617075657360008201527f7461000000000000000000000000000000000000000000000000000000000000602082015250565b60006200145060228362001326565b91506200145d82620013f2565b604082019050919050565b60006020820190508181036000830152620014838162001441565b9050919050565b6000815190506200149b8162001121565b92915050565b600060208284031215620014ba57620014b962000f72565b5b6000620014ca848285016200148a565b91505092915050565b620014de8162000f97565b82525050565b6000602082019050620014fb6000830184620014d3565b92915050565b6200150c8162001096565b81146200151857600080fd5b50565b6000815190506200152c8162001501565b92915050565b6000602082840312156200154b576200154a62000f72565b5b60006200155b848285016200151b565b91505092915050565b7f4e487b7100000000000000000000000000000000000000000000000000000000600052603260045260246000fd5b7f596f75206d75737420626520746865206f726967696e616c204f574e45520000600082015250565b6000620015cb601e8362001326565b9150620015d88262001593565b602082019050919050565b60006020820190508181036000830152620015fe81620015bc565b9050919050565b7f456c20636f6e747261746f2073652068612070617261646f0000000000000000600082015250565b60006200163d60188362001326565b91506200164a8262001605565b602082019050919050565b6000602082019050818103600083015262001670816200162e565b9050919050565b620016828162001117565b82525050565b620016938162001276565b82525050565b6000620016ba620016b4620016ae8462001276565b6200100e565b62001117565b9050919050565b620016cc8162001699565b82525050565b600060c082019050620016e96000830189620014d3565b620016f8602083018862001677565b62001707604083018762001688565b62001716606083018662001677565b620017256080830185620016c1565b6200173460a0830184620014d3565b979650505050505050565b7f4265742063726561746564000000000000000000000000000000000000000000600082015250565b600062001777600b8362001326565b915062001784826200173f565b602082019050919050565b60006020820190508181036000830152620017aa8162001768565b9050919050565b7f4e487b7100000000000000000000000000000000000000000000000000000000600052601160045260246000fd5b6000620017ed8262001117565b91507fffffffffffffffffffffffffffffffffffffffffffffffffffffffffffffffff8203620018225762001821620017b1565b5b600182019050919050565b7f4e6f7420466f756e640000000000000000000000000000000000000000000000600082015250565b60006200186560098362001326565b915062001872826200182d565b602082019050919050565b60006020820190508181036000830152620018988162001856565b905091905056fe60806040523480156200001157600080fd5b50604051620021eb380380620021eb833981810160405281019062000037919062000505565b620000576200004b6200035660201b60201c565b6200035e60201b60201c565b85600360006101000a81548173ffffffffffffffffffffffffffffffffffffffff021916908373ffffffffffffffffffffffffffffffffffffffff1602179055508460028190555083600460146101000a81548160ff021916908360ff160217905550826005819055508160068190555080600760006101000a81548173ffffffffffffffffffffffffffffffffffffffff021916908373ffffffffffffffffffffffffffffffffffffffff1602179055506001600860146101000a81548160ff0219169083151502179055506000600860156101000a81548160ff02191690831515021790555085600160003073ffffffffffffffffffffffffffffffffffffffff1673ffffffffffffffffffffffffffffffffffffffff16815260200190815260200160002060000160006101000a81548173ffffffffffffffffffffffffffffffffffffffff021916908373ffffffffffffffffffffffffffffffffffffffff16021790555084600160003073ffffffffffffffffffffffffffffffffffffffff1673ffffffffffffffffffffffffffffffffffffffff1681526020019081526020016000206002018190555083600160003073ffffffffffffffffffffffffffffffffffffffff1673ffffffffffffffffffffffffffffffffffffffff16815260200190815260200160002060030160006101000a81548160ff021916908360ff16021790555082600160003073ffffffffffffffffffffffffffffffffffffffff1673ffffffffffffffffffffffffffffffffffffffff1681526020019081526020016000206004018190555081600160003073ffffffffffffffffffffffffffffffffffffffff1673ffffffffffffffffffffffffffffffffffffffff168152602001908152602001600020600501819055507f2844c95bf1b4598da931d527f903501abc60fe0199c65da52d5ce818c6c5e9618560405160200162000324919062000671565b6040516020818303038152906040526040516200034291906200074c565b60405180910390a150505050505062000770565b600033905090565b60008060009054906101000a900473ffffffffffffffffffffffffffffffffffffffff169050816000806101000a81548173ffffffffffffffffffffffffffffffffffffffff021916908373ffffffffffffffffffffffffffffffffffffffff1602179055508173ffffffffffffffffffffffffffffffffffffffff168173ffffffffffffffffffffffffffffffffffffffff167f8be0079c531659141344cd1fd0a4f28419497f9722a3daafe3b4186f6b6457e060405160405180910390a35050565b600080fd5b600073ffffffffffffffffffffffffffffffffffffffff82169050919050565b6000620004548262000427565b9050919050565b620004668162000447565b81146200047257600080fd5b50565b60008151905062000486816200045b565b92915050565b6000819050919050565b620004a1816200048c565b8114620004ad57600080fd5b50565b600081519050620004c18162000496565b92915050565b600060ff82169050919050565b620004df81620004c7565b8114620004eb57600080fd5b50565b600081519050620004ff81620004d4565b92915050565b60008060008060008060c0878903121562000525576200052462000422565b5b60006200053589828a0162000475565b96505060206200054889828a01620004b0565b95505060406200055b89828a01620004ee565b94505060606200056e89828a01620004b0565b93505060806200058189828a01620004b0565b92505060a06200059489828a0162000475565b9150509295509295509295565b600081905092915050565b7f5061727469646f20000000000000000000000000000000000000000000000000600082015250565b6000620005e4600883620005a1565b9150620005f182620005ac565b600882019050919050565b6000819050919050565b6200061b62000615826200048c565b620005fc565b82525050565b7f2063726561646f00000000000000000000000000000000000000000000000000600082015250565b600062000659600783620005a1565b9150620006668262000621565b600782019050919050565b60006200067e82620005d5565b91506200068c828462000606565b6020820191506200069d826200064a565b915081905092915050565b600081519050919050565b600082825260208201905092915050565b60005b83811015620006e4578082015181840152602081019050620006c7565b83811115620006f4576000848401525b50505050565b6000601f19601f8301169050919050565b60006200071882620006a8565b620007248185620006b3565b935062000736818560208601620006c4565b6200074181620006fa565b840191505092915050565b600060208201905081810360008301526200076881846200070b565b905092915050565b611a6b80620007806000396000f3fe6080604052600436106100a75760003560e01c80637cc1f867116100645780637cc1f8671461017e5780638da5cb5b146101a95780638fced626146101d4578063ad913633146101de578063e11eb98d14610209578063f2fde38b1461024b576100a7565b806306011b21146100ac578063153dc182146100dc5780632c70444e1461010757806330bfcb5f1461013257806332a2c5d01461013c578063715018a614610167575b600080fd5b6100c660048036038101906100c19190611114565b610274565b6040516100d3919061115c565b60405180910390f35b3480156100e857600080fd5b506100f1610491565b6040516100fe9190611190565b60405180910390f35b34801561011357600080fd5b5061011c61049b565b6040516101299190611190565b60405180910390f35b61013a6104a1565b005b34801561014857600080fd5b506101516108a5565b60405161015e91906111ba565b60405180910390f35b34801561017357600080fd5b5061017c610929565b005b34801561018a57600080fd5b506101936109b1565b6040516101a0919061128a565b60405180910390f35b3480156101b557600080fd5b506101be610aef565b6040516101cb91906111ba565b60405180910390f35b6101dc610b18565b005b3480156101ea57600080fd5b506101f3610dd6565b60405161020091906111ba565b60405180910390f35b34801561021557600080fd5b50610230600480360381019061022b9190611114565b610e00565b604051610242969594939291906112b4565b60405180910390f35b34801561025757600080fd5b50610272600480360381019061026d9190611114565b610e89565b005b600081600360009054906101000a900473ffffffffffffffffffffffffffffffffffffffff1673ffffffffffffffffffffffffffffffffffffffff168173ffffffffffffffffffffffffffffffffffffffff1614610307576040517f08c379a00000000000000000000000000000000000000000000000000000000081526004016102fe90611372565b60405180910390fd5b600860149054906101000a900460ff16610356576040517f08c379a000000000000000000000000000000000000000000000000000000000815260040161034d906113de565b60405180910390fd5b600860159054906101000a900460ff16156103a6576040517f08c379a000000000000000000000000000000000000000000000000000000000815260040161039d9061144a565b60405180910390fd5b600360009054906101000a900473ffffffffffffffffffffffffffffffffffffffff1673ffffffffffffffffffffffffffffffffffffffff166108fc479081150290604051600060405180830381858888f1935050505015801561040e573d6000803e3d6000fd5b506000600860146101000a81548160ff0219169083151502179055507f2844c95bf1b4598da931d527f903501abc60fe0199c65da52d5ce818c6c5e9616104536108a5565b6040516020016104639190611555565b60405160208183030381529060405260405161047f919061160e565b60405180910390a16001915050919050565b6000600254905090565b60025481565b600860149054906101000a900460ff166104f0576040517f08c379a00000000000000000000000000000000000000000000000000000000081526004016104e7906113de565b60405180910390fd5b600654341015610535576040517f08c379a000000000000000000000000000000000000000000000000000000000815260040161052c9061167c565b60405180910390fd5b60001515600860159054906101000a900460ff1615151461058b576040517f08c379a0000000000000000000000000000000000000000000000000000000008152600401610582906116e8565b60405180910390fd5b33600460006101000a81548173ffffffffffffffffffffffffffffffffffffffff021916908373ffffffffffffffffffffffffffffffffffffffff160217905550600460009054906101000a900473ffffffffffffffffffffffffffffffffffffffff1673ffffffffffffffffffffffffffffffffffffffff166108fc349081150290604051600060405180830381858888f19350505050158015610634573d6000803e3d6000fd5b50600460009054906101000a900473ffffffffffffffffffffffffffffffffffffffff16600160003073ffffffffffffffffffffffffffffffffffffffff1673ffffffffffffffffffffffffffffffffffffffff16815260200190815260200160002060010160006101000a81548173ffffffffffffffffffffffffffffffffffffffff021916908373ffffffffffffffffffffffffffffffffffffffff1602179055506001600860156101000a81548160ff021916908315150217905550600760009054906101000a900473ffffffffffffffffffffffffffffffffffffffff16600860006101000a81548173ffffffffffffffffffffffffffffffffffffffff021916908373ffffffffffffffffffffffffffffffffffffffff160217905550600860009054906101000a900473ffffffffffffffffffffffffffffffffffffffff1673ffffffffffffffffffffffffffffffffffffffff1663305fc68d600460009054906101000a900473ffffffffffffffffffffffffffffffffffffffff16306040518363ffffffff1660e01b81526004016107d5929190611767565b600060405180830381600087803b1580156107ef57600080fd5b505af1158015610803573d6000803e3d6000fd5b505050507f2844c95bf1b4598da931d527f903501abc60fe0199c65da52d5ce818c6c5e961600460009054906101000a900473ffffffffffffffffffffffffffffffffffffffff16600360009054906101000a900473ffffffffffffffffffffffffffffffffffffffff1660405160200161087f929190611817565b60405160208183030381529060405260405161089b919061160e565b60405180910390a1565b60006108af610f80565b73ffffffffffffffffffffffffffffffffffffffff166108cd610aef565b73ffffffffffffffffffffffffffffffffffffffff1614610923576040517f08c379a000000000000000000000000000000000000000000000000000000000815260040161091a9061189a565b60405180910390fd5b30905090565b610931610f80565b73ffffffffffffffffffffffffffffffffffffffff1661094f610aef565b73ffffffffffffffffffffffffffffffffffffffff16146109a5576040517f08c379a000000000000000000000000000000000000000000000000000000000815260040161099c9061189a565b60405180910390fd5b6109af6000610f88565b565b6109b961104c565b600160003073ffffffffffffffffffffffffffffffffffffffff1673ffffffffffffffffffffffffffffffffffffffff1681526020019081526020016000206040518060c00160405290816000820160009054906101000a900473ffffffffffffffffffffffffffffffffffffffff1673ffffffffffffffffffffffffffffffffffffffff1673ffffffffffffffffffffffffffffffffffffffff1681526020016001820160009054906101000a900473ffffffffffffffffffffffffffffffffffffffff1673ffffffffffffffffffffffffffffffffffffffff1673ffffffffffffffffffffffffffffffffffffffff168152602001600282015481526020016003820160009054906101000a900460ff1660ff1660ff16815260200160048201548152602001600582015481525050905090565b60008060009054906101000a900473ffffffffffffffffffffffffffffffffffffffff16905090565b33600360009054906101000a900473ffffffffffffffffffffffffffffffffffffffff1673ffffffffffffffffffffffffffffffffffffffff168173ffffffffffffffffffffffffffffffffffffffff161480610bc25750600460009054906101000a900473ffffffffffffffffffffffffffffffffffffffff1673ffffffffffffffffffffffffffffffffffffffff168173ffffffffffffffffffffffffffffffffffffffff16145b610c01576040517f08c379a0000000000000000000000000000000000000000000000000000000008152600401610bf890611906565b60405180910390fd5b600860149054906101000a900460ff16610c50576040517f08c379a0000000000000000000000000000000000000000000000000000000008152600401610c47906113de565b60405180910390fd5b600860159054906101000a900460ff16610c6957600080fd5b6001600460149054906101000a900460ff1660ff1603610cf157600360009054906101000a900473ffffffffffffffffffffffffffffffffffffffff1673ffffffffffffffffffffffffffffffffffffffff166108fc479081150290604051600060405180830381858888f19350505050158015610ceb573d6000803e3d6000fd5b50610d5b565b600460009054906101000a900473ffffffffffffffffffffffffffffffffffffffff1673ffffffffffffffffffffffffffffffffffffffff166108fc479081150290604051600060405180830381858888f19350505050158015610d59573d6000803e3d6000fd5b505b6000600860146101000a81548160ff0219169083151502179055507f2844c95bf1b4598da931d527f903501abc60fe0199c65da52d5ce818c6c5e961610d9f6108a5565b604051602001610daf9190611972565b604051602081830303815290604052604051610dcb919061160e565b60405180910390a150565b6000600360009054906101000a900473ffffffffffffffffffffffffffffffffffffffff16905090565b60016020528060005260406000206000915090508060000160009054906101000a900473ffffffffffffffffffffffffffffffffffffffff16908060010160009054906101000a900473ffffffffffffffffffffffffffffffffffffffff16908060020154908060030160009054906101000a900460ff16908060040154908060050154905086565b610e91610f80565b73ffffffffffffffffffffffffffffffffffffffff16610eaf610aef565b73ffffffffffffffffffffffffffffffffffffffff1614610f05576040517f08c379a0000000000000000000000000000000000000000000000000000000008152600401610efc9061189a565b60405180910390fd5b600073ffffffffffffffffffffffffffffffffffffffff168173ffffffffffffffffffffffffffffffffffffffff1603610f74576040517f08c379a0000000000000000000000000000000000000000000000000000000008152600401610f6b90611a15565b60405180910390fd5b610f7d81610f88565b50565b600033905090565b60008060009054906101000a900473ffffffffffffffffffffffffffffffffffffffff169050816000806101000a81548173ffffffffffffffffffffffffffffffffffffffff021916908373ffffffffffffffffffffffffffffffffffffffff1602179055508173ffffffffffffffffffffffffffffffffffffffff168173ffffffffffffffffffffffffffffffffffffffff167f8be0079c531659141344cd1fd0a4f28419497f9722a3daafe3b4186f6b6457e060405160405180910390a35050565b6040518060c00160405280600073ffffffffffffffffffffffffffffffffffffffff168152602001600073ffffffffffffffffffffffffffffffffffffffff16815260200160008152602001600060ff16815260200160008152602001600081525090565b600080fd5b600073ffffffffffffffffffffffffffffffffffffffff82169050919050565b60006110e1826110b6565b9050919050565b6110f1816110d6565b81146110fc57600080fd5b50565b60008135905061110e816110e8565b92915050565b60006020828403121561112a576111296110b1565b5b6000611138848285016110ff565b91505092915050565b60008115159050919050565b61115681611141565b82525050565b6000602082019050611171600083018461114d565b92915050565b6000819050919050565b61118a81611177565b82525050565b60006020820190506111a56000830184611181565b92915050565b6111b4816110d6565b82525050565b60006020820190506111cf60008301846111ab565b92915050565b6111de816110d6565b82525050565b6111ed81611177565b82525050565b600060ff82169050919050565b611209816111f3565b82525050565b60c08201600082015161122560008501826111d5565b50602082015161123860208501826111d5565b50604082015161124b60408501826111e4565b50606082015161125e6060850182611200565b50608082015161127160808501826111e4565b5060a082015161128460a08501826111e4565b50505050565b600060c08201905061129f600083018461120f565b92915050565b6112ae816111f3565b82525050565b600060c0820190506112c960008301896111ab565b6112d660208301886111ab565b6112e36040830187611181565b6112f060608301866112a5565b6112fd6080830185611181565b61130a60a0830184611181565b979650505050505050565b600082825260208201905092915050565b7f4e6f206572657320656c2063726561646f72206465206c612061707565737461600082015250565b600061135c602083611315565b915061136782611326565b602082019050919050565b6000602082019050818103600083015261138b8161134f565b9050919050565b7f457374612061707565737461206e6f2065737461206163746976610000000000600082015250565b60006113c8601b83611315565b91506113d382611392565b602082019050919050565b600060208201905081810360008301526113f7816113bb565b9050919050565b7f4c612061707565737461207961206861207369646f2061636570746164610000600082015250565b6000611434601e83611315565b915061143f826113fe565b602082019050919050565b6000602082019050818103600083015261146381611427565b9050919050565b600081905092915050565b7f4170756573746120000000000000000000000000000000000000000000000000600082015250565b60006114ab60088361146a565b91506114b682611475565b600882019050919050565b60008160601b9050919050565b60006114d9826114c1565b9050919050565b60006114eb826114ce565b9050919050565b6115036114fe826110d6565b6114e0565b82525050565b7f20656c696d696e61646100000000000000000000000000000000000000000000600082015250565b600061153f600a8361146a565b915061154a82611509565b600a82019050919050565b60006115608261149e565b915061156c82846114f2565b60148201915061157b82611532565b915081905092915050565b600081519050919050565b60005b838110156115af578082015181840152602081019050611594565b838111156115be576000848401525b50505050565b6000601f19601f8301169050919050565b60006115e082611586565b6115ea8185611315565b93506115fa818560208601611591565b611603816115c4565b840191505092915050565b6000602082019050818103600083015261162881846115d5565b905092915050565b7f4170756573746120696e737566696369656e7465000000000000000000000000600082015250565b6000611666601483611315565b915061167182611630565b602082019050919050565b6000602082019050818103600083015261169581611659565b9050919050565b7f4170756573746120796120616365707461646100000000000000000000000000600082015250565b60006116d2601383611315565b91506116dd8261169c565b602082019050919050565b60006020820190508181036000830152611701816116c5565b9050919050565b6000819050919050565b600061172d611728611723846110b6565b611708565b6110b6565b9050919050565b600061173f82611712565b9050919050565b600061175182611734565b9050919050565b61176181611746565b82525050565b600060408201905061177c6000830185611758565b61178960208301846111ab565b9392505050565b600061179b826110b6565b9050919050565b60006117ad826114ce565b9050919050565b6117c56117c082611790565b6117a2565b82525050565b7f20686120616365707461646f206c612061707565737461206465200000000000600082015250565b6000611801601b8361146a565b915061180c826117cb565b601b82019050919050565b600061182382856117b4565b601482019150611832826117f4565b915061183e82846117b4565b6014820191508190509392505050565b7f4f776e61626c653a2063616c6c6572206973206e6f7420746865206f776e6572600082015250565b6000611884602083611315565b915061188f8261184e565b602082019050919050565b600060208201905081810360008301526118b381611877565b9050919050565b7f4e6f207061727469636970617320656e20657374612061707565737461000000600082015250565b60006118f0601d83611315565b91506118fb826118ba565b602082019050919050565b6000602082019050818103600083015261191f816118e3565b9050919050565b7f2072657375656c74610000000000000000000000000000000000000000000000600082015250565b600061195c60098361146a565b915061196782611926565b600982019050919050565b600061197d8261149e565b915061198982846114f2565b6014820191506119988261194f565b915081905092915050565b7f4f776e61626c653a206e6577206f776e657220697320746865207a65726f206160008201527f6464726573730000000000000000000000000000000000000000000000000000602082015250565b60006119ff602683611315565b9150611a0a826119a3565b604082019050919050565b60006020820190508181036000830152611a2e816119f2565b905091905056fea264697066735822122012f9acb8c4a2ced6beb902cf9253fda8afbfde646243b8833ff48387785c742f64736f6c634300080e0033a264697066735822122064776350efdcfe4b0169cc105825897618c59903ec7e9af9cb66e73e258085ee64736f6c634300080e0033",
  "immutableReferences": {},
  "source": "/**\r\n *Submitted for verification at Etherscan.io on 2022-04-22\r\n */\r\n\r\n// Version de solidity del Smart Contract\r\n// SPDX-License-Identifier: UNLICENSED\r\n\r\npragma solidity 0.8.14;\r\nimport \"./Bet2Peer.sol\";\r\nimport \"../client/node_modules/@openzeppelin/contracts/access/Ownable.sol\";\r\n// Informacion del Smart Contract\r\n// Nombre: Creador de Apuestas\r\n// Logica: Implementa la creacin de contratos\r\n\r\n// Declaracion del Smart Contract - Auction\r\ncontract Father {\r\n\r\n    // ----------- Variables (datos) -----------\r\n    //Contrato hijo\r\n    Bet2Peer public bet;\r\n    //direccin del creador de la apuesta\r\n    address payable contractOwner;\r\n\r\n    //mapping de todos los contratos(apuestas) creados por un usuario \r\n    //      usuario     contrato\r\n    mapping(address =>  address[]) private contractsByUser;\r\n    //mapping de todos los contratos(apuestas) creados para un partido concreto\r\n    //      matchId    contrato\r\n    mapping(uint256 => address[]) private contractsByMatchId;\r\n    //mapping de todos los contratos(apuestas) creados por un usuario con su contractId y MatchId\r\n    //      usuario            matchId    contrato\r\n    mapping(address => mapping(uint256 => address[])) private contractsByMatchIdAndUser;\r\n    \r\n    //Estado del contrato\r\n    bool activeContract;\r\n\r\n    // ----------- Events -----------\r\n    event Status(string _message);\r\n\r\n    // ------------Modifiers ----------\r\n    modifier contractActive() {\r\n        require(activeContract, \"Sorry, contract disabled\");\r\n        _;\r\n    }\r\n\r\n    // ----------- Constructor -----------\r\n    // Uso: Inicializa el Smart Contract - Father\r\n    constructor() {\r\n        contractOwner = payable(msg.sender);\r\n        activeContract = true;\r\n    }\r\n\r\n    // -------------------Functions ------------------\r\n    /**\r\n    Funcion\r\n    Funcin lanzada para cear una nueva apuesta\r\n    _matchId: id del partido de la apuesta\r\n    _result: resultado al que se apuesta\r\n    _originalBet: cantidad apostada\r\n    _minimumCounterBet: cantidad a percibir en caso de ganar\r\n     */\r\n    function createBet(uint256 _matchId, uint8 _result, uint256 _originalBet, uint8 _minimumCounterBet) public payable \r\n        contractActive\r\n    {\r\n        //Creo un nuevo contrato hijo para la apuesta\r\n        bet = new Bet2Peer(msg.sender, _matchId, _result, _originalBet, _minimumCounterBet, address(this));\r\n        //Aado la direccin del contrato a los mapas del usuario y del partido\r\n        contractsByUser[msg.sender].push(bet.getContractAddress());\r\n        contractsByMatchId[_matchId].push(bet.getContractAddress());\r\n        emit Status(\"Bet created\");\r\n    }\r\n\r\n    /**\r\n    Funcin para eliminar una apuesta\r\n    _contracto: direccin de la apuesta que se quiere eliminar\r\n    _matchId: id del partido de la apuesta\r\n     */\r\n    function removeBet(address _contract) public\r\n        contractActive\r\n    {\r\n        //Asigno a la variable bet el contrato hijo en cuestin\r\n        bet = Bet2Peer(_contract);\r\n        require(bet.getOriginalOwner() == msg.sender, \"No eres el creador de esta apuesta\");\r\n        //busco el index del contrato en los arrays del usurio y partido\r\n        uint256 _index = indexOf(contractsByUser[msg.sender], _contract);\r\n        uint256 _index2 = indexOf(contractsByMatchId[bet.getMatchId()], _contract);\r\n        //si el contrato se desactiva correctamente elimino el address de los arrays\r\n        if(bet.removeBet(msg.sender)){\r\n            delete contractsByUser[msg.sender][_index];\r\n            delete contractsByMatchId[bet.getMatchId()][_index2];\r\n        }\r\n    }\r\n\r\n    function addBetToCounterGambler(address counterGambler, address _sonContract) public payable{\r\n        contractsByUser[counterGambler].push(_sonContract);\r\n    }\r\n\r\n    /**\r\n    Funcin que devuelve todos los contratos(apuestas) creadas por un usuario\r\n    _user: direccin del usuario del que se muestran las apuestas\r\n     */\r\n    function getAllBetsByUser(address _user) public view returns (address[] memory){\r\n        return contractsByUser[_user];\r\n    }\r\n\r\n    /**\r\n    Funcin que devuelve todos los contratos(apuetas) creadas para un partido concreto\r\n    _matchId: id del partido del que se muestran las apuestas\r\n     */\r\n    function getAllBetsByMatchId(uint256 _matchId) public view returns (address[] memory){\r\n        return contractsByMatchId[_matchId];\r\n    }\r\n\r\n    /**\r\n    Funcin que devuelve si el contrato est activo o no\r\n     */\r\n    function isActive() public view returns (bool){\r\n        return (activeContract);\r\n    }\r\n\r\n    /**\r\n    Funcin que devuelve la posicin de un elemento de un array\r\n    _arr: array en el que se busca el elemento\r\n    _searchFor: elemento que se busca\r\n     */\r\n    function indexOf(address[] memory _arr, address _searchFor) private pure returns (uint256) {\r\n    for (uint256 i = 0; i < _arr.length; i++) {\r\n      if (_arr[i] == _searchFor) {\r\n        return i;\r\n      }\r\n    }\r\n    revert(\"Not Found\");\r\n  }\r\n\r\n\r\n////////////////////////////Panic Functions////////////////////////\r\n    // Funcion\r\n    // Nombre: stopContract\r\n    // Uso: pausa el contrato y saca todos los fondos en caso de emergencia\r\n    function stopContract() public {\r\n        require(msg.sender == contractOwner, \"You must be the original OWNER\");\r\n        // Finaliza la subasta\r\n        activeContract = false;\r\n        // Devuelve el dinero al maximo postor\r\n        contractOwner.transfer(address(this).balance);\r\n        \r\n        // Se emite un evento\r\n        emit Status(\"El contrato se ha parado\");\r\n    }\r\n}\r\n",
  "sourcePath": "C:\\Desarrollo\\Master Blokchain\\bet2peer\\contracts\\Father.sol",
  "compiler": {
    "name": "solc",
    "version": "0.8.14+commit.80d49f37.Emscripten.clang"
  },
  "schemaVersion": "3.4.7",
  "updatedAt": "2022-06-24T15:33:32.237Z",
  "networkType": "ethereum",
  "devdoc": {
    "kind": "dev",
    "methods": {},
    "version": 1
  },
  "userdoc": {
    "kind": "user",
    "methods": {
      "createBet(uint256,uint8,uint256,uint8)": {
        "notice": "Funcion Funcin lanzada para cear una nueva apuesta _matchId: id del partido de la apuesta _result: resultado al que se apuesta _originalBet: cantidad apostada _minimumCounterBet: cantidad a percibir en caso de ganar"
      },
      "getAllBetsByMatchId(uint256)": {
        "notice": "Funcin que devuelve todos los contratos(apuetas) creadas para un partido concreto _matchId: id del partido del que se muestran las apuestas"
      },
      "getAllBetsByUser(address)": {
        "notice": "Funcin que devuelve todos los contratos(apuestas) creadas por un usuario _user: direccin del usuario del que se muestran las apuestas"
      },
      "isActive()": {
        "notice": "Funcin que devuelve si el contrato est activo o no"
      },
      "removeBet(address)": {
        "notice": "Funcin para eliminar una apuesta _contracto: direccin de la apuesta que se quiere eliminar _matchId: id del partido de la apuesta"
      }
    },
    "version": 1
  }
}