{
  "contractName": "Proxy",
  "abi": [
    {
      "inputs": [],
      "stateMutability": "nonpayable",
      "type": "constructor"
    },
    {
      "anonymous": false,
      "inputs": [
        {
          "indexed": true,
          "internalType": "address",
          "name": "previousOwner",
          "type": "address"
        },
        {
          "indexed": true,
          "internalType": "address",
          "name": "newOwner",
          "type": "address"
        }
      ],
      "name": "OwnershipTransferred",
      "type": "event"
    },
    {
      "anonymous": false,
      "inputs": [
        {
          "indexed": false,
          "internalType": "string",
          "name": "_message",
          "type": "string"
        }
      ],
      "name": "Status",
      "type": "event"
    },
    {
      "inputs": [],
      "name": "businesslogic",
      "outputs": [
        {
          "internalType": "contract IFather",
          "name": "",
          "type": "address"
        }
      ],
      "stateMutability": "view",
      "type": "function",
      "constant": true
    },
    {
      "inputs": [],
      "name": "owner",
      "outputs": [
        {
          "internalType": "address",
          "name": "",
          "type": "address"
        }
      ],
      "stateMutability": "view",
      "type": "function",
      "constant": true
    },
    {
      "inputs": [],
      "name": "renounceOwnership",
      "outputs": [],
      "stateMutability": "nonpayable",
      "type": "function"
    },
    {
      "inputs": [
        {
          "internalType": "address",
          "name": "newOwner",
          "type": "address"
        }
      ],
      "name": "transferOwnership",
      "outputs": [],
      "stateMutability": "nonpayable",
      "type": "function"
    },
    {
      "inputs": [
        {
          "internalType": "address",
          "name": "_businesslogic",
          "type": "address"
        }
      ],
      "name": "setFather",
      "outputs": [],
      "stateMutability": "nonpayable",
      "type": "function"
    },
    {
      "inputs": [
        {
          "internalType": "uint256",
          "name": "_matchId",
          "type": "uint256"
        },
        {
          "internalType": "uint8",
          "name": "_result",
          "type": "uint8"
        },
        {
          "internalType": "uint256",
          "name": "_originalBet",
          "type": "uint256"
        },
        {
          "internalType": "uint256",
          "name": "_minimumCounterBet",
          "type": "uint256"
        }
      ],
      "name": "createBet",
      "outputs": [],
      "stateMutability": "payable",
      "type": "function",
      "payable": true
    },
    {
      "inputs": [
        {
          "internalType": "address payable",
          "name": "_contract",
          "type": "address"
        }
      ],
      "name": "removeBet",
      "outputs": [],
      "stateMutability": "nonpayable",
      "type": "function"
    },
    {
      "inputs": [
        {
          "internalType": "address payable",
          "name": "_contract",
          "type": "address"
        }
      ],
      "name": "resolveBet",
      "outputs": [],
      "stateMutability": "nonpayable",
      "type": "function"
    },
    {
      "inputs": [
        {
          "internalType": "address",
          "name": "_user",
          "type": "address"
        }
      ],
      "name": "getAllBetsByUser",
      "outputs": [
        {
          "internalType": "address[]",
          "name": "",
          "type": "address[]"
        }
      ],
      "stateMutability": "view",
      "type": "function",
      "constant": true
    },
    {
      "inputs": [
        {
          "internalType": "uint256",
          "name": "_matchId",
          "type": "uint256"
        }
      ],
      "name": "getAllBetsByMatchId",
      "outputs": [
        {
          "internalType": "address[]",
          "name": "",
          "type": "address[]"
        }
      ],
      "stateMutability": "view",
      "type": "function",
      "constant": true
    },
    {
      "inputs": [
        {
          "internalType": "address",
          "name": "counterGambler",
          "type": "address"
        },
        {
          "internalType": "address",
          "name": "_sonContract",
          "type": "address"
        }
      ],
      "name": "addBetToCounterGambler",
      "outputs": [],
      "stateMutability": "payable",
      "type": "function",
      "payable": true
    },
    {
      "inputs": [],
      "name": "getVersionFather",
      "outputs": [
        {
          "internalType": "string",
          "name": "",
          "type": "string"
        }
      ],
      "stateMutability": "view",
      "type": "function",
      "constant": true
    }
  ],
  "bytecode": "0x608060405234801561001057600080fd5b5061002d61002261003260201b60201c565b61003a60201b60201c565b6100fe565b600033905090565b60008060009054906101000a900473ffffffffffffffffffffffffffffffffffffffff169050816000806101000a81548173ffffffffffffffffffffffffffffffffffffffff021916908373ffffffffffffffffffffffffffffffffffffffff1602179055508173ffffffffffffffffffffffffffffffffffffffff168173ffffffffffffffffffffffffffffffffffffffff167f8be0079c531659141344cd1fd0a4f28419497f9722a3daafe3b4186f6b6457e060405160405180910390a35050565b6113998061010d6000396000f3fe6080604052600436106100a75760003560e01c8063715018a611610064578063715018a61461019e5780638da5cb5b146101b5578063950cef1a146101e0578063c407f09b1461020b578063d0b8a36114610248578063f2fde38b14610271576100a7565b806306011b21146100ac5780630bfbd26c146100d557806319c69103146100fe578063305fc68d1461012957806339c7312b1461014557806356a6e68f14610161575b600080fd5b3480156100b857600080fd5b506100d360048036038101906100ce9190610ae5565b61029a565b005b3480156100e157600080fd5b506100fc60048036038101906100f79190610b50565b61032a565b005b34801561010a57600080fd5b5061011361042b565b6040516101209190610bdc565b60405180910390f35b610143600480360381019061013e9190610bf7565b610451565b005b61015f600480360381019061015a9190610ca6565b6104e4565b005b34801561016d57600080fd5b5061018860048036038101906101839190610d0d565b61057e565b6040516101959190610df8565b60405180910390f35b3480156101aa57600080fd5b506101b3610628565b005b3480156101c157600080fd5b506101ca6106b0565b6040516101d79190610e29565b60405180910390f35b3480156101ec57600080fd5b506101f56106d9565b6040516102029190610edd565b60405180910390f35b34801561021757600080fd5b50610232600480360381019061022d9190610b50565b610776565b60405161023f9190610df8565b60405180910390f35b34801561025457600080fd5b5061026f600480360381019061026a9190610ae5565b610820565b005b34801561027d57600080fd5b5061029860048036038101906102939190610b50565b6108b0565b005b600160009054906101000a900473ffffffffffffffffffffffffffffffffffffffff1673ffffffffffffffffffffffffffffffffffffffff166306011b21826040518263ffffffff1660e01b81526004016102f59190610f0e565b600060405180830381600087803b15801561030f57600080fd5b505af1158015610323573d6000803e3d6000fd5b5050505050565b6103326109a7565b73ffffffffffffffffffffffffffffffffffffffff166103506106b0565b73ffffffffffffffffffffffffffffffffffffffff16146103a6576040517f08c379a000000000000000000000000000000000000000000000000000000000815260040161039d90610f75565b60405180910390fd5b80600160006101000a81548173ffffffffffffffffffffffffffffffffffffffff021916908373ffffffffffffffffffffffffffffffffffffffff16021790555080600260006101000a81548173ffffffffffffffffffffffffffffffffffffffff021916908373ffffffffffffffffffffffffffffffffffffffff16021790555050565b600160009054906101000a900473ffffffffffffffffffffffffffffffffffffffff1681565b600160009054906101000a900473ffffffffffffffffffffffffffffffffffffffff1673ffffffffffffffffffffffffffffffffffffffff1663305fc68d83836040518363ffffffff1660e01b81526004016104ae929190610f95565b600060405180830381600087803b1580156104c857600080fd5b505af11580156104dc573d6000803e3d6000fd5b505050505050565b600160009054906101000a900473ffffffffffffffffffffffffffffffffffffffff1673ffffffffffffffffffffffffffffffffffffffff166339c7312b34868686866040518663ffffffff1660e01b81526004016105469493929190610fdc565b6000604051808303818588803b15801561055f57600080fd5b505af1158015610573573d6000803e3d6000fd5b505050505050505050565b6060600160009054906101000a900473ffffffffffffffffffffffffffffffffffffffff1673ffffffffffffffffffffffffffffffffffffffff166356a6e68f836040518263ffffffff1660e01b81526004016105db9190611021565b600060405180830381865afa1580156105f8573d6000803e3d6000fd5b505050506040513d6000823e3d601f19601f820116820180604052508101906106219190611199565b9050919050565b6106306109a7565b73ffffffffffffffffffffffffffffffffffffffff1661064e6106b0565b73ffffffffffffffffffffffffffffffffffffffff16146106a4576040517f08c379a000000000000000000000000000000000000000000000000000000000815260040161069b90610f75565b60405180910390fd5b6106ae60006109af565b565b60008060009054906101000a900473ffffffffffffffffffffffffffffffffffffffff16905090565b6060600160009054906101000a900473ffffffffffffffffffffffffffffffffffffffff1673ffffffffffffffffffffffffffffffffffffffff166354fd4d506040518163ffffffff1660e01b8152600401600060405180830381865afa158015610748573d6000803e3d6000fd5b505050506040513d6000823e3d601f19601f820116820180604052508101906107719190611288565b905090565b6060600160009054906101000a900473ffffffffffffffffffffffffffffffffffffffff1673ffffffffffffffffffffffffffffffffffffffff1663c407f09b836040518263ffffffff1660e01b81526004016107d39190610e29565b600060405180830381865afa1580156107f0573d6000803e3d6000fd5b505050506040513d6000823e3d601f19601f820116820180604052508101906108199190611199565b9050919050565b600160009054906101000a900473ffffffffffffffffffffffffffffffffffffffff1673ffffffffffffffffffffffffffffffffffffffff1663d0b8a361826040518263ffffffff1660e01b815260040161087b9190610f0e565b600060405180830381600087803b15801561089557600080fd5b505af11580156108a9573d6000803e3d6000fd5b5050505050565b6108b86109a7565b73ffffffffffffffffffffffffffffffffffffffff166108d66106b0565b73ffffffffffffffffffffffffffffffffffffffff161461092c576040517f08c379a000000000000000000000000000000000000000000000000000000000815260040161092390610f75565b60405180910390fd5b600073ffffffffffffffffffffffffffffffffffffffff168173ffffffffffffffffffffffffffffffffffffffff160361099b576040517f08c379a000000000000000000000000000000000000000000000000000000000815260040161099290611343565b60405180910390fd5b6109a4816109af565b50565b600033905090565b60008060009054906101000a900473ffffffffffffffffffffffffffffffffffffffff169050816000806101000a81548173ffffffffffffffffffffffffffffffffffffffff021916908373ffffffffffffffffffffffffffffffffffffffff1602179055508173ffffffffffffffffffffffffffffffffffffffff168173ffffffffffffffffffffffffffffffffffffffff167f8be0079c531659141344cd1fd0a4f28419497f9722a3daafe3b4186f6b6457e060405160405180910390a35050565b6000604051905090565b600080fd5b600080fd5b600073ffffffffffffffffffffffffffffffffffffffff82169050919050565b6000610ab282610a87565b9050919050565b610ac281610aa7565b8114610acd57600080fd5b50565b600081359050610adf81610ab9565b92915050565b600060208284031215610afb57610afa610a7d565b5b6000610b0984828501610ad0565b91505092915050565b6000610b1d82610a87565b9050919050565b610b2d81610b12565b8114610b3857600080fd5b50565b600081359050610b4a81610b24565b92915050565b600060208284031215610b6657610b65610a7d565b5b6000610b7484828501610b3b565b91505092915050565b6000819050919050565b6000610ba2610b9d610b9884610a87565b610b7d565b610a87565b9050919050565b6000610bb482610b87565b9050919050565b6000610bc682610ba9565b9050919050565b610bd681610bbb565b82525050565b6000602082019050610bf16000830184610bcd565b92915050565b60008060408385031215610c0e57610c0d610a7d565b5b6000610c1c85828601610b3b565b9250506020610c2d85828601610b3b565b9150509250929050565b6000819050919050565b610c4a81610c37565b8114610c5557600080fd5b50565b600081359050610c6781610c41565b92915050565b600060ff82169050919050565b610c8381610c6d565b8114610c8e57600080fd5b50565b600081359050610ca081610c7a565b92915050565b60008060008060808587031215610cc057610cbf610a7d565b5b6000610cce87828801610c58565b9450506020610cdf87828801610c91565b9350506040610cf087828801610c58565b9250506060610d0187828801610c58565b91505092959194509250565b600060208284031215610d2357610d22610a7d565b5b6000610d3184828501610c58565b91505092915050565b600081519050919050565b600082825260208201905092915050565b6000819050602082019050919050565b610d6f81610b12565b82525050565b6000610d818383610d66565b60208301905092915050565b6000602082019050919050565b6000610da582610d3a565b610daf8185610d45565b9350610dba83610d56565b8060005b83811015610deb578151610dd28882610d75565b9750610ddd83610d8d565b925050600181019050610dbe565b5085935050505092915050565b60006020820190508181036000830152610e128184610d9a565b905092915050565b610e2381610b12565b82525050565b6000602082019050610e3e6000830184610e1a565b92915050565b600081519050919050565b600082825260208201905092915050565b60005b83811015610e7e578082015181840152602081019050610e63565b83811115610e8d576000848401525b50505050565b6000601f19601f8301169050919050565b6000610eaf82610e44565b610eb98185610e4f565b9350610ec9818560208601610e60565b610ed281610e93565b840191505092915050565b60006020820190508181036000830152610ef78184610ea4565b905092915050565b610f0881610aa7565b82525050565b6000602082019050610f236000830184610eff565b92915050565b7f4f776e61626c653a2063616c6c6572206973206e6f7420746865206f776e6572600082015250565b6000610f5f602083610e4f565b9150610f6a82610f29565b602082019050919050565b60006020820190508181036000830152610f8e81610f52565b9050919050565b6000604082019050610faa6000830185610e1a565b610fb76020830184610e1a565b9392505050565b610fc781610c37565b82525050565b610fd681610c6d565b82525050565b6000608082019050610ff16000830187610fbe565b610ffe6020830186610fcd565b61100b6040830185610fbe565b6110186060830184610fbe565b95945050505050565b60006020820190506110366000830184610fbe565b92915050565b600080fd5b7f4e487b7100000000000000000000000000000000000000000000000000000000600052604160045260246000fd5b61107982610e93565b810181811067ffffffffffffffff8211171561109857611097611041565b5b80604052505050565b60006110ab610a73565b90506110b78282611070565b919050565b600067ffffffffffffffff8211156110d7576110d6611041565b5b602082029050602081019050919050565b600080fd5b6000815190506110fc81610b24565b92915050565b6000611115611110846110bc565b6110a1565b90508083825260208201905060208402830185811115611138576111376110e8565b5b835b81811015611161578061114d88826110ed565b84526020840193505060208101905061113a565b5050509392505050565b600082601f8301126111805761117f61103c565b5b8151611190848260208601611102565b91505092915050565b6000602082840312156111af576111ae610a7d565b5b600082015167ffffffffffffffff8111156111cd576111cc610a82565b5b6111d98482850161116b565b91505092915050565b600080fd5b600067ffffffffffffffff82111561120257611201611041565b5b61120b82610e93565b9050602081019050919050565b600061122b611226846111e7565b6110a1565b905082815260208101848484011115611247576112466111e2565b5b611252848285610e60565b509392505050565b600082601f83011261126f5761126e61103c565b5b815161127f848260208601611218565b91505092915050565b60006020828403121561129e5761129d610a7d565b5b600082015167ffffffffffffffff8111156112bc576112bb610a82565b5b6112c88482850161125a565b91505092915050565b7f4f776e61626c653a206e6577206f776e657220697320746865207a65726f206160008201527f6464726573730000000000000000000000000000000000000000000000000000602082015250565b600061132d602683610e4f565b9150611338826112d1565b604082019050919050565b6000602082019050818103600083015261135c81611320565b905091905056fea2646970667358221220b9cbfcbd742a89e351bc9469cbf35d481bc74ff8445197e93ece50e4f66dd83564736f6c634300080e0033",
  "immutableReferences": {},
  "source": "/**\r\n *Submitted for verification at Etherscan.io on 2022-04-22\r\n */\r\n\r\n// Version de solidity del Smart Contract\r\n// SPDX-License-Identifier: UNLICENSED\r\npragma solidity 0.8.14;\r\nimport \"../client/node_modules/@openzeppelin/contracts/access/Ownable.sol\";\r\nimport \"./IFather.sol\";\r\n\r\n//defined interface needed to interact with other contract\r\n\r\n// Informacion del Smart Contract\r\n// Nombre: Creador de Apuestas\r\n// Logica: Implementa la creacin de contratos\r\n\r\n// Declaracion del Smart Contract - Auction\r\ncontract Proxy is Ownable {\r\n\r\n    // ----------- Events -----------\r\n    event Status(string _message);\r\n\r\n    //interface contract address\r\n    IFather public businesslogic;\r\n    address businessLogicAddress;\r\n\r\n    // ----------- Constructor -----------\r\n    // Uso: Inicializa el Smart Contract - Father\r\n    constructor() {}\r\n\r\n    // Uso: indica la direccin del contrato que implementa el BL de la interface IFather\r\n    function setFather(address _businesslogic) external onlyOwner{\r\n        businesslogic = IFather(_businesslogic);\r\n        businessLogicAddress = _businesslogic;\r\n    }\r\n\r\n    // -------------------Functions ------------------\r\n    /**\r\n    Funcion\r\n    Funcin lanzada para cear una nueva apuesta\r\n    _matchId: id del partido de la apuesta\r\n    _result: resultado al que se apuesta\r\n    _originalBet: cantidad apostada\r\n    _minimumCounterBet: cantidad a percibir en caso de ganar\r\n     */\r\n    function createBet(uint256 _matchId, uint8 _result, uint256 _originalBet, uint256 _minimumCounterBet) external payable\r\n    {\r\n        businesslogic.createBet{value: msg.value}(_matchId, _result, _originalBet, _minimumCounterBet);\r\n    }\r\n\r\n    /**\r\n    Funcin para eliminar una apuesta\r\n    _contracto: direccin de la apuesta que se quiere eliminar\r\n    _matchId: id del partido de la apuesta\r\n     */\r\n    function removeBet(address payable _contract) external \r\n    {\r\n        businesslogic.removeBet(_contract);\r\n    }\r\n\r\n    function resolveBet(address payable _contract) external \r\n    {\r\n        businesslogic.resolveBet(_contract);\r\n    }\r\n\r\n    /**\r\n    Funcin que devuelve todos los contratos(apuestas) creadas por un usuario\r\n    _user: direccin del usuario del que se muestran las apuestas\r\n     */\r\n    function getAllBetsByUser(address _user) external view returns (address[] memory){\r\n        return businesslogic.getAllBetsByUser(_user);\r\n    }\r\n\r\n    /**\r\n    Funcin que devuelve todos los contratos(apuetas) creadas para un partido concreto\r\n    _matchId: id del partido del que se muestran las apuestas\r\n     */\r\n    function getAllBetsByMatchId(uint256 _matchId) external view returns (address[] memory){\r\n        return businesslogic.getAllBetsByMatchId(_matchId);\r\n    }\r\n\r\n    function addBetToCounterGambler(address counterGambler, address _sonContract) external payable{\r\n        businesslogic.addBetToCounterGambler(counterGambler, _sonContract);\r\n    }\r\n\r\n    function getVersionFather() external view returns (string memory){\r\n        return businesslogic.version();\r\n    }\r\n}",
  "sourcePath": "C:\\Desarrollo\\Master Blokchain\\bet2peer\\contracts\\Proxy.sol",
  "compiler": {
    "name": "solc",
    "version": "0.8.14+commit.80d49f37.Emscripten.clang"
  },
  "schemaVersion": "3.4.7",
  "updatedAt": "2022-07-07T15:27:30.524Z",
  "networkType": "ethereum",
  "devdoc": {
    "kind": "dev",
    "methods": {
      "owner()": {
        "details": "Returns the address of the current owner."
      },
      "renounceOwnership()": {
        "details": "Leaves the contract without owner. It will not be possible to call `onlyOwner` functions anymore. Can only be called by the current owner. NOTE: Renouncing ownership will leave the contract without an owner, thereby removing any functionality that is only available to the owner."
      },
      "transferOwnership(address)": {
        "details": "Transfers ownership of the contract to a new account (`newOwner`). Can only be called by the current owner."
      }
    },
    "version": 1
  },
  "userdoc": {
    "kind": "user",
    "methods": {
      "createBet(uint256,uint8,uint256,uint256)": {
        "notice": "Funcion Funcin lanzada para cear una nueva apuesta _matchId: id del partido de la apuesta _result: resultado al que se apuesta _originalBet: cantidad apostada _minimumCounterBet: cantidad a percibir en caso de ganar"
      },
      "getAllBetsByMatchId(uint256)": {
        "notice": "Funcin que devuelve todos los contratos(apuetas) creadas para un partido concreto _matchId: id del partido del que se muestran las apuestas"
      },
      "getAllBetsByUser(address)": {
        "notice": "Funcin que devuelve todos los contratos(apuestas) creadas por un usuario _user: direccin del usuario del que se muestran las apuestas"
      },
      "removeBet(address)": {
        "notice": "Funcin para eliminar una apuesta _contracto: direccin de la apuesta que se quiere eliminar _matchId: id del partido de la apuesta"
      }
    },
    "version": 1
  }
}